:020000022000DC
:1060000000F00020C5EB0300EDEB0300EFEB030015
:10601000F1EB0300F3EB0300F5EB030000000000DD
:10602000000000000000000000000000F7EB03008B
:1060300099AC020000000000FBEB0300FDEB030045
:10604000FFEB0300FFEB0300FFEB030065F0030031
:10605000C1F50300FFEB0300AD56030091FB030005
:10606000FFEB0300FFEB03009D5A0300FFEB03006F
:10607000CDFD0300FFEB0300FFEB0300FFEB03008C
:10608000FD570300FD430300FFEB03007101040013
:10609000FFEB0300FFEB0300294A0300FFEB0300C3
:1060A000FFEB0300FFEB0300FFEB0300FFEB03003C
:1060B00005010400FFEB03000000000000000000E9
:1060C000FFEB030015010400FFEB0300B95D0300C3
:1060D000FFEB030019050400FFEB030000000000C4
:1060E00000000000000000000000000000000000B0
:1060F00000000000000000000000000000000000A0
:10610000000000000000000000000000000000008F
:10611000000000000000000000000000000000007F
:10612000000000000000000000000000000000006F
:10613000000000000000000000000000000000005F
:10614000000000000000000000000000000000004F
:10615000000000000000000000000000000000003F
:10616000000000000000000000000000000000002F
:10617000000000000000000000000000000000001F
:10618000000000000000000000000000000000000F
:1061900000000000000000000000000000000000FF
:1061A00000000000000000000000000000000000EF
:1061B00000000000000000000000000000000000DF
:1061C00000000000000000000000000000000000CF
:1061D00000000000000000000000000000000000BF
:1061E00000000000000000000000000000000000AF
:1061F000000000000000000000000000000000009F
:1062000010B5054C237833B9044B13B10448AFF3F0
:1062100000800123237010BD6040002000000000BA
:10622000C871040008B5034B1BB103490348AFF321
:10623000008008BD0000000064400020C871040018
:10624000A3F5803A704700BF174B002B08BF134BD4
:106250009D46FFF7F5FF00218B460F461348144A71
:10626000121A1AF011FC0E4B002B00D098470D4B60
:10627000002B00D098470020002104000D000D489D
:10628000002802D00C48AFF300801AF0A3FB2000D6
:10629000290000F063FB1AF089FB00BF0000080032
:1062A000000000000000000000F00020604000201E
:1062B000706300200000000000000000064B002278
:1062C00033F83210814202D103EBC2007047013231
:1062D000042AF5D100207047B040002038B50D46A3
:1062E000FFF7ECFF044678B143680BB128469847A6
:1062F000A17849B10139C9B2A17029B92046082253
:10630000BDE838401AF0C0BB38BD000038B503788E
:10631000044673B9456855B12148224B2249C01A39
:10632000C00800042A4640F001000DF007F91F4B99
:106330001D60A5892846FFF7C1FF80B32378042B91
:1063400018D8022B1ED8013B012B1BD9184B1A78E9
:106350002AB31849002031F83020C2B1114B10483F
:106360001549C01AC0080004BDE8384040F00300D9
:106370000DF0E0B8052BE9D1302200210F481AF0CA
:1063800083FBE3E761682846FFF7A8FFDEE70130FB
:106390000428E0D11A70BDE838400DF05FBB38BD6D
:1063A000DC7304007C7204008C1E0400283300207F
:1063B000AC400020B0400020A71E04007C4000201C
:1063C000114A08B5002332F8331071B10F4B104851
:1063D0001049C01AC008000440F003000DF0AAF8EC
:1063E0000D4B01221A70002008BD0133042BEAD1A5
:1063F000064B07480949C01AC008000440F00300D2
:106400000DF098F80120EFE7B04000207C72040006
:10641000DC730400A71E0400AC400020C91E040069
:1064200038B51148114C0CF04FF8054660B1104BCF
:10643000104811491B1ADB081B042A4643F00100CF
:106440000DF07CF8256038BD0CF054F8054638B1E5
:10645000074B084809491B1ADB081B042A46EDE7CD
:106460002368082BEFD1FEE70D63020028330020DC
:10647000DC7304007C720400F31E0400091F040096
:106480002DE9F0411B4C16462268082A88B00746C1
:1064900088461D4601D1FFF7C3FF206810BB7C1E54
:1064A0004BF6FE72A4B294421FD808F1FF339BB2A0
:1064B00093421AD8DEB1D5B1CDE9010001AB05AAEE
:1064C000414638460CF0D2F960B903A905A80CF092
:1064D00029F938B9049B3360039B5B882B8005A89E
:1064E0000CF046F908B0BDE8F0810720FAE70E206D
:1064F000F8E700BF283300202DE9F041404E9846D0
:106500003368082B88B004460F46154601D1FFF7C3
:1065100087FF3668002E65D1601E4BF6FE7280B292
:10652000904261D87B1E9BB293425DD8002D5DD016
:106530002046CDE90358ADF80840ADF80A70FFF7E2
:10654000BDFE054620B9FFF7B9FE054600284FD02D
:10655000AB782C800133AB700E9B6B600023CDE9D0
:106560000033BDF80A10BDF808006B4605AA0CF010
:106570007DF9044640BB02A905A80CF021F948F2B8
:1065800006639842044610D10CF04AF9BDF8082081
:106590001C4B04460C2101FB06F0C75A97421CD144
:1065A0000C2202A918441AF061FA4CB1A97839B149
:1065B0000139C9B2A97019B9082228461AF064FA3B
:1065C000204608B0BDE8F08148F20963984211D135
:1065D00002A905A80CF0F0F8D1E70136042EDAD1B3
:1065E0001124E3E73446EBE70724E9E70E24E7E765
:1065F0001124E5E748F206639842D7D1C4E700BF0B
:10660000283300207C400020F8B5194C2268082A65
:1066100006460F4601D1FFF703FF256815BB731E21
:106620009BB24BF6FE7293421ED83046FFF746FEF1
:10663000044618B9FFF742FE0446B8B1A378268095
:106640000133A370676030460CF0C2F8054648B1CC
:10665000A17839B10139C9B2A17019B9082220460F
:106660001AF012FA2846F8BD0725FBE71125F9E7CD
:1066700028330020FF2808B501D100F04BFE10F0B0
:1066800075FD60B1064A074B07499B1ADB081B04DE
:10669000024643F00100BDE808400CF04FBF08BDC2
:1066A0007C720400DC720400201F040037B50378FC
:1066B000042B044634D1D0E903052D1AADB2294686
:1066C00000F042FE024608B100205BE0A18A20698A
:1066D000491B89B210F04EFF0928F5D00728F3D0E6
:1066E00050B1294A294B2A499B1ADB081B04024650
:1066F00043F001000CF022FFE0680022294600F080
:1067000033FE08B901203DE01F4A204B21499B1A66
:10671000DB081B04024643F001000CF00FFFF1E719
:10672000052BEFD1037B023B062BCDD801A252F8FB
:1067300023F000BF5167020069670200C9660200CA
:106740006F670200C9660200C9660200796702002D
:10675000037C8DF8063083681B88ADF8043001A9EE
:10676000042001F021F9CDE700210920F9E70023F9
:10677000019301A90B20F4E7103010F003FDB0FAEB
:1067800080F0400903B030BD7C720400DC7204006C
:106790003C1F04005C1F0400012808B50ED9023814
:1067A000012809D81148124B1249C01AC008000428
:1067B00040F003000CF0BEFE012008BD0C4B0B485E
:1067C0000D49C01AC008000440F003000CF0B2FEEE
:1067D0000021084601F092F80021012001F08EF816
:1067E0000021022001F08AF8E6E700BFDC72040015
:1067F0007C720400791F04009A1F040008B50D4B39
:106800001A78AAB15A6802B958601A78013AD2B215
:106810001A706AB95A78012A03D19A680AB158687D
:106820009047BDE808400348102200211AF02CB917
:1068300008BD00BFDC40002038B51A4A13687BB39E
:10684000013B136063BB184B184C194901251D709F
:10685000184BE41AE408240444F003000CF06AFE28
:10686000284601F097FF024620B1134944EA05008B
:106870000CF064FE012010F06BFC024620B10F49C1
:1068800044F001000CF05AFE0D480DF066FB024684
:1068900030B144F001000B49BDE838400CF04EBE69
:1068A00038BD00BFD0400020D8400020DC7204007A
:1068B000C21F04007C720400D81F0400F31F0400F0
:1068C000303300201120040070B506780546BEB9AB
:1068D000144B154C42681549E41AE408240444F0AA
:1068E00003000CF02BFE6868314610F083FE024670
:1068F000B0B10F4944F00100BDE870400CF01EBE7D
:10690000012E0DD1406810F00FFF48B1054A064B2B
:1069100008499B1ADB081B04024643F00100EBE721
:1069200070BD00BF7C720400DC7204002A200400E9
:10693000472004006420040007B5037853B94FF6DC
:10694000FF73ADF8043001A943788DF806300420B8
:1069500001F02AF803B05DF804FB0000F0B595B033
:1069600004F028F820B1A24A40F22B310DF07CFD52
:106970000DF084FA044650B19E489F4B9F49C01ABF
:10698000C0080004224640F001000CF0D7FD0DF0D5
:1069900029F8054650B19848964B99491B1ADB08CF
:1069A0001B042A4643F001000CF0C8FD954A9648A6
:1069B00001210DF095FA002C08BF2C460546002851
:1069C00000F011818C488B4B90491B1ADB081B048B
:1069D0002A4643F001000CF0B1FD002C08BF2C4604
:1069E000834A40F22E3120460DF03EFD88480DF1DD
:1069F000070100F0E5FA20B17D4A40F233310DF095
:106A000033FD02A810F0A0F9044650B17A48794B42
:106A100080491B1ADB081B04224643F001000CF0DE
:106A20008DFD7D4B039303A800F03EFF20B1704A1B
:106A30004FF44F710DF018FD0AAF2822002138469F
:106A4000029D1AF021F808238DF828302E68B388AB
:106A50008DF82930B3680B939DF8303023F00F0385
:106A600043F00F038DF83030AA6807CA0DAB83E8F6
:106A700007006A4B11930021182204A81AF004F8A9
:106A8000B3788DF810303388ADF812306B68059309
:106A9000634BCDE90637D5E9030108AB83E8030072
:106AA00004A803F023F920B1514A40F23F310DF020
:106AB000DBFC029B1B68DA680B921A690C925B691B
:106AC0000D933846574B0A9303F0F6FE054680B106
:106AD0004948484B54491B1ADB081B042A4643F01B
:106AE00001000CF02BFD424A40F2473128460DF0E0
:106AF000BBFC34B10121002000F000FF04F0B4F829
:106B0000FCE74A4B01201870494B1C6010F020FB39
:106B100020B1374A4FF455710DF0A6FC012001F069
:106B200039FE20B1324A40F257310DF09DFC9DF8FC
:106B30000730FF2B03D100F0EDFB8DF807009DF827
:106B4000070010F013FB20B1294A4FF457710DF0E4
:106B50008BFC294B27483749374DC01AC008000421
:106B600040F003000CF0E6FC10F020FB00F0C4FE47
:106B70000DF01CFA296804460DF013FAB0F5A47F55
:106B800022D32C6001F0A6FE044601F0AFFE032CD8
:106B9000014620D008BB013CE4B2012C98BF022181
:106BA000012000F0ABFE01F09BFE044601F0A3FEC5
:106BB000032C014613D0A0B9013CE4B2012C98BFCC
:106BC0000221022000F09AFE03F022FF0028CBD120
:106BD0000CF01EFFC8E70121E2E70321E0E70121F5
:106BE000EFE70321EDE7002C3FF400AFF8E600BF2C
:106BF00083200400DC7204007C7204008F200400F7
:106C0000A320040039680200E0210400C22004002F
:106C100075660200DD200400D56C0200AD6602003E
:106C2000C968020039690200F1200400D840002040
:106C3000D040002003210400D440002038B51C4B74
:106C40001A78012A32D802221A701A481A4C0022E5
:106C50004FF420310DF056F9184BE41AE4082404DF
:106C6000024620B1164944F001000CF067FC1549BA
:106C700044F003000CF05EFC022001F08BFD0246A4
:106C800020B1114944F001000CF058FC022010F032
:106C90005FFA054628B102460C4944F001000CF0A9
:106CA0004DFC0B4B12221A60284638BD0025F8E730
:106CB000D840002030330020DC7204007C720400D5
:106CC0001621040033210400D81F0400F31F040020
:106CD000D0400020F8B50746FFF7B0FF3B780A2BFD
:106CE0006BD00B2B14D0092B40F09780032001F0C0
:106CF00051FD054650B15048504B5149C01AC0088B
:106D000000042A4640F001000CF018FC2846F8BDAB
:106D10004A4B494E4B4C4C49F61AF608360446F09D
:106D200003000CF007FC23780BB10825EEE70323E2
:106D300023700123637045487B68A36000F052FB19
:106D4000024658B12378013BDBB22370636803B17C
:106D500060603F4946F001000CF0F0FB3B4810F04A
:106D600067FC024658B12378013BDBB223706368AD
:106D700003B16060374946F001000CF0DFFB334897
:106D800001F0E0FD054660B12378013BDBB22370E2
:106D9000636803B1606030492A4646F001000CF098
:106DA000CDFBA368002BB1D1264A12F8011B0029A4
:106DB00038D10133102BF8D1A8E7204B1E4E214CBF
:106DC0002649F61AF608360446F003000CF0B2FB2A
:106DD0002378002BA9D10123237063701B487B68A3
:106DE000A36001F0AFFD054660B12378013BDBB243
:106DF0002370636803B1606017492A4646F00100BA
:106E00000CF09CFBA368002B80D10E4A12F8011BEA
:106E100041B90133102BF9D178E73846BDE8F84085
:106E200000F028B960687B68984710220021054867
:106E300019F02AFE6AE700BFDC7204007C720400CD
:106E400046210400DC40002065210400FD670200AB
:106E50007E2104009A210400B7210400CF21040000
:106E600010B50D4C214614F81030C3F340029B07B7
:106E700006D511F810305B07044604D5002208E05F
:106E80000138C0B2EFE7431CD8B211F81430DC0768
:106E9000EFD4104610BD00BF50330020002270B563
:106EA000114600F1100614461346057815F0020F3E
:106EB0001CBF01335BB215F0040F1CBF03F1FF339D
:106EC0005BB215F0080F1CBF0134E4B215F0100FCF
:106ED0001CBF0131C9B2AD0648BF0132DDB248BFA7
:106EE000D2B2012D0AD8022C08D0022906D0022ADB
:106EF00004D00230B042D8D1012070BD0020FCE7A0
:106F0000FF281649024607D10023D8B2013311F8F1
:106F10001020D207F9D4704711F810305B070BD45A
:106F2000431CD8B211F81030DB0715D59042F3D1CD
:106F300013460CE0431ED8B211F810309B07F9D568
:106F4000F0E70133D8B207284FF00002F0D811F86B
:106F50001320D207D8B2F4D4704700BF50330020BA
:106F6000FF281649024614D011F810309B0714D49C
:106F7000431ED8B211F81030DB071DD59042F3D173
:106F8000134614E00138C0B211F81030DA07F9D412
:106F900070470720F8E7431CD8B211F810305B07A0
:106FA000F9D5E7E7013B581C4FF00702E8D011F88C
:106FB0001320D207D8B2F5D4704700BF5033002059
:106FC0001FB5002846D0002944D0234B1860234B1E
:106FD00023481A68824209D11A79083AD2B2F62AAD
:106FE00004D95A79083AD2B2F62A03D84FF6FF727A
:106FF00018609A801B790B7003AA0DF10A03012116
:1070000043F2DE00FFF73CFA044688B9BDF80A30C7
:10701000052B0BD10399043108460191FFF73EFF80
:10702000019918B10F48102219F020FD00240EE03C
:1070300048F209639842F9D00B480C4B0C49C01A2E
:10704000C0080004224640F001000CF077FA204608
:1070500004B010BD0E24FAE7EC40002000F0002040
:10706000BD34D33050330020DC7204007C72040045
:10707000E42104002DE9F3410378082B0ED8DFE862
:1070800013F00900100024000D0085008F00D900C6
:107090009600DE00934B4FF6FF729A804FF6FE7417
:1070A0007CE0914A002312F813100D0708D5DBB2DB
:1070B0008C4A1179994208BFFF2313715371EDE790
:1070C0000133082BEFD1FF23F2E7874A002312F8A0
:1070D0001310CC0655D5DBB2824A1179994208BF0C
:1070E000537913714FF6FE7400257E4E3279FF2AD4
:1070F00040F0EA807C49002311F81300800640F13B
:10710000DF807A4A7A487B49801AC0080004FF224F
:1071100040F003000CF01BFA5DB34FF6FF739C4286
:1071200000F0DD80307903F0F3FB30F008030CD081
:1071300006280AD06D4A6E4B6F499B1ADB081B0468
:10714000024643F002000CF0F9F93379ADF804403F
:1071500001A88DF8063002F0A5FF50B1634A644BD8
:1071600066499B1ADB081B04024643F002000CF040
:10717000E5F9634B30791B689847002002B0BDE801
:10718000F0810133082BA2D1FF23A5E78379554A6B
:107190008488082B28BFFF23137153710125A4E7AE
:1071A000504C2079FFF7ACFE2071607176E74D4AB4
:1071B0004D4F1379FF2B904637D10023DCB20133BA
:1071C00017F81420D007F9D426462346013417F8BF
:1071D00013305A07E4B2F8D5082C28BF0024204603
:1071E000FFF73EFE05460028EFD02644F6B2B44233
:1071F00003D017F814305B0719D517F81430D807E7
:1072000003D52046FFF77CFE044688F8044088F842
:1072100005404FF6FE7468E7013CE4B217F814200D
:107220001E1B9107F6B2F7D5CFE71C46F6E70134EF
:10723000E4B2DCE72B4C2079FFF792FEB4E7294F4C
:10724000DFF8A4803B79FF2B35D1072318F81360B2
:107250001C4616F0010603F1FF33DBB2F6D12346DC
:10726000013C18F813309A07E4B2F8D5072C28BF70
:1072700007242046FFF7F4FD05460028EFD0A61BA3
:10728000F6B2B44203D018F814309B0715D518F89D
:107290001430DE0703D52046FFF762FE04463C713A
:1072A0007C71B6E70136F6B29C19E4B218F81420E6
:1072B0005107F7D5D3E70026F6E7013CE4B2E0E753
:1072C0000133082B7FF418AF084B09480D49C01A49
:1072D000C008000440F003000CF030F91CE74FF642
:1072E000FE7432E700F00020503300207C7204006E
:1072F000DC720400FE2104001B2204002E22040084
:10730000EC4000200F220400014B1879704700BFA9
:1073100000F00020064B002013F81020920601D543
:10732000C0B2704701300828F6D1FF20704700BF77
:107330005033002018B1034B0360002070470E202B
:10734000704700BF5033002008B540B1102908D164
:10735000FFF7A4FD002814BF0020072008BD0E2061
:10736000FCE70920FAE7000073B50C46164605460F
:1073700030B3102926D1FFF791FD28B322462946C4
:10738000124819F073FB22461049114819F06EFBA0
:10739000104A00960523012143F2DE00FFF7ACF806
:1073A000044650B10C480D4B0D49C01AC0080004EA
:1073B000224640F001000CF0C1F8204602B070BD3A
:1073C0000E24FAE70924F8E70724F6E750330020F3
:1073D0006433002060330020DC7204007C720400FF
:1073E000412204001FB50446B8B1102200216846AE
:1073F00019F04AFB0A4B0B4A0B48CDE900330B4B03
:107400006946CDE90223102219F030FB214643F2F0
:10741000DE00FFF7F9F804B010BD0E20FBE700BF57
:1074200002000400030001005033002001000500A9
:107430002DE9F041254B264C264EE41A3378E4081A
:10744000834205464FEA044406D144F00200224933
:10745000BDE8F0410CF06EB80128204F44F003085D
:107460001CD13868431C01D00EF0FEF8F868411CAE
:1074700001D00EF0F9F800221948A4210CF042FDC9
:10748000024620B1174944F001000CF057F81649A4
:1074900040460CF04FF83570BDE8F08110480CF014
:1074A0005CFD024620B1114944F001000CF046F8A1
:1074B0003868421C02D001210EF092F8F868431C93
:1074C00002D001210EF08CF80949E1E77C7204003A
:1074D0003C7304003941002058220400F040002091
:1074E00078330020732204008B220400A5220400BC
:1074F000BD22040010B50DF0F7FFB0B1164B1748D0
:107500004FF0FF31042219605A72D9605A75012177
:10751000134A0CF0E5FC0446C8B11248124B13495B
:10752000C01AC008000422460BE00DF09FFF04467D
:107530000028E3D00B480C4B0D49C01AC0080004CA
:10754000224640F001000BF0F9FF204610BD094B28
:1075500001221A70F9E700BFF04000206823040000
:107560005D7702003C7304007C720400F622040084
:10757000D42204003841002030B4194A13689842DC
:1075800013D0D368984212D101210C2000FB01F4E2
:107590004FF0A0431519D3F810351459E3402C7A55
:1075A00003F0010374B1DBB20EE00021EDE70D48FA
:1075B0000D4B0E49C01AC008000430BC40F0020058
:1075C0000BF0B8BF83F0010300FB0122D27A9A428C
:1075D00003D030BC0120FFF72BBF30BC704700BF89
:1075E000F04000203C7304007C7204001623040069
:1075F00037B50446002843D0234B1B780BB9FFF75F
:1076000079FF224B1A68013233D0DA68013239D15E
:1076100001210C224A43206898509918237A0B7252
:1076200063684B60637A4B7203238DF804309DF8D6
:107630000630174A206823F007038DF80630237AB6
:10764000002B0CBF0323012301A98DF805300DF099
:1076500055FF054678B10F480F4B1049C01AC008B6
:1076600000042A4640F001000BF068FF284603B0F2
:1076700030BD0021CDE7206801210DF0B1FFF5E715
:107680000E25F3E70425F1E738410020F040002003
:10769000797502003C7304007C7204003A230400F4
:1076A00038B50446D8B10368CBB10E4B1B780BB983
:1076B000FFF720FF0C4A00230C2000FB03F18D583C
:1076C00055B925685550D8B25318A2889A80E288D7
:1076D000DA8022891A8138BD0133042BEDD10420D0
:1076E000F9E700BF38410020084100200328F7B522
:1076F00004460D462BD80C23164F4343FE18FB5867
:107700002BB3728982B9012902D0002003B0F0BDE9
:10771000114601929847104B75811B78012BF4D0CC
:107720002846FFF785FEF0E70029EED1F188914267
:1077300007D2042198470C2000FB047400226281C8
:10774000E3E7B188914234BF02210121F2E707202B
:10775000DCE700BF08410020394100202DE9F84353
:107760000025DFF8D8902E464FF0A047A846D9F85C
:107770000000431C25D0D7F8104599F80830C440C4
:1077800004F00104002B44D184F0010499F80B307B
:10779000A34216D099F80A305A1C032B89F80A2004
:1077A00039D9D9F8043089F80B4089F80A800BB12F
:1077B0002146984799F80900042802D82146FFF786
:1077C00095FF09F10C0916B300271B4C3E46D4F86F
:1077D0000080B8F1000F0ED0628962B123899A420D
:1077E0001BD10521F0B2C04700236381638913B127
:1077F0000133638101270136042E04F10C04E6D124
:10780000BDB9B7B93846BDE8F843FFF711BE012648
:10781000ADE7E4B2BAE70125D3E7E188B2FBF1F3C3
:1078200001FB13239BB2002BE0D10321F0B2C04730
:10783000DCE7BDE8F88300BF08410020F0400020ED
:1078400070B5154D154A2B78154E01332B701378F2
:1078500023B1013BDBB2137003B9F3700024E0B233
:107860000CB9F37803B9335D032B06D0022B0BD18F
:107870002B7803F00303032B0BD10121013410F00B
:107880005BFC032CEBD170BD012B02D12B78DB0705
:10789000F3D40021F2E700BF444100203B41002027
:1078A0003C410020FFF7CCBF10B5B0B10368A3B1D5
:1078B0000B4A0C48136001210B4A0CF011FB0446E3
:1078C00048B10A480A4B0B491B1ADB081B0443F05A
:1078D00001000BF02FFE204610BD0E24FBE700BF79
:1078E0004041002094230400A57802007C7204002B
:1078F0003C7304006C230400704700001F4B70B5FC
:107900001E4600241D4616F8012B12BB0134042C20
:10791000F9D1032831D82C5C8C422ED02954002177
:1079200013F8010BB8B901310429F9D16AB1144A2D
:107930001378013BDBB213703BB912480CF00DFB1E
:1079400018B1114A4E210CF08FFDBDE87040FFF7D1
:1079500077BF0122DDE7002AF7D109490B78581CCF
:107960000870002BF1D107484FF400510CF0CAFA0F
:107970000028EAD0044A5321E5E770BD3C410020CD
:107980003A410020983300208323040008B538B919
:1079900003210320FFF7B2FF024B06221A7008BD35
:1079A0000121F6E73B41002007B50B4B1B688BB16B
:1079B0008DF8000009B10A6801920A38012804D83C
:1079C00009B10A680AB9054A01926846984703B0A6
:1079D0005DF804FB0E20FAE7404100208D7902009B
:1079E00074DF704775DF704776DF704777DF704769
:1079F0008CDF70478FDF7047054B0649024606480B
:107A00001B1ADB081B0443F001000BF097BD00BFFD
:107A10001C730400982304007C720400024A40F2A4
:107A2000AE210CF021BD00BFAD2304002DE9F041D3
:107A3000124B134CDFF84C80E41AE408240494B091
:107A40000E4644F0010405464FF6FF77284608F03D
:107A50002FF9B84205460DD0694608F05BF9024699
:107A600020B1414620460BF069FDEFE79DF800305C
:107A7000B342EBD1284614B0BDE8F0817C7204001B
:107A80001C730400C32304002DE9F341014606469C
:107A90004FF6FF70FFF7CAFFDFF848800446002565
:107AA0004FF6FF77BC4203D1284602B0BDE8F08113
:107AB0000DF10601204608F0D7F820B142464FF4F8
:107AC00086710CF0D1FCBDF8060005F0C3F8022861
:107AD00018BF01352046314618BFEDB2FFF7A6FFAB
:107AE0000446DFE7AD23040030B505460C4C0D48D5
:107AF0000D4A0E495278241AE40824042B4685B016
:107B000044F003000BF023FD094B1B6833B1002246
:107B10008DF804208DF8085001A8984705B030BDB5
:107B20001C7304007C7204007C450020E2230400E6
:107B30008445002070B58CB004462C22002101A899
:107B400018F0A2FF40F20113ADF80830502240F6C1
:107B5000B833CDE90523012C4FF4C86307931ED039
:107B6000A31E012B94BF03260026234B234D93F81D
:107B70005400FFF735FF032C1DBFAB78B3FA83F336
:107B80005B090123EB7005F0C3F8012809D100203F
:107B9000FFF7AAFF00242C7020460CB070BD04260D
:107BA000E3E7EB7823B90120FFF76EFF0028EED062
:107BB00054B9012310488DF8043001A903F077FB74
:107BC0002046FFF791FFE6E70B4801A903F06FFBA2
:107BD0000948314603F02AFA04460028DCD0084B55
:107BE00008480949C01AC0080004224640F00100B4
:107BF0000BF0A4FCD0E700BF484100207C450020EA
:107C00007C7204001C73040014240400032838B59B
:107C100004460BD0042818D038B9184D2B78A3424D
:107C200003D02046FFF760FF2C7038BD134B587807
:107C3000012803D1BDE83840FFF77CBF9A78C2B174
:107C4000DB78002B08BF0224E7E70C4DEB7893B1FB
:107C5000AB7883B10120FFF717FF044638B9084B12
:107C600093F85400FFF7BCFE0023EB70D5E7012426
:107C7000FAE70224D1E70124CFE700BF7C450020CA
:107C800048410020F0B5044685B00220FFF7FCFE15
:107C9000064605F02DF8074664BB05F04EFF254665
:107CA000234E3378A34216D0224B234872782349BF
:107CB000C01AC0080004234640F003000BF047FC44
:107CC0001F4B1B6833B101228DF804208DF808404A
:107CD00001A89847347055B11748164B1949C01A76
:107CE000C00800042A4640F001000BF027FC28469B
:107CF00005B0F0BD144A1548631E0E2101FB032197
:107D000005F0AEFF054620B1114A4FF4E4710CF0C6
:107D1000ABFB022F07D8032C00D036B10B4805F07F
:107D200069FF0546BCE70024BAE73446B8E700BF60
:107D3000F84500207C7204001C7304003624040003
:107D4000844500205F2404008C290400A045002005
:107D5000AD23040037B5044608F0B0FC204608F017
:107D60005DFA2378043B0C2B15D8DFE803F03618B6
:107D7000141414141414141607143300A068374B89
:107D80001B6803B19847364B5878FFF77BFF354B9C
:107D90005878FFF7CFFE03B030BD0020EFE7324B3D
:107DA00032483349C01AC008000440F003000BF009
:107DB000C1FB2C4B60889B7853B12E4B1B88C21A99
:107DC0005342534101A98DF8043007F023FFE2E745
:107DD0000123F7E707F022FFDDE7638941F206029E
:107DE000934233D1608804F023FF022819D1224B3B
:107DF0009B7BB3B11C4B1D4D2049ED1AED082D04A2
:107E000045F003000BF096FB6088012107F0F4FEBB
:107E100002460028BFD01A4945F002000BF08EFB45
:107E2000B9E7608804F004FF012812D1114B628881
:107E30001B889A420DD10C4B0C481249C01AC0083D
:107E4000000440F003000BF075FBA4E7B3F5885F76
:107E5000A1D0204608F05CFC9DE700BF80450020D3
:107E6000F84500207C4500207C7204001C7304004F
:107E70007A240400884500208C45002096240400C4
:107E8000BF240400F224040013B513210D4C01900B
:107E9000FFF7AAFD0C4B019AE41AE40824040346F8
:107EA00038B10A4944F0020002B0BDE810400BF0BE
:107EB0004EBB074944F0030002B0BDE810400BF090
:107EC0003DBB00BF1C7304007C7204002825040025
:107ED0006925040007B5019005F02FFE0F4B1049EE
:107EE000019800221A700F4A0123FFF781FD0E4A04
:107EF0000E4B9B1ADB081B04024638B90C4943F0B1
:107F0000030003B05DF804EB0BF014BB094943F028
:107F1000020003B05DF804EB0BF010BBF845002045
:107F2000A8290400742904007C7204001C73040056
:107F30008C2504009A2504007FB503881F2B044676
:107F400000F0508108D8112B1DD01B2B00F02D8183
:107F5000102B7CD004B070BD3B2B00F04F81562B12
:107F600000F05781212BF5D100238088ADF8043033
:107F700001A9FFF73FFD0028ECD0AB4A4FF4806128
:107F80000CF072FAE6E78588284604F051FE0128D5
:107F900006462DD1A54BA648A649C01AC008000424
:107FA000237A2A4640F003000BF0D1FAA24B1A883C
:107FB000AA4202D14FF6FF721A80A04B1B6843B150
:107FC00003228DF80420ADF808508DF80A6001A84E
:107FD00098479B4C236843B304F084FE0028B9D132
:107FE00007F0AEFE08B12368984700232360B1E78D
:107FF0000228E2D1934A8D488D4B11881B1AA94261
:108000004FEAD30308BF4FF6FF714FEA034308BF9F
:10801000118043F0030008BF8B49237A16BF8B49B8
:108020002A462A460BF093FAC7E7022E92D1884CD3
:10803000A389AB4206D12046FFF74CFF4FF6FF73F2
:10804000A38187E7834B5878FFF71CFE82E785887A
:10805000284604F0EDFD0023CDE9013306460393E5
:108060008DF80A0002230422294603208DF80430EB
:10807000ADF80850FFF7BAFC50B16C4A6C4B76492A
:108080009B1ADB081B04024643F001000BF056FA72
:10809000022E4DD104F108006D49654C072218F0FD
:1080A000D7FC624BE41AE4082404E0B16B4944F0C5
:1080B00001000BF03FFA674C65480722002118F0D9
:1080C000E3FC2278022A03D1654B5878FFF732FD92
:1080D0006078FFF7D7FD594B1B68002B3FF43AAF90
:1080E00001A8984736E78DF800006946284607F052
:1080F000B1FD9DF8001011F0080109D1284607F0E4
:108100007BFD024620B1574944F002000BF016FAFD
:108110004F4B9B6844F003003BB10393494B5249DA
:108120001D802A460BF00AFAC5E750492A46F9E7AE
:10813000012ED0D14A4CE67816B3A378002B0CBFA1
:1081400001230023E3703C4B1D8004D00220FFF785
:10815000CBFC0223237004F0DBFD01281FD100209B
:10816000FFF7C2FC00232370304B31484049C01A4E
:10817000C00800042A4640F003000BF0DFF9AAE72C
:108180006946284607F082FDBDF800204FF6FF73D0
:108190009A42E0D131462846FFF776FEDBE7012020
:1081A000FFF772FC0028DAD0DEE7037A022B7FF4B7
:1081B000D1AE1E4B1E482F49264CC01AC0080004E1
:1081C00040F003000BF0B6F907222148002118F017
:1081D0005BFC2278032A03D1214B5878FFF7AAFCD5
:1081E000607831E700F108018088FFF7FBFB002889
:1081F0003FF4B0AE0C4A40F20A41C1E68088132138
:10820000FFF7F2FB00283FF4A5AE074A40F2124107
:10821000B6E680881321FFF7E7FB00283FF49AAE0B
:10822000014A40F21A41ABE6AD2304007C7204001F
:108230001C730400C32504008845002084450020E9
:10824000804500209C450020FC25040031260400C8
:108250008C450020F845002067260400892604008C
:108260007C450020A5260400C2260400E92604005F
:10827000112704003C2704002DE9F04F037887B054
:108280000546042B46D8DFE803F055035545480062
:1082900002214FF6FF70FFF7C9FB002504464FF699
:1082A000FF76B44234D0072D18D9294602A807F02A
:1082B000BDFC20B17C4A4FF4D7710CF0D5F82946AB
:1082C00002A807F0BDFC43F20422904222D008B37A
:1082D000754A4FF4DA710CF0C7F81BE001A920468B
:1082E000ADF8046007F0C0FCBDF8040004F0B2FC77
:1082F00002281CBF06AB03EB450320464FF00201EA
:108300001CBF23F8104C0135FFF790FB0446C8E76B
:10831000002DCAD107B0BDE8F08F644B5878FFF745
:10832000B1FC634B9A78022A14BF58780320FFF7F8
:1083300001FCEFE744685F480023072202A902938B
:10834000CDF80B3018F084FB48B15B485B4B5C49BF
:10835000C01AC008000440F001000BF0EBF8594BC4
:10836000594ED4F81890B4F81CA0F61A36094FF0FC
:10837000000B98465FFA8BF7BE4255D8534EA06962
:10838000A18B40F20113ADF8043001AA33788DF8C7
:10839000063004F0D3F9E0B1484B47484C49C01AC5
:1083A000C008000440F003000BF0C4F82346414A23
:1083B00053F8020F1060997998889171002190808C
:1083C00091602978B1FA81F1490918469173FFF754
:1083D00081FD40F20133A069A18BADF8043001AA00
:1083E00033788DF8063004F0A9F9002892D0334B89
:1083F00031483849C01AC008000440F003000BF0AF
:1084000099F854F8020F2B4BA2791860A1889A7141
:10841000002299809A602A78B2FA82F252092046A4
:108420009A73FFF757FD75E73B01514658F8033043
:108430004846984708EB07170BF1010B002899D025
:108440001E4B1D482449C01AC008000440F0030018
:108450000BF070F8154B9B78002B8FD12346154EEF
:1084600053F8020F30609A799988B180B760B27181
:108470002A781A4FB2FA82F252093888B2734FF64C
:10848000FF72904203D11846FFF724FD76E7297862
:1084900000297FF473AFB38983423FF46FAFFFF7D6
:1084A000F3FC3B88B38169E7AD230400F845002065
:1084B0007C4500208C4500201C7304007C72040065
:1084C000642704004474040054740400FC45002034
:1084D00096270400C0270400EA2704009C450020DA
:1084E000F0B50546AFB0002800F0DB808C4B026889
:1084F0001A600021782203A818F0C6FA2C22002165
:1085000021A818F0C1FA502140F6B833CDE925135F
:108510004FF4C863279340F20133ADF804306B7910
:108520008DF8063040F201128DF80A307D4BADF81F
:108530008820ADF808202A799A7002238DF80C3033
:1085400006238DF80F300123ADF814308DF84A3032
:10855000ADF85030744B2C9301AF744B74480697B0
:1085600002AE03A915962D9302F0E1FC50B1714AB9
:10857000714B72499B1ADB081B04024643F0010051
:108580000AF0DCFF6A4C0121204602F0CDFC94F891
:10859000541004220120FFF729FA044650B166481E
:1085A000644B6749C01AC0080004224640F001002D
:1085B0000AF0C4FF634A4FF6FF731380002C4BD1BF
:1085C00061496A790A708DF80A20604A604893818F
:1085D000604A069441F612011380ADF804105E4B18
:1085E000039340F201315D4BADF8081001255C4A60
:1085F000049403A98DF8065005938DF8185005F0E2
:108600009EFA0446E8B952483A46032105F062FA58
:10861000044620BB4E483246032105F05BFA04466F
:10862000E8B902461F214A4805F073FA04460028BB
:108630005ED041483F4B4B49C01AC0080004224657
:1086400006E03D483B4B4849C01AC008000422469A
:1086500040F001000AF072FF20462FB0F0BD36480E
:10866000344B4249C01AC00800042246F0E703A870
:1086700007F0B8FA044638B12F482E4B3C49C01ACF
:10868000C00800042246E3E73A4807F093FA04469C
:1086900048B12948274B3849C01AC008000422466F
:1086A000D6E70E24D8E701461C2203A818F0ECF9FF
:1086B000324B03934FF4A0324FF4F023CDE904235F
:1086C00003238DF8183003A82D4BADF81A400894F9
:1086D0008DF81C50099304F07DF904460028BBD0A6
:1086E0001548144B2749C01AC00800042246AFE7BA
:1086F000254A264B024000F0FC0040F003041343DF
:108700008DF81040039307F0CDF904460028AED051
:108710000948084B1E49C01AC0080004224697E7C2
:10872000844500207C4500200D7C0200F979020080
:10873000484100207C7204001C73040015280400CA
:108740003928040088450020FC4500208C45002085
:10875000A04500209C4500208C29040074290400B9
:1087600079820200992804005C2804007D28040016
:10877000DB280400557D0200FF2804008429040042
:108780001D7A02002A2904008E0000FC3107100324
:10879000B62804002DE9F04F454D6B7801288CBFB9
:1087A00000220122012B8CBF002301239A428FB0AB
:1087B00004464BD001283F4A3F4EDFF814B18CBF2E
:1087C0000823002303A802EB030804F0BDFA3B4B87
:1087D000F61AF6083604002746F001060DF11009D6
:1087E000BA46039BBB4217D8032C354B31D11978BD
:1087F0006E7803292ED0334B93F85400FFF7F0F82E
:108800000020FFF771F9002320462B706E700FB027
:10881000BDE8F04FFFF736BA39F8023B019318462E
:1088200004F018FA0228019B0ED14146184604F0C4
:108830000BF9824640B143F20203984204D002464B
:10884000594630460AF07AFE0137CAE74FF0000A6F
:10885000CAE726465978A14206D0032C04D0204608
:108860005C70FFF70FFA8246A978012913D1164BE5
:10887000187880B919706E70BAF1000F02D0032019
:10888000FFF758F91CB91148214604F0B7FA5046D1
:108890000FB0BDE8F08F6B78B342F3D06E70304606
:1088A000BAF1000FECD1FFF745F98246EAE700BFC5
:1088B0007C4500207C2904001C7304007C720400A9
:1088C000F845002048410020FB450020897E020039
:1088D00057290400014B1878704700BF7C450020E1
:1088E000014B1878704700BFF845002008B504F028
:1088F0000FFAC0B208BD08B504F0FAF9C0B208BD5D
:1089000000487047842904000148002104F076BA29
:10891000897E0200094A937850B101339370084B65
:1089200018884FF6FF73984206D00021FFF7ACBAC3
:1089300013B1013B93707047704700BFF8450020AA
:108940009C45002070B504460B4E05F0F6F800205B
:10895000FFF7F0F809483460002104F04FFA0546AB
:1089600040B907F0EDF9044610B133689847356017
:10897000204670BD0024FBE780450020897E020070
:10898000A8DF7047ADDF7047AEDF7047B0DF7047DC
:1089900062DF704770B5094B1B780A25013B4E1901
:1089A0005A1C01D1002407E005FB03F28C180A3A97
:1089B000013BB25A8242F3D1204670BDFD450020F2
:1089C00070B50C4686B0064615460021182268464A
:1089D00018F05AF8E36A8DF80060CDE901450BB153
:1089E0006846984706B070BD70B5054686B08B796D
:1089F000ADF806300C461022002102A818F044F809
:108A0000AB89ADF808300023ADF80C300DF106034A
:108A10000226049320888DF80A60E31D02A90593BD
:108A2000FFF7B2FF40B9A279BDF806309A420ED1E5
:108A30000323637106B070BD132806D00023637151
:108A40002B6B002BF6D09847F4E76671F2E70C2009
:108A5000F4E700002DE9F047C94B90B000AF904615
:108A600003F1100C07F11002054689461646E2464E
:108A700018685968144603C4083363452246F7D181
:108A8000002D00F07B81B8F1000F00F0778198F89D
:108A9000011021B1D8F80430002B00F06F8198F854
:108AA0000030002B00F04B810023DAB2914200F23B
:108AB0003481B9F1000F00F04281B24B83F800908D
:108AC000D8F81C30EB62D8F820302B634FF6FF71DA
:108AD00009F1FF395FFA89F9B9F1FF0F40F03181EF
:108AE00029463046FFF754FF0446002840F0108125
:108AF0002A46391D12F8023BBB71012040F20133B6
:108B0000BB80FFF73DFF0446002840F00181202292
:108B1000BAF800303B810146B81887F80A9017F080
:108B2000B3FF2A4640F202333B8412F8043B87F835
:108B30002230954B688807F10806C7E90936BB8DD6
:108B400023F4875323F01F0343F4805343F00103BE
:108B5000BB8507F12001012387F8333004F0A2F927
:108B60000446002840F0D48020220146B81817F0AF
:108B70008BFF98F801305B000B3303F47E73E946FA
:108B8000ADEB030D98F8003085F8243098F80130EB
:108B900085F82530B8F80830EB8498F800308DF867
:108BA000003098F801308DF8013069460DF1020C63
:108BB000E2B293420CF1020C00F2C9805A1CB8F8E0
:108BC000080001F81200023301EB42025B00000AC8
:108BD0005070FB8440F20332BB8497F82D303A8406
:108BE0002A7887F82220B96243F00203688887F860
:108BF0002D304FF0010A324607F1200187F831A0ED
:108C000004F050F90446CD46002840F0818020222F
:108C10000146B81817F038FF2A464FF441733B84D9
:108C200012F8143B87F82230B8F81430FB84BB8468
:108C3000D8F80C30BB6297F82D30688887F834A0DC
:108C400023F00A0343F00A0387F82D3040F20113A2
:108C50003B8607F1200198F8183087F8323004F08D
:108C600021F90446002853D1B8F814302B85142B71
:108C700008D9D8F8240028B1A98A04F045FA044696
:108C8000002845D120220021B81898F8194017F083
:108C9000FBFE2A4640F205333B8412F80C3B87F872
:108CA00022301423BB84688887F8324042F60103DF
:108CB0004FF0010807F1200187F83340BB8587F8A2
:108CC000308004F0EFF8044610BB202201463881C2
:108CD000B81817F0D9FE2A4640F206333B8412F842
:108CE0001C3B87F82230294B688887F83380C7E916
:108CF0000936BB8D23F4875323F01F0343F48053BD
:108D000043EA080307F12001BB8504F0CBF80446D1
:108D100020464037BD46BDE8F087D8F8044003EB55
:108D20004302A018A45C54B142780F2A07D8944299
:108D300005D982780F2A03F101037FF6B6AE072426
:108D4000E6E76A6B09EB890322F81310C0E6D8F84E
:108D500004A004EB440E0AEB0E0201345078927822
:108D6000120342EA00201AF80E20024312B20CF855
:108D7000022CC2F307220CF8012C19E70E24C7E7D6
:108D8000B6290400FD450020080003000A00020087
:108D9000F0B505468BB00C4649B140B10388572B5E
:108DA00005D84F2B05D8102B1AD0112B64D00BB03F
:108DB000F0BD503B072BFAD801A252F823F000BFB8
:108DC000C98E0200838F0200AF8D020095900200D1
:108DD000AF8D0200AF8D0200AF8D0200BB9002008C
:108DE000496B4FF6FF70FFF7D5FD064620B9236BA0
:108DF000002BDCD00520F6E0AB88038008220021A0
:108E000004A817F041FE02232189A888CDF814D0C8
:108E100004AA0493FFF7B6FD074650B9059804F07D
:108E20002AF830B10123B370324621463846FFF7A5
:108E3000C7FD218AA88804AAFFF7A4FD50B90598A8
:108E400004F01DF830B10123F370324621460220B0
:108E5000FFF7B6FD218CA88804AAFFF793FD002830
:108E6000A5D1059804F007F80028A0D00123B3701D
:108E700032462146062040E0496B8088FFF78AFD94
:108E800005460028B3D0837833B1002383700246AF
:108E900021460120FFF794FDEB7833B10023EB70FE
:108EA0002A4621460320FFF78BFD2B7933B100239F
:108EB0002B712A4621460720FFF782FD4FF6FF73EC
:108EC0002B8000236B7172E7C3880A899A421CD1F8
:108ED000496B8088FFF75EFD0646002887D02B8A05
:108EE000022B7FF464AF05F1120003F0C4FF38B128
:108EF0000123B370324621460020FFF761FD56E79B
:108F0000B070324621460120F7E70A8A9A421BD107
:108F1000496B8088FFF73EFD064600283FF467AFA7
:108F20002F8A022F7FF443AF05F1120003F0A7FF51
:108F300028B10123F370324621463846DDE7F07050
:108F4000324621460320D8E70A8C9A427FF42FAF9D
:108F5000496B8088FFF71EFD064600283FF447AFA7
:108F60002B8A022B7FF423AF05F1120003F083FF5D
:108F700010B1012333717BE730713246214607205F
:108F8000BBE78379022B7FF412AF837B013B022B7B
:108F90003FF60DAF02898B899A427FF408AF87882C
:108FA000496B3846FFF7F6FC064618B9236B0BB140
:108FB0000520984702238DF800300023CDE90233C5
:108FC0009DF8063043F001038DF806306EB9012399
:108FD00069463846ADF80430FFF7D8FC80B1236B02
:108FE000002B3FF4E4AE9847E1E6F3782BB17379B8
:108FF000002BEDD04FF4FF73EAE740F2FD13E7E7F3
:10900000BDF80430002B7FF4D2AE002E3FF4CFAE7B
:1090100002237371297D8DF81C1020216A8AB37197
:10902000F1719DF81C10317203230139B3710729C6
:1090300007D8DFE801F02B042B062B060623022AB3
:1090400009D073727379022B7FF4B1AE314620469A
:10905000FFF7CAFCABE6012373726B7D8DF82030FD
:10906000E36A002BEED00522CDE905468DF81020ED
:1090700004A898470028E5D10423E2E70123153529
:10908000013A73720895ADF82420E9E7012AD8D196
:109090007272E5E7496B8088FFF77CFC00283FF49B
:1090A000A6AEEA88A3899A427FF481AE4379032B66
:1090B0007FF47DAE0023437179E6094B1D78013DB5
:1090C000EDB2FF2D3FF473AE636B05EB850103EB4F
:1090D00041014B79022BF2D12046FFF785FCEEE7E8
:1090E000FD450020B0B588B00D46018DCB1D04466E
:1090F000DB086846A0EBC30300AF9D46E36AF98036
:109100000BB9002022E05388A18A9942F9D1BB1DF6
:109110006A46284604F013F8D8B90423616B6888BE
:109120003B72FC60FFF736FC94F8243038610DEB9D
:109130004303BB61FB88BB83C7F814D0E36A07F124
:10914000080098470028DCD14FF4C0702037BD4696
:10915000B0BD236B002BD4D09847D2E7F0B50E46B4
:1091600089B0054600284AD0002A48D000238DF84F
:109170000830137851788DF80A10D80741BF50880D
:109180008DF80B00000A8DF80C004CBF0524032459
:1091900099078DF8093006D508A8611C0444107998
:1091A00004F8180C8CB213F0040F02AF06D0D38869
:1091B0003B553A191B0A02345370A4B21022002105
:1091C0000DEB0200ADF8064017F05EFCAB88ADF881
:1091D000103001238DF812300023ADF8143004A9AB
:1091E0000DF106033046CDE90637FFF7CDFB20B978
:1091F000BDF80630A34218BF0C2009B0F0BD0E2008
:10920000FBE7A4DF704762DF7047000070B5094BD1
:109210001B780A25013B4E195A1C01D1002407E096
:1092200005FB03F28C180A3A013BB25A8242F3D191
:10923000204670BDFE45002070B58AB004460D463C
:1092400016460021202202A88DF804308DF8051062
:1092500017F01AFC0A4A2069ADF81A60CDE9042417
:1092600001AA08924FF400320123079202A92A466C
:109270008DF808308DF8183004F000FB0AB070BD8E
:109280008592020070B5094B044609481B1ADB0899
:109290001B040D4643F0010006490AF04FF9EB6844
:1092A0001BB12046BDE87040184770BDCC72040069
:1092B0007C720400C92904002DE9F04F0B7887B0B7
:1092C0000446002B3AD1888840F20132904235D1D1
:1092D00088792278904231D1CDE90333488891F8DA
:1092E0000890ADF808001E461D461F469E469C4647
:1092F0001A4640F2053A40F2063B914521D8BEF1AC
:10930000000F03D0ADF80CC0ADF80E701EB1ADF873
:109310001050ADF812306168FFF778FF034628B1AE
:1093200003AA03CAC3F80200C3F80610A3682BB14E
:1093300000228DF8042001A92046984707B0BDE817
:10934000F08FB1F80E80D04507D1B1F816C00F8B61
:109350004FF0010E01321231CFE7D84502BFCD8A5E
:109360000B8B0126F6E7000073B50D461646044642
:10937000002839D0002A37D0002937D01C480DF1F9
:109380000601FFF740FF68BB40F20133ADF804303F
:109390009DF8063023703368A3607368E360B36898
:1093A0002361144B0A221D706FF0090312FB053272
:1093B0004FF6FF76034661688E5261681144013DA5
:1093C0004B806168114415F0FF058B806168114482
:1093D000CB8061681144A2F10A020B81EBD101A894
:1093E00002F026F902B070BD0E20FBE70720F9E776
:1093F000FF290400FE45002070B5044686B00D46E6
:1094000099B190B10388382B00F08A80392B0ED0A7
:10941000112B0AD149688088FFF7F8FE28B14FF672
:10942000FF73038000234380838006B070BD142245
:10943000002101A817F028FB6968A088FFF7E6FE65
:1094400006460028F1D043886189994218D10088E6
:10945000FFF7D7FE02228DF80420AA68E38902965E
:1094600072B1217C20290BD1033B022B08D9637CEC
:109470008DF80C30A37C8DF80D3001A9284690475B
:109480006289F3889A42D0D10296AE68E1890323BB
:109490008DF80430002EC8D0CB1E012BC5D9637CBB
:1094A000227C42EA032212B2ADF80C204B1FD0B24C
:1094B000D2069BB228D4123482070AD5012BB4D924
:1094C000617814F8022B023B42EA0122ADF8102029
:1094D0009BB241070AD5012BA7D9617814F8022B5A
:1094E000023B42EA0122ADF812209BB2020707D5E7
:1094F000012B9AD96278237843EA0223ADF814301D
:1095000001A92846B04790E7012B8ED9E27CA37CC5
:1095100043EA0223ADF81630CB1F14349BB2CBE7DD
:1095200049688088FFF772FE00283FF47EAFE0882C
:1095300000283FF47AAFEB68002B3FF476AF9847F2
:1095400073E70000F0B50D468BB0164604460028C0
:1095500035D041682846FFF759FE0746002830D02D
:109560002022002102A817F08FFA184ACDE904241E
:1095700001237A888DF808308DF818303378ADF8EB
:109580001A2001AA08928DF804304FF48032013B72
:109590000792042B04D8DFE803F016061603160022
:1095A00007200BB0F0BD33798DF805302069022318
:1095B0002A4602A9ADF81E3004F060F9F1E70E204A
:1095C000EFE70520EDE70620EBE700BF85920200FC
:1095D00070B50D461646044688B141682846FFF727
:1095E00015FE70B1828872B1002E2946204618BF40
:1095F0000223BDE8704008BF0023FFF71DBE0E2008
:1096000070BD0520FCE70620FAE737B50D4601924C
:10961000044670B141682846FFF7F8FD60B1028941
:1096200062B1019B2946204603B0BDE83040FFF7F8
:1096300003BE0E2003B030BD0520FBE70620F9E78E
:1096400070B50D4616460446B8B141682846FFF786
:10965000DDFD28B94FF6FF70FFF7D8FD78B1058022
:109660002EB13368C0F802307368C0F80630206944
:109670002946BDE8704004F0A1B90E2070BD052058
:10968000FCE78B6903B11847704707B5E8B1E1B152
:1096900001238DF8063041F61203ADF804304FF681
:1096A000FF730360002383800A6882614A68C26195
:1096B0008A680262C0E90233C0E90433C38001A8AA
:1096C00001F0B6FF03B05DF804FB0E20FAE70000DE
:1096D0002DE9F043064689B00C4641B138B1038804
:1096E000382B3DD006D8112B28D0362B4DD009B0C1
:1096F000BDE8F083392BFAD182880B889A42F6D1E3
:109700004389CA889A4227D08A899A4226D04A8AAF
:109710009A42ECD102238DF80E3006F11003029329
:10972000F389ADF80C30E36904228DF80420002B96
:10973000DDD00DEB020120469847D8E782880B88E0
:109740009A42D4D100234FF6FF70C1E90003C1E96A
:109750000233C1E90433CAE70023DCE70123DAE777
:109760000A8883889A42C2D1464F01F11205F088D7
:1097700038B1328923899A4203D13A46C5210AF089
:1097800073FE0634AC42F2D1B1E70A8883889A426C
:10979000ADD142894B889A4226D10422002102A8E9
:1097A00017F072F90223727C8DF80430337C43EA9F
:1097B0000223F27CADF80830D107B37C8DF80A3073
:1097C00042BF9DF80B3043F001038DF80B30930737
:1097D00042BF9DF80B3043F002038DF80B30E36974
:1097E00013B101A9204698477289A3889A420DD1E6
:1097F00003238DF8043006F110030293F389ADF8CA
:109800000C30E36913B101A92046984701250627CA
:109810004FF0050806F1100907FB05F37289E35ABA
:109820009A420ED16B1E8DF80E30F389ADF80C30D4
:10983000E3698DF80480CDF8089013B101A92046A2
:1098400098470135042DE7D1002504F10A080627C1
:1098500007FB05F3728938F803309A420ED1337C46
:109860008DF80930737C8DF80A30E3698DF8047047
:109870008DF8085013B101A9204698470135032DF2
:10988000E6D134E70F2A040030B504468BB020B38C
:10989000022924D8062303FB01018DF804200D8939
:1098A0002022002102A88DF8051017F0EDF80D4ACE
:1098B000206AADF81A50CDE9042401AA08924FF4A9
:1098C00000320123079202A922888DF808308DF812
:1098D000183003F0D3FF0BB030BD0E20FBE707209C
:1098E000F9E700BF8396020030B480B1018052B125
:1098F000831C02F1140452F8045B43F8045BA24297
:10990000F9D112881A8030BC006A04F057B80E20D2
:1099100030BC704778DF70477ADF70477CDF704774
:10992000054B0649024606481B1ADB081B0443F098
:10993000010009F003BE00BF1C7304002B2A0400C1
:109940007C720400054B0649024606481B1ADB08D8
:109950001B0443F0010009F0F1BD00BF1C730400BB
:10996000382A04007C720400054B0649024606486A
:109970001B1ADB081B0443F0010009F0DFBD00BF28
:109980001C730400452A04007C72040070B503783F
:10999000022B04465ED18379012B0FD181882E489A
:1099A00003F016FC50B12D4A2D4B2E499B1ADB08B3
:1099B0001B04024643F0020009F0C0FDA26852B346
:1099C000264B274D2849294EED1AED082D0445F068
:1099D000030009F0AFFDA368DB68F361A3685B686F
:1099E0009847A18802463046FFF77EFF024620B125
:1099F0001F4945F0020009F0A1FDA3681B489B68C0
:109A000001219847024628B31A4945F00200BDE8F3
:109A1000704009F093BDA1881748FFF711FE50B1BF
:109A20000E4A0F4B15499B1ADB081B04024643F0F4
:109A3000020009F083FDA188114801F01BFE48B126
:109A4000064A074B0F499B1ADB081B04024643F0EA
:109A50000200DCE770BD00BF144B00207C720400E4
:109A60001C730400592A0400742A0400944A00203C
:109A70008D2A0400A82A0400A4390020C92A040061
:109A8000B8330020E42A040008B5134A134B9B1A8C
:109A9000DB081B0403281CD8DFE800F0020E1519B0
:109AA00043F003000E4909F045FD0020FEF772FE69
:109AB000BDE80840FEF728BF0A4943F00300BDE8AF
:109AC000084009F037BD084943F00100F7E70749AE
:109AD000FAE70749F8E700BF7C7204001C73040032
:109AE000062B0400342B0400572B0400902B040099
:109AF000BD2B040070B583680446188803F098F8FD
:109B00000128054604D12378022B08D0032B19D055
:109B1000174B1B6853B32046BDE870401847154EDD
:109B20003378002BF4D11448144B15491B1ADB0869
:109B30001B0443F0030009F0FDFC2846FEF7EAFE93
:109B40003570E5E70B4D2B78002BE1D00A480B4B25
:109B50000C491B1ADB081B0443F0030009F0EAFC64
:109B60000020FEF7D7FE00232B70D1E7184670BD0A
:109B7000104B0020084B00207C7204001C73040072
:109B8000E42B0400272C04000A4601460148FFF795
:109B9000A9BA00BFB8390020024A40F28F110AF07A
:109BA00063BC00BF732C040001460148FFF784BB6F
:109BB000A4390020F0B583B000AF08B3124D2B6874
:109BC000F3B10388502B1BD10389B3F5285F17D15C
:109BD000048A04F108036E46DB08A6EBC3039D4626
:109BE00000F112012246684616F040FF00230DF8EE
:109BF00004303B70C7F804D02B6838469847B54608
:109C00000C37BD46F0BD00BF0C4B002073B50B7880
:109C100006460D463BBB1B4B1B4C1C49E41AE40893
:109C2000240444F0030009F085FC0122A988304691
:109C3000FFF7CEFC024630B1062804D0144944F0A8
:109C4000010009F07BFC0122A9883046FFF7DDFC0A
:109C5000024630B1062804D00E4944F0010009F054
:109C60006DFC02B070BD032BFBD10B4B1B68002BAE
:109C7000F7D0012208358DF80020019568469847F5
:109C8000EFE700BF7C7204001C7304007E2C04000C
:109C9000932C0400BF2C04000C4B002007B50B884C
:109CA000834218D002238DF800306A468B788DF8F5
:109CB000043001460948FFF745FC60B105280AD089
:109CC000074A084B08499B1ADB081B04024643F06D
:109CD000010009F033FC03B05DF804FBA439002057
:109CE0007C7204001C730400E72C04002DE9F04191
:109CF000054698B0002800F0BD818368002B00F075
:109D0000B9819E4A136002F0F9F930F00403044669
:109D10000BD09B489B4B9C49C01AC00800042246AC
:109D200040F0010009F00AFC44E00AF0E5FD50B102
:109D3000944A934B95499B1ADB081B04024643F057
:109D4000010009F0FBFB002308A9012008930AF099
:109D50006DFC50B18B4A8A4B8D499B1ADB081B0462
:109D6000024643F0010009F0E9FB08A80AF012FDE1
:109D700050B1844A824B87499B1ADB081B04024678
:109D800043F0010009F0DAFB6C886E68FEF7B8FD5D
:109D900002460068516808AB1F2C03C30ED9794BEB
:109DA00077487D49C01AC008000440F0010009F05E
:109DB000C1FB0924204618B0BDE8F081B4B11123DD
:109DC0008DF8103031680191084616F0AAFE01990D
:109DD00082B204A8FFF7A2FD044650B16848694B5F
:109DE0006E49C01AC0080004224699E78DF8104059
:109DF000E8E7308AFFF78EFD044638B16048614BD2
:109E00006749C01AC0080004224689E708A8FFF77E
:109E100083FD044678B901466248EF686E6803F036
:109E20000DFB044678B15648564B5F49C01AC0082E
:109E30000004224674E75248524B5C49C01AC008DD
:109E4000000422466CE701460290402208A816F062
:109E50001BFED5E9040105AB83E80300544B0493D2
:109E60005448554B079304A903F026F9044638B12A
:109E70004348444B5149C01AC008000422464FE7EA
:109E8000716811B108A803F004F8B16811B10AA80B
:109E900002F0FFFFF16811B10EA802F0FAFF484985
:109EA00010A802F0F6FF012308A88DF85C3001F03D
:109EB0000FFF064660B1334B31484249C01AC00813
:109EC0000004324640F0010009F038FB344671E7E7
:109ED000F7B140F202233B833B4BFA691A603B4BDC
:109EE000FB613B4B3B62334B3A481A78002A08BF70
:109EF00000237B623A460421FEF7ACFD044638B1EC
:109F00001F48204B3449C01AC0080004224607E706
:109F1000324B029302A802F075F8044608B10528F6
:109F200019D12F4B2F4FFF1AFF089846F3B29F42CB
:109F300019D82D4B2D4E029302A8039601F05CFB1D
:109F40000446002858D00E480E4B2949C01AC008B4
:109F500000042246E4E60A480A4B2649C01AC00813
:109F600000042246DCE608EBC30258F833305068A0
:109F70009847013604460028D8D01BE70C4B002038
:109F80001C7304007C720400FE2C0400152D0400D8
:109F9000402D0400652D0400802D0400472004009E
:109FA0009D2D040000460020F82D0400C02D040063
:109FB00045990200144B0020899B02000B2E0400DF
:109FC0001D2E04002C2E0400104B0020F59A0200D8
:109FD00021990200B8390020552E0400899A020008
:109FE00094740400A4740400A99B02008839002022
:109FF000932E0400792E04001F4B2048059404A9D9
:10A0000004930696FFF741FB044638B11C481D4BEC
:10A010001D49C01AC0080004224681E60A961B4E5C
:10A020001B4B099308AA1B4B089304213046FFF7EA
:10A030009BF90446B0B92B788DF8243033788DF82D
:10A04000253008A8144B0893FEF74AFA0446002866
:10A050003FF4B0AE0A480B4B1049C01AC0080004C8
:10A0600022465DE60648074B0D49C01AC0080004A9
:10A07000224655E60E249DE6999B0200944A002054
:10A080001C7304007C720400B42E0400A439002068
:10A09000699902000D9C02008D990200F92E0400BE
:10A0A000CE2E0400014608B5034802F0A7FE0028A2
:10A0B0000CBF0520002008BD9D9C02002DE9F34146
:10A0C000002846D000234288CDE9003303788DF87C
:10A0D00001303AB19DF80030ADF8022043F00103A1
:10A0E0008DF8003090F9042002F12803DBB27D2BBB
:10A0F0009CBF9DF800308DF80420C2889CBF43F0BF
:10A1000002038DF800303AB19DF80030ADF806201A
:10A1100043F004038DF8003000250F4E0F4F2C46FE
:10A120004FF6FF783188414507D0B3782BB16A46A6
:10A1300038465CB9FFF712F804460135042D06F1E4
:10A140000A06EFD1204602B0BDE8F081FFF706F81D
:10A15000F3E70E24F6E700BFE04A0020B8390020FC
:10A1600042DF704710B5421EFF2012F8013F5840F1
:10A17000082300F00104400814B180F08C00C0B244
:10A18000013B13F0FF03F4D1013989B20029ECD16E
:10A1900010BD30B58478C378A3422AD945780279B6
:10A1A000032D22D8611C04F00704C9B2072C0378E0
:10A1B000817008BF00EBD1014FEA430314BFD9B24D
:10A1C0004979017003F48073191E02F0010418BF6D
:10A1D00001219C420DBF0135002361F3000245704F
:10A1E0001CBF43700271084630BDD34303F0010326
:10A1F000EAE70023C3700121F5E70000014B0022CC
:10A200001A8070475C4B002038B50279002363F355
:10A2100000028370437002718B780333DB00C370DC
:10A220000B78037043714A788B7803EB02138371C8
:10A230000D468A7804460331073016F017FCAD78D6
:10A24000601DA91CFFF78EFF2C44E07138BD000093
:10A2500010B5094C20460BF0D9FB38B12268D2F872
:10A260004C355F33DBB2C2F8443510BD2046BDE843
:10A2700010400BF0B1BB00BFF83900201FB51C4CDB
:10A280006368013314D01B480BF0C0FB90B1194830
:10A290000BF0C8FBE368013310D1164800210BF026
:10A2A000E0FB6268012393404FF0A042C2F80C35F6
:10A2B00004B010BD0F480BF08FFBEBE70E4B0F48BF
:10A2C0009A1C00921B88019300226946CDE9022264
:10A2D0000BF0DEFC0028EBD0094A0A4B0A499B1A16
:10A2E000DB081B04024643F0010009F027F9DFE711
:10A2F000344B0020F83900205C4B0020F03900205E
:10A300007C72040024730400582F04002DE9F043EC
:10A31000B0F5A07F89B020D16F4B5C68611C16D06E
:10A32000DB68013313D16D48FFF733FF0123A340EE
:10A330004FF0A04270B1C2F80835684AD17831B9FF
:10A340004FF0A0426648C2F808350BF09EFB09B0FA
:10A35000BDE8F083C2F80C35EFE7B0F5A27FF6D187
:10A360004FF0A0435F4CD3F810555B4B67789A6869
:10A37000032F25FA02F505F0010598462AD823781F
:10A380005B0005B10133A27802F00701072908BF7D
:10A3900004EBD201DBB208BF0B718F2A237015D9F1
:10A3A0000926E37803F00102AA4230D1FF2F04D03E
:10A3B0000137FFB2082F67702ED94B4A002D51D0BC
:10A3C0001378072B50D801331370C0E70132A27005
:10A3D0001126E6E7002DFBD0E378DA07F8D5052F44
:10A3E000F6D16179A37801F00F01CA1CB2EBD30F4B
:10A3F0004FEAD309D4D10231201DA144FFF7B2FEA8
:10A4000099F80360864214BF0B260026C9E7002294
:10A4100065F300036270E370C6B9627923798DF841
:10A420000C30324913090DF10F0002F00F028DF8C4
:10A430000D308DF80E2016F019FB03AB0293D8F8FF
:10A4400000308DF8046001A89847B6E70B2EB4D110
:10A450000023CDE9033301238DF80C3003A8D8F88D
:10A460000030F1E7157072E7D8F80C3001331B4B60
:10A470000CBFDB781B8813B1FFF700FF67E7D8F844
:10A4800004201748531C1FBF012393404FF0A042E4
:10A49000C2F808350BF0AEFA11480BF0C3FA1048B9
:10A4A0000BF0C0FA002319460D48FF220BF0BEFA4C
:10A4B000012319460A485F220BF0B8FA042363709F
:10A4C000E3780B48002143F0010312222170A170B0
:10A4D000E37016F0D9FA3AE7344B00205C4B0020C9
:10A4E000F8390020454B0020444B00204B4B002006
:10A4F000494B00207FB50546002800F0CE80036858
:10A50000002B00F0CA808668741C03D143680133B5
:10A5100040F0C58095E80F00634C013684E80F00D9
:10A5200002D1013100F0BD80FFF71AFE5F4A604999
:10A5300060480BF0E1F9044668B15F485F4B604941
:10A54000C01AC0080004224640F0010008F0F6FFDF
:10A55000204604B070BD57480BF064FA55482346B6
:10A56000FF2221460BF062FA0123524819465F226E
:10A570000BF05CFAEB68581C22D0FF224FF6FF71FB
:10A5800001948DF80120ADF802108DF80620072106
:10A590004FF000728DF8051002928DF80030494A94
:10A5A00049480394234669460BF0A2FA044638B1A1
:10A5B0004148424B4549C01AC00800042246C3E73F
:10A5C0000AF092FF58B90AF051FF044638B13A48F0
:10A5D0003A4B3F49C01AC00800042246B4E703239F
:10A5E000ADF800309DF802303A4A23F0070343F0FB
:10A5F00004038DF80230D5E90130984208BF9DF878
:10A600000230694604BF43F001038DF802300AF0BE
:10A6100075FF044638B12848284B2F49C01AC00896
:10A620000004224690E7D5E9013199424FF0A0425B
:10A630001DD101F5E07140F2017342F82130A968A3
:10A6400001238B40C2F80835EA68531C0AD01E4B20
:10A6500069681B68C3F808254FF0FF32C3F80C1572
:10A66000C3F81025A86801210AF0BAFF70E7591C49
:10A670000AD003F5E07340F2037142F823106968D1
:10A6800001238B40C2F80835AB684FF0A04203F5B8
:10A69000E073002142F82310D6E70E2458E7072480
:10A6A00056E7002454E700BF344B00200DA30200FE
:10A6B000F02F0400F8390020247304007C72040099
:10A6C000732F0400FDA10200F0390020902F040038
:10A6D000AB2F040051A20200C92F040030B52D4B4E
:10A6E0001A6887B00146002A4CD05A68013205D159
:10A6F0009B68013348D1002007B030BD002845D009
:10A70000DB68254C013310D1E378002B40D1204683
:10A71000FFF77AFD21480BF079F90028EBD11F48AB
:10A720000BF05AF9FFF7AAFDE5E7258885BB6846D7
:10A73000FFF76AFD2388E21895709A1C013314FA1A
:10A7400083F322809D70FF259DF80330002BE1D01C
:10A750002388B3F5AE7FDDD26846FFF71AFD238864
:10A76000E21838B195709A1C013314FA83F32280F1
:10A770009D70E9E790709A1C013314FA83F32280EC
:10A780009870E1E70820B7E70620B5E70E20B3E7A9
:10A790000420B1E7344B00205C4B0020F839002046
:10A7A00037B5404B196849B104783CB943685A78C9
:10A7B000042A46D004D892B1012A38D003B030BD63
:10A7C0000F2AFBD11B78642BF8D1374B1B78002B59
:10A7D000F4D002238DF805408DF804302EE01A786D
:10A7E0006A2A01D06C2A15D19978052912D11A79D3
:10A7F0005B792E4C12090132520053435B0340F641
:10A80000C412B3FBF2F323800023A37009F0CEFB44
:10A810006060D3E702F0FD02242ACFD19A78072A9C
:10A82000CCD1234C5B7A237000236370EEE71B7856
:10A83000642BC3D18DF805408DF8042001A888470A
:10A84000BCE71A7812F0FD04B8D198780328B5D186
:10A85000184805781DB1022A01D10470AEE7002224
:10A860008DF80420DA78022A06D11B7913F00F0341
:10A870000BD18DF80530E1E7332A0AD11B7913F0AB
:10A880000F0F14BFFF230123F3E7022B18BFFF2391
:10A89000EFE7302A04D11B7903F00F03032BF5E710
:10A8A000FF23E6E7C44C0020C94C0020CC4C00201C
:10A8B000BC4C0020C84C00201FB5044600B3036800
:10A8C000F3B1D0E90123511C05D101330CBF0020A5
:10A8D000072004B010BDCDE90132C3680393684678
:10A8E000084B0093FFF706FE0028F2D1064B2268C2
:10A8F0001A60A368054A013318BF01231370E8E703
:10A900000E20E6E7A1A70200C44C0020C94C00209D
:10A910007FB51D4B1B6893B31C4B1B788BB340F268
:10A920000243ADF8043003238DF80630032822D803
:10A93000DFE800F00213151B02238DF807304FF4F7
:10A94000007301A8ADF80830FFF7C8FE10B9104B2E
:10A9500001221A7007B05DF804FB3323EDE70223F0
:10A960008DF8073040F20223EBE730238DF80730F3
:10A9700040F20323E5E700238DF80730E1E70820E4
:10A98000E8E70620E6E700BFC44C0020C94C0020E1
:10A99000C84C002034DF704707B5044B04480193CE
:10A9A00001A901F0B3F803B05DF804FB85AA020029
:10A9B000003A0020F8B5134B134E144C602283F874
:10A9C00020204FF08043A922C3F820254FF4804176
:10A9D000002008F017FC054608F054FBA41B2409CE
:10A9E0000027BC4204D14DB9BDE8F84000F0D8B80A
:10A9F000736803B1984701371036F2E700F0D0F8DA
:10AA00002846F8BD00ED00E054740400947404007E
:10AA100070B5124D124C641B24090026B44217D1A4
:10AA2000104C236801330DD12046FFF7B3FF0E48C9
:10AA30000E4B22680E49C01AC008000440F0030003
:10AA400008F07CFD00F010F9BDE8704008F02CBC67
:10AA5000EB6803B1984701361035DFE75474040002
:10AA600094740400243A00202C7304007C720400C7
:10AA7000F82F040013460A460146014801F0C0B809
:10AA8000003A00202DE9F04F03788BB00446002BEC
:10AA90003CD1334F334BD0F81080B0F81490DB1B0F
:10AAA0004FEA131A23F00F0303EB070B3D465D45F6
:10AAB00014D12D49DFF8B48004A816F02AF804A8B0
:10AAC00016F02FF80026ADF80E00B24523D12289EA
:10AAD0000DF10E0104A8FFF7CDFF17E0286816F06E
:10AAE00020F803B29945064613DB1A4629680193FC
:10AAF000404616F01EF8019B58B9AD6835B1A9EB78
:10AB00000601228989B208EB0300A8470BB0BDE813
:10AB1000F08F1035CBE73868BDF80E5016F001F80D
:10AB200002350544152D0BD922890DF10E0104A81B
:10AB3000FFF7A0FF0028E9D1ADF80E008DF8100056
:10AB400057F8101B04A815F0D5FF414604A815F0CE
:10AB5000D1FF04A815F0E5FF0136ADF80E00B4E70B
:10AB6000547404009474040008300400E059040094
:10AB7000EFF30880014B18477047000081AB0200DB
:10AB800010B5064C01462022204615F06FFF00222A
:10AB90002021204606F06AFF208410BD08F0002026
:10ABA00038B54FF08042D2F80034C2F800349B0729
:10ABB00015D5234C00222021204606F057FF214BBB
:10ABC000024621481B1ADB081B0443F00100238CBA
:10ABD00093421CD1A369E2681C4908F0B8FC242206
:10ABE0000021174815F050FF19491A480AF018FEBD
:10ABF000044680B11348144B1749C01AC00800041A
:10AC0000224640F0010008F099FC204638BD134967
:10AC100008F090FCE3E7124D28460AF03BFE04469C
:10AC200038B10848084B0F49C01AC0080004224632
:10AC3000E7E70AF021FE28780AF052FEE5E700BFB8
:10AC400008F000202C7304007C7204001F30040004
:10AC500071AB020090300400543004004430040012
:10AC6000E44C00206B300400014B18780AF038BE29
:10AC7000E44C002070477047024A136801331360A8
:10AC8000FFF7F2BF506300204A4C494E4B4D4F4EE8
:10AC900048414E444C45520000B5FFF7ECFF5DF8CB
:10ACA00004EB134B02E058680003FCD4586840F4EE
:10ACB0000020586000B5FFF7DFFF5DF804EB0C4B98
:10ACC0005868000DF6D21868010A0006000E002828
:10ACD00012D0022818D002D3032814D0E6E758680F
:10ACE00020F40020586000B5FFF7C4FF00BD00BF8E
:10ACF000F8ED00E088ED00E064201860586840F44A
:10AD000000205860CFE77DE05FEADE022CBFEFF362
:10AD10000982EFF30882042902D252F821006BE085
:10AD2000052901D2204667E0062901D2284663E0C2
:10AD3000072901D230465FE0082901D238465BE09E
:10AD4000092901D2404657E00A2901D2484653E07A
:10AD50000B2901D250464FE00C2901D258464BE056
:10AD60000E2901D2106947E00F2901D2506943E052
:10AD7000102901D290693FE0112901D2D0693BE04E
:10AD800012290ED2EFF308805FEADE0131D25FEACA
:10AD90005E112CBF20304830D169490928BF0430EA
:10ADA0002AE0132905D2EFF309805FEADE0120D300
:10ADB000EDE714291CD20020EFF310821043EFF3CB
:10ADC000118212021043EFF3138212041043EFF3C7
:10ADD00014825FEADE0128BF42F002025FEA5E11E0
:10ADE0002CBF22F0040242F004021206104303E0DA
:10ADF00000E001E00020FFE71860586840F4002000
:10AE0000586050E7586840F40020586058680003C4
:10AE1000FCD418685FEADE022CBFEFF30982EFF37F
:10AE20000882042902D242F8210061E0052901D2FA
:10AE300004465DE0062901D2054659E0072901D202
:10AE4000064655E0082901D2074651E0092901D2FA
:10AE500080464DE00A2901D2814649E00B2901D202
:10AE6000824645E00C2901D2834641E00E2901D2F9
:10AE700010613DE00F2901D2506139E0102901D263
:10AE8000906135E0112901D2D06131E0122900D260
:10AE90002EE0132900D22BE0142927D20106090E37
:10AEA00081F310880104090E81F311880102090E53
:10AEB00081F31388010E88082CBF4EF0040E2EF08B
:10AEC000040E21F00201C8082CBF2EF0100E4EF027
:10AED000100EEFF31480C0082CBF41F0040121F0E4
:10AEE000040181F31488BFF36F8F01E0FFE7FFE7F0
:10AEF000DCE600BF72DF704773DF704738B50122B0
:10AF000004460D46B0F81414D0F8100401F006FC05
:10AF100000B1057004F13C0204F5826104F15400B3
:10AF2000BDE83840FFF7E6BF80F830107047F8B54D
:10AF300004460F46002975D0002873D091F87A3066
:10AF40001BB191F89830002B6ED1D7F8A030042BAC
:10AF50006AD0D7F89C30042B66D04FF0000C84F8F0
:10AF600002C007F178060FCE251D0FC50FCE0FC505
:10AF700096E8070085E8070084F830C0D7F8A430C9
:10AF80006363D7F8A830A3634FF6FF7504F58263B7
:10AF9000C4F82034A4F824540722614604F2264061
:10AFA00015F072FD23780BB984F8545094F82430CE
:10AFB000002B14BFEE231F2304F15501C4F8101415
:10AFC000A4F8143404F21442384601F0B9F940BB35
:10AFD00094F82430002B14BFEE231F2304F23121F8
:10AFE000C4F81814A4F81C3404F21C4207F13C0005
:10AFF00001F0A6F9A8B9A369A4F848304FF480730A
:10B000000125A4F8503063692064014684F83C505F
:10B01000636404F13C0204F15400FFF76BFF00B9D4
:10B020002570F8BD0E20FCE70720FAE7F8B5077891
:10B0300004460D46002F00F0038100F22646817081
:10B0400007220021304615F01FFDE38813B1A378D5
:10B05000012B04D0E3794BB1A378022B06D1636BAB
:10B06000A3B1012284F82D2408209847334604F226
:10B070002C4113F8012F12B99942FAD117466B1ED1
:10B08000032B51D8DFE803F0050B0F1284F82D34A1
:10B09000ECE7A3791BB194F8243003B95FB9E379E5
:10B0A0000BB1002F42D1237A002B41D1637A002BC0
:10B0B0000CBF00250425636BA570002B3AD0033D1F
:10B0C000012D37D86279AAB394F82E2492BB84F864
:10B0D0003024012284F82F240720984704F13C05EE
:10B0E00018220021284615F0CFFCE26A531E0121E8
:10B0F000022B28BF0A4684F8512094F8242084F8B3
:10B100003C1032B1A36A581E022828BF0B4684F8AF
:10B110005230A178002384F8503004291BD8DFE88E
:10B1200001F0770D223559000025C4E70225C2E75A
:10B130000325C0E7002384F82F34CFE7C4E9106368
:10B14000C4F820340223012284F83C30802384F8A0
:10B150003120A4F84830A378002B5CD1636B002B1E
:10B160006AD1002067E00223002A84F8313014BF3E
:10B170000723032384F83C302369A4F848300023D4
:10B18000C4F82034E36826646364E4E763696364B5
:10B19000A369A4F8483012B1062384F83C306379DF
:10B1A000B3B194F82E349BB994F8303483B10223B0
:10B1B00084F8503004212046FFF7A0FE0028CAD1B1
:10B1C000052384F8313004F58263C4F82034C2E7E3
:10B1D0000323F6E7E3696364236AA4F8483012B1F5
:10B1E000062384F83C30637983B194F82E346BB92C
:10B1F00094F8303453B1022384F8503004212046AF
:10B20000FFF77CFE0028A6D10623DAE70423D8E75F
:10B2100084F831309FE7D4F820142A4604F1540012
:10B22000FFF768FE38B994F8301094F85400FFF72F
:10B2300063FE002892D0F8BD94F83100984790E75B
:10B240000820F8E710B50388112B0C460AD0262BEE
:10B250001FD0102B05D1C37B012B02D18388A1F80D
:10B26000243410BD002381F82E348288B1F82434B0
:10B270009A42F6D10B79002BF3D101212046FFF73A
:10B28000D5FE0028EDD0A36B002BEAD0BDE810401E
:10B290001847037A013B012BE3D889780523013154
:10B2A000B1FBF3F303EB8303C91AC9B2E6E730B588
:10B2B0000D46041D0FCD0FC40FCD0FC495E8070038
:10B2C00084E8070030BD000030B50B4B19680B4B0C
:10B2D0000022914201D1002009E09D788478A542A6
:10B2E00006D11D880488A54202D1054B186830BDDF
:10B2F00001320433EDE700BFF04C0020F44C002095
:10B30000E84C00202DE9F84F90F8C6A24FF0760BDC
:10B3100004460AFB0B0088469146FFF7D5FF074617
:10B3200070B3D4F8CC52052D2AD804EBC5165A4672
:10B33000A6F8D2920BFB0A4106F5357015F096FB84
:10B34000B8F1000F14BF0023022386F8D0320D4B52
:10B35000C6F84C731A6801359542C4F8CC521D46A4
:10B360000ED104F534760027F36F304698472B68EA
:10B3700001379F4206F18006F6D30023C4F8CC3291
:10B38000BDE8F88FF04C002030B5A1B004460D4662
:10B390007C22002101A815F077FB03238DF80430EF
:10B3A000044BADF806501B6802940BB101A89847F6
:10B3B00021B030BDE84C00202DE9F041074691F85E
:10B3C000C60276234FF00008A0B081F8C88200FBC7
:10B3D00003100C461546FFF777FF064660B17C2246
:10B3E000414601A815F050FB01238DF80430ADF85B
:10B3F0000650029701A8B04729462046FFF7C4FF30
:10B4000020B0BDE8F081000030B58BB004462022AA
:10B410000D4602A8002115F037FB04220DEB0200B7
:10B42000002115F031FB94F8C53294F8C62213B30D
:10B43000013B7621DBB25143122000FB031323446E
:10B440005B8A01339BB2ADF80430762303FB0242E2
:10B4500002A91389ADF8063003238DF80830019B4B
:10B46000CDE90543064B0493064B2A46186802F0C3
:10B4700005FA0BB030BD762303FB0243DB88E2E71D
:10B48000B9B302000C4D0020F0B5044689B020226B
:10B490000D466846002115F0F7FA94F8C7321E4AA7
:10B4A00001331268DBB2934284F8C7324FF00002D6
:10B4B0002BD294F8C632194F84F8C5220133DBB27F
:10B4C000762113FB01F057F8237084F8C632261852
:10B4D000275001FB034332711B68CDF81230104B2B
:10B4E000029302220F4B8DF800200122ADF81020AC
:10B4F000186803942A46694602F0C0F918B12A4632
:10B500002146FFF759FF09B0F0BD84F8C82229464B
:10B510002046FFF739FFF6E7F04C0020F44C0020FE
:10B52000B9B302000C4D00202DE9F047044688B065
:10B530000D46164600212022684615F0A5FA94F81B
:10B54000C62294F8C512762312FB03F2A018122724
:10B5500090F804C017FB012301F1010E0A33E64500
:10B56000234411D004F11C0900F1220E0CF1FF3824
:10B570009144CAB294450BD988451B890ED10289E2
:10B580009A421BD1002312E01B890289934215D1F4
:10B5900001232B70002008B0BDE8F08707FB01FAFB
:10B5A00001333EF80A2093421DD109EB0A0394F8B7
:10B5B000C522013284F8C5220131DAE701339BB29A
:10B5C000ADF810300A4B029300210A4B2970042178
:10B5D0008DF80010ADF812201868039432466946C1
:10B5E00002F04CF9D7E7013A9BB292B2E8E700BF0C
:10B5F000B9B302000C4D002010B570B1026862B101
:10B60000436853B1064900200860064901240C70C4
:10B6100005490A60054A136010BD0E20FCE700BF13
:10B62000F04C0020EC4C0020E84C00200C4D002099
:10B6300010B5044680B10C4B1B787BB1FFF744FE7C
:10B6400070B90A4A1368052B0CD80949246841F8D7
:10B6500023400133136010BD0E20FCE70820FAE7F9
:10B660000020F8E70420F6E7EC4C0020F04C002026
:10B67000F44C0020F0B50D468BB0044600283BD0BA
:10B68000204B1B78002B39D01F4B1B68002B35D06B
:10B6900090F8C812002933D14FF4BA621B4F0191C0
:10B6A00015F0F2F90199202202A815F0EDF9386899
:10B6B000294602F083F9E8B9154BC4F8CC0284F8A6
:10B6C000C502A4F8C6021868206002238DF808306D
:10B6D0000126104BCDF81A00A4F8CA523868ADF80C
:10B6E00018602A4602A90594049302F0C7F808B925
:10B6F00084F8C8620BB0F0BD0E20FBE70820F9E724
:10B700001120F7E7EC4C0020F04C00200C4D0020FD
:10B71000F44C0020B9B302002DE9FF410C46054668
:10B7200060B159B18C4B1B7843B10388322B70D078
:10B7300007D8112B00F00381302B2CD004B0BDE8CA
:10B74000F081332BFAD18288B1F8CA329A42F5D10E
:10B75000C08891F8C67291F8C5C250B976267E436A
:10B76000122303FB0C63294623446A899042C0F0EC
:10B77000C280762202FB0742002312798DF80F3037
:10B780000CF10103934240F0A58001238DF80F30A6
:10B79000AA88012135E08388B1F8CA229A42CDD126
:10B7A000C3886BBB91F8C632762202FB0313026991
:10B7B000C3F8062091F8C432827A1344062B0CDCBD
:10B7C00081F8C432A9882046FFF71EFE0028B5D0B4
:10B7D000AA882146FFF7F0FDB0E7062381F8C432BE
:10B7E0005E485F4B5F49C01AC008000440F0020089
:10B7F000019007F09FFE5C49019807F09BFEE1E78E
:10B8000000212046FFF77EFDA9882046FFF73CFE79
:10B8100094E78288B1F8CA329A428FD1C388002B4C
:10B8200057D191F8C672762317FB03F701EB07088F
:10B83000837A98F804603344062B25DC88F80430BA
:10B84000334603EBC30207EB420205F10C06224428
:10B85000002198F80400834206F10A0602F1120260
:10B8600026D31222013B02FB034394F8C622762121
:10B870003B4401FB0242598A1389994229D2062886
:10B8800027D084F8C5029DE7062388F804303348A2
:10B89000334BCA5B3549C01AC008000440F00200AF
:10B8A000019007F04BFE3249019807F043FEC7E7CD
:10B8B0003046013350F80ACD42F808CCD0F804C025
:10B8C00042F804CC0089108051809180D180118190
:10B8D000BFE7002384F8C532AA880DF10F01204686
:10B8E000FFF722FE00287FF473AF9DF80F30002B86
:10B8F0003FF424AF4CE7CA89A2F52452082A08D89D
:10B90000DFE802F014170507070707071A008A89FE
:10B910009A829A8A3AB1DA8A2AB11A8B1AB15A8B68
:10B92000002A7FF426AF013006311EE78A89DA82C9
:10B93000EFE78A891A83ECE78A895A83E9E7B1F845
:10B94000CA3282889A4201BF002381F8C8324FF67A
:10B95000FF73A1F8CA32F1E6EC4C0020F472040047
:10B960007C7204009C300400BB30040000310400F1
:10B970004631040070B50546164608460AB90E2041
:10B9800070BD00231360002DF9D02B68002BF6D07A
:10B99000EB8813F003040ED101F0EAF9C0B21428C9
:10B9A0000BD02B7983420AD9EB882A6800FB03204D
:10B9B00030602046E4E70720E2E70520E0E70420C6
:10B9C000DEE7A8DF7047ADDF7047AEDF704762DFAC
:10B9D000704770B505468AB00C46002962D0002831
:10B9E00060D00388502B37D0572B72D0102B59D1F1
:10B9F00081886069002601AA0196FFF7BBFF082233
:10BA000031460DEB020015F03FF802232189A8888A
:10BA1000CDF80CD002AA0293FFF7D5FF002841D140
:10BA2000A369002B3ED0039801F025FA002839D0F5
:10BA3000019B0BB101221A701822002104A815F0F5
:10BA400023F802238DF81030AB88ADF81830019B35
:10BA500005940793A36923E08188606902AAFFF730
:10BA600089FF1822002104A815F00EF8AB8821895F
:10BA7000ADF81830EB88029A05949942079218D1D4
:10BA80002E8A022E15D16AB105F1120001F0F3F9E8
:10BA9000029B48B101221A708DF81060A3690BB1A6
:10BAA00004A898470AB070BD187003238DF81030B1
:10BAB000F4E7A2899A42F5D1A369002BF2D00022C3
:10BAC0008DF8102005F1120208922A8AADF8242080
:10BAD000E6E78188606902AAFFF74CFF014600286B
