:020000022000DC
:1060000000F000203DB2030065B2030067B2030058
:1060100069B203006BB203006DB203000000000020
:106020000000000000000000000000006FB203004C
:10603000D5A902000000000073B2030075B203008E
:1060400077B2030077B2030077B20300B5C503004F
:1060500077B2030077B20300054F0300F5BF0300DA
:1060600077B2030077B20300F552030077B2030062
:1060700061B4030077B2030077B2030077B2030084
:10608000555003001940030077B2030077B20300B4
:1060900077B2030077B203004546030077B20300EE
:1060A00077B2030077B2030077B2030077B2030040
:1060B00085B9030077B20300000000000000000073
:1060C00077B2030095B9030077B2030011560300BD
:1060D000E1B5030077B2030077B2030000000000CF
:1060E00000000000000000000000000000000000B0
:1060F00000000000000000000000000000000000A0
:10610000000000000000000000000000000000008F
:10611000000000000000000000000000000000007F
:10612000000000000000000000000000000000006F
:10613000000000000000000000000000000000005F
:10614000000000000000000000000000000000004F
:10615000000000000000000000000000000000003F
:10616000000000000000000000000000000000002F
:10617000000000000000000000000000000000001F
:10618000000000000000000000000000000000000F
:1061900000000000000000000000000000000000FF
:1061A00000000000000000000000000000000000EF
:1061B00000000000000000000000000000000000DF
:1061C00000000000000000000000000000000000CF
:1061D00000000000000000000000000000000000BF
:1061E00000000000000000000000000000000000AF
:1061F000000000000000000000000000000000009F
:1062000010B5054C237833B9044B13B10448AFF3F0
:1062100000800123237010BD383C002000000000E6
:10622000207A040008B5034B1BB103490348AFF3C0
:10623000008008BD000000003C3C0020207A0400E3
:10624000A3F5803A704700BF174B002B08BF134BD4
:106250009D46FFF7F5FF00218B460F461348144A71
:10626000121A1AF0C7F90E4B002B00D098470D4BAD
:10627000002B00D098470020002104000D000D489D
:10628000002802D00C48AFF300801AF059F9200022
:10629000290000F00FFB1AF03FF900BF00000800D2
:1062A000000000000000000000F00020383C00204A
:1062B000F05F00200000000000000000074A0023FB
:1062C00032F8331021B1064B01221A7000207047BA
:1062D0000133042BF4D10120704700BF883C00201B
:1062E000843C0020064B002233F83210814202D158
:1062F00003EBC20070470132042AF5D10020704739
:10630000883C002038B50D46FFF7ECFF044678B115
:1063100043680BB128469847A17849B10139C9B201
:10632000A17029B920460822BDE838401AF062B9A8
:1063300038BD000038B50378044673B9456855B1D7
:106340001B481C4B1C49C01AC00800042A4640F0D8
:1063500001000CF009FF194B1D60A5892846FFF7C5
:10636000C1FF20B32378042B14D8022B1AD8013B89
:10637000012B17D9124B1A78CAB11249002031F8F3
:106380003020A2B901300428F9D11A70BDE8384094
:106390000DF07AB9052BEDD1302200210A481AF010
:1063A00029F9E7E761682846FFF7ACFFE2E738BD67
:1063B0000C7C0400CC7A04004C290400A832002094
:1063C000843C0020883C0020543C002038B5114813
:1063D000114C0BF08FFE054660B1104B104811496F
:1063E0001B1ADB081B042A4643F001000CF0BCFE1C
:1063F000256038BD0BF094FE054638B1074B0848C0
:1064000009491B1ADB081B042A46EDE72368082B01
:10641000EFD1FEE735630200A83200200C7C0400B7
:10642000CC7A0400672904007D2904002DE9F0419D
:106430001B4C16462268082A88B0074688461D4627
:1064400001D1FFF7C3FF206810BB7C1E4BF6FE7224
:10645000A4B294421FD808F1FF339BB293421AD8DA
:10646000DEB1D5B1CDE9010001AB05AA4146384600
:106470000CF012F860B903A905A80BF069FF38B950
:10648000049B3360039B5B882B8005A80BF086FF81
:1064900008B0BDE8F0810720FAE70E20F8E700BF5A
:1064A000A83200202DE9F041404E98463368082B71
:1064B00088B004460F46154601D1FFF787FF3668BE
:1064C000002E65D1601E4BF6FE7280B2904261D8FC
:1064D0007B1E9BB293425DD8002D5DD02046CDE956
:1064E0000358ADF80840ADF80A70FFF7FBFE05460B
:1064F00020B9FFF7F7FE054600284FD0AB782C8077
:106500000133AB700E9B6B600023CDE90033BDF807
:106510000A10BDF808006B4605AA0BF0BDFF044643
:1065200040BB02A905A80BF061FF48F20663984240
:10653000044610D10BF08AFFBDF808201C4B04461E
:106540000C2101FB06F0C75A97421CD10C2202A96C
:1065500018441AF041F84CB1A97839B10139C9B2DF
:10656000A97019B9082228461AF044F8204608B044
:10657000BDE8F08148F20963984211D102A905A84B
:106580000BF030FFD1E70136042EDAD11124E3E716
:106590003446EBE70724E9E70E24E7E71124E5E7B3
:1065A00048F206639842D7D1C4E700BFA832002062
:1065B000543C0020F8B5194C2268082A06460F46BC
:1065C00001D1FFF703FF256815BB731E9BB24BF685
:1065D000FE7293421ED83046FFF784FE044618B977
:1065E000FFF780FE0446B8B1A37826800133A3707C
:1065F000676030460BF002FF054648B1A17839B11B
:106600000139C9B2A17019B90822204619F0F2FF68
:106610002846F8BD0725FBE71125F9E7A832002039
:10662000FF2808B501D100F0D7FD0FF049FF60B198
:10663000064A074B07499B1ADB081B04024643F036
:106640000100BDE808400CF08FBD08BDCC7A040005
:10665000247B04009429040037B50378042B0446F6
:1066600034D1D0E903052D1AADB2294600F0CEFD94
:10667000024608B100205BE0A18A2069491B89B26B
:1066800010F098F90928F5D00728F3D050B1294A1D
:10669000294B2A499B1ADB081B04024643F00100E0
:1066A0000CF062FDE0680022294600F0BFFD08B949
:1066B00001203DE01F4A204B21499B1ADB081B04A7
:1066C000024643F001000CF04FFDF1E7052BEFD13E
:1066D000037B023B062BCDD801A252F823F000BF6A
:1066E000FD66020015670200756602001B67020066
:1066F000756602007566020025670200037C8DF84E
:10670000063083681B88ADF8043001A9042001F02D
:10671000A9F8CDE700210920F9E70023019301A999
:106720000B20F4E710300FF0DBFEB0FA80F04009E8
:1067300003B030BDCC7A0400247B0400B0290400EF
:10674000D0290400012808B50BD80021084601F023
:1067500033F80021012001F02FF80021022001F080
:106760002BF8012008BD000008B50D4B1A78AAB11E
:106770005A6802B958601A78013AD2B21A706AB9E6
:106780005A78012A03D19A680AB158689047BDE83F
:10679000084003481022002119F02CBF08BD00BF9B
:1067A000B43C002008B51C4A13689BB3013B13603E
:1067B00083BB1A4B0120187001F086FE50B1184AB5
:1067C000184B19499B1ADB081B04024643F00100D1
:1067D0000CF0CAFC01200FF063FE50B1104A114BBF
:1067E00012499B1ADB081B04024643F001000CF01F
:1067F000BBFC0F480DF0C7F960B1094A094B0D49C0
:106800009B1ADB081B04024643F00100BDE8084068
:106810000CF0AABC08BD00BFA83C0020B03C002082
:10682000CC7A0400247B0400ED290400082A04002B
:10683000B0320020262A040008B5017881B94068EA
:1068400010F0F4F8D0B10E4A0E4B0F499B1ADB083A
:106850001B04024643F00100BDE808400CF084BC74
:1068600001290BD1406810F053F938B1044A054BA7
:1068700006499B1ADB081B040246EBE708BD00BF74
:10688000CC7A0400247B04003F2A04005C2A040024
:1068900007B5037853B94FF6FF73ADF8043001A97B
:1068A00043788DF80630042000F0DCFF03B05DF87B
:1068B00004FB0000F0B595B003F02CFF20B19D4A19
:1068C00040F22B310DF0DEFB0DF0EEF8044650B136
:1068D00099489A4B9A49C01AC0080004224640F0D1
:1068E00001000CF041FC0CF093FE054650B19348BA
:1068F000914B94491B1ADB081B042A4643F0010004
:106900000CF032FC904A914801210DF0FFF8002C68
:1069100008BF2C460546002800F007818748864BB3
:106920008B491B1ADB081B042A4643F001000CF0BC
:106930001BFC002C08BF2C467E4A40F22E3120461C
:106940000DF0A0FB83480DF1070100F0D9FA20B14A
:10695000784A40F233310DF095FB02A80FF06EFB40
:10696000044650B17548744B7B491B1ADB081B0465
:10697000224643F001000CF0F7FB784B039303A889
:1069800000F0F0FE20B16B4A4FF44F710DF07AFB2E
:106990000AAF282200213846029D19F02BFE082359
:1069A0008DF828302E68B3888DF82930B3680B93A2
:1069B0009DF8303023F00F0343F00F038DF8303093
:1069C000AA6807CA0DAB83E80700654B1193002145
:1069D000182204A819F00EFEB3788DF81030338811
:1069E000ADF812306B6805935E4BCDE90637D5E9FB
:1069F000030108AB83E8030004A802F0E9FF20B11B
:106A00004C4A40F23F310DF03DFB029B1B68DA68B7
:106A10000B921A690C925B690D933846524B0A939C
:106A200003F0D2FD054680B14448434B4F491B1A41
:106A3000DB081B042A4643F001000CF095FB3D4A9D
:106A400040F2473128460DF01DFB34B101210020F2
:106A500000F0B2FE03F0A6FFFCE7454B01201870E2
:106A6000444B1C600FF01CFD20B1324A4FF45571AD
:106A70000DF008FB012001F027FD20B12D4A40F266
:106A800057310DF0FFFA9DF80730FF2B03D100F0CE
:106A9000A3FB8DF807009DF807000FF011FD20B152
:106AA000244A4FF457710DF0EDFA334D0FF052FDBB
:106AB00000F080FE0DF090F8296804460DF087F88C
:106AC000B0F5A47F22D32C6001F09EFD044601F0B6
:106AD000A7FD032C014620D008BB013CE4B2012CE9
:106AE00098BF0221012000F067FE01F093FD0446EB
:106AF00001F09BFD032C014613D0A0B9013CE4B288
:106B0000012C98BF0221022000F056FE03F030FE57
:106B10000028CBD10CF092FDC8E70121E2E7032168
:106B2000E0E70121EFE70321EDE7002C3FF40AAF96
:106B300002E700BF7B2A0400247B0400CC7A040017
:106B4000872A04009B2A0400A5670200882B040002
:106B5000BA2A040021660200D52A04001D6C020036
:106B6000596602003968020091680200E92A0400AF
:106B7000B03C0020A83C0020AC3C002010B51F4BCE
:106B80001A78012A37D802221A701D4800224FF4C1
:106B900020310CF0CDFF50B11A4A1B4B1B499B1AF8
:106BA000DB081B04024643F001000CF0DDFA022072
:106BB00001F08AFC50B1134A134B15499B1ADB08AC
:106BC0001B04024643F001000CF0CEFA02200FF045
:106BD00067FC044650B10B480B4B0E491B1ADB08EF
:106BE0001B04224643F001000CF0BEFA0A4B1222AD
:106BF0001A60204610BD0024F8E700BFB03C00201A
:106C0000B0320020CC7A0400247B0400FB2A04006C
:106C1000ED290400082A0400A83C002070B50646AF
:106C2000FFF7ACFF33780A2B70D00B2B14D0092B55
:106C300040F09680032001F047FC054650B15048D3
:106C4000504B5149C01AC00800042A4640F00100C8
:106C50000CF08AFA284670BD4C4C2378002B40F08B
:106C60008480032323700123637049487368A36001
:106C700000F01AFB88B12378013BDBB22370636814
:106C800003B160603F4A3E4B42499B1ADB081B043C
:106C9000024643F001000CF067FA3D480FF0E6FEB3
:106CA00088B12378013BDBB22370636803B1606075
:106CB000344A334B38499B1ADB081B04024643F025
:106CC00001000CF051FA324801F0D6FC054688B1BB
:106CD0002378013BDBB22370636803B1606028480E
:106CE000284B2E49C01AC00800042A4640F0010073
:106CF0000CF03AFAA368002BACD1244A12F8011B1D
:106D0000002934D10133102BF8D1A3E71F4C23788D
:106D10005BBB0123237063701D487368A36001F09F
:106D2000ABFC054688B12378013BDBB22370636876
:106D300003B160601248134B1849C01AC008000420
:106D40002A4640F001000CF00FFAA368002B81D115
:106D50000E4A12F8011B51B90133102BF9D179E712
:106D60003046BDE8704000F025B9082572E760683C
:106D70007368984710220021044819F03BFC69E72A
:106D8000247B0400CC7A0400182B0400B43C0020BF
:106D900069670200372B0400532B0400702B04009A
:106DA00010B50D4C214614F81030C3F340029B0778
:106DB00006D511F810305B07044604D5002208E020
:106DC0000138C0B2EFE7431CD8B211F81430DC0729
:106DD000EFD4104610BD00BFD0320020002270B5A5
:106DE000114600F1100614461346057815F0020FFF
:106DF0001CBF01335BB215F0040F1CBF03F1FF335E
:106E00005BB215F0080F1CBF0134E4B215F0100F8F
:106E10001CBF0131C9B2AD0648BF0132DDB248BF67
:106E2000D2B2012D0AD8022C08D0022906D0022A9B
:106E300004D00230B042D8D1012070BD0020FCE760
:106E4000FF281649024607D10023D8B2013311F8B2
:106E50001020D207F9D4704711F810305B070BD41B
:106E6000431CD8B211F81030DB0715D59042F3D18E
:106E700013460CE0431ED8B211F810309B07F9D529
:106E8000F0E70133D8B207284FF00002F0D811F82C
:106E90001320D207D8B2F4D4704700BFD0320020FC
:106EA000FF281649024614D011F810309B0714D45D
:106EB000431ED8B211F81030DB071DD59042F3D134
:106EC000134614E00138C0B211F81030DA07F9D4D3
:106ED00070470720F8E7431CD8B211F810305B0761
:106EE000F9D5E7E7013B581C4FF00702E8D011F84D
:106EF0001320D207D8B2F5D4704700BFD03200209B
:106F00001FB5002846D0002944D0234B1860234BDE
:106F100023481A68824209D11A79083AD2B2F62A6D
:106F200004D95A79083AD2B2F62A03D84FF6FF723A
:106F300018609A801B790B7003AA0DF10A030121D6
:106F400043F2DE00FFF772FA044688B9BDF80A3052
:106F5000052B0BD10399043108460191FFF73EFF41
:106F6000019918B10F48102219F036FB00240EE0E9
:106F700048F209639842F9D00B480C4B0C49C01AEF
:106F8000C0080004224640F001000CF0EDF8204655
:106F900004B010BD0E24FAE7C43C002000F000202D
:106FA000BD34D330D0320020247B0400CC7A0400DE
:106FB0008C2B0400F7B50378082B0AD8DFE803F020
:106FC000052034094E73B77ABC00794B4FF6FF7237
:106FD0009A804FF6FE74764B187903F021FB30F05F
:106FE000080349D0062847D0724A734B73499B1A4D
:106FF000DB081B04024643F002000CF0B5F83BE04E
:107000006F4A002312F813100D0708D5DBB2684A47
:107010001179994208BFFF2313715371D9E70133E6
:10702000082BEFD1FF23F2E7654A002312F8131073
:10703000CC060ED5DBB25E4A1179994208BF53796E
:1070400013715B4A5F4B10791B689847002003B0AF
:10705000F0BD0133082BE9D1FF23ECE78379544AD3
:107060008488082B28BFFF23137153714FF6FF73D9
:107070009C42B0D14FF6FE744D4BADF804401B79E5
:107080008DF8063001A802F07FFE0028D9D0494AC9
:10709000494B4D499B1ADB081B04024643F0020092
:1070A0000CF062F8CDE7424C2079FFF7C9FE207161
:1070B00060718EE73E4E424F3379FF2B32D1002371
:1070C000DCB2013317F81420D007F9D42546234643
:1070D000013417F813305A07E4B2F8D5082C28BF4A
:1070E00000242046FFF75CFE0028F0D02544EDB2D6
:1070F000A54203D017F814305B0715D517F81430E4
:10710000DD0703D52046FFF79BFE044634717471FA
:107110005FE7013CE4B217F814201D1B9107EDB2A4
:10712000F7D5D4E71C46F6E70134E4B2E0E7204C9B
:107130002079FFF7B5FEBAE71D4E214F3379FF2BBB
:1071400031D1072317F813501C4615F0010503F140
:10715000FF33DBB2F6D12346013C17F81330990711
:10716000E4B2F8D5072C28BF07242046FFF718FE05
:107170000028F0D0651BEDB2A54203D017F81430FB
:107180009A0712D517F81430DB07BFD52046FFF752
:1071900087FEBAE70135EDB25C19E4B217F81420A6
:1071A0005007F7D5D7E70025F6E7013CE4B2E3E75F
:1071B00000F00020CC7A0400247B0400A62B0400FD
:1071C000D0320020C43C0020B92B0400014B1879B8
:1071D000704700BF00F00020064B002013F810207D
:1071E000920601D5C0B2704701300828F6D1FF20C1
:1071F000704700BFD032002018B1034B036000205D
:1072000070470E20704700BFD032002008B540B153
:10721000102908D1FFF7E2FD002814BF0020072045
:1072200008BD0E20FCE70920FAE7000073B50C4604
:107230001646054630B3102926D1FFF7CFFD28B3F7
:1072400022462946124819F0C7F92246104911482A
:1072500019F0C2F9104A00960523012143F2DE001D
:10726000FFF720F9044650B10C480D4B0D49C01AE8
:10727000C0080004224640F001000BF075FF2046D4
:1072800002B070BD0E24FAE70924F8E70724F6E7F8
:10729000D0320020E4320020E0320020247B0400C1
:1072A000CC7A0400CC2B04001FB50446B8B11022E0
:1072B0000021684619F09EF90A4B0B4A0B48CDE9AC
:1072C00000330B4B6946CDE90223102219F084F9F3
:1072D000214643F2DE00FFF76DF904B010BD0E2029
:1072E000FBE700BF0200040003000100D0320020D1
:1072F0000100050070B5264D2B78834204460BD162
:107300002448254B2549C01AC0080004BDE8704038
:1073100040F002000BF024BF0128214E1CD1306840
:10732000431C01D00DF0CCFDF068411C01D00DF0E4
:10733000C7FD1C480022A4210CF0FAFB50B1164AEC
:10734000144B19499B1ADB081B04024643F0010049
:107350000BF00AFF2C7070BD12480CF014FC50B1F9
:107360000D4A0C4B11499B1ADB081B04024643F0E3
:1073700001000BF0F9FE3068421C02D001210DF033
:107380005BFDF068431CE5D001210DF055FDE1E700
:10739000113D0020747B0400CC7A0400E32B040030
:1073A000C83C0020F8320020FE2B0400162C0400FC
:1073B00010B50DF0C5FCB0B1164B17484FF0FF31BA
:1073C000042219605A72D9605A750121134A0CF0CF
:1073D0009DFB0446C8B11248124B1349C01AC0089D
:1073E000000422460BE00DF06DFC04460028E3D0BB
:1073F0000B480C4B0D49C01AC0080004224640F04F
:1074000001000BF0B1FE204610BD094B01221A709D
:10741000F9E700BFC83C0020C02C04001976020028
:10742000747B0400CC7A0400502C04002E2C040041
:10743000103D002030B4194A1368984213D0D36825
:10744000984212D101210C2000FB01F44FF0A0431F
:107450001519D3F810351459E3402C7A03F00103C1
:1074600074B1DBB20EE00021EDE70D480D4B0E4983
:10747000C01AC008000430BC40F002000BF070BE1F
:1074800083F0010300FB0122D27A9A4203D030BC80
:107490000120FFF72FBF30BC704700BFC83C002061
:1074A000747B0400CC7A0400702C040037B50446C9
:1074B000002843D0234B1B780BB9FFF779FF224BF1
:1074C0001A68013233D0DA68013239D101210C2235
:1074D0004A43206898509918237A0B7263684B606E
:1074E000637A4B7203238DF804309DF80630174AF7
:1074F000206823F007038DF80630237A002B0CBF99
:107500000323012301A98DF805300DF023FC054666
:1075100078B10F480F4B1049C01AC00800042A4622
:1075200040F001000BF020FE284603B030BD0021E2
:10753000CDE7206801210DF07FFCF5E70E25F3E78C
:107540000425F1E7103D0020C83C002035740200FE
:10755000747B0400CC7A0400942C040038B50446F3
:10756000D8B10368CBB10E4B1B780BB9FFF720FFE6
:107570000C4A00230C2000FB03F18D5855B92568F7
:107580005550D8B25318A2889A80E288DA802289AE
:107590001A8138BD0133042BEDD10420F9E700BF77
:1075A000103D0020E03C00200328F7B504460D46BE
:1075B0002BD80C23164F4343FE18FB582BB372896C
:1075C00082B9012902D0002003B0F0BD114601921A
:1075D0009847104B75811B78012BF4D02846FFF794
:1075E00089FEF0E70029EED1F188914207D204210B
:1075F00098470C2000FB047400226281E3E7B18805
:10760000914234BF02210121F2E70720DCE700BFED
:10761000E03C0020113D00202DE9F8430025DFF873
:10762000D8902E464FF0A047A846D9F80000431C3A
:1076300025D0D7F8104599F80830C44004F001046B
:10764000002B44D184F0010499F80B30A34216D0EA
:1076500099F80A305A1C032B89F80A2039D9D9F82D
:10766000043089F80B4089F80A800BB1214698470D
:1076700099F80900042802D82146FFF795FF09F17F
:107680000C0916B300271B4C3E46D4F80080B8F115
:10769000000F0ED0628962B123899A421BD1052165
:1076A000F0B2C04700236381638913B10133638162
:1076B00001270136042E04F10C04E6D1BDB9B7B997
:1076C0003846BDE8F843FFF715BE0126ADE7E4B242
:1076D000BAE70125D3E7E188B2FBF1F301FB1323FD
:1076E0009BB2002BE0D10321F0B2C047DCE7BDE83C
:1076F000F88300BFE03C0020C83C002070B5154D69
:10770000154A2B78154E01332B70137823B1013BAA
:10771000DBB2137003B9F3700024E0B20CB9F37854
:1077200003B9335D032B06D0022B0BD12B7803F06A
:107730000303032B0BD1012101340FF0F1FB032CC8
:10774000EBD170BD012B02D12B78DB07F3D40021E4
:10775000F2E700BF1C3D0020133D0020143D002037
:10776000FFF7CCBF10B5B0B10368A3B10B4A0C480A
:10777000136001210B4A0CF0C9F9044648B10A48CC
:107780000A4B0B491B1ADB081B0443F001000BF0EA
:10779000E7FC204610BD0E24FBE700BF183D00208B
:1077A000EC2C040061770200CC7A0400747B0400A6
:1077B000C42C0400704700001F4B70B51E46002407
:1077C0001D4616F8012B12BB0134042CF9D10328F5
:1077D00031D82C5C8C422ED02954002113F8010B97
:1077E000B8B901310429F9D16AB1144A1378013BBF
:1077F000DBB213703BB912480CF0C5F918B1114A4D
:107800004E210CF03FFCBDE87040FFF777BF01222E
:10781000DDE7002AF7D109490B78581C0870002BC6
:10782000F1D107484FF400510CF082F90028EAD05A
:10783000044A5321E5E770BD143D0020123D0020AD
:1078400018330020DB2C040008B538B903210320CD
:10785000FFF7B2FF024B06221A7008BD0121F6E7BE
:10786000133D002007B50B4B1B688BB18DF8000052
:1078700009B10A6801920A38012804D809B10A68D6
:107880000AB9054A01926846984703B05DF804FBBF
:107890000E20FAE7183D00204978020074DF704797
:1078A00075DF704776DF704777DF70478CDF704792
:1078B0008FDF70471FB5064B1B6833B100228DF870
:1078C00008008DF8042001A8984705B05DF804FB76
:1078D0005C410020054B0649024606481B1ADB089E
:1078E0001B0443F001000BF03FBC00BF5C7B0400B5
:1078F000F02C0400CC7A0400024A40F2AE210CF0D5
:10790000C1BB00BF052D04002DE9F041124B134C03
:10791000DFF84C80E41AE408240494B00E4644F0E6
:10792000010405464FF6FF77284608F05FF8B84295
:1079300005460DD0694608F08BF8024620B1414655
:1079400020460BF011FCEFE79DF80030B342EBD17D
:10795000284614B0BDE8F081CC7A04005C7B0400BA
:107960001B2D04002DE9F341014606464FF6FF703A
:10797000FFF7CAFFDFF84880044600254FF6FF777F
:10798000BC4203D1284602B0BDE8F0810DF10601EA
:10799000204608F007F820B142464FF486710CF0FB
:1079A00071FBBDF8060004F0F3FF022818BF013593
:1079B0002046314618BFEDB2FFF7A6FF0446DFE7C9
:1079C000052D040070B58CB004462C22002101A8BE
:1079D00018F010FE40F20113ADF80830502240F6C6
:1079E000B833CDE90523012C4FF4C86307931ED0AB
:1079F000A31E012B94BF03260026234B234D93F88F
:107A00005400FFF74BFF032C1DBFAB78B3FA83F391
:107A10005B090123EB7005F019F8012809D100205A
:107A2000FFF748FF00242C7020460CB070BD0426E0
:107A3000E3E7EB7823B90120FFF794FF0028EED0AD
:107A400054B9012310488DF8043001A903F0CDFA90
:107A50002046FFF72FFFE6E70B4801A903F0C5FA20
:107A60000948314603F080F904460028DCD0084B71
:107A700008480949C01AC0080004224640F0010025
:107A80000BF072FBD0E700BF203D002054410020E6
:107A9000CC7A04005C7B04003A2D0400032838B53E
:107AA00004460BD0042818D038B9184D2B78A342BF
:107AB00003D02046FFF7FEFE2C7038BD134B5878DC
:107AC000012803D1BDE83840FFF77CBF9A78C2B1E6
:107AD000DB78002B08BF0224E7E70C4DEB7893B16D
:107AE000AB7883B10120FFF73DFF044638B9084B5E
:107AF00093F85400FFF7D2FE0023EB70D5E7012482
:107B0000FAE70224D1E70124CFE700BF5441002067
:107B1000203D002007B5019005F0ADFE0D4B0E494C
:107B2000019800221A700D4A0123FFF7BFFE68B1C9
:107B30000B4A0C4B0C499B1ADB081B04024643F012
:107B4000020003B05DF804EB0BF00EBB03B05DF870
:107B500004FB00BFD041002034300400003004009A
:107B6000CC7A04005C7B04005C2D0400F0B5044674
:107B700085B00220FFF7F6FE064604F057FF0746E1
:107B800004BB05F078FE25461D4E3278A2420AD08D
:107B90001C4B1B6833B101228DF804208DF808407E
:107BA00001A89847347055B11748184B1849C01AA6
:107BB000C00800042A4640F001000BF0D5FA284620
:107BC00005B0F0BD134A1448631E0E2101FB0321CA
:107BD00005F0E4FE054620B1104A4FF4E4710CF0C4
:107BE00051FA022F07D8032C00D036B10A4805F00D
:107BF0009FFE0546C8E70024C6E73446C4E700BF39
:107C0000D04100205C4100205C7B0400CC7A040061
:107C1000852D04001830040078410020052D040053
:107C200013B513210190FFF73DFE019A034660B1A1
:107C30000748084C0849241AE408240444F00200C8
:107C400002B0BDE810400BF098BA02B010BD00BF02
:107C5000CC7A04005C7B0400A02D040013B504461C
:107C600008F050FB204608F077F92378043B0C2BF2
:107C700015D8DFE803F02C18141414141414141677
:107C800007142900A068294B1B6803B19847284BAB
:107C90005878FFF76BFF274B5878FFF793FE02B039
:107CA00010BD0020EFE7234B60889B7853B1224B37
:107CB0001B881A1A5342534101A98DF8043007F06A
:107CC00047FEECE70123F7E707F046FEE7E76389A5
:107CD00041F20602934226D1608804F047FE022852
:107CE000608813D1154B9B7B83B1012107F022FEE5
:107CF0000028D4D0124A134B13499B1ADB081B04EB
:107D0000024643F002000BF02FFAC8E704F02EFE03
:107D1000012804D1084B62881B889A42BFD02046B4
:107D200008F01AFBBBE7B3F5885FF7E7584100207E
:107D3000D0410020544100206041002064410020D7
:107D4000CC7A04005C7B0400E12D04007FB503883D
:107D50001F2B044600F0138108D8112B1DD01B2BBC
:107D600000F0FA80102B57D004B070BD3B2B00F010
:107D70001281562B00F01A81212BF5D10023808827
:107D8000ADF8043001A9FFF793FD0028ECD08D4A2F
:107D90004FF480610CF076F9E6E78588284604F018
:107DA000E5FD0128044621D1874B1A88AA4204BF69
:107DB0004FF6FF721A80854B1B6843B103228DF882
:107DC0000420ADF808508DF80A4001A89847804E6D
:107DD00033687BB104F024FE0028C5D107F04EFEC5
:107DE00008B13368984700233360BDE70228E2D129
:107DF000784BDAE7022CB7D1774CA389AB4206D196
:107E00002046FFF787FE4FF6FF73A381ACE7734B65
:107E10005878FFF7ABFEA7E78588284604F0A6FD53
:107E20000023CDE90133064603938DF80A000223AF
:107E30000422294603208DF80430ADF80850FFF7DE
:107E400033FD50B1664A674B67499B1ADB081B0438
:107E5000024643F001000BF087F9022E4AD15E4939
:107E6000072204F1080018F0A9FB08B35D485C4B39
:107E70005E49C01AC008000440F001000BF070F920
:107E8000564C55480722002118F0B4FB2278022AEC
:107E900003D1574B5878FFF795FD6078FFF766FEE2
:107EA0004A4B1B68002B3FF45FAF01A898475BE784
:107EB0008DF800006946284607F06AFD9DF800101D
:107EC00011F008010ED1284607F034FD50B1444AA4
:107ED000444B48499B1ADB081B04024643F002004E
:107EE0000BF042F93C4B9B68002BC9D00393394BF4
:107EF0001D80C5E7012ED3D13D4CE678BEB1A378F5
:107F0000002B0CBF01230023E3702F4B1D8004D0F6
:107F10000220FFF7CFFC0223237004F097FD012815
:107F200014D10020FFF7C6FC00232370B8E7694690
:107F3000284607F049FDBDF800204FF6FF739A422E
:107F4000EBD131462846FFF76BFEE6E70120FFF74D
:107F500009FD0028E5D0A3E7037A022B7FF404AFE4
:107F60001E4C1D480722002118F044FB2278032AEA
:107F700003D11F4B5878FFF725FD607849E700F1E2
:107F800008018088FFF78CFC00283FF4EDAE0D4A15
:107F900040F20A41FEE680881321FFF783FC0028A7
:107FA0003FF4E2AE074A40F21241F3E68088132123
:107FB000FFF778FC00283FF4D7AE024A40F21A419E
:107FC000E8E600BF052D0400604100205C41002070
:107FD000584100207441002064410020D04100201D
:107FE000CC7A04005C7B0400142E0400362E0400BE
:107FF00054410020522E04002DE9F04F037887B041
:108000000646042B46D8DFE803F0550355454800E3
:1080100002214FF6FF70FFF777FC002504464FF66C
:10802000FF76B44234D0072D18D9294602A807F0AC
:108030009BFC20B16C4A4FF4D7710CF023F8294611
:1080400002A807F09BFC43F20422904222D008B31E
:10805000654A4FF4DA710CF015F81BE001A92046CF
:10806000ADF8046007F09EFCBDF8040004F090FC3D
:1080700002281CBF06AB03EB450320464FF002016C
:108080001CBF23F8104C0135FFF73EFC0446C8E73F
:10809000002DCAD107B0BDE8F08F544B5878FFF7D8
:1080A00065FD534B9A78022A14BF58780320FFF7D6
:1080B00089FCEFE744684F480023072202A9029396
:1080C000CDF80B3018F07AFA48B14B484B4B4C497D
:1080D0001B1ADB081B0443F001000BF041F8494F69
:1080E000494DD4F81890B4F81CA0ED1B2D094FF0A1
:1080F000000B5FFA8BF39D4241D8444DA069A18BE0
:1081000040F20113ADF8043001AA2B788DF8063047
:1081100004F0B2F990B12346364A53F8020F1060CA
:108120009979988891710021908091603178B1FAA5
:1081300081F1490918469173FFF7ECFC40F20133D5
:10814000A069A18BADF8043001AA2B788DF8063018
:1081500004F092F900289DD054F8020F254BA27923
:108160001860A1889A71002299809A603278B2FAD8
:1081700082F2520920469A73FFF7CCFC8AE71A0173
:1081800007EB03185146BB58484698470BF1010BC3
:108190000028AED0154B9B78002BAED12346154D51
:1081A00053F8020F28609A799988A980AA71C5F8B6
:1081B00008803278164FB2FA82F252093888AA73D0
:1081C0004FF6FF72904203D11846FFF7A3FC94E7E5
:1081D0003178002991D1AB8983428ED0FFF720FD01
:1081E0003B88AB8189E700BF052D0400D04100200A
:1081F0005441002064410020CC7A04005C7B0400E0
:108200006F2E04006C7C04008C7C0400D4410020A0
:1082100074410020F0B50546AFB0002800F0DB80C7
:108220008C4B02681A600021782203A818F0E2F94A
:108230002C22002121A818F0DDF9502140F6B83396
:10824000CDE925134FF4C863279340F20133ADF80D
:1082500004306B798DF8063040F201128DF80A3047
:108260007D4BADF88820ADF808202A799A7002235A
:108270008DF80C3006238DF80F300123ADF8143043
:108280008DF84A30ADF85030744B2C9301AF744BDD
:108290007448069702AE03A915962D9302F0E5FCEB
:1082A00050B1714A714B72499B1ADB081B0402469C
:1082B00043F001000AF058FF6A4C0121204602F009
:1082C000D1FC94F8541004220120FFF7EDFA044683
:1082D00050B16648644B6749C01AC0080004224682
:1082E00040F001000AF040FF634A4FF6FF7313802D
:1082F000002C4BD161496A790A708DF80A20604AD6
:1083000060489381604A069441F612011380ADF8EB
:1083100004105E4B039340F201315D4BADF8081041
:1083200001255C4A049403A98DF8065005938DF845
:10833000185005F0A2FA0446E8B952483A4603211B
:1083400005F066FA044620BB4E483246032105F08C
:108350005FFA0446E8B902461F214A4805F077FA59
:10836000044600285ED041483F4B4B49C01AC00824
:108370000004224606E03D483B4B4849C01AC0086D
:108380000004224640F001000AF0EEFE20462FB025
:10839000F0BD3648344B4249C01AC008000422469A
:1083A000F0E703A807F0BCFA044638B12F482E4B7B
:1083B0003C49C01AC00800042246E3E73A4807F0E7
:1083C00097FA044648B12948274B3849C01AC008D3
:1083D00000042246D6E70E24D8E701461C2203A853
:1083E00018F008F9324B03934FF4A0324FF4F02306
:1083F000CDE9042303238DF8183003A82D4BADF8E5
:108400001A4008948DF81C50099304F081F9044631
:108410000028BBD01548144B2749C01AC0080004D7
:108420002246AFE7254A264B024000F0FC0040F010
:10843000030413438DF81040039307F0D1F9044669
:108440000028AED00948084B1E49C01AC0080004D5
:10845000224697E75C410020544100209D7A0200AB
:10846000D5780200203D0020CC7A04005C7B04001B
:10847000A12E0400C52E040060410020D44100203C
:10848000644100207841002074410020183004002D
:1084900000300400F97F0200252F0400E82E0400BC
:1084A000092F0400672F04005D7C02008B2F04005D
:1084B00010300400F9780200B62F04008E0000FC92
:1084C00031071003422F04002DE9F04F454D6B7822
:1084D00001288CBF00220122012B8CBF0023012325
:1084E0009A428FB004464BD001283F4A3F4EDFF8F6
:1084F00014B18CBF0823002303A802EB030804F087
:10850000C1FA3B4BF61AF6083604002746F001067E
:108510000DF11009BA46039BBB4217D8032C354B0B
:1085200031D119786E7803292ED0334B93F854004B
:10853000FFF7B4F90020FFF7BDF9002320462B70A8
:108540006E700FB0BDE8F04FFFF710BB39F8023B7B
:108550000193184604F01CFA0228019B0ED14146F3
:10856000184604F00FF9824640B143F202039842E4
:1085700004D00246594630460AF0F6FD0137CAE7F4
:108580004FF0000ACAE726465978A14206D0032CCC
:1085900004D020465C70FFF7E9FA8246A9780129E9
:1085A00013D1164B187880B919706E70BAF1000F9C
:1085B00002D00320FFF706FA1CB91148214604F047
:1085C000BBFA50460FB0BDE8F08F6B78B342F3D0E2
:1085D0006E703046BAF1000FECD1FFF7F3F9824626
:1085E000EAE700BF54410020083004005C7B04002F
:1085F000CC7A0400D0410020203D0020D34100204F
:10860000217C0200E32F0400014B1878704700BF63
:1086100054410020014B1878704700BFD041002022
:1086200008B504F013FAC0B208BD08B504F0FEF9AD
:10863000C0B208BD00487047103004000148002156
:1086400004F07ABA217C0200094A937850B10133D0
:108650009370084B18884FF6FF73984206D000219C
:10866000FFF7DEBA13B1013B93707047704700BF4C
:10867000D04100207441002070B504460B4E05F037
:10868000FAF80020FFF79EF909483460002104F051
:1086900053FA054640B907F0F1F9044610B13368C2
:1086A00098473560204670BD0024FBE75841002004
:1086B000217C0200A8DF7047ADDF7047AEDF704756
:1086C000B0DF704762DF704770B5094B1B780A2531
:1086D000013B4E195A1C01D1002407E005FB03F2AF
:1086E0008C180A3A013BB25A8242F3D1204670BD3F
:1086F000D541002070B50C4686B0064615460021CF
:108700001822684617F076FFE36A8DF80060CDE91D
:1087100001450BB16846984706B070BD70B5054677
:1087200086B08B79ADF806300C461022002102A8E5
:1087300017F060FFAB89ADF808300023ADF80C30BE
:108740000DF106030226049320888DF80A60E31DCC
:1087500002A90593FFF7B2FF40B9A279BDF8063030
:108760009A420ED10323637106B070BD132806D060
:10877000002363712B6B002BF6D09847F4E76671EA
:10878000F2E70C20F4E700002DE9F047C94B90B068
:1087900000AF904603F1100C07F110020546894620
:1087A0001646E24618685968144603C40833634500
:1087B0002246F7D1002D00F07B81B8F1000F00F0C8
:1087C000778198F8011021B1D8F80430002B00F01F
:1087D0006F8198F80030002B00F04B810023DAB253
:1087E000914200F23481B9F1000F00F04281B24BA6
:1087F00083F80090D8F81C30EB62D8F820302B6357
:108800004FF6FF7109F1FF395FFA89F9B9F1FF0FEE
:1088100040F0318129463046FFF754FF04460028D6
:1088200040F010812A46391D12F8023BBB7101202D
:1088300040F20133BB80FFF73DFF0446002840F0C3
:1088400001812022BAF800303B810146B81887F830
:108850000A9017F0CFFE2A4640F202333B8412F80A
:10886000043B87F82230954B688807F10806C7E972
:108870000936BB8D23F4875323F01F0343F4805341
:1088800043F00103BB8507F12001012387F8333052
:1088900004F0A6F90446002840F0D48020220146C6
:1088A000B81817F0A7FE98F801305B000B3303F4FB
:1088B0007E73E946ADEB030D98F8003085F824305F
:1088C00098F8013085F82530B8F80830EB8498F82E
:1088D00000308DF8003098F801308DF8013069468D
:1088E0000DF1020CE2B293420CF1020C00F2C980CD
:1088F0005A1CB8F8080001F81200023301EB4202DA
:108900005B00000A5070FB8440F20332BB8497F88E
:108910002D303A842A7887F82220B96243F0020386
:10892000688887F82D304FF0010A324607F12001A0
:1089300087F831A004F054F90446CD46002840F0F1
:10894000818020220146B81817F054FE2A464FF4C1
:1089500041733B8412F8143B87F82230B8F8143086
:10896000FB84BB84D8F80C30BB6297F82D30688844
:1089700087F834A023F00A0343F00A0387F82D3068
:1089800040F201133B8607F1200198F8183087F870
:10899000323004F025F90446002853D1B8F81430D9
:1089A0002B85142B08D9D8F8240028B1A98A04F003
:1089B00049FA0446002845D120220021B81898F829
:1089C000194017F017FE2A4640F205333B8412F88F
:1089D0000C3B87F822301423BB84688887F8324028
:1089E00042F601034FF0010807F1200187F83340F8
:1089F000BB8587F8308004F0F3F8044610BB2022D2
:108A000001463881B81817F0F5FD2A4640F20633C2
:108A10003B8412F81C3B87F82230294B688887F882
:108A20003380C7E90936BB8D23F4875323F01F0336
:108A300043F4805343EA080307F12001BB8504F0A7
:108A4000CFF8044620464037BD46BDE8F087D8F849
:108A5000044003EB4302A018A45C54B142780F2AEF
:108A600007D8944205D982780F2A03F101037FF6D3
:108A7000B6AE0724E6E76A6B09EB890322F8131008
:108A8000C0E6D8F804A004EB440E0AEB0E02013451
:108A900050789278120342EA00201AF80E2002431E
:108AA00012B20CF8022CC2F307220CF8012C19E7C1
:108AB0000E24C7E742300400D5410020080003001F
:108AC0000A000200F0B505468BB00C4649B140B132
:108AD0000388572B05D84F2B05D8102B1AD0112BF4
:108AE00064D00BB0F0BD503B072BFAD801A252F86E
:108AF00023F000BFFD8B0200B78C0200E38A020066
:108B0000C98D0200E38A0200E38A0200E38A0200C0
:108B1000EF8D0200496B4FF6FF70FFF7D5FD06465B
:108B200020B9236B002BDCD00520F6E0AB88038056
:108B30000822002104A817F05DFD02232189A888DE
:108B4000CDF814D004AA0493FFF7B6FD074650B938
:108B5000059804F02EF830B10123B3703246214657
:108B60003846FFF7C7FD218AA88804AAFFF7A4FDAD
:108B700050B9059804F021F830B10123F370324662
:108B800021460220FFF7B6FD218CA88804AAFFF732
:108B900093FD0028A5D1059804F00BF80028A0D07B
:108BA0000123B37032462146062040E0496B80889D
:108BB000FFF78AFD05460028B3D0837833B1002340
:108BC0008370024621460120FFF794FDEB7833B114
:108BD0000023EB702A4621460320FFF78BFD2B79FB
:108BE00033B100232B712A4621460720FFF782FD6F
:108BF0004FF6FF732B8000236B7172E7C3880A89DD
:108C00009A421CD1496B8088FFF75EFD064600281A
:108C100087D02B8A022B7FF464AF05F1120003F09A
:108C2000C8FF38B10123B370324621460020FFF758
:108C300061FD56E7B070324621460120F7E70A8A07
:108C40009A421BD1496B8088FFF73EFD06460028FB
:108C50003FF467AF2F8A022F7FF443AF05F1120074
:108C600003F0ABFF28B10123F370324621463846AA
:108C7000DDE7F070324621460320D8E70A8C9A429D
:108C80007FF42FAF496B8088FFF71EFD0646002852
:108C90003FF447AF2B8A022B7FF423AF05F112007C
:108CA00003F087FF10B1012333717BE73071324647
:108CB00021460720BBE78379022B7FF412AF837B29
:108CC000013B022B3FF60DAF02898B899A427FF45C
:108CD00008AF8788496B3846FFF7F6FC064618B997
:108CE000236B0BB10520984702238DF80030002339
:108CF000CDE902339DF8063043F001038DF80630CC
:108D00006EB9012369463846ADF80430FFF7D8FC48
:108D100080B1236B002B3FF4E4AE9847E1E6F37893
:108D20002BB17379002BEDD04FF4FF73EAE740F2DB
:108D3000FD13E7E7BDF80430002B7FF4D2AE002E20
:108D40003FF4CFAE02237371297D8DF81C102021D2
:108D50006A8AB371F1719DF81C10317203230139D5
:108D6000B371072907D8DFE801F02B042B062B0687
:108D70000623022A09D073727379022B7FF4B1AEF5
:108D800031462046FFF7CAFCABE6012373726B7DC8
:108D90008DF82030E36A002BEED00522CDE90546A0
:108DA0008DF8102004A898470028E5D10423E2E7B5
:108DB00001231535013A73720895ADF82420E9E7CF
:108DC000012AD8D17272E5E7496B8088FFF77CFCF5
:108DD00000283FF4A6AEEA88A3899A427FF481AEC8
:108DE0004379032B7FF47DAE0023437179E6094B71
:108DF0001D78013DEDB2FF2D3FF473AE636B05EBC3
:108E0000850103EB41014B79022BF2D12046FFF79C
:108E100085FCEEE7D5410020B0B588B00D46018D48
:108E2000CB1D0446DB086846A0EBC30300AF9D469C
:108E3000E36AF9800BB9002022E05388A18A9942A5
:108E4000F9D1BB1D6A46284604F017F8D8B90423A7
:108E5000616B68883B72FC60FFF736FC94F8243045
:108E600038610DEB4303BB61FB88BB83C7F814D0AB
:108E7000E36A07F1080098470028DCD14FF4C0707E
:108E80002037BD46B0BD236B002BD4D09847D2E726
:108E9000F0B50E4689B0054600284AD0002A48D0D1
:108EA00000238DF80830137851788DF80A10D80710
:108EB00041BF50888DF80B00000A8DF80C004CBFA4
:108EC0000524032499078DF8093006D508A8611CEC
:108ED0000444107904F8180C8CB213F0040F02AF9C
:108EE00006D0D3883B553A191B0A02345370A4B2FA
:108EF000102200210DEB0200ADF8064017F07AFBBE
:108F0000AB88ADF8103001238DF812300023ADF896
:108F1000143004A90DF106033046CDE90637FFF7FA
:108F2000CDFB20B9BDF80630A34218BF0C2009B014
:108F3000F0BD0E20FBE7A4DF704762DF7047000042
:108F400070B5094B1B780A25013B4E195A1C01D1FB
:108F5000002407E005FB03F28C180A3A013BB25AE1
:108F60008242F3D1204670BDD641002070B58AB050
:108F700004460D4616460021202202A88DF8043032
:108F80008DF8051017F036FB0A4A2069ADF81A6013
:108F9000CDE9042401AA08924FF40032012307927C
:108FA00002A92A468DF808308DF8183004F004FB29
:108FB0000AB070BDB98F020070B5094B044609486C
:108FC0001B1ADB081B040D4643F0010006490AF09A
:108FD000CBF8EB681BB12046BDE87040184770BD68
:108FE000147B0400CC7A0400553004002DE9F04FC6
:108FF0000B7887B00446002B3AD1888840F20132C2
:10900000904235D188792278904231D1CDE903332D
:10901000488891F80890ADF808001E461D461F4686
:109020009E469C461A4640F2053A40F2063B914560
:1090300021D8BEF1000F03D0ADF80CC0ADF80E7012
:109040001EB1ADF81050ADF812306168FFF778FF2F
:10905000034628B103AA03CAC3F80200C3F80610E6
:10906000A3682BB100228DF8042001A9204698475F
:1090700007B0BDE8F08FB1F80E80D04507D1B1F848
:1090800016C00F8B4FF0010E01321231CFE7D845D9
:1090900002BFCD8A0B8B0126F6E7000073B50D46A3
:1090A00016460446002839D0002A37D0002937D088
:1090B0001C480DF10601FFF740FF68BB40F2013389
:1090C000ADF804309DF8063023703368A3607368F0
:1090D000E360B3682361144B0A221D706FF009032B
:1090E00012FB05324FF6FF76034661688E526168C7
:1090F0001144013D4B806168114415F0FF058B80E0
:1091000061681144CB8061681144A2F10A020B81AD
:10911000EBD101A802F02AF902B070BD0E20FBE7E6
:109120000720F9E78B300400D641002070B50446D3
:1091300086B00D4699B190B10388382B00F08A8033
:10914000392B0ED0112B0AD149688088FFF7F8FE21
:1091500028B14FF6FF73038000234380838006B05D
:1091600070BD1422002101A817F044FA6968A08894
:10917000FFF7E6FE06460028F1D043886189994250
:1091800018D10088FFF7D7FE02228DF80420AA68C4
:10919000E389029672B1217C20290BD1033B022B7B
:1091A00008D9637C8DF80C30A37C8DF80D3001A9B3
:1091B000284690476289F3889A42D0D10296AE68D9
:1091C000E18903238DF80430002EC8D0CB1E012B7B
:1091D000C5D9637C227C42EA032212B2ADF80C208E
:1091E0004B1FD0B2D2069BB228D4123482070AD5C4
:1091F000012BB4D9617814F8022B023B42EA012218
:10920000ADF810209BB241070AD5012BA7D9617890
:1092100014F8022B023B42EA0122ADF812209BB265
:10922000020707D5012B9AD96278237843EA0223F3
:10923000ADF8143001A92846B04790E7012B8ED92C
:10924000E27CA37C43EA0223ADF81630CB1F143432
:109250009BB2CBE749688088FFF772FE00283FF495
:109260007EAFE08800283FF47AAFEB68002B3FF434
:1092700076AF984773E70000F0B50D468BB0164601
:109280000446002835D041682846FFF759FE0746B6
:10929000002830D02022002102A817F0ABF9184A8C
:1092A000CDE9042401237A888DF808308DF8183030
:1092B0003378ADF81A2001AA08928DF804304FF4E3
:1092C0008032013B0792042B04D8DFE803F0160636
:1092D0001603160007200BB0F0BD33798DF805306A
:1092E000206902232A4602A9ADF81E3004F064F971
:1092F000F1E70E20EFE70520EDE70620EBE700BFE2
:10930000B98F020070B50D461646044688B1416813
:109310002846FFF715FE70B1828872B1002E2946EB
:10932000204618BF0223BDE8704008BF0023FFF7A6
:109330001DBE0E2070BD0520FCE70620FAE737B5FC
:109340000D460192044670B141682846FFF7F8FDCA
:1093500060B1028962B1019B2946204603B0BDE895
:109360003040FFF703BE0E2003B030BD0520FBE701
:109370000620F9E770B50D4616460446B8B14168B7
:109380002846FFF7DDFD28B94FF6FF70FFF7D8FD3F
:1093900078B105802EB13368C0F802307368C0F828
:1093A000063020692946BDE8704004F0A5B90E20BA
:1093B00070BD0520FCE78B6903B11847704707B5FE
:1093C000E8B1E1B101238DF8063041F61203ADF8A2
:1093D00004304FF6FF730360002383800A688261C4
:1093E0004A68C2618A680262C0E90233C0E9043394
:1093F000C38001A801F0BAFF03B05DF804FB0E20A2
:10940000FAE700002DE9F043064689B00C4641B169
:1094100038B10388382B3DD006D8112B28D0362BF5
:109420004DD009B0BDE8F083392BFAD182880B8882
:109430009A42F6D14389CA889A4227D08A899A42A9
:1094400026D04A8A9A42ECD102238DF80E3006F1DA
:1094500010030293F389ADF80C30E36904228DF810
:109460000420002BDDD00DEB020120469847D8E701
:1094700082880B889A42D4D100234FF6FF70C1E94D
:109480000003C1E90233C1E90433CAE70023DCE782
:109490000123DAE70A8883889A42C2D1464F01F154
:1094A0001205F08838B1328923899A4203D13A46AD
:1094B000C5210AF0E7FD0634AC42F2D1B1E70A88D3
:1094C00083889A42ADD142894B889A4226D10422A0
:1094D000002102A817F08EF80223727C8DF8043068
:1094E000337C43EA0223F27CADF80830D107B37C29
:1094F0008DF80A3042BF9DF80B3043F001038DF820
:109500000B30930742BF9DF80B3043F002038DF8F8
:109510000B30E36913B101A9204698477289A388EB
:109520009A420DD103238DF8043006F11003029303
:10953000F389ADF80C30E36913B101A920469847CF
:10954000012506274FF0050806F1100907FB05F372
:109550007289E35A9A420ED16B1E8DF80E30F38950
:10956000ADF80C30E3698DF80480CDF8089013B1A4
:1095700001A9204698470135042DE7D1002504F1C3
:109580000A08062707FB05F3728938F803309A4268
:109590000ED1337C8DF80930737C8DF80A30E36985
:1095A0008DF804708DF8085013B101A92046984732
:1095B0000135032DE6D134E79B30040030B5044675
:1095C0008BB020B3022924D8062303FB01018DF8B8
:1095D00004200D892022002102A88DF8051017F023
:1095E00009F80D4A206AADF81A50CDE9042401AA01
:1095F00008924FF400320123079202A922888DF8C5
:1096000008308DF8183003F0D7FF0BB030BD0E20B6
:10961000FBE70720F9E700BFB793020030B480B141
:10962000018052B1831C02F1140452F8045B43F828
:10963000045BA242F9D112881A8030BC006A04F09F
:109640005BB80E2030BC704778DF70477ADF704718
:109650007CDF7047054B0649024606481B1ADB08AB
:109660001B0443F0010009F07FBD00BF5C7B0400D8
:10967000B7300400CC7A0400054B06490246064880
:109680001B1ADB081B0443F0010009F06DBD00BF8D
:109690005C7B0400C4300400CC7A0400054B06490E
:1096A000024606481B1ADB081B0443F0010009F0C0
:1096B0005BBD00BF5C7B0400D1300400CC7A0400A9
:1096C00038B50378022B04465BD18379012B0FD187
:1096D00081882C4803F01AFC50B12B4A2B4B2C49A3
:1096E0009B1ADB081B04024643F0020009F03CFD14
:1096F000A2684AB3274DD368EB61A3685B689847BB
:10970000A18802462846FFF789FF50B11E4A1F4B29
:1097100021499B1ADB081B04024643F0020009F0B2
:1097200023FDA3681B489B680121984748B3164A4C
:10973000164B1A499B1ADB081B04024643F0020031
:10974000BDE8384009F010BDA1881548FFF712FEAA
:1097500050B10D4A0D4B13499B1ADB081B040246FE
:1097600043F0020009F000FDA1880F4801F020FE3F
:1097700038B1054A054B0D499B1ADB081B0402460C
:10978000DCE738BDEC460020CC7A04005C7B0400AA
:10979000E53004006C460020003104001B31040059
:1097A000243900203C3104003833002057310400B4
:1097B00070B583680446188803F0D8F80128054678
:1097C00004D12378022B08D0032B0ED00D4B1B683D
:1097D000ABB12046BDE8704018470B4E3378002BE4
:1097E000F4D1FEF731FF3570F0E7074D2B78002BF1
:1097F000ECD00020FEF728FF00232B70E6E7184688
:1098000070BD00BFE8460020E04600200A46014641
:109810000148FFF701BB00BF38390020024A40F27F
:109820008F110AF02FBC00BF7931040001460148B6
:10983000FFF7DCBB24390020F0B583B000AF08B3DC
:10984000124D2B68F3B10388502B1BD10389B3F55C
:10985000285F17D1048A04F108036E46DB08A6EBE3
:10986000C3039D4600F112012246684616F0B4FE7D
:1098700000230DF804303B70C7F804D02B6838463D
:109880009847B5460C37BD46F0BD00BFE446002002
:1098900008B503281DD8DFE800F0022309150020D1
:1098A000FEF712FEBDE80840FEF7C8BE0D480E4B9D
:1098B0000E49C01AC0080004BDE8084040F001008D
:1098C00009F04EBC0748084B0949C01AC0080004FB
:1098D000F2E70448044B0749C01AC0080004EBE74C
:1098E00008BD00BF5C7B0400CC7A04008431040016
:1098F000BD310400EA31040037B50B7805460C464B
:1099000033BB01228988FFF7FDFC024658B10628C7
:1099100009D01648164B17491B1ADB081B0443F0E5
:10992000010009F021FCA18801222846FFF707FD6C
:1099300060B106280AD00D4A0D4B0F499B1ADB086F
:109940001B04024643F0010009F00EFC03B030BDD9
:10995000032BFBD1094B1B68002BF7D001220834E5
:109960008DF80020019468469847EFE7CC7A040010
:109970005C7B0400113204003D320400E446002008
:1099800007B50B88834218D002238DF800306A4651
:109990008B788DF8043001460948FFF76DFC60B103
:1099A00005280AD0074A084B08499B1ADB081B0404
:1099B000024643F0010009F0D7FB03B05DF804FB59
:1099C00024390020CC7A04005C7B0400653204005A
:1099D0002DE9F041054698B0002800F0BD8183686C
:1099E000002B00F0B9819E4A136002F025FA30F096
:1099F000040304460BD09B489B4B9C49C01AC008EB
:109A00000004224640F0010009F0AEFB44E00AF0F9
:109A100081FD50B1944A934B95499B1ADB081B0476
:109A2000024643F0010009F09FFB002308A9012032
:109A300008930AF009FC50B18B4A8A4B8D499B1A56
:109A4000DB081B04024643F0010009F08DFB08A867
:109A50000AF0AEFC50B1844A824B87499B1ADB085E
:109A60001B04024643F0010009F07EFB6C886E681F
:109A7000FEF7E0FD02460068516808AB1F2C03C3E7
:109A80000ED9794B77487D49C01AC008000440F0D0
:109A9000010009F065FB0924204618B0BDE8F081FB
:109AA000B4B111238DF8103031680191084616F0D9
:109AB000EEFD019982B204A8FFF7CAFD044650B139
:109AC0006848694B6E49C01AC0080004224699E7ED
:109AD0008DF81040E8E7308AFFF7B6FD044638B14C
:109AE0006048614B6749C01AC0080004224689E7F4
:109AF00008A8FFF7ABFD044678B901466248EF6855
:109B00006E6803F039FB044678B15648564B5F49FE
:109B1000C01AC0080004224674E75248524B5C4900
:109B2000C01AC008000422466CE701460290402299
:109B300008A816F05FFDD5E9040105AB83E8030032
:109B4000544B04935448554B079304A903F052F91E
:109B5000044638B14348444B5149C01AC008000478
:109B600022464FE7716811B108A803F030F8B168D8
:109B700011B10AA803F02BF8F16811B10EA803F097
:109B800026F8484910A803F022F8012308A88DF808
:109B90005C3001F03BFF064660B1334B314842492F
:109BA000C01AC0080004324640F0010009F0DCFA97
:109BB000344671E7F7B140F202233B833B4BFA692D
:109BC0001A603B4BFB613B4B3B62334B3A481A7884
:109BD000002A08BF00237B623A460421FEF7D4FD29
:109BE000044638B11F48204B3449C01AC00800044D
:109BF000224607E7324B029302A802F0A1F804467E
:109C000008B1052819D12F4B2F4FFF1AFF0898468E
:109C1000F3B29F4219D82D4B2D4E029302A8039602
:109C200001F088FB0446002858D00E480E4B294905
:109C3000C01AC00800042246E4E60A480A4B264936
:109C4000C01AC00800042246DCE608EBC30258F83C
:109C5000333050689847013604460028D8D01BE7B7
:109C6000E44600205C7B0400CC7A04007C320400D3
:109C700093320400BE320400E3320400FE320400DA
:109C80003F2A04001B330400D8410020763304002F
:109C90003E33040079960200EC4600200D98020045
:109CA000893304009B330400A6330400E8460020F7
:109CB000B19702005596020038390020CF330400D6
:109CC00091980200E07C0400F07C04002D980200D2
:109CD000083900200D340400F33304001F4B2048E2
:109CE000059404A904930696FFF769FB044638B16E
:109CF0001C481D4B1D49C01AC0080004224681E6BD
:109D00000A961B4E1B4B099308AA1B4B0893042170
:109D10003046FFF7C3F90446B0B92B788DF82430EC
:109D200033788DF8253008A8144B0893FEF772FAA3
:109D3000044600283FF4B0AE0A480B4B1049C01A45
:109D4000C008000422465DE60648074B0D49C01ACC
:109D5000C0080004224655E60E249DE61D98020028
:109D60006C4600205C7B0400CC7A04002E34040096
:109D7000243900209D960200F9980200C196020045
:109D80007334040048340400014608B5034802F067
:109D9000D3FE00280CBF0520002008BD81990200D9
:109DA0002DE9F341002846D000234288CDE9003355
:109DB00003788DF801303AB19DF80030ADF80220FB
:109DC00043F001038DF8003090F9042002F12803DC
:109DD000DBB27D2B9CBF9DF800308DF80420C2883B
:109DE0009CBF43F002038DF800303AB19DF800307B
:109DF000ADF8062043F004038DF8003000250F4E27
:109E00000F4F2C464FF6FF783188414507D0B37885
:109E10002BB16A4638465CB9FFF73AF8044601357B
:109E2000042D06F10A06EFD1204602B0BDE8F0810C
:109E3000FFF72EF8F3E70E24F6E700BFB846002040
:109E40003839002042DF704710B5421EFF2012F85B
:109E5000013F5840082300F00104400814B180F08D
:109E60008C00C0B2013B13F0FF03F4D1013989B279
:109E70000029ECD110BD30B58478C378A3422AD92B
:109E800045780279032D22D8611C04F00704C9B279
:109E9000072C0378817008BF00EBD1014FEA430320
:109EA00014BFD9B24979017003F48073191E02F00E
:109EB000010418BF01219C420DBF0135002361F34D
:109EC000000245701CBF43700271084630BDD34389
:109ED00003F00103EAE70023C3700121F5E7000066
:109EE000014B00221A8070473447002038B50279B0
:109EF000002363F300028370437002718B78033395
:109F0000DB00C3700B78037043714A788B7803EBE6
:109F1000021383710D468A7804460331073016F028
:109F20005BFBAD78601DA91CFFF78EFF2C44E07130
:109F300038BD000010B5094C20460BF093F938B13C
:109F40002268D2F84C355F33DBB2C2F8443510BD1D
:109F50002046BDE810400BF06BB900BF78390020F7
:109F60001FB51C4C6368013314D01B480BF07AF901
:109F700090B119480BF082F9E368013310D116480B
:109F800000210BF09AF96268012393404FF0A04240
:109F9000C2F80C3504B010BD0F480BF049F9EBE7DF
:109FA0000E4B0F489A1C00921B88019300226946B1
:109FB000CDE902220BF098FA0028EBD0094A0A4BAF
:109FC0000A499B1ADB081B04024643F0010009F012
:109FD000CBF8DFE70C470020783900203447002019
:109FE00070390020CC7A0400647B0400D034040073
:109FF0002DE9F043B0F5A07F89B020D16F4B5C68AC
:10A00000611C16D0DB68013313D16D48FFF733FFB5
:10A010000123A3404FF0A04270B1C2F80835684A4E
:10A02000D17831B94FF0A0426648C2F808350BF03C
:10A0300058F909B0BDE8F083C2F80C35EFE7B0F588
:10A04000A27FF6D14FF0A0435F4CD3F810555B4B85
:10A0500067789A68032F25FA02F505F001059846FE
:10A060002AD823785B0005B10133A27802F00701FA
:10A07000072908BF04EBD201DBB208BF0B718F2A9E
:10A08000237015D90926E37803F00102AA4230D1E2
:10A09000FF2F04D00137FFB2082F67702ED94B4A2B
:10A0A000002D51D01378072B50D801331370C0E71F
:10A0B0000132A2701126E6E7002DFBD0E378DA0723
:10A0C000F8D5052FF6D16179A37801F00F01CA1CEC
:10A0D000B2EBD30F4FEAD309D4D10231201DA144F2
:10A0E000FFF7B2FE99F80360864214BF0B260026E4
:10A0F000C9E7002265F300036270E370C6B96279B4
:10A1000023798DF80C30324913090DF10F0002F05C
:10A110000F028DF80D308DF80E2016F05DFA03ABAE
:10A120000293D8F800308DF8046001A89847B6E78C
:10A130000B2EB4D10023CDE9033301238DF80C306D
:10A1400003A8D8F80030F1E7157072E7D8F80C30A2
:10A1500001331B4B0CBFDB781B8813B1FFF700FFEB
:10A1600067E7D8F804201748531C1FBF012393400A
:10A170004FF0A042C2F808350BF068F811480BF018
:10A180007DF810480BF07AF8002319460D48FF229D
:10A190000BF078F8012319460A485F220BF072F899
:10A1A00004236370E3780B48002143F0010312227B
:10A1B0002170A170E37016F01DFA3AE70C470020F9
:10A1C00034470020783900201D4700201C4700201C
:10A1D00023470020214700207FB50546002800F0D6
:10A1E000CE800368002B00F0CA808668741C03D1FF
:10A1F0004368013340F0C58095E80F00634C013699
:10A2000084E80F0002D1013100F0BD80FFF71AFE93
:10A210005F4A604960480AF09BFF044668B15F48A6
:10A220005F4B6049C01AC0080004224640F001009C
:10A2300008F09AFF204604B070BD57480BF01EF896
:10A2400055482346FF2221460BF01CF801235248B3
:10A2500019465F220BF016F8EB68581C22D0FF223B
:10A260004FF6FF7101948DF80120ADF802108DF8C2
:10A27000062007214FF000728DF8051002928DF82C
:10A280000030494A49480394234669460BF05CF87C
:10A29000044638B14148424B4549C01AC008000441
:10A2A0002246C3E70AF04CFD58B90AF00BFD0446FC
:10A2B00038B13A483A4B3F49C01AC0080004224618
:10A2C000B4E70323ADF800309DF802303A4A23F09A
:10A2D000070343F004038DF80230D5E901309842BA
:10A2E00008BF9DF80230694604BF43F001038DF8B2
:10A2F00002300AF02FFD044638B12848284B2F4978
:10A30000C01AC0080004224690E7D5E901319942FD
:10A310004FF0A0421DD101F5E07140F2017342F807
:10A320002130A96801238B40C2F80835EA68531C24
:10A330000AD01E4B69681B68C3F808254FF0FF322E
:10A34000C3F80C15C3F81025A86801210AF074FDA4
:10A3500070E7591C0AD003F5E07340F2037142F82C
:10A360002310696801238B40C2F80835AB684FF0B1
:10A37000A04203F5E073002142F82310D6E70E2433
:10A3800058E7072456E7002454E700BF0C47002095
:10A39000F19F02006835040078390020647B0400D6
:10A3A000CC7A0400EB340400E19E020070390020F6
:10A3B0000835040023350400359F020041350400B0
:10A3C00030B52D4B1A6887B00146002A4CD05A6828
:10A3D000013205D19B68013348D1002007B030BD60
:10A3E000002845D0DB68254C013310D1E378002BE1
:10A3F00040D12046FFF77AFD21480AF033FF0028BC
:10A40000EBD11F480AF014FFFFF7AAFDE5E7258806
:10A4100085BB6846FFF76AFD2388E21895709A1C91
:10A42000013314FA83F322809D70FF259DF80330D9
:10A43000002BE1D02388B3F5AE7FDDD26846FFF76D
:10A440001AFD2388E21838B195709A1C013314FA6A
:10A4500083F322809D70E9E790709A1C013314FA0F
:10A4600083F322809870E1E70820B7E70620B5E77C
:10A470000E20B3E70420B1E70C470020344700204A
:10A480007839002037B5404B196849B104783CB998
:10A4900043685A78042A46D004D892B1012A38D0A9
:10A4A00003B030BD0F2AFBD11B78642BF8D1374B9A
:10A4B0001B78002BF4D002238DF805408DF8043072
:10A4C0002EE01A786A2A01D06C2A15D199780529CC
:10A4D00012D11A795B792E4C120901325200534382
:10A4E0005B0340F6C412B3FBF2F323800023A37096
:10A4F00009F072FB6060D3E702F0FD02242ACFD19D
:10A500009A78072ACCD1234C5B7A2370002363709E
:10A51000EEE71B78642BC3D18DF805408DF804203D
:10A5200001A88847BCE71A7812F0FD04B8D19878E2
:10A530000328B5D1184805781DB1022A01D104704D
:10A54000AEE700228DF80420DA78022A06D11B79C2
:10A5500013F00F030BD18DF80530E1E7332A0AD150
:10A560001B7913F00F0F14BFFF230123F3E7022B16
:10A5700018BFFF23EFE7302A04D11B7903F00F0344
:10A58000032BF5E7FF23E6E79C480020A1480020C5
:10A59000A448002094480020A04800207FB5094B23
:10A5A0001B786BB10F238DF804008DF8053001A8DE
:10A5B00000238DF80630FFF703FF07B05DF804FBBA
:10A5C0000620FAE7A14800201FB5044600B303683F
:10A5D000F3B1D0E90123511C05D101330CBF002098
:10A5E000072004B010BDCDE90132C368039368466B
:10A5F000084B0093FFF7F0FD0028F2D1064B2268CC
:10A600001A60A368054A013318BF01231370E8E7F5
:10A610000E20E6E785A402009C480020A148002007
:10A620007FB51D4B1B6893B31C4B1B788BB340F25B
:10A630000243ADF8043003238DF80630032822D8F6
:10A64000DFE800F00213151B02238DF807304FF4EA
:10A65000007301A8ADF80830FFF7B2FE10B9104B37
:10A6600001221A7007B05DF804FB3323EDE70223E3
:10A670008DF8073040F20223EBE730238DF80730E6
:10A6800040F20323E5E700238DF80730E1E70820D7
:10A69000E8E70620E6E700BF9C480020A14800202C
:10A6A000A048002038B50546D8B109F095FA104CFD
:10A6B00023782B702546B0B1616809F088FAB0F5AF
:10A6C000F02F01D2636883B96B7823B92620FFF796
:10A6D00065FF01236B706B68002B0CBF05200D20FC
:10A6E00038BD0E20FCE70820FAE70020F8E700BF9D
:10A6F0009448002034DF704707B5044B04480193A9
:10A7000001A901F0A1F803B05DF804FBC1A70200A4
:10A7100080390020F8B5134B134E144C602283F897
:10A7200020204FF08043A922C3F820254FF4804118
:10A73000002008F07DFB054608F0BAFAA41B2409A6
:10A740000027BC4204D14DB9BDE8F84000F0C6B8BE
:10A75000736803B1984701371036F2E700F0BEF88E
:10A760002846F8BD00ED00E08C7C0400CC7C0400A1
:10A7700070B50C4D0C4C641B24090026B4420BD15F
:10A780000A480368013301D1FFF7B4FF00F00AF96A
:10A79000BDE8704008F09EBBEB6803B198470136F6
:10A7A0001035EBE78C7C0400CC7C0400A43900203D
:10A7B00013460A460146014801F0C0B8803900201E
:10A7C0002DE9F04F03788BB00446002B3CD1334F7A
:10A7D000334BD0F81080B0F81490DB1B4FEA131AFB
:10A7E00023F00F0303EB070B3D465D4514D12D49C4
:10A7F000DFF8B48004A815F042FF04A815F047FF65
:10A800000026ADF80E00B24523D122890DF10E01CC
:10A8100004A8FFF7CDFF17E0286815F038FF03B252
:10A820009945064613DB1A4629680193404615F000
:10A8300036FF019B58B9AD6835B1A9EB06012289F5
:10A8400089B208EB0300A8470BB0BDE8F08F1035C4
:10A85000CBE73868BDF80E5015F019FF02350544F6
:10A86000152D0BD922890DF10E0104A8FFF7A0FFC9
:10A870000028E9D1ADF80E008DF8100057F8101B34
:10A8800004A815F0EDFE414604A815F0E9FE04A861
:10A8900015F0FDFE0136ADF80E00B4E78C7C040027
:10A8A000CC7C040070350400405D0400EFF30880A8
:10A8B000014B184770470000BDA8020010B5064CB8
:10A8C00001462022204615F087FE00222021204646
:10A8D00006F0E2FE208410BD08F0002038B54FF0ED
:10A8E0008042D2F80034C2F800349B0715D5234CBF
:10A8F00000222021204606F0CFFE214B02462148AF
:10A900001B1ADB081B0443F00100238C93421CD16B
:10A91000A369E2681C4908F030FC24220021174892
:10A9200015F068FE19491A480AF0A6FB044680B1E2
:10A930001348144B1749C01AC0080004224640F0BF
:10A94000010008F011FC204638BD134908F008FC4E
:10A95000E3E7124D28460AF0C9FB044638B108481F
:10A96000084B0F49C01AC00800042246E7E70AF066
:10A97000AFFB28780AF0E0FBE5E700BF08F0002015
:10A980006C7B0400CC7A040087350400ADA802007B
:10A99000F8350400BC350400AC350400BC48002088
:10A9A000D3350400014B18780AF0C6BBBC48002020
:10A9B00070477047024A136801331360FFF7F2BF14
:10A9C0009C5F00204A4C494E4B4D4F4E48414E44EF
:10A9D0004C45520000B5FFF7ECFF5DF804EB134B5C
:10A9E00002E058680003FCD4586840F40020586026
:10A9F00000B5FFF7DFFF5DF804EB0C4B5868000D66
:10AA0000F6D21868010A0006000E002812D00228AB
:10AA100018D002D3032814D0E6E7586820F40020A9
:10AA2000586000B5FFF7C4FF00BD00BFF8ED00E0BF
:10AA300088ED00E064201860586840F400205860F9
:10AA4000CFE77DE05FEADE022CBFEFF30982EFF390
:10AA50000882042902D252F821006BE0052901D2B4
:10AA6000204667E0062901D2284663E0072901D283
:10AA700030465FE0082901D238465BE0092901D25F
:10AA8000404657E00A2901D2484653E00B2901D23B
:10AA900050464FE00C2901D258464BE00E2901D216
:10AAA000106947E00F2901D2506943E0102901D213
:10AAB00090693FE0112901D2D0693BE012290ED202
:10AAC000EFF308805FEADE0131D25FEA5E112CBF4E
:10AAD00020304830D169490928BF04302AE01329C1
:10AAE00005D2EFF309805FEADE0120D3EDE71429F8
:10AAF0001CD20020EFF310821043EFF311821202F8
:10AB00001043EFF3138212041043EFF314825FEA51
:10AB1000DE0128BF42F002025FEA5E112CBF22F084
:10AB2000040242F004021206104303E000E001E0D8
:10AB30000020FFE71860586840F40020586050E794
:10AB4000586840F40020586058680003FCD4186826
:10AB50005FEADE022CBFEFF30982EFF308820429DB
:10AB600002D242F8210061E0052901D204465DE0ED
:10AB7000062901D2054659E0072901D2064655E0CB
:10AB8000082901D2074651E0092901D280464DE04B
:10AB90000A2901D2814649E00B2901D2824645E0CB
:10ABA0000C2901D2834641E00E2901D210613DE01B
:10ABB0000F2901D2506139E0102901D2906135E0AE
:10ABC000112901D2D06131E0122900D22EE01329DF
:10ABD00000D22BE0142927D20106090E81F3108838
:10ABE0000104090E81F311880102090E81F3138813
:10ABF000010E88082CBF4EF0040E2EF0040E21F03A
:10AC00000201C8082CBF2EF0100E4EF0100EEFF30C
:10AC10001480C0082CBF41F0040121F0040181F32D
:10AC20001488BFF36F8F01E0FFE7FFE7DCE600BFAA
:10AC300072DF704773DF704738B5012204460D4656
:10AC4000B0F81414D0F8100401F006FC00B105703F
:10AC500004F13C0204F5826104F15400BDE838407F
:10AC6000FFF7E6BF80F830107047F8B504460F468E
:10AC7000002975D0002873D091F87A301BB191F873
:10AC80009830002B6ED1D7F8A030042B6AD0D7F8BB
:10AC90009C30042B66D04FF0000C84F802C007F102
:10ACA00078060FCE251D0FC50FCE0FC596E80700FD
:10ACB00085E8070084F830C0D7F8A4306363D7F87C
:10ACC000A830A3634FF6FF7504F58263C4F82034FF
:10ACD000A4F824540722614604F2264015F08AFCA9
:10ACE00023780BB984F8545094F82430002B14BF07
:10ACF000EE231F2304F15501C4F81014A4F81434F2
:10AD000004F21442384601F0B9F940BB94F82430FB
:10AD1000002B14BFEE231F2304F23121C4F81814B2
:10AD2000A4F81C3404F21C4207F13C0001F0A6F91F
:10AD3000A8B9A369A4F848304FF480730125A4F89A
:10AD4000503063692064014684F83C50636404F128
:10AD50003C0204F15400FFF76BFF00B92570F8BD09
:10AD60000E20FCE70720FAE7F8B5077804460D4601
:10AD7000002F00F0038100F2264681700722002197
:10AD8000304615F037FCE38813B1A378012B04D0CB
:10AD9000E3794BB1A378022B06D1636BA3B10122F7
:10ADA00084F82D2408209847334604F22C4113F8E8
:10ADB000012F12B99942FAD117466B1E032B51D8B5
:10ADC000DFE803F0050B0F1284F82D34ECE7A379CC
:10ADD0001BB194F8243003B95FB9E3790BB1002FAC
:10ADE00042D1237A002B41D1637A002B0CBF00257E
:10ADF0000425636BA570002B3AD0033D012D37D895
:10AE00006279AAB394F82E2492BB84F830240122EC
:10AE100084F82F240720984704F13C0518220021CC
:10AE2000284615F0E7FBE26A531E0121022B28BFDA
:10AE30000A4684F8512094F8242084F83C1032B15A
:10AE4000A36A581E022828BF0B4684F85230A17806
:10AE5000002384F8503004291BD8DFE801F0770D77
:10AE6000223559000025C4E70225C2E70325C0E7C3
:10AE7000002384F82F34CFE7C4E91063C4F82034EA
:10AE80000223012284F83C30802384F83120A4F886
:10AE90004830A378002B5CD1636B002B6AD1002073
:10AEA00067E00223002A84F8313014BF072303230C
:10AEB00084F83C302369A4F848300023C4F82034D7
:10AEC000E36826646364E4E763696364A369A4F8E0
:10AED000483012B1062384F83C306379B3B194F85A
:10AEE0002E349BB994F8303483B1022384F8503067
:10AEF00004212046FFF7A0FE0028CAD1052384F8CC
:10AF0000313004F58263C4F82034C2E70323F6E746
:10AF1000E3696364236AA4F8483012B1062384F815
:10AF20003C30637983B194F82E346BB994F83034A3
:10AF300053B1022384F8503004212046FFF77CFEF1
:10AF40000028A6D10623DAE70423D8E784F83130B5
:10AF50009FE7D4F820142A4604F15400FFF768FE56
:10AF600038B994F8301094F85400FFF763FE0028C5
:10AF700092D0F8BD94F83100984790E70820F8E7A0
:10AF800010B50388112B0C460AD0262B1FD0102B8E
:10AF900005D1C37B012B02D18388A1F8243410BDD5
:10AFA000002381F82E348288B1F824349A42F6D1F5
:10AFB0000B79002BF3D101212046FFF7D5FE0028A5
:10AFC000EDD0A36B002BEAD0BDE810401847037A00
:10AFD000013B012BE3D8897805230131B1FBF3F361
:10AFE00003EB8303C91AC9B2E6E730B50D46041D69
:10AFF0000FCD0FC40FCD0FC495E8070084E80700FC
:10B0000030BD000030B50B4B19680B4B002291424C
:10B0100001D1002009E09D788478A54206D11D88E1
:10B020000488A54202D1054B186830BD01320433B3
:10B03000EDE700BFC8480020CC480020C0480020F1
:10B040002DE9F84F90F8C6A24FF0760B04460AFBA4
:10B050000B0088469146FFF7D5FF074670B3D4F83A
:10B06000CC52052D2AD804EBC5165A46A6F8D29222
:10B070000BFB0A4106F5357015F0AEFAB8F1000F7A
:10B0800014BF0023022386F8D0320D4BC6F84C7350
:10B090001A6801359542C4F8CC521D460ED104F50C
:10B0A00034760027F36F304698472B6801379F426C
:10B0B00006F18006F6D30023C4F8CC32BDE8F88F41
:10B0C000C848002030B5A1B004460D467C220021BE
:10B0D00001A815F08FFA03238DF80430044BADF866
:10B0E00006501B6802940BB101A8984721B030BDEF
:10B0F000C04800202DE9F041074691F8C6027623AA
:10B100004FF00008A0B081F8C88200FB03100C4685
:10B110001546FFF777FF064660B17C22414601A83D
:10B1200015F068FA01238DF80430ADF80650029747
:10B1300001A8B04729462046FFF7C4FF20B0BDE86C
:10B14000F081000030B58BB0044620220D4602A8E5
:10B15000002115F04FFA04220DEB0200002115F03A
:10B1600049FA94F8C53294F8C62213B3013B76210C
:10B17000DBB25143122000FB031323445B8A0133EB
:10B180009BB2ADF80430762303FB024202A9138977
:10B19000ADF8063003238DF80830019BCDE9054357
:10B1A000064B0493064B2A46186802F005FA0BB0CA
:10B1B00030BD762303FB0243DB88E2E7F5B00200F3
:10B1C000E4480020F0B5044689B020220D466846C8
:10B1D000002115F00FFA94F8C7321E4A01331268A5
:10B1E000DBB2934284F8C7324FF000022BD294F8BE
:10B1F000C632194F84F8C5220133DBB2762113FB26
:10B2000001F057F8237084F8C6322618275001FB46
:10B21000034332711B68CDF81230104B02930222A7
:10B220000F4B8DF800200122ADF810201868039410
:10B230002A46694602F0C0F918B12A462146FFF7AE
:10B2400059FF09B0F0BD84F8C82229462046FFF70F
:10B2500039FFF6E7C8480020CC480020F5B00200CE
:10B26000E44800202DE9F047044688B00D46164614
:10B2700000212022684615F0BDF994F8C62294F802
:10B28000C512762312FB03F2A018122790F804C00F
:10B2900017FB012301F1010E0A33E645234411D0C7
:10B2A00004F11C0900F1220E0CF1FF389144CAB2DE
:10B2B00094450BD988451B890ED102899A421BD12E
:10B2C000002312E01B890289934215D101232B70C0
:10B2D000002008B0BDE8F08707FB01FA01333EF813
:10B2E0000A2093421DD109EB0A0394F8C5220132CA
:10B2F00084F8C5220131DAE701339BB2ADF8103092
:10B300000A4B029300210A4B297004218DF800108A
:10B31000ADF81220186803943246694602F04CF9E1
:10B32000D7E7013A9BB292B2E8E700BFF5B002005E
:10B33000E448002010B570B1026862B1436853B1AF
:10B34000064900200860064901240C7005490A607E
:10B35000054A136010BD0E20FCE700BFC84800205E
:10B36000C4480020C0480020E448002010B504462E
:10B3700080B10C4B1B787BB1FFF744FE70B90A4AD1
:10B380001368052B0CD80949246841F82340013380
:10B39000136010BD0E20FCE70820FAE70020F8E754
:10B3A0000420F6E7C4480020C8480020CC4800200C
:10B3B000F0B50D468BB0044600283BD0204B1B78DF
:10B3C000002B39D01F4B1B68002B35D090F8C812CA
:10B3D000002933D14FF4BA621B4F019115F00AF9DD
:10B3E0000199202202A815F005F93868294602F0D3
:10B3F00083F9E8B9154BC4F8CC0284F8C502A4F867
:10B40000C6021868206002238DF808300126104B10
:10B41000CDF81A00A4F8CA523868ADF818602A4668
:10B4200002A90594049302F0C7F808B984F8C86229
:10B430000BB0F0BD0E20FBE70820F9E71120F7E77D
:10B44000C4480020C8480020E4480020CC48002020
:10B45000F5B002002DE9FF410C46054660B159B137
:10B460008C4B1B7843B10388322B70D007D8112B3B
:10B4700000F00381302B2CD004B0BDE8F081332BD9
:10B48000FAD18288B1F8CA329A42F5D1C08891F8CF
:10B49000C67291F8C5C250B976267E43122303FBCB
:10B4A0000C63294623446A899042C0F0C280762208
:10B4B00002FB0742002312798DF80F300CF10103D3
:10B4C000934240F0A58001238DF80F30AA88012116
:10B4D00035E08388B1F8CA229A42CDD1C3886BBBCC
:10B4E00091F8C632762202FB03130269C3F80620E4
:10B4F00091F8C432827A1344062B0CDC81F8C432F2
:10B50000A9882046FFF71EFE0028B5D0AA8821464C
:10B51000FFF7F0FDB0E7062381F8C4325E485F4BC9
:10B520005F49C01AC008000440F00200019007F013
:10B5300017FE5C49019807F013FEE1E70021204661
:10B54000FFF77EFDA9882046FFF73CFE94E782883E
:10B55000B1F8CA329A428FD1C388002B57D191F8E3
:10B56000C672762317FB03F701EB0708837A98F876
:10B5700004603344062B25DC88F80430334603EBA3
:10B58000C30207EB420205F10C062244002198F8A1
:10B590000400834206F10A0602F1120226D31222A7
:10B5A000013B02FB034394F8C62276213B4401FB96
:10B5B0000242598A1389994229D2062827D084F851
:10B5C000C5029DE7062388F804303348334BCA5B35
:10B5D0003549C01AC008000440F00200019007F08D
:10B5E000C3FD3249019807F0BBFDC7E73046013380
:10B5F00050F80ACD42F808CCD0F804C042F804CC88
:10B600000089108051809180D1801181BFE7002393
:10B6100084F8C532AA880DF10F012046FFF722FEFB
:10B6200000287FF473AF9DF80F30002B3FF424AF58
:10B630004CE7CA89A2F52452082A08D8DFE802F0AC
:10B6400014170507070707071A008A899A829A8A3A
:10B650003AB1DA8A2AB11A8B1AB15A8B002A7FF4CE
:10B6600026AF013006311EE78A89DA82EFE78A8940
:10B670001A83ECE78A895A83E9E7B1F8CA328288EB
:10B680009A4201BF002381F8C8324FF6FF73A1F838
:10B69000CA32F1E6C4480020347B0400CC7A0400AE
:10B6A000043604002336040068360400AE36040075
:10B6B00070B50546164608460AB90E2070BD00232F
:10B6C0001360002DF9D02B68002BF6D0EB8813F017
:10B6D00003040ED101F0EAF9C0B214280BD02B7983
:10B6E00083420AD9EB882A6800FB03203060204699
:10B6F000E4E70720E2E70520E0E70420DEE7A8DF33
:10B700007047ADDF7047AEDF704762DF704770B5DE
:10B7100005468AB00C46002962D0002860D0038814
:10B72000502B37D0572B72D0102B59D1818860699C
:10B73000002601AA0196FFF7BBFF082231460DEB58
:10B74000020014F057FF02232189A888CDF80CD0FD
:10B7500002AA0293FFF7D5FF002841D1A369002B6D
:10B760003ED0039801F025FA002839D0019B0BB197
:10B7700001221A701822002104A814F03BFF0223B2
:10B780008DF81030AB88ADF81830019B0594079305
:10B79000A36923E08188606902AAFFF789FF182264
:10B7A000002104A814F026FFAB882189ADF81830D9
:10B7B000EB88029A05949942079218D12E8A022E9C
:10B7C00015D16AB105F1120001F0F3F9029B48B1FD
:10B7D00001221A708DF81060A3690BB104A8984774
:10B7E0000AB070BD187003238DF81030F4E7A289F9
:10B7F0009A42F5D1A369002BF2D000228DF81020D7
:10B8000005F1120208922A8AADF82420E6E7818821
:10B81000606902AAFFF74CFF01460028E0D1029BB5
:10B820001B78002BDCD0A369002BD9D0182204A8E8
:10B8300014F0E0FE01238DF81030AB88ADF818301D
:10B840000594029BA3E70000F0B53A4B8FB002AD20
:10B8500004460A4603F1100C2F46186859682E4614
:10B8600003C6083363453546F7D1002C5FD0002A64
:10B870005DD01368A36121463846FFF746FF0028D4
:10B8800053D12246012512F8023B8DF8063001A95A
:10B890002846ADF80450FFF732FF002845D1014695
:10B8A000202206A814F0A6FE22460223ADF8183086
:10B8B00012F80C3B8DF81A30BDF824301E4E60880B
:10B8C000079623F44F6323F00F0343F440632B43A5
:10B8D00006A9ADF824308DF829508DF82A5001F0D2
:10B8E0007FF910BB0146202206A814F083FE2246F1
:10B8F0000323ADF8183012F8043B8DF81A30BDF868
:10B9000024306088079623F4875323F01F0343F401
:10B9100080532B43ADF8243006A940F201138DF873
:10B920002950ADF82A3001F05BF90FB0F0BD0E20C0
:10B93000FBE700BF1C37040014000100F0B50F4600
:10B9400087B016461C46054618B3406901AA194639
:10B95000FFF7AEFED8B94FF6FF739C421BD0019B98
:10B96000CBB11B78CBB13388142B18D801461022E9
:10B9700002A814F03FFEAB88ADF8083002A90123FD
:10B980002046CDE904678DF80A30FFF7BCFE07B00A
:10B99000F0BD0E20FBE70520F9E70820F7E70720B8
:10B9A000F5E7A8DF70470000F0B5074689B01446F8
:10B9B0001E460D4621B9134A8421284608F062FB31
:10B9C00024B9104A8521204608F05CFB2022002182
:10B9D000684614F00FFE9DF80D300E9AADF8007019
:10B9E00043F002038DF80D30074BADF80440188882
:10B9F000ADF80640694602958DF8116001F0F0F847
:10BA000009B0F0BD2C3704002049002030B587B0C4
:10BA100041F60A035C4AADF80C30044603A9012044
:10BA20008DF80E00FFF7BDFF0546002849D122889A
:10BA3000002A49D1228952B1544B0093E16894F80D
:10BA40003C3042F62420FFF7AFFF002847D1228A7E
:10BA500052B14F4B0093616994F83C3042F6252077
:10BA6000FFF7A2FF00283AD1228B52B1494B009335
:10BA7000E16994F83C3042F62720FFF795FF002853
:10BA80002DD1228C4AB1444B0093616A94F83C302A
:10BA900042F62620FFF788FF08BB228D4AB13F4BB4
:10BAA0000093E16A94F83C3042F62820FFF77CFFCF
:10BAB000A8B9236BABB9616B002938D1A36B002BFC
:10BAC00042D1284607B030BD354B0093616894F8E9
:10BAD0003C3042F62920FFF767FF0028AAD0054630
