:020000022000DC
:1060000000F000209D9B0300C59B0300C79B03007D
:10601000C99B0300CB9B0300CD9B03000000000045
:10602000000000000000000000000000CF9B030003
:1060300029B0020000000000D39B0300D59B0300A1
:10604000D79B0300D79B0300D79B030015AF03002A
:10605000D79B0300D79B03005550030055A90300AD
:10606000D79B0300D79B030045540300D79B030035
:10607000C19D0300D79B0300D79B0300D79B030060
:10608000A551030069410300D79B0300D79B030080
:10609000D79B0300D79B030095470300D79B0300C2
:1060A000D79B0300D79B0300D79B0300D79B03001C
:1060B000E5A20300D79B03000000000000000000E1
:1060C000D79B0300F5A20300D79B03005DB3030039
:1060D000419F0300D79B0300D79B030000000000F3
:1060E00000000000000000000000000000000000B0
:1060F00000000000000000000000000000000000A0
:10610000000000000000000000000000000000008F
:10611000000000000000000000000000000000007F
:10612000000000000000000000000000000000006F
:10613000000000000000000000000000000000005F
:10614000000000000000000000000000000000004F
:10615000000000000000000000000000000000003F
:10616000000000000000000000000000000000002F
:10617000000000000000000000000000000000001F
:10618000000000000000000000000000000000000F
:1061900000000000000000000000000000000000FF
:1061A00000000000000000000000000000000000EF
:1061B00000000000000000000000000000000000DF
:1061C00000000000000000000000000000000000CF
:1061D00000000000000000000000000000000000BF
:1061E00000000000000000000000000000000000AF
:1061F000000000000000000000000000000000009F
:1062000010B5054C237833B9044B13B10448AFF3F0
:1062100000800123237010BDC03B0020000000005F
:106220007461040008B5034B1BB103490348AFF385
:10623000008008BD00000000C43B00207461040021
:10624000A3F5803A704700BF174B002B08BF134BD4
:106250009D46FFF7F5FF00218B460F461348144A71
:10626000121A19F007F80E4B002B00D098470D4B6F
:10627000002B00D098470020002104000D000D489D
:10628000002802D00C48AFF3008018F099FF2000DE
:10629000290000F09FFB18F07FFF00BF00000800FE
:1062A000000000000000000000F00020C03B0020C3
:1062B0005C5E00200000000000000000064B002291
:1062C00033F83210814202D103EBC2007047013231
:1062D000042AF5D1002070470C3C002038B50D464B
:1062E000FFF7ECFF044678B143680BB128469847A6
:1062F000A17849B10139C9B2A17029B92046082253
:10630000BDE8384018F0B6BF38BD000038B5037896
:10631000044673B9456855B11448154B1549C01A60
:10632000C00800042A4640F001000CF0C5FF124BE3
:106330001D60A5892846FFF7C1FF38B12378042BDB
:1063400005D8022B0CD8013B012B09D938BD052BF0
:10635000FCD1BDE8384009483022002118F08ABF3E
:1063600061682846BDE83840FFF7B8BF34630400D1
:10637000FC610400CC150400A8320020DC3B0020A6
:1063800038B51148114C0BF05DFF054660B1104B5C
:10639000104811491B1ADB081B042A4643F0010070
:1063A0000CF08AFF256038BD0BF062FF054638B15E
:1063B000074B084809491B1ADB081B042A46EDE76E
:1063C0002368082BEFD1FEE70D630200A8320020FE
:1063D00034630400FC610400E7150400FD150400AB
:1063E0002DE9F0431D4C17462268082A89B08046E3
:1063F00089461E4601D1FFF7C3FF24682CBB08F174
:10640000FF354BF6FE72ADB2954222D809F1FF334B
:106410009BB293421DD8F7B1EEB101AB05AA494634
:106420004046CDE901440CF0DFF870B903A905A896
:106430000CF036F8044640B9049B3B60039B5B8834
:10644000338005A80CF052F80446204609B0BDE898
:10645000F0830724F9E70E24F7E700BFA8320020F5
:106460002DE9F041404E98463368082B88B0044629
:106470000F46154601D1FFF783FF3668002E65D120
:10648000601E4BF6FE7280B2904261D87B1E9BB2BA
:1064900093425DD8002D5DD02046CDE90358ADF87C
:1064A0000840ADF80A70FFF709FF054620B9FFF76D
:1064B00005FF054600284FD0AB782C800133AB7028
:1064C0000E9B6B600023CDE90033BDF80A10BDF8C8
:1064D00008006B4605AA0CF087F8044640BB02A9E9
:1064E00005A80CF02BF848F206639842044610D138
:1064F0000CF054F8BDF808201C4B04460C2101FB9D
:1065000006F0C75A97421CD10C2202A9184418F071
:10651000A3FE4CB1A97839B10139C9B2A97019B932
:106520000822284618F0A6FE204608B0BDE8F081F3
:1065300048F20963984211D102A905A80BF0FAFFAD
:10654000D1E70136042EDAD11124E3E73446EBE734
:106550000724E9E70E24E7E71124E5E748F206639C
:106560009842D7D1C4E700BFA8320020DC3B00200E
:10657000F8B5194C2268082A06460F4601D1FFF7E4
:10658000FFFE256815BB731E9BB24BF6FE7293424D
:106590001ED83046FFF792FE044618B9FFF78EFE6C
:1065A0000446B8B1A37826800133A37067603046F3
:1065B0000BF0CCFF054648B1A17839B10139C9B219
:1065C000A17019B90822204618F054FE2846F8BDDB
:1065D0000725FBE71125F9E7A832002001207047C5
:1065E000054B0649024606481B1ADB081B0443F00C
:1065F00001000CF061BE00BF5462040014160400D8
:10660000FC61040008B50FF0FBFC60B1064A074BC3
:1066100007499B1ADB081B04024643F00100BDE852
:1066200008400CF049BE08BDFC610400546204003F
:1066300025160400032807D14FF08043A922C3F890
:10664000202500200DF0C8B87047000008B5144A96
:10665000136823B3013B13600BBB124B012018706E
:1066600001F08CFF50B1104A104B11499B1ADB0806
:106670001B04024643F001000CF01EFE01200FF047
:10668000B9FC60B1084A094B0A499B1ADB081B0494
:10669000024643F00100BDE808400CF00DBE08BD05
:1066A0002C3C0020343C0020FC61040054620400B7
:1066B000411604005C1604001FB5204B1A7872B313
:1066C0005A6802B958601A78013AD2B21A7032BBCD
:1066D000597801292BD002291CD1CDE9012203923E
:1066E0001A7A01328DF804205A68DAB901228DF83D
:1066F00005205989D86801AA02F038FB50B1104A28
:10670000104B11499B1ADB081B04024643F00100A1
:106710000CF0D2FD09481022002118F0ABFD05B0A5
:106720005DF804FB072A0CBF03220422DFE79A6806
:10673000002AEFD058689047ECE700BF383C0020B3
:10674000FC610400546204007A16040007B5037863
:1067500053B94FF6FF73ADF8043001A943788DF8B3
:106760000630042001F0EAF903B05DF804FB0000F4
:106770002DE9F0478AB00023CDE9033305930B7868
:106780005A1C8DF80C20012207460C468DF80D206E
:106790000F2B55D8DFE813F0100020003100510016
:1067A0006900CB00E300540054005400540054002E
:1067B000E700EC000001030108238DF81030618828
:1067C00003AA384602F0D2FA00284BD07E4A4FF492
:1067D00007710DF0FFFC45E04B88ADF818308B6871
:1067E00004201B788DF81A3006A901F0A7F90028BB
:1067F000E5D004238DF80D30E1E706AE0822002134
:10680000304618F037FD002000F092FD0025A84624
:1068100008B1072D03D98DF810500596CFE7735DA9
:1068200001337355037808F1010858075FFA88F0BF
:1068300048BF013500F07CFDEAE7644B1A780AB1E5
:106840000223D7E701221A7002225A700A781A72BC
:10685000D8604A885A815E49A06800F099FD08B165
:10686000FFF72AFF0AB0BDE8F0878B680DF1180822
:1068700010220021404693F8009018F0FBFC0DF127
:10688000060102A80FF090FFBDF80630082B28BFC4
:1068900008234846ADF8063000F04AFD002645467C
:1068A000B24609F1010908B1082E04D18DF814602F
:1068B000CDF8108083E703782A78DB435B0003F090
:1068C000020322F0320213432B70BDF806309E42C1
:1068D00026D20378D90723D4029A935DC3F3040325
:1068E00003EB83036B70935D13F01F0302EB060150
:1068F00002BF2A7863F341022A700B7803F0E003A9
:10690000A3F12002534253412A7863F382022A7092
:1069100009EB0600C0B200F00BFD01360235C2E7FC
:106920002B7885F801A06AF341032B70F0E7274B21
:106930001A78002A84D102221A705A700A781A72C0
:10694000D8604A885A812249A06800F089FD08B1C0
:10695000FFF7B2FE1E49A0680FF0B4FE7FE70223E6
:106960008DF811302BE700F0C1FD8DF8100026E7FF
:10697000164B1A78002A7FF463AF01221A700222A4
:106980005A700A781A72D8604A885A818B681049FE
:10699000187800F0ADFD62E700F0E0FDE5E70B4B95
:1069A0001A78002A7FF44CAF01221A7002225A7022
:1069B0000A781A72D8604A885A818B680449187814
:1069C00000F0CEFD4BE700BFA2160400383C0020CB
:1069D000B96602002DE9F0418CB004F019F820B13D
:1069E0009C4A40F2BD210DF0F5FB02A80FF0EAF839
:1069F000064650B19848994B9949C01AC0080004FE
:106A0000324640F001000CF057FC0DF0F5F804465A
:106A100050B19148914B9349C01AC00800042246D6
:106A200040F001000CF048FC0CF09AFE054650B115
:106A30008A48894B8C491B1ADB081B042A4643F001
:106A400001000CF039FC894A894801210DF006F952
:106A5000002C08BF2C46054650B180487E4B854926
:106A60001B1ADB081B042A4643F001000CF024FC2F
:106A7000002C08BF2C46804D804802232B70804B91
:106A800012221A604FF4203100220DF0F9F8074667
:106A9000002800F0DA8071486F4B7A491B1ADB0836
:106AA0001B043A4643F001000CF006FC002C08BF22
:106AB0003C46684A40F2C52120460DF08BFB7248E7
:106AC0000DF1070100F0DAFA20B1624A4FF4327199
:106AD0000DF080FB6D4B039303A800F0AFFF20B1D6
:106AE0005C4A4FF433710DF075FB029BD3E900381B
:106AF00007AF1C7D14220021384618F0BBFB644B05
:106B00000993A400634B0A9344F002044FF4F85332
:106B100004F00604ADF82C3004A80023CDE904836A
:106B20008DF82F40069703F0CFF820B1494A40F284
:106B3000CF210DF04FFB029B1B689A680892DA6820
:106B400009921B690A933846534B079303F0A2FE40
:106B5000044680B14148404B50491B1ADB081B04D6
:106B6000224643F001000CF0A7FB3A4A40F2D22142
:106B700020460DF02FFB36B10121002000F088FFE8
:106B800004F09AF8FCE702200FF034FA20B1314A01
:106B90004FF437710DF01EFB9DF807000FF030FA2F
:106BA00020B12C4A40F2DE210DF014FB022001F04E
:106BB000E5FC20B1274A4FF438710DF00BFB384E3D
:106BC0000FF024FA044600F061FF0DF0ADF83168D3
:106BD00007460DF0A4F8B0F5A47F0FD32B783760EB
:106BE000012B12D80021084600F052FF002101209D
:106BF00000F04EFF0021022000F04AFF03F036FFB4
:106C00000028DDD10CF0C2FDDAE7002C14BF03210F
:106C10000021002000F03CFF01F0E8FC011E18BF3D
:106C20000321012000F034FF01F0DAFC044601F0FA
:106C3000E2FC032C05D030B9022C18BF00242146F9
:106C4000D9E70124FBE70324F9E7002C3FF437AF31
:106C50002FE700BFA216040054620400FC61040088
:106C6000AE160400C2160400D61604004D660200DB
:106C7000B0170400F5160400343C0020B0320020A8
:106C80002C3C00201017040005660200156D020060
:106C900071670200E16502004D6702002D170400D4
:106CA000303C002010B5154B1A78012A24D8022058
:106CB000187001F063FC50B1114A124B12499B1A33
:106CC000DB081B04024643F001000CF0F5FA022039
:106CD0000FF090F9044650B109480A4B0B491B1AB2
:106CE000DB081B04224643F001000CF0E5FA084BD8
:106CF00012221A60204610BD0024F8E7343C002020
:106D0000FC61040054620400411604005C16040097
:106D10002C3C002070B50646FFF7C4FF33780A2BE1
:106D200070D00B2B14D0092B40F09680032001F07B
:106D300025FC054650B15048504B5149C01AC00877
:106D400000042A4640F001000CF0B6FA284670BD57
:106D50004C4C2378002B40F08480032323700123C4
:106D6000637049487368A36000F0ECFA88B1237837
:106D7000013BDBB22370636803B160603F4A3E4B66
:106D800042499B1ADB081B04024643F001000CF049
:106D900093FA3D480FF026FD88B12378013BDBB222
:106DA0002370636803B16060344A334B38499B1ADF
:106DB000DB081B04024643F001000CF07DFA324868
:106DC00001F03AFC054688B12378013BDBB2237021
:106DD000636803B160602848284B2E49C01AC00878
:106DE00000042A4640F001000CF066FAA368002B6C
:106DF000ACD1244A12F8011B002934D10133102BE5
:106E0000F8D1A3E71F4C23785BBB01232370637089
:106E10001D487368A36001F00FFC054688B1237814
:106E2000013BDBB22370636803B160601248134B0F
:106E30001849C01AC00800042A4640F001000CF0AE
:106E40003BFAA368002B81D10E4A12F8011B51B9FD
:106E50000133102BF9D179E73046BDE8704000F0DE
:106E600067B9082572E760687368984710220021A7
:106E7000044818F0FFF969E754620400FC6104005B
:106E80003F170400383C0020B96602005E1704007A
:106E90007A1704009717040010B50D4C214614F81A
:106EA0001030C3F340029B0706D511F810305B0782
:106EB000044604D5002208E00138C0B2EFE7431CC5
:106EC000D8B211F81430DC07EFD4104610BD00BF63
:106ED000D0320020064B002013F81020120701D5F5
:106EE000C0B2704701300828F6D1FF20704700BFBC
:106EF000D0320020064B002013F81020D20601D516
:106F0000C0B2704701300828F6D1FF20704700BF9B
:106F1000D0320020002270B5114600F11006144650
:106F20001346057815F0020F1CBF01335BB215F054
:106F3000040F1CBF03F1FF335BB215F0080F1CBF39
:106F40000134E4B215F0100F1CBF0131C9B2AD0617
:106F500048BF0132DDB248BFD2B2012D0AD8022C9F
:106F600008D0022906D0022A04D00230B042D8D17B
:106F7000012070BD0020FCE7FF281649024607D11A
:106F80000023D8B2013311F81020D207F9D470478A
:106F900011F810305B070BD4431CD8B211F8103035
:106FA000DB0715D59042F3D113460CE0431ED8B24F
:106FB00011F810309B07F9D5F0E70133D8B2072854
:106FC0004FF00002F0D811F81320D207D8B2F4D451
:106FD000704700BFD0320020FF281649024614D067
:106FE00011F810309B0714D4431ED8B211F810309A
:106FF000DB071DD59042F3D1134614E00138C0B22F
:1070000011F81030DA07F9D470470720F8E7431C6D
:10701000D8B211F810305B07F9D5E7E7013B581CEF
:107020004FF00702E8D011F81320D207D8B2F5D4F8
:10703000704700BFD032002013B50C4A00900523E2
:10704000012143F2DE00FFF70BFA044650B1084875
:10705000084B09491B1ADB081B04224643F00100B8
:107060000CF02AF9204602B010BD00BFE03200202B
:10707000FC61040054620400B41704001FB500282A
:1070800046D0002944D0234B1860234B23481A686C
:10709000824209D11A79083AD2B2F62A04D95A7929
:1070A000083AD2B2F62A03D84FF6FF7218609A80D7
:1070B0001B790B7003AA0DF10A03012143F2DE00D4
:1070C000FFF78EF9044688B9BDF80A30052B0BD1BD
:1070D0000399043108460191FFF71CFF019918B18B
:1070E0000F48102218F0B8F800240EE048F20963A7
:1070F0009842F9D00B480C4B0C49C01AC008000448
:10710000224640F001000CF0D7F8204604B010BD34
:107110000E24FAE7483C002000F00020BD34D330B4
:10712000D032002054620400FC610400CB1704003C
:10713000F8B503786C4D082B09D8DFE803F0051E7D
:1071400027083554955899004FF6FF73AB804FF6DA
:10715000FE74287903F0CAFB30F0080331D006280A
:107160002FD0624A624B63499B1ADB081B0402461C
:1071700043F002000CF0A0F823E0FFF7ABFE2B7900
:10718000834208BFFF2028716871E0E7FFF7B2FE75
:107190002B79834206BF6B792B712871564B287966
:1071A0001B6898470020F8BD83798488082B28BF86
:1071B000FF232B716B714FF6FF739C42C9D14FF6C1
:1071C000FE742879214602F0E5FE0028E6D0474A01
:1071D000474B4A499B1ADB081B04024643F0020056
:1071E0000CF06AF8DAE72879FFF7C6FECBE72B79CF
:1071F000434FFF2B33D117F813601C4616F00106DE
:1072000003F10103DBB2F6D12346013417F8133042
:107210005A07E4B2F8D5082C28BF00242046FFF70F
:107220003BFE0028F0D02644F6B2B44203D017F853
:1072300014305B0715D517F81430DE0703D5204648
:10724000FFF79AFE04462C716C7180E7013CE4B2B2
:1072500017F814201E1B9107F6B2F7D5D4E71C4689
:10726000F6E70134E4B2E0E72879FFF7B5FE8AE7F4
:107270002B79234FFF2B31D1072317F813601C46BE
:1072800016F0010603F1FF33DBB2F6D12346013CD1
:1072900017F813309907E4B2F8D5072C28BF072454
:1072A0002046FFF7F9FD0028F0D0A61BF6B2B44245
:1072B00003D017F814309A0712D517F81430DB07EB
:1072C000C1D52046FFF788FEBCE70136F6B29C190F
:1072D000E4B217F814205007F7D5D7E70026F6E7F1
:1072E000013CE4B2E3E700BF00F00020FC610400D1
:1072F00054620400E5170400483C0020F81704001D
:10730000D0320020014B1879704700BF00F00020F8
:10731000064B002013F81020920601D5C0B270472A
:1073200001300828F6D1FF20704700BFD03200207E
:1073300007289ABF024B03EB40000020704700BFB4
:10734000D03200201FB50446B8B110220021684693
:1073500017F090FF0A4B0B4A0B48CDE900330B4B5B
:107360006946CDE90223102217F076FF214643F249
:10737000DE00FFF7FDF804B010BD0E20FBE700BFF4
:107380000200040003000100D032002001000500CB
:1073900070B505460C4600295AD00378013B062BF0
:1073A00001D9072070BD10222A492B4817F054FF3D
:1073B0002A480022064600EB420101320B79082AD6
:1073C00023F006030B71F6D16B682D78CBB1002149
:1073D00008468D4237D80828E3D1002206EB420048
:1073E000017941F00201017113F8011B0A44511E99
:1073F00006EB4101072A087940F004000871EDD935
:1074000012E0B2FBF5F2D2B206EB4300134401796D
:1074100041F002010171591E06EB4101072B087969
:1074200040F004000871EFD90B48FFF773FD002806
:10743000B7D009490748102217F00EFF2046BDE8D3
:107440007040FFF7F9BD5A5C1044C0B20131C0E78B
:107450000E20A7E7D0320020E4320020E0320020E6
:1074600070B504460D46002938D00278072A01D9A4
:10747000072070BD43781344082BF9DC18491948DC
:10748000194E102217F0E8FE00206378C1B28B423B
:107490000ED81448FFF73EFD0028E9D011491048E6
:1074A000102217F0D9FE2846BDE87040FFF7C4BD92
:1074B00004EB410301309A78920748BFDA782378C9
:1074C0000B4406EB430348BFB2FA82F219794CBF72
:1074D0005209012262F300011971D6E70E20C8E7B4
:1074E000D0320020E4320020E0320020FFF7F2BC6E
:1074F00070B506460D4631B3154C16491022201DB5
:1075000017F0AAFEFFF7E6FC072803469FBF04EB2F
:1075100040031A796FF3C3021A71072E9FBF04EB61
:107520004600037943F0080303710B48FFF7F2FCB0
:1075300058B109490748102217F08EFE2846BDE8C9
:107540007040FFF779BD0E2070BD0720FCE700BF3B
:10755000E0320020D0320020E4320020FFF7CABC25
:1075600070B506460D4631B3154C16491022201D44
:1075700017F072FEFFF7BEFC072803469FBF04EB1F
:1075800040031A796FF304121A71072E9FBF04EBA0
:107590004600037943F0100303710B48FFF7BAFC70
:1075A00058B109490748102217F056FE2846BDE891
:1075B0007040FFF741BD0E2070BD0720FCE700BF03
:1075C000E0320020D0320020E432002070B5264D99
:1075D0002B78834204460BD12448254B2549C01AF9
:1075E000C0080004BDE8704040F002000BF060BE2F
:1075F0000128214E1CD13068431C01D00DF008FD3C
:10760000F068411C01D00DF003FD1C480022A421AC
:107610000CF036FB50B1164A144B19499B1ADB0883
:107620001B04024643F001000BF046FE2C7070BDB7
:1076300012480CF050FB50B10D4A0C4B11499B1AEB
:10764000DB081B04024643F001000BF035FE3068F6
:10765000421C02D001210DF097FCF068431CE5D0DC
:1076600001210DF091FCE1E7953C00209C620400B3
:10767000FC6104000B1804004C3C0020F832002090
:10768000261804003E18040010B50DF001FCB0B13E
:10769000164B17484FF0FF31042219605A72D96017
:1076A0005A750121134A0CF0D9FA0446C8B11248A0
:1076B000124B1349C01AC008000422460BE00DF01B
:1076C000A9FB04460028E3D00B480C4B0D49C01A17
:1076D000C0080004224640F001000BF0EDFD2046FA
:1076E00010BD094B01221A70F9E700BF4C3C002085
:1076F000E8180400F17802009C620400FC610400B8
:107700007818040056180400943C002030B4194A3C
:107710001368984213D0D368984212D101210C20EB
:1077200000FB01F44FF0A0431519D3F8103514599C
:10773000E3402C7A03F0010374B1DBB20EE00021C8
:10774000EDE70D480D4B0E49C01AC008000430BCCF
:1077500040F002000BF0ACBD83F0010300FB0122FE
:10776000D27A9A4203D030BC0120FFF72FBF30BC41
:10777000704700BF4C3C00209C620400FC61040088
:107780009818040037B50446002843D0234B1B78D3
:107790000BB9FFF779FF224B1A68013233D0DA6850
:1077A000013239D101210C224A432068985099189E
:1077B000237A0B7263684B60637A4B7203238DF8F4
:1077C00004309DF80630174A206823F007038DF82F
:1077D0000630237A002B0CBF0323012301A98DF867
:1077E00005300DF05FFB054678B10F480F4B10498F
:1077F000C01AC00800042A4640F001000BF05CFDEE
:10780000284603B030BD0021CDE7206801210DF0EE
:10781000BBFBF5E70E25F3E70425F1E7943C0020D8
:107820004C3C00200D7702009C620400FC610400C7
:10783000BC18040038B50446D8B10368CBB10E4B70
:107840001B780BB9FFF720FF0C4A00230C2000FB2C
:1078500003F18D5855B925685550D8B25318A288F0
:107860009A80E288DA8022891A8138BD0133042B9C
:10787000EDD10420F9E700BF943C0020643C0020D7
:107880000328F7B504460D462BD80C23164F434367
:10789000FE18FB582BB3728982B9012902D000204F
:1078A00003B0F0BD114601929847104B75811B78CB
:1078B000012BF4D02846FFF789FEF0E70029EED12E
:1078C000F188914207D2042198470C2000FB0474F0
:1078D00000226281E3E7B188914234BF0221012195
:1078E000F2E70720DCE700BF643C0020953C002065
:1078F0002DE9F8430025DFF8D8902E464FF0A04739
:10790000A846D9F80000431C25D0D7F8104599F8AF
:107910000830C44004F00104002B44D184F0010479
:1079200099F80B30A34216D099F80A305A1C032B51
:1079300089F80A2039D9D9F8043089F80B4089F838
:107940000A800BB12146984799F80900042802D80B
:107950002146FFF795FF09F10C0916B300271B4CD0
:107960003E46D4F80080B8F1000F0ED0628962B1B3
:1079700023899A421BD10521F0B2C04700236381BD
:10798000638913B10133638101270136042E04F1A9
:107990000C04E6D1BDB9B7B93846BDE8F843FFF7E6
:1079A00015BE0126ADE7E4B2BAE70125D3E7E188C9
:1079B000B2FBF1F301FB13239BB2002BE0D10321B7
:1079C000F0B2C047DCE7BDE8F88300BF643C0020AC
:1079D0004C3C002070B5154D154A2B78154E0133DF
:1079E0002B70137823B1013BDBB2137003B9F37032
:1079F0000024E0B20CB9F37803B9335D032B06D051
:107A0000022B0BD12B7803F00303032B0BD10121A5
:107A100001340FF0A9F8032CEBD170BD012B02D17A
:107A20002B78DB07F3D40021F2E700BFA03C002055
:107A3000973C0020983C0020FFF7CCBF10B5B0B1B8
:107A40000368A3B10B4A0C48136001210B4A0CF0E8
:107A500005F9044648B10A480A4B0B491B1ADB08D2
:107A60001B0443F001000BF023FC204610BD0E2444
:107A7000FBE700BF9C3C002014190400397A020087
:107A8000FC6104009C620400EC18040070470000D4
:107A90001F4B70B51E4600241D4616F8012B12BB65
:107AA0000134042CF9D1032831D82C5C8C422ED01F
:107AB0002954002113F8010BB8B901310429F9D177
:107AC0006AB1144A1378013BDBB213703BB9124818
:107AD0000CF001F918B1114A4E210CF07BFBBDE806
:107AE0007040FFF777BF0122DDE7002AF7D109498F
:107AF0000B78581C0870002BF1D107484FF4005147
:107B00000CF0BEF80028EAD0044A5321E5E770BD26
:107B1000983C0020963C00201833002003190400F4
:107B200008B538B903210320FFF7B2FF024B062244
:107B30001A7008BD0121F6E7973C002007B50B4BF2
:107B40001B688BB18DF8000009B10A6801920A38F0
:107B5000012804D809B10A680AB9054A01926846A1
:107B6000984703B05DF804FB0E20FAE79C3C002028
:107B7000217B020074DF704775DF704776DF704746
:107B800077DF70478CDF70478FDF7047054B064902
:107B9000024606481B1ADB081B0443F001000BF0E9
:107BA0008BBB00BF8462040018190400FC61040050
:107BB000024A40F25B210CF00DBB00BF2D190400FE
:107BC00007B5019005F078FF0D4B0E490198002292
:107BD0001A700D4A0123FFF7D5FF68B10B4A0C4B11
:107BE0000C499B1ADB081B04024643F0020003B059
:107BF0005DF804EB0BF060BB03B05DF804FB00BF65
:107C000050410020DA1B0400A61B0400FC610400A4
:107C10008462040043190400F0B5114B114C124F5B
:107C2000E41AE408240495B044F0010405464FF634
:107C3000FF76284607F08CFFB04205460DD0694616
:107C400007F0B8FF024620B1394620460BF034FB5E
:107C5000EFE79DF80030022BEBD1284615B0F0BDC0
:107C6000FC610400846204006C1904002DE9FF41EA
:107C700006464FF6FF70FFF7CFFFDFF8E0800546BE
:107C800000244FF6FF77BD4224D105F0EBF90746FB
:107C9000002E37D105F010FF34463546284B1C70B6
:107CA000284B1B6833B101228DF804208DF8084061
:107CB00001A8984755B12448244B2549C01AC0084B
:107CC00000042A4640F001000BF0F6FA284604B002
:107CD000BDE8F08101A9284607F028FF20B14246FF
:107CE00040F27D110CF076FABDF8040005F06CF955
:107CF000022818BF0134284618BFE4B2FFF78CFFF2
:107D00000546C0E7134A1448731E0E2101FB0321E8
:107D100005F064FF054620B1104A4FF4CA710CF01B
:107D200059FA022F09D8032E01D0002CB6D00A48E8
:107D300005F01EFF34460546B0E70024AEE700BF5D
:107D400050410020E040002084620400FC610400F7
:107D50008B190400BE1B0400FC4000202D190400F8
:107D6000F0B58DB004462C220F4601A8002117F073
:107D700081FA40F20113ADF80830502240F6B833D2
:107D8000CDE90523022C4FF4C86307931CD0012CC6
:107D90001CD0002C3AD126461D4D95F85400FFF713
:107DA000E9FE1C4B85F82E749B788DF805307CB964
:107DB000012301A928468DF8043003F051FC85F811
:107DC0002E4420460DB0F0BD0326E5E70426E3E788
:107DD00001A9284603F044FC3146284603F0EEFA98
:107DE00000231228044685F82E3401D11C46E8E70A
:107DF0000028E6D0084B09480949C01AC008000409
:107E0000224640F001000BF057FADAE70724D8E7E2
:107E1000A43C0020D8400020FC61040084620400DF
:107E2000A619040013B513210190FFF7A7FE019ACC
:107E3000034660B10748084C0849241AE4082404A2
:107E400044F0020002B0BDE810400BF03EBA02B0B0
:107E500010BD00BFFC61040084620400C819040066
:107E6000F0B503881F2B87B0044600F0D18008D8F6
:107E7000112B1DD01B2B00F0C280102B56D007B049
:107E8000F0BD3B2B00F0D080562B00F0D880212B8A
:107E9000F5D100238088ADF80C3003A9FFF774FEFC
:107EA0000028ECD06B4A40F25A310CF093F9E6E727
:107EB0008588694E284605F075F83368044663B135
:107EC00005F0CAF804460028D9D107F089FE002839
:107ED000D5D0336898473460D1E7022810D15F4B82
:107EE0005F4E1A88AA4204BF4FF6FF721A80B38908
:107EF000AB4213D13046FFF763FE4FF6FF73B381F9
:107F0000584B1B68002BBAD003228DF80C20ADF81B
:107F100010508DF8124003A89847B0E7524B58789C
:107F20001B788342ECD0FFF7A1FEE9E7858828465D
:107F300005F038F80023CDE90033064602938DF8AA
:107F4000060002230422294603208DF80030ADF8F4
:107F50000450FFF715FE50B1444A454B45499B1A62
:107F6000DB081B04024643F001000BF0A5F9022ECA
:107F70003C4F35D1002303A928468DF80C3007F07B
:107F8000CBFD9DF80C1011F008010ED1284607F02A
:107F90008BFD50B1354A364B37499B1ADB081B0421
:107FA000024643F002000BF087F92D4E07223146BE
:107FB00004F1080017F042F9014638B9B36802939A
:107FC0000722304617F056F9244B1D80264B58786F
:107FD000FFF74CFE3B68002B3FF451AF68469BE730
:107FE000012EF7D125493A6800230B70002AF1D001
:107FF0008DF80C308DF8103003A89047EAE7037A2B
:10800000022B7FF43CAF184B5878FFF72FFE36E772
:1080100000F108018088FFF7AFFD00283FF42FAF83
:108020000C4A4FF4597140E780881321FFF7A6FDF1
:1080300000283FF424AF074A4FF45B7135E780888E
:108040001321FFF79BFD00283FF419AF014A4FF4BD
:108050005D712AE72D190400DC400020F840002063
:10806000E8400020E040002050410020FC61040076
:1080700084620400091A04002B1A0400D84000206E
:1080800000B5B3B007284BD8DFE800F01E4A4A0419
:1080900015181B21244B02221A70244B1B68002B3D
:1080A0003ED000228DF848201F4A12788DF84C20CF
:1080B00012A8984734E01C4B0122EDE71A4B04222A
:1080C000EAE7194B0322E7E7174B0022E4E708230E
:1080D000CDE9023312AA03AB02A904A807F004FDFC
:1080E00050B1134A134B14499B1ADB081B04024678
:1080F00043F002000BF0E0F8039B0093029A0F4854
:1081000012AB04A903F09BFA50B1094A094B0A4982
:108110009B1ADB081B04024643F002000BF0CCF86C
:1081200033B05DF804FB00BFD8400020E0400020E1
:10813000FC61040084620400481A0400A43C00208E
:108140002DE9F04F037885B08046042B24D8DFE872
:1081500003F03303332326004FF6FF7007F0F8FCDB
:108160006D4600242E464FF6FF77B84212D0082CF9
:108170000AD12146304607F0ADFC68B1354A40F2DD
:1081800053110CF027F807E025F8020B013407F033
:10819000DFFCEAE7002CECD105B0BDE8F08F2E4BF8
:1081A0005878FFF763FD2D4B9B78002BF4D001210D
:1081B0000220FFF7D5FDEFE74468294E294DD4F89A
:1081C0001890B4F81CA0AD1B2D094FF0000B5FFAFE
:1081D0008BF39D4212D840F20113A069A18BADF838
:1081E0000030214B6A461B788DF8023004F07EFC8B
:1081F0000028D1D0A01CFFF7E3FCCDE71A0106EB65
:1082000003175146B358484698470BF1010B002815
:10821000DDD0114B9B78002BDDD1144D144EAF6097
:10822000234653F8020F28609A7930889988AA71FA
:108230004FF6FF729042A98003D11846FFF7C0FCA9
:10824000C9E798F800100029C5D1FFF7EBFD338886
:10825000AB81C0E72D19040050410020D840002018
:108260009C630400BC630400E4400020E84000205C
:10827000F840002010B5044608F0F6F8204607F054
:108280001DFF23780E2B0BD004D8042B1AD00D2BF6
:1082900016D010BD102BFCD1BDE8104007F012BC69
:1082A000A0680D4B1B6803B198470C4B5878FFF73B
:1082B000DDFC0B4BBDE8104058780021FFF750BDA6
:1082C0000020EEE76389B3F5885FE2D02046BDE881
:1082D000104008F0F3B800BFDC40002050410020FF
:1082E000D840002070B50546AEB0002800F0A08050
:1082F000864B02681A600021782203A816F0BAFFA4
:108300002C22002121A816F0B5FF502140F6B832EA
:1083100040F20113CDE925124FF4C862ADF8883060
:108320002792ADF804307A4A6B798DF806302B79B4
:10833000937002228DF80C208DF885304FF4C062C6
:10834000744BADF80E2001AE01222C937248734B92
:10835000ADF8142003A906962D9302F0B0FF50B19A
:108360006F4A704B70499B1ADB081B04024643F0AE
:1083700001000AF0A1FF684C0121204602F09CFF99
:1083800094F8541004220120FFF7FAFB0446002859
:1083900000F08D806348624B6449C01AC008000435
:1083A000224640F001000AF087FF20462EB070BD43
:1083B0005F483246032105F04FFB0446B0B95C48E4
:1083C00002AA032105F048FB044678B902461F21A2
:1083D000574805F05DFB0446002850D05148504BEB
:1083E0005449C01AC00800042246DAE74D484C4BF5
:1083F0005149C01AC00800042246D2E703A807F07A
:1084000049FB044638B14748454B4C49C01AC0089F
:1084100000042246C5E74A4807F024FB044648B159
:1084200040483F4B4749C01AC00800042246B8E7FD
:108430000E24BAE701461C2203A816F01BFF424B8C
:1084400003934FF4A0324FF4F023CDE90423032328
:108450008DF8183003A83D4BADF81A4008948DF8FC
:108460001C50099304F08EFC044600289DD02D4832
:108470002B4B3749C01AC0080004224691E7354A01
:10848000354B024000F0FC0040F0030413438DF82C
:108490001040039307F05EFA04460028AED021484E
:1084A0001F4B2E49C01AC0080004224679E72C4A07
:1084B0006B79137041F61202ADF8042040F20112FC
:1084C000ADF80820274A8DF80A304FF6FF739381E4
:1084D000254A06901380254B049001250393244AD6
:1084E000244B13488DF8065003A905938DF81850B6
:1084F00005F0E4FA044600283FF45AAF0948084B57
:108500001D49C01AC008000422464AE7E040002086
:10851000D840002081800200A43C00208D7B020016
:10852000FC61040084620400641A0400881A0400D8
:10853000FC400020E81A0400CC1A04002A1B0400A6
:10854000758202004E1B0400B61B0400B17B0200C2
:10855000791B04008E0000FC31071003051B04008A
:10856000E4400020E8400020F8400020BE1B04004A
:1085700041810200A61B0400AB1A04000328F8B5D1
:10858000144F154B054616D11A787E78032A13D05E
:10859000FFF76CFB04467B78B34205D07E709CB13C
:1085A00000213046FFF7DCFB1DB90C48294604F0DA
:1085B000CBFD2046F8BD06465A78AA4202D05D702F
:1085C0002846E5E70024E6E721463046FFF7C8FBEA
:1085D0000446E9E7D840002050410020257E0200F3
:1085E000014B1878704700BF5041002008B504F0D7
:1085F00049FDC0B208BD08B504F034FDC0B208BDE5
:1086000000487047B61B04000148002104F09CBDDF
:10861000257E0200064B987040B1064B18884FF635
:10862000FF73984202D00021FFF7FCBB704700BFE8
:1086300050410020F840002010B5044605F03CFAF7
:1086400000210846FFF78CFB064B07481C60002101
:1086500004F07AFD18B9BDE8104007F0C1BA002057
:1086600010BD00BFDC400020257E0200A8DF70475F
:10867000ADDF7047AEDF704762DF704730B5084B43
:108680001B780C1D013B5A1C01D1002206E001EBB6
:108690008302013B34F823508542F4D1104630BDAB
:1086A000534100202DE9F041614B8EB0144602AADF
:1086B0000746884603F1100694461868596815461F
:1086C00003C50833B3422A46F7D1002F00F0AC802F
:1086D000002C00F0A980B8F1000F00F0A7806368BB
:1086E0007B612369534EBB6108F18043013B86F8EF
:1086F00000809B004FF6FF71BA6B08F1FF3818F04D
:10870000FF08D152A3F10403F6D139466046FFF7C2
:10871000B3FF002840F085803A46694612F8023BD4
:108720008DF80230012040F20113ADF80030FFF760
:108730009DFF002875D12022414606A88DF80680AD
:1087400016F098FD3A464FF48173ADF8183012F8E0
:10875000043B8DF81A30384B0793BDF824307888E5
:1087600023F4875323F01F0343F4805343F00103A2
:1087700001ADADF8243006A9637808958DF82B304B
:1087800004F02EFD00284CD1237CA27C218AADF878
:108790000410012B98BF94F813808DF80620002157
:1087A000202206A88DF8078016F064FD3A4640F2B4
:1087B0000313ADF8183012F80C3B8DF81A304FF057
:1087C0000413CDE907359DF82530788843F002037E
:1087D0008DF8253006A963788DF8293004F000FD66
:1087E000F8B9A368EBB10146142206A816F042FDC1
:1087F0003B788DF81830A3788DF81930E3788DF830
:108800001A307B882069ADF82030A368CDF81B00B2
:1088100009933178E3680A9306AA07F11C0000F077
:1088200047FA0EB0BDE8F0810E20FAE70720F8E71E
:10883000E81B040053410020130003002DE9F04120
:10884000054688B00C46002900F09B80002800F007
:108850009880014604F11C0000F030FBB5F8008060
:10886000B8F1110F5AD0B8F1500F00F08D80B8F167
:10887000100F40F08680A16B4FF6FF70FFF7FEFEF1
:10888000064600287DD0AB8803806169002978D135
:1088900008220DEB020016F0EDFC01AB03932189D9
:1088A000A888022302AA0293FFF7E2FE0746A0B9B6
:1088B000039804F084FC80B10123B370424639462A
:1088C00004A816F0D7FCAB88ADF818308DF81070FE
:1088D00063690594079604A89847218DA88802AA81
:1088E000FFF7C6FE074600284BD1039804F06BFC47
:1088F000002846D001231022F37039460DEB020008
:1089000016F0B8FC02238DF81030AB88ADF81830A3
:1089100063690594079604A8984732E0A16BA8887C
:10892000FFF7ACFE064660B363693BB383788BB157
:108930000021102281700DEB020016F09BFC012338
:108940008DF81030AB88ADF8183005946369079640
:1089500004A89847F3788BB100211022F1700DEB39
:10896000020016F087FC03238DF81030AB88ADF8B9
:10897000183005946369079604A898474FF6FF736B
:10898000338008B0BDE8F081EB8822899A4221D17A
:10899000AF88A16B3846FFF771FE06460028F0D07D
:1089A0002B8A022BEDD1102200210DEB020016F0D4
:1089B00061FC05F112000594ADF81870079604F0FB
:1089C000FEFB012320B1B37000238DF8103023E0AB
:1089D000B070FAE7228D9A42D3D1B5F80480A16B2A
:1089E0004046FFF74BFE06460028CAD02F8A022FCA
:1089F000C7D1102200210DEB020016F03BFC05F15F
:108A000012000594ADF81880079604F0DCFB40B125
:108A10000123F3708DF810706369002B7FF47BAF36
:108A2000AFE7F0700323D0E72DE9F0410F468AB09D
:108A3000816B804638461446FFF720FE002800F080
:108A4000D7808378002B00F0D38023788DF8143002
:108A500005AD33B3012B00F0918001239CB20021BE
:108A6000102201A8ADF8024016F004FCB8F804305A
:108A7000ADF8043001238DF806300023ADF808303E
:108A800001A90DF102033846CDE90335FFF7F2FDE8
:108A900020B9BDF80230A34218BF0C200AB0BDE8CF
:108AA000F0816288C2F309038DF815301B0A8DF836
:108AB000163023798DF81730D30744BF63798DF8CA
:108AC0001830D6B24CBF05230423B00708D50AA935
:108AD000581C0B44A17901F00F0103F8141CC3B218
:108AE000710708D50AA9581C0B44E17901F00F0160
:108AF00003F8141CC3B2300706D52189E954E818DD
:108B0000090A02334170DBB2F10606D56189E954E6
:108B1000E818090A02334170DBB2B00606D50AA88C
:108B2000591C0344A07B03F8140CCBB2710606D584
:108B3000218AE954E818090A02334170DBB21606AB
:108B400006D50AA8591C0344A07C03F8140CCBB228
:108B5000D0054FEA122106D50AA85A1C0344E07C2E
:108B600003F8140CD3B28A077FF578AFA28AEA54CF
:108B7000E918120A02334A70DBB26FE76288C2F367
:108B800009038DF815301B0A8DF8163023798DF8FE
:108B90001730D30744BF63798DF81830D6B245BF7C
:108BA000A3798DF8193004230623B00708D50AA944
:108BB000581C0B44E17901F00F0103F8141CC3B2F7
:108BC000710708D50AA9581C0B44217A01F00F013E
:108BD00003F8141CC3B2300706D56189E954E818BC
:108BE000090A02334170DBB2F10696D5A1898EE7FE
:108BF000082053E7ADDF7047AEDF7047B0DF704746
:108C000070B5094B1B781825013B4E195A1C01D130
:108C1000002407E005FB03F28C18183A013BB25A16
:108C20008242F3D1204670BD54410020F0B50E467B
:108C300087B0816905463046FFF7E2FF044620B958
:108C40006B6913B10520984723E0A778022F20D144
:108C50002379ADF806300021102202A816F00AFB95
:108C60002B89ADF808300023ADF80C300DF1060368
:108C7000049302A9631D30468DF80A700593FFF72F
:108C8000BBFF40B92279BDF806309A420DD10323CB
:108C9000A37007B0F0BD132805D00023A3706B6943
:108CA000002BD0D1F5E7A770F3E70C20F5E7000023
:108CB00070B5154688B00446002850D0002A4ED022
:108CC00000294ED0284B197013464FF6FF7613F843
:108CD000032B02701B68C0F801302B89C380EB683E
:108CE00003612B6943616FF01702182313FB012303
:108CF0000020A269D652A26901391A4411F0FF017D
:108D00009070A3F11803F4D12022684616F0B2FA4D
:108D100022464FF48273ADF8003012F8083B8DF80C
:108D200002301323ADF80430BDF80C30E08823F492
:108D3000235323F03F0343F4205343F00103ADF8E2
:108D40000C3001238DF81030AB788DF81230694665
:108D50006B788DF8133004F043FA08B070BD0E2024
:108D6000FBE70720F9E700BF544100202DE9F0415F
:108D70000F460646816938461446FFF741FF002832
:108D800000F09580002C00F094808378012B40F057
:108D90009280022383702023437123788371637848
:108DA000C371012B40F081802378013B451D0E2BC0
:108DB0007BD8DFE803F0777A087A597A71715D5DC4
:108DC000717A777A770023790372A36893B90423C1
:108DD00008E0A168895CE95401322179131D8A42B7
:108DE000DBB2F6D3037139463046FFF71FFF002090
:108DF000BDE8F0810022F0E7717849B101291AD06D
:108E00000CF1010C217A5FFA8CF29142F4D8E9E777
:108E1000112BF5D8616811F81210E954616801EB63
:108E2000420203F1010E527802335FFA8EFEDBB28A
:108E300005F80E20E4E7102BE2D8616802EB42024D
:108E400003F1020E895CE954616811445FFA8EFEF9
:108E500091F80180591CC9B2033305F8018061689B
:108E60000A44DBB29278E3E74FF0000C0323C9E732
:108E7000B4F904300372C3F307234372B4F9063024
:108E80008372C3F30723C372B4F908300373C3F3C7
:108E9000072343730923A5E7237903726379437298
:108EA00005239FE72379037291E703239AE70520BF
:108EB0009EE70E209CE708209AE700002DE9F0438A
:108EC0000B88512B91B004460D463DD006D8102B8F
:108ED0001CD0112B2BD011B0BDE8F083532B00F028
:108EE0008481572BF7D1964B1D781826002DF2D090
:108EF000A26906FB05F3183BD1188978022903D132
:108F0000D15A2046FFF792FE013DEFE781694FF607
:108F1000FF70FFF775FE28B96369002BDBD00420D2
:108F20009847D8E7AB88038000238370D3E7816933
:108F3000A888FFF765FE20B96369002BCBD0052018
:108F4000EEE74FF6FF73EEE78E79022EC3D18B7BEF
:108F5000043B022BBFD90A8903899A42BBD1B1F8DD
:108F6000048081694046FFF74BFE074618B96369E4
:108F70000BB1052098479DF816304FF002090021EB
:108F800043F00103082208A8CDE906118DF81090DE
:108F90008DF8163016F06EF9CDF82090A1890DF1FC
:108FA000040908AA4046CDF82490FFF723FE10B12B
:108FB000636903B19847484604F005F958B33FB3D5
:108FC000BB782BBB04A94046ADF81430FFF716FE62
:108FD00010B1636903B19847BDF81430002B7FF4DA
:108FE0007AAF002F3FF477AF0123BB70AB7CBBB1EE
:108FF0002A7D8DF82020013A0F2A11D8DFE802F0EF
:109000000E950E7E95240E0E0E0E0E8C0E950E9560
:109010004FF4FF73D6E740F2FD13D3E7012B28D0BE
:1090200003238DF805309DF820308DF804304A4632
:1090300041462046FFF79AFE00283FF44CAF636993
:10904000002B7FF46DAF46E794F801C0BCF1000F30
:1090500021D1122BE4D8DA07E2D46A7D8DF82420DE
:1090600000228DF8252008AA05F114001546B34208
:109070001FD825699DF82010002D7DD04A1E0F2A8B
:109080007AD8DFE802F0635F59596375637F8181A5
:10909000838385858989BCF1010FDED11A2BBFD866
:1090A000991E032291FBF2F202EB42029142D4D0CC
:1090B000B6E7711C10F806E0C9B2BCF1000F0BD086
:1090C000BCF1010F0FD09DF8256001368DF82560A9
:1090D000033202350E46CAE7415CE971023685F873
:1090E00006E0F1B2EFE7415CD171F11C0236F6B255
:1090F00082F806E0865D1672C9B2E4E76A7D8DF8F3
:109100002420991E914202D116350A95B1E7022B0F
:1091100086D100230A93ACE7032B81D16B7D8DF8B8
:109120002430AB7D8DF82530A3E7022B7FF478AF98
:109130006B7D8DF824309CE7A37813F0040F1AE0C0
:1091400054410020A37803F00103ABB109ABADF8A3
:109150000680029703930F2A3FF6BDAEDFE802F0C8
:10916000202B272F292D31333537393B3D3F4143C4
:10917000A37813F0020FE9D102238DF805308DF8A2
:10918000041054E7E378DEE7E378F2E7E378D4E726
:10919000A37813F0080FEEE7A37813F0100FEAE7B7
:1091A00000238DF8043049462046A84793E6022361
:1091B000F7E70423F5E70123F3E70523F1E70323AA
:1091C000EFE70623EDE70723EBE70823E9E70923A9
:1091D000E7E70A23E5E70B23E3E70C23E1E70D23A9
:1091E000DFE70E23DDE70F23DBE78169A888FFF7C0
:1091F00007FD00283FF4A0AEEA8823899A427FF455
:109200006AAE8378032B7FF466AE8DE6A4DF7047E9
:1092100062DF704770B5094B1B780C25013B4E1976
:109220005A1C01D1002407E005FB03F28C180C3A0C
:10923000013BB25A8242F3D1204670BD5541002015
:1092400030B5054685B00C464FF6FF704968FFF70C
:10925000E1FF48B1E3683BB10022CDE902058DF89A
:10926000042001A92046984705B030BD70B58AB0EA
:1092700004460D4616460021202202A88DF804302F
:109280008DF8051015F0F6FF0A4A2069ADF81A604E
:10929000CDE9042401AA08924FF400320123079279
:1092A00002A92A468DF808308DF8183004F0A8FA83
:1092B0000AB070BD41920200F0B50B7889B0044647
:1092C000002B5AD1888840F20112904255D18879FA
:1092D0002278904251D148880D7AADF8040001F10E
:1092E0000E0612279D420DD907FB03F236F802C085
:1092F000BCF5817F43D18B18DA8A1B8BADF808202F
:10930000ADF80A30002301F10E06122740F2031CCB
:109310009D4209D907FB03F236F802E0E64530D159
:109320000A44D38AADF80C30002201F10E06122750
:1093300095420DD907FB02F336F803C0BCF5827FD6
:1093400021D11944CB8AADF80E300B8BADF810301B
:109350006168FFF75FFF034638B102AA03CAC3F88A
:109360000200C3F8061012885A81A3682BB10022AC
:109370008DF8002069462046984709B0F0BD0133BA
:10938000B0E70133C4E70132D2E7000073B50D4600
:109390001646044600283DD0002A3BD000293BD089
:1093A0001E480DF10601FFF733FF002830D140F2CF
:1093B0000113ADF804309DF8063023703368A360C4
:1093C0007368E360B3682361154B0C221D706FF066
:1093D0000B0312FB05324FF6FF76034661688E528F
:1093E00061681144013D4B806168114415F0FF052F
:1093F0008B8061681144CB80616811440B81616886
:109400001144A2F10C024B81E8D101A802F0E8FA64
:1094100002B070BD0E20FBE70720F9E7F81B04003F
:1094200055410020F0B5044689B00D4651B148B110
:109430000388382B00F0248106D8112B63D0362BFB
:1094400000F0468109B0F0BD392BFBD14968808816
:10945000FFF7E0FE06460028F4D0202200216846EF
:1094600015F008FF0196628973889A421AD1022387
:10947000A17C8DF80030637C227CE77C8DF808208D
:1094800043EA012318B21946ADF80A3004F1140377
:10949000002A48D0012A00F09380AB6813B16946D6
:1094A00028469847338961899942CBD13088FFF7A4
:1094B000ADFEAE68E38904228DF80020002EC1D0F5
:1094C000227C202ABED1A17C627C8DF80820012953
:1094D0008DF8091040F0AD80033B013A9BB20E2A93
:1094E00000F2A780DFE812F0C800A5009A00A500EE
:1094F000A900A500C100C100AE00AE00C100A500DA
:10950000C800A500C80049688088FFF783FE0028CE
:1095100098D04FF6FF730380002343808380C3807D
:10952000038143818EE78DF80C70C70742BF277D0A
:109530008DF80D7004F11503C2B2970744BF13F8FC
:10954000017B8DF80E70570744BF13F8017B8DF82F
:109550000F70170741BF93F801C013F8027B47EA69
:109560000C27ADF81070D70607D593F801C013F893
:10957000027B47EA0C27ADF81270970644BF13F838
:10958000017B8DF81670570641BF5F7813F8022BE8
:1095900042EA0722ADF81820000644BF1A788DF879
:1095A0001A200A0AC90544BF19788DF81B109207C2
:1095B00041BF5A781B7843EA0223ADF81C306CE7B0
:1095C0008DF80C70C707C2B207D5237D677D8DF873
:1095D0000D308DF80E7004F11603970744BF13F891
:1095E000017B8DF80F70570744BF13F8017B8DF88E
:1095F0001070170741BF93F801C013F8027B47EAC8
:109600000C27ADF81470D70641BF93F801C013F8CA
:10961000027B47EA0C27ADF81470AEE7E27C8DF8C8
:109620000C20023B934202D11434049401E0002345
:10963000049369462846B04704E7033B8DF80C3095
:109640001334F2E7227DE37C43EA0223ADF80C30C9
:10965000A27D637D43EA0223ADF80E30227EE37DD6
:1096600043EA0223ADF81030E3E7E37C8DF80C30D9
:10967000237D8DF80D30DCE7E37C8DF80C30D8E7E6
:1096800049688088FFF7C6FD00283FF4DBAEE38819
:10969000002B3FF4D7AEEA68002A3FF4D3AEADF812
:1096A0000830019063898188994206D101238DF8A1
:1096B0000030694628469047C4E60189994201D1A5
:1096C0000323F4E7418999427FF4BCAE0223EEE71D
:1096D00049688088FFF79EFD064600283FF4B2AE39
:1096E0006289C3889A427FF4ADAE20220021684689
:1096F00015F0C0FD0323627C8DF80030237C0196B9
:1097000043EA0223ADF80830AB68002B3FF49AAE71
:1097100069462846984795E6F0B50E468FB0144640
:109720000546002871D041683046FFF773FD0746B3
:1097300000286CD02022002106A815F09BFD374A96
:10974000CDE9082501233A898DF818308DF82830A5
:109750002378ADF82A2001AA0C928DF804304FF43A
:109760008032023B0B920E2B53D8DFE803F04952B4
:1097700008492652525252523F5249524900A0685B
:1097800021798DF805100223ADF82E3020B10DF1AE
:10979000060400238B4206D32869324606A904F04A
:1097A0002FF80FB0F0BDC25C04F8012BBDF82E20DD
:1097B0000132ADF82E200133ECE7617912292AD865
:1097C00023798DF805300223ADF82E300DF1060017
:1097D00000238B42E0D2A268D25C00F8012BBDF8D6
:1097E0002E200132ADF82E200133F2E723798DF8D7
:1097F000053063798DF806300323ADF82E30CBE7C2
:1098000023798DF805300223F7E70E20C9E70520FC
:10981000C7E70720C5E70420C3E700BF4192020065
:1098200070B50D461646044680B141682846FFF7DC
:10983000F1FC68B1002E42892946204618BF022358
:10984000BDE8704008BF0023FFF710BD0E2070BDBB
:109850000520FCE770B50E4614460546C8B14168C0
:109860003046FFF7D7FC28B94FF6FF70FFF7D2FC60
:1098700088B106803CB12368C0F802306368C0F844
:1098800006302389438128693146BDE8704004F0E1
:1098900057B80E2070BD0520FCE78B6903B118474F
:1098A000704707B5E8B1E1B101238DF8063041F604
:1098B0001203ADF804304FF6FF730360002383807A
:1098C0000A6882614A68C2618A680262C0E902333A
:1098D000C0E90433C38001A802F082F803B05DF848
:1098E00004FB0E20FAE700002DE9F043064689B09C
:1098F0000C4641B138B10388382B3DD006D8112B26
:1099000028D0362B4DD009B0BDE8F083392BFAD1E1
:1099100082880B889A42F6D14389CA889A4227D016
:109920008A899A4226D04A8A9A42ECD102238DF83B
:109930000E3006F110030293F389ADF80C30E369A1
:1099400004228DF80420002BDDD00DEB020120460F
:109950009847D8E782880B889A42D4D100234FF6E3
:10996000FF70C1E90003C1E90233C1E90433CAE76A
:109970000023DCE70123DAE70A8883889A42C2D110
:10998000464F01F11205F08838B1328923899A4295
:1099900003D13A46C5210AF01DFC0634AC42F2D18F
:1099A000B1E70A8883889A42ADD142894B889A42AE
:1099B00026D10422002102A815F05CFC0223727C4F
:1099C0008DF80430337C43EA0223F27CADF8083092
:1099D000D107B37C8DF80A3042BF9DF80B3043F0BD
:1099E00001038DF80B30930742BF9DF80B3043F015
:1099F00002038DF80B30E36913B101A920469847A3
:109A00007289A3889A420DD103238DF8043006F1A0
:109A100010030293F389ADF80C30E36913B101A987
:109A200020469847012506274FF0050806F1100942
:109A300007FB05F37289E35A9A420ED16B1E8DF82B
:109A40000E30F389ADF80C30E3698DF80480CDF861
:109A5000089013B101A9204698470135042DE7D19C
:109A6000002504F10A08062707FB05F3728938F878
:109A700003309A420ED1337C8DF80930737C8DF817
:109A80000A30E3698DF804708DF8085013B101A90C
:109A9000204698470135032DE6D134E7081C040021
:109AA00030B504468BB020B3022924D8062303FB2B
:109AB00001018DF804200D892022002102A88DF8D3
:109AC000051015F0D7FB0D4A206AADF81A50CDE904
:109AD000042401AA08924FF400320123079202A93C
:109AE00022888DF808308DF8183003F089FE0BB00D
:109AF00030BD0E20FBE70720F9E700BF9B9802006E
:109B000030B480B1018052B1831C02F1140452F8C8
:109B1000045B43F8045BA242F9D112881A8030BC7E
:109B2000006A03F00DBF0E2030BC704778DF70472D
:109B30007ADF70477CDF70477047000038B50378E4
:109B4000022B044648D182684AB3244DD368EB61A6
:109B500083685B689847A18802462846FFF7D0FFD4
:109B600050B11F4A1F4B20499B1ADB081B040246B9
:109B700043F0020009F0A0FBA36818489B6801218C
:109B8000984748B3164A174B18499B1ADB081B0421
:109B9000024643F00200BDE8384009F08DBB8188E1
:109BA0001348FFF757FE50B10D4A0E4B11499B1A4F
:109BB000DB081B04024643F0020009F07DFBA1888C
:109BC0000D4801F02FFF38B1054A064B0B499B1A8F
:109BD000DB081B040246DCE738BD00BFEC45002073
:109BE000FC61040084620400241C04003F1C040087
:109BF00024390020601C0400383300207B1C040042
:109C0000014AFC210AF0E6BA9D1C04000146014805
:109C1000FFF752BB2439002008B503281DD8DFE820
:109C200000F0022309150020FEF7A8FCBDE808405B
:109C3000FEF7EABC0D480E4B0E49C01AC0080004DE
:109C4000BDE8084040F0010009F032BB0748084B6E
:109C50000949C01AC0080004F2E70448044B074948
:109C6000C01AC0080004EBE708BD00BF846204000E
:109C7000FC610400A81C0400E11C04000E1D04008B
:109C800010B50446008903F08DF9012804D123782A
:109C9000022B03D0032B00D010BD0020BDE81040E4
:109CA000FEF7B8BC08B50B785BB989880122FFF7CD
:109CB000B7FD30B1BDE80840024A4FF488710AF0A0
:109CC00089BA08BD9D1C0400F0B599B0054602F0A4
:109CD000EDFB044668B19148914B9249C01AC00807
:109CE0000004224640F0010009F0E6FA204619B0CF
:109CF000F0BD0AF0B7FC50B1894A884B8A499B1ADB
:109D0000DB081B04024643F0010009F0D5FA0023EA
:109D100008A9012008930AF03FFB50B1804A7F4B0D
:109D200082499B1ADB081B04024643F0010009F03C
:109D3000C3FA08A80AF0E4FB50B1794A774B7C4992
:109D40009B1ADB081B04024643F0010009F0B4FA39
:109D50002E68FEF755FC02460068516808AB03C345
:109D600011238DF8143031680191084615F0CFFAAF
:109D7000019982B205A8FFF7DDFE044638B16748B5
:109D8000674B6C49C01AC00800042246AAE7308A13
:109D9000FFF7CCFE044638B16048614B6649C01AF3
:109DA000C008000422469DE708A8FFF7C1FE04464C
:109DB00078B901466148AE682F6803F001FB04469C
:109DC00078B15648564B5E49C01AC0080004224676
:109DD00088E75248524B5B49C01AC008000422462B
:109DE00080E701460590402208A815F043FA7968FB
:109DF00011B108A803F0EBF9B96811B10AA803F092
:109E0000E6F9F96811B10EA803F0E1F94E4910A87E
:109E100003F0DDF9012308A88DF85C3002F030F979
:109E2000044638B13D483E4B4849C01AC0080004BA
:109E3000224657E79EB14FF001333360444B45480B
:109E4000736032460421FEF72DFC044638B13348D6
:109E5000334B4149C01AC0080004224642E73F4B39
:109E6000059305A802F0A6FA044650BB3C4B3D4CB6
:109E7000039303A8049401F097FD50B3284A274B9D
:109E800039499B1ADB081B04024643F0010009F024
:109E900013FA2B798DF82430344B1B788DF825304C
:109EA00008A8334B0893FEF71DFA044600283FF438
:109EB0001DAF1A481A4B2F49C01AC0080004224689
:109EC00010E71648164B2C49C01AC0080004224659
:109ED00008E72A4B069005A9294805930794FFF740
:109EE000E0FC38B10E4A0D4B26499B1ADB081B04D7
:109EF0000246CAE7244B09931C48244B089308AA3E
:109F000004210A94FFF742FA0028C2D0044A034B06
:109F10001F499B1ADB081B040246B6E78462040053
:109F2000FC610400351D04004C1D0400771D040075
:109F30009C1D0400B71D0400D41D040058410020DE
:109F40002F1E0400F71D0400421E04004B1E0400D7
:109F5000819C020038390020741E0400199C020004
:109F60000D9C020008390020B21E04002439002094
:109F70003D9B0200181F0400981E0400019C020073
:109F8000EC450020D31E0400399B0200A59C020072
:109F9000ED1E04002DE9F04385B002230025DFF813
:109FA0005480134F8DF804300E468DF808002C466F
:109FB0004FF00C0909FB05F333F808104FF6FF7357
:109FC00099420BD04FF6FE739E4201D0B14205D0AC
:109FD00001AA38464CB9FFF79FFB04460135042D12
:109FE000E8D1204605B0BDE8F083FFF795FBF5E723
:109FF00024390020104600202DE9F041044686B0A7
:10A0000000287DD016220021684615F033F9002380
:10A010008DF800302388ADF8043023789B070DD5E8
:10A02000A3788DF807309DF8023023F0150343F034
:10A0300015038DF80230A388ADF80A3094F9062094
:10A0400002F12803DBB27D2B9CBF9DF802308DF816
:10A050000E2022899CBF43F020038DF802303AB1D4
:10A060009DF80230ADF8102043F040038DF8023027
:10A0700094F90A2002F15A03DBB2B42B9CBF9DF87D
:10A0800002308DF81220E27A9CBF43F080038DF8F5
:10A090000230642A9FBF9DF803308DF8132043F0EF
:10A0A00001038DF80330A2893AB19DF80330ADF871
:10A0B000142043F002038DF803300025114E124F97
:10A0C0002C4608234FF6FF783188414508D0B278F6
:10A0D00032B16A4638467CB9FEF7A6FC23460446F0
:10A0E0000135042D06F10406EED1002B18BF1C46E5
:10A0F000204606B0BDE8F081FEF796FC0023EFE7AE
:10A100000E24F5E7404600203839002042DF704732
:10A1100010B5421EFF2012F8013F5840082300F0FE
:10A120000104400814B180F08C00C0B2013B13F070
:10A13000FF03F4D1013989B20029ECD110BD30B54B
:10A140008478C378A3422AD945780279032D22D88E
:10A15000611C04F00704C9B2072C0378817008BFA2
:10A1600000EBD1014FEA430314BFD9B24979017022
:10A1700003F48073191E02F0010418BF01219C42F0
:10A180000DBF0135002361F3000245701CBF437011
:10A190000271084630BDD34303F00103EAE7002310
:10A1A000C3700121F5E70000014B00221A807047BF
:10A1B000D846002038B50279002363F3000283708B
:10A1C000437002718B780333DB00C3700B7803702C
:10A1D00043714A788B7803EB021383710D468A78BA
:10A1E00004460331073015F037F8AD78601DA91C1F
:10A1F000FFF78EFF2C44E07138BD000010B5094C0C
:10A2000020460BF0D7F838B12268D2F84C355F33CE
:10A21000DBB2C2F8443510BD2046BDE810400BF05B
:10A22000AFB800BF7C3900201FB51C4C63680133F8
:10A2300014D01B480BF0BEF890B119480BF0C6F8CB
:10A24000E368013310D1164800210BF0DEF8626894
:10A25000012393404FF0A042C2F80C3504B010BD6A
:10A260000F480BF08DF8EBE70E4B0F489A1C00924D
:10A270001B88019300226946CDE9022210F0DAFF23
:10A280000028EBD0094A0A4B0A499B1ADB081B0439
:10A29000024643F0010009F00FF8DFE7B046002066
:10A2A0007C390020D846002074390020FC6104006D
:10A2B0008C620400741F04002DE9F043B0F5A07F08
:10A2C00089B020D16F4B5C68611C16D0DB6801330C
:10A2D00013D16D48FFF733FF0123A3404FF0A04295
:10A2E00070B1C2F80835684AD17831B94FF0A04250
:10A2F0006648C2F808350BF09CF809B0BDE8F08359
:10A30000C2F80C35EFE7B0F5A27FF6D14FF0A043CD
:10A310005F4CD3F810555B4B67789A68032F25FA8A
:10A3200002F505F0010598462AD823785B0005B1AF
:10A330000133A27802F00701072908BF04EBD2011C
:10A34000DBB208BF0B718F2A237015D90926E37879
:10A3500003F00102AA4230D1FF2F04D00137FFB22F
:10A36000082F67702ED94B4A002D51D01378072B38
:10A3700050D801331370C0E70132A2701126E6E70E
:10A38000002DFBD0E378DA07F8D5052FF6D16179F7
:10A39000A37801F00F01CA1CB2EBD30F4FEAD30927
:10A3A000D4D10231201DA144FFF7B2FE99F8036019
:10A3B000864214BF0B260026C9E7002265F300037E
:10A3C0006270E370C6B9627923798DF80C30324936
:10A3D00013090DF10F0002F00F028DF80D308DF80A
:10A3E0000E2014F039FF03AB0293D8F800308DF83B
:10A3F000046001A89847B6E70B2EB4D10023CDE93D
:10A40000033301238DF80C3003A8D8F80030F1E7AE
:10A41000157072E7D8F80C3001331B4B0CBFDB789A
:10A420001B8813B1FFF700FF67E7D8F8042017482F
:10A43000531C1FBF012393404FF0A042C2F80835C0
:10A440000AF0ACFF11480AF0C1FF10480AF0BEFF45
:10A45000002319460D48FF220AF0BCFF01231946CC
:10A460000A485F220AF0B6FF04236370E3780B48C2
:10A47000002143F0010312222170A170E37014F057
:10A48000F9FE3AE7B0460020D84600207C3900208B
:10A49000C1460020C0460020C7460020C546002017
:10A4A0007FB50546002800F0CE800368002B00F041
:10A4B000CA808668741C03D14368013340F0C580AC
:10A4C00095E80F00634C013684E80F0002D101319A
:10A4D00000F0BD80FFF71AFE5F4A604960480AF04D
:10A4E000DFFE044668B15F485F4B6049C01AC00890
:10A4F0000004224640F0010008F0DEFE204604B0D1
:10A5000070BD57480AF062FF55482346FF22214696
:10A510000AF060FF0123524819465F220AF05AFFF1
:10A52000EB68581C22D0FF224FF6FF7101948DF882
:10A530000120ADF802108DF8062007214FF00072BF
:10A540008DF8051002928DF80030494A494803946D
:10A550002346694610F09EFD044638B14148424BFF
:10A560004549C01AC00800042246C3E70AF090FC1F
:10A5700058B90AF04FFC044638B13A483A4B3F49C3
:10A58000C01AC00800042246B4E70323ADF8003027
:10A590009DF802303A4A23F0070343F004038DF894
:10A5A0000230D5E90130984208BF9DF80230694673
:10A5B00004BF43F001038DF802300AF073FC044637
:10A5C00038B12848284B2F49C01AC0080004224639
:10A5D00090E7D5E9013199424FF0A0421DD101F534
:10A5E000E07140F2017342F82130A96801238B40E9
:10A5F000C2F80835EA68531C0AD01E4B69681B680C
:10A60000C3F808254FF0FF32C3F80C15C3F8102526
:10A61000A86801210AF0B8FC70E7591C0AD003F5BC
:10A62000E07340F2037142F82310696801238B4004
:10A63000C2F80835AB684FF0A04203F5E073002183
:10A6400042F82310D6E70E2458E7072456E70024E3
:10A6500054E700BFB0460020B9A202000C2004005D
:10A660007C3900208C620400FC6104008F1F040010
:10A67000A9A1020074390020AC1F0400C71F040008
:10A68000FDA10200E51F040030B52D4B1A6887B00C
:10A690000146002A4CD05A68013205D19B6801332B
:10A6A00048D1002007B030BD002845D0DB68254CDC
:10A6B000013310D1E378002B40D12046FFF77AFD1B
:10A6C00021480AF077FE0028EBD11F480AF058FE17
:10A6D000FFF7AAFDE5E7258885BB6846FFF76AFD19
:10A6E0002388E21895709A1C013314FA83F32280B0
:10A6F0009D70FF259DF80330002BE1D02388B3F532
:10A70000AE7FDDD26846FFF71AFD2388E21838B124
:10A7100095709A1C013314FA83F322809D70E9E747
:10A7200090709A1C013314FA83F322809870E1E749
:10A730000820B7E70620B5E70E20B3E70420B1E70D
:10A74000B0460020D84600207C39002037B5414B68
:10A75000196849B104783CB943685A78042A47D04B
:10A7600004D892B1012A39D003B030BD0F2AFBD1F1
:10A770001B78642BF8D1384B1B78002BF4D00223C4
:10A780008DF805408DF804302FE01A786A2A01D040
:10A790006C2A15D19978052912D11A795B792F4C39
:10A7A00012090132520053435B0340F6C412B3FB5B
:10A7B000F2F323800023A37009F0B6FA6060D3E7B8
:10A7C00002F0FD02242ACFD19A78072ACCD15B7AF5
:10A7D000234C5A0264235343FF22E8E71B78642B7F
:10A7E000C2D18DF805408DF8042001A88847BBE749
:10A7F0001A7812F0FD04B7D198780328B4D119481B
:10A8000005781DB1022A01D10470ADE700228DF850
:10A810000420DA78022A06D11B7913F00F030BD13A
:10A820008DF80530E1E7332A0AD11B7913F00F0FB9
:10A8300014BFFF230123F3E7022B18BFFF23EFE729
:10A84000302A04D11B7903F00F03032BF5E7FF2314
:10A85000E6E700BF40480020454800204848002067
:10A8600038480020444800207FB5094B1B786BB165
:10A870000F238DF804008DF8053001A800238DF812
:10A880000630FFF701FF07B05DF804FB0620FAE78A
:10A89000454800201FB5044600B30368F3B1D0E972
:10A8A0000123511C05D101330CBF0020072004B047
:10A8B00010BDCDE90132C36803936846084B00938D
:10A8C000FFF7EEFD0028F2D1064B22681A60A3685C
:10A8D000054A013318BF01231370E8E70E20E6E7AD
:10A8E0004DA7020040480020454800207FB51D4B81
:10A8F0001B6893B31C4B1B788BB340F20243ADF83B
:10A90000043003238DF80630032822D8DFE800F056
:10A910000213151B02238DF807304FF4007301A8B2
:10A92000ADF80830FFF7B0FE10B9104B01221A70D5
:10A9300007B05DF804FB3323EDE702238DF8073001
:10A9400040F20223EBE730238DF8073040F2032377
:10A95000E5E700238DF80730E1E70820E8E7062067
:10A96000E6E700BF4048002045480020444800205A
:10A9700038B50546D8B109F0D7F9104C23882B809B
:10A980002546B0B1616809F0CAF9B0F5F02F01D2DF
:10A99000636883B9AB7823B96C20FFF765FF0123A7
:10A9A000AB706B68002B0CBF05200D2038BD0E204E
:10A9B000FCE70820FAE70020F8E700BF484800203D
:10A9C00038B50546D8B109F0AFF9104C23882B8073
:10A9D0002546B0B1616809F0A2F9B0F5F02F01D2B7
:10A9E000636883B9AB7823B92620FFF73DFF0123C5
:10A9F000AB706B68002B0CBF05200D2038BD0E20FE
:10AA0000FCE70820FAE70020F8E700BF38480020FC
:10AA1000F8B5134B134E144C602283F820204FF0EE
:10AA20008043A922C3F820254FF48041002008F07C
:10AA3000A7FA054608F0E4F9A41B24090027BC4244
:10AA400004D14DB9BDE8F84000F0D2B8736803B145
:10AA5000984701371036F2E700F0CAF82846F8BDEB
:10AA600000ED00E0BC630400FC63040073B5104813
:10AA700003784BB90F4B019301A901F01FFA18B1EC
:10AA80000D4A7B2109F0A6FB0C4D0D4C641B2409DB
:10AA90000026B44205D100F00FF908F0C3FA02B065
:10AAA00070BDEB6803B1984701361035F1E700BF80
:10AAB00084390020D5AA020014200400BC630400DD
:10AAC000FC63040013460A460146014801F070BACF
:10AAD000843900202DE9F04F03788BB00446002B19
:10AAE0003CD1334F334BD0F81080B0F81490DB1BBF
:10AAF0004FEA131A23F00F0303EB070B3D465D45A6
:10AB000014D12D49DFF8B48004A814F0F8FB04A890
:10AB100014F0FDFB0026ADF80E00B24523D12289CA
:10AB20000DF10E0104A8FFF7CDFF17E0286814F01F
:10AB3000EEFB03B29945064613DB1A4629680193DA
:10AB4000404614F0ECFB019B58B9AD6835B1A9EB58
:10AB50000601228989B208EB0300A8470BB0BDE8C3
:10AB6000F08F1035CBE73868BDF80E5014F0CFFBEE
:10AB700002350544152D0BD922890DF10E0104A8CB
:10AB8000FFF7A0FF0028E9D1ADF80E008DF8100006
:10AB900057F8101B04A814F0A3FB414604A814F0B6
:10ABA0009FFB04A814F0B3FB0136ADF80E00B4E728
:10ABB000BC630400FC63040022200400AB470400D3
:10ABC000EFF30880014B184770470000D1AB02003B
:10ABD00010B5064C01462022204614F03DFB002211
:10ABE0002021204606F000FE208410BD08F0002041
:10ABF00038B54FF08042D2F80034C2F800349B07D9
:10AC000015D5234C00222021204606F0EDFD214BD6
:10AC1000024621481B1ADB081B0443F00100238C69
:10AC200093421CD1A369E2681C4908F04EFB242220
:10AC30000021174814F01EFB19491A480AF0C4FAFB
:10AC4000044680B11348144B1749C01AC0080004C9
:10AC5000224640F0010008F02FFB204638BD134982
:10AC600008F026FBE3E7124D28460AF0E7FA04460F
:10AC700038B10848084B0F49C01AC00800042246E2
:10AC8000E7E70AF0CDFA28780AF0FEFAE5E700BF18
:10AC900008F0002094620400FC61040039200400E4
:10ACA000C1AB0200AC2004006E2004005E20040052
:10ACB0006048002085200400014B18780AF0E4BAAF
:10ACC0006048002000487047D62004002DE9F74F67
:10ACD0000024DFF87CA006468946A046254641F6BA
:10ACE000120BA94508D8B8F1000F08BF002404F0E2
:10ACF000010003B0BDE8F08F7319775D5A78911E9B
:10AD0000012913D878080021884202D801373D4430
:10AD1000E7E793F803C013F8022F42EA0C2212B2BD
:10AD20005A4508BF4FF001080131EDE7083A012A02
:10AD3000ECD8A91C31445046019114F0E8FA01996D
:10AD40000246504614F0EBFA002808BF0124DDE764
:10AD5000B82004000A460221FEF7A2BE08B50B780F
:10AD6000042B0BD18B7A022B08D14B681B78CD2B8F
:10AD700012D004D8B52B24D0B62B2BD008BDE92B8C
:10AD800016D0EA2BFAD100210820FCF7D7FE0028C4
:10AD9000F4D0154A7F2107E000210120FCF7CEFE08
:10ADA0000028EBD0104A7721BDE8084009F012BA1C
:10ADB00000210720FCF7C2FE0028DFD00A4A7B21D1
:10ADC000F2E700210520FCF7B9FE0028D6D0064A9C
:10ADD0008321E9E700210620FCF7B0FE0028CDD052
:10ADE000014A8721E0E700BFC42004000048704703
:10ADF000422104002DE9F74F0024DFF888A0DFF896
:10AE000088B006468946A046254641F61203A94564
:10AE100008D8B8F1000F08BF002404F0010003B007
:10AE2000BDE8F08F7219775D5178881E012814D81B
:10AE30004FEA570C0020844502D801373D44E6E72D
:10AE400092F803E012F8021F41EA0E2109B299427A
:10AE500008BF4FF001080130EDE708390129ECD8AF
:10AE6000A91C31445046019114F051FA019902464F
:10AE7000584614F054FA002808BF012441F6120382
:10AE8000DBE700BFEC200400F320040008B5194BF9
:10AE90001B7883421AD1012902D0022913D008BDA0
:10AEA00000210520FCF74AFE0028F8D0124A134B77
:10AEB00013499B1ADB081B04024643F00100BDE85E
:10AEC000084008F0F9B900210720EBE70D4B1B788B
:10AED0008342E4D103290BD005D801390129DED8FA
:10AEE00000210120DEE70429D9D100210220D9E781
:10AEF000322AF9E7A8390020FC610400446204000A
:10AF0000FD200400A939002070B50B78042B36D140
:10AF10008B7A022B33D11A4B187804282FD0194C76
:10AF20002378042B2BD04B681D78174B1E781D708F
:10AF30006E4072060FD5C5F38011FCF7A1FC50B12D
:10AF4000124A134B13499B1ADB081B04024643F0B9
:10AF5000010008F0B1F9330611D52078E909FCF7B2
:10AF60008FFC60B1094A0A4B0A499B1ADB081B0493
:10AF70000246BDE8704043F0010008F09DB970BD85
:10AF8000A8390020A939002061480020FC61040094
:10AF9000446204001A210400F0B5154C154E0A460F
:10AFA0002178042987B0054602D03378042B18D1C4
:10AFB0000023ADF81630104B039340F6B8370F4B13
:10AFC000019203A80493ADF81470FCF733FC0C4B0A
:10AFD000207003A80493ADF81470FCF72BFC019AC1
:10AFE000307002212846FEF75BFD07B0F0BD00BFC0
:10AFF000A8390020A93900208DAE02003200C80017
:10B000001900320070477047024A13680133136019
:10B01000FFF752BE0C5E00204A4C494E4B4D4F4E3E
:10B0200048414E444C45520000B5FFF7ECFF5DF837
:10B0300004EB134B02E058680003FCD4586840F45A
:10B040000020586000B5FFF7DFFF5DF804EB0C4B04
:10B050005868000DF6D21868010A0006000E002894
:10B0600012D0022818D002D3032814D0E6E758687B
:10B0700020F40020586000B5FFF7C4FF00BD00BFFA
:10B08000F8ED00E088ED00E064201860586840F4B6
:10B0900000205860CFE77DE05FEADE022CBFEFF3CF
:10B0A0000982EFF30882042902D252F821006BE0F2
:10B0B000052901D2204667E0062901D2284663E02F
:10B0C000072901D230465FE0082901D238465BE00B
:10B0D000092901D2404657E00A2901D2484653E0E7
:10B0E0000B2901D250464FE00C2901D258464BE0C3
:10B0F0000E2901D2106947E00F2901D2506943E0BF
:10B10000102901D290693FE0112901D2D0693BE0BA
:10B1100012290ED2EFF308805FEADE0131D25FEA36
:10B120005E112CBF20304830D169490928BF043056
:10B130002AE0132905D2EFF309805FEADE0120D36C
:10B14000EDE714291CD20020EFF310821043EFF337
:10B15000118212021043EFF3138212041043EFF333
:10B1600014825FEADE0128BF42F002025FEA5E114C
:10B170002CBF22F0040242F004021206104303E046
:10B1800000E001E00020FFE71860586840F400206C
:10B19000586050E7586840F4002058605868000331
:10B1A000FCD418685FEADE022CBFEFF30982EFF3EC
:10B1B0000882042902D242F8210061E0052901D267
:10B1C00004465DE0062901D2054659E0072901D26F
:10B1D000064655E0082901D2074651E0092901D267
:10B1E00080464DE00A2901D2814649E00B2901D26F
:10B1F000824645E00C2901D2834641E00E2901D266
:10B2000010613DE00F2901D2506139E0102901D2CF
:10B21000906135E0112901D2D06131E0122900D2CC
:10B220002EE0132900D22BE0142927D20106090EA3
:10B2300081F310880104090E81F311880102090EBF
:10B2400081F31388010E88082CBF4EF0040E2EF0F7
:10B25000040E21F00201C8082CBF2EF0100E4EF093
:10B26000100EEFF31480C0082CBF41F0040121F050
:10B27000040181F31488BFF36F8F01E0FFE7FFE75C
:10B28000DCE600BF72DF704773DF704738B501221C
:10B2900004460D46B0F81414D0F8100401F016FC62
:10B2A00000B1057004F13C0204F5826104F1540020
:10B2B000BDE83840FFF7E6BF80F830107047F8B5BA
:10B2C00004460F46002975D0002873D091F87A30D3
:10B2D0001BB191F89830002B6ED1D7F8A030042B19
:10B2E0006AD0D7F89C30042B66D04FF0000C84F85D
:10B2F00002C007F178060FCE251D0FC50FCE0FC572
:10B3000096E8070085E8070084F830C0D7F8A43035
:10B310006363D7F8A830A3634FF6FF7504F5826323
:10B32000C4F82034A4F824540722614604F22640CD
:10B3300013F0A0FF23780BB984F8545094F824300C
:10B34000002B14BFEE231F2304F15501C4F8101481
:10B35000A4F8143404F21442384601F0C9F940BB91
:10B3600094F82430002B14BFEE231F2304F2312164
:10B37000C4F81814A4F81C3404F21C4207F13C0071
:10B3800001F0B6F9A8B9A369A4F848304FF4807366
:10B390000125A4F8503063692064014684F83C50CC
:10B3A000636404F13C0204F15400FFF76BFF00B941
:10B3B0002570F8BD0E20FCE70720FAE7F8B50778FE
:10B3C00004460D46002F00F0038100F226468170EE
:10B3D00007220021304613F04DFFE38813B1A37814
:10B3E000012B04D0E3794BB1A378022B06D1636B18
:10B3F000A3B1012284F82D2408209847334604F293
:10B400002C4113F8012F12B99942FAD117466B1E3D
:10B41000032B51D8DFE803F0050B0F1284F82D340D
:10B42000ECE7A3791BB194F8243003B95FB9E37951
:10B430000BB1002F42D1237A002B41D1637A002B2C
:10B440000CBF00250425636BA570002B3AD0033D8B
:10B45000012D37D86279AAB394F82E2492BB84F8D0
:10B460003024012284F82F240720984704F13C055A
:10B4700018220021284613F0FDFEE26A531E012126
:10B48000022B28BF0A4684F8512094F8242084F81F
:10B490003C1032B1A36A581E022828BF0B4684F81C
:10B4A0005230A178002384F8503004291BD8DFE8FB
:10B4B00001F0770D223559000025C4E70225C2E7C7
:10B4C0000325C0E7002384F82F34CFE7C4E91063D5
:10B4D000C4F820340223012284F83C30802384F80D
:10B4E0003120A4F84830A378002B5CD1636B002B8B
:10B4F0006AD1002067E00223002A84F8313014BFAB
:10B500000723032384F83C302369A4F84830002340
:10B51000C4F82034E36826646364E4E76369636421
:10B52000A369A4F8483012B1062384F83C3063794B
:10B53000B3B194F82E349BB994F8303483B102231C
:10B5400084F8503004212046FFF7A0FE0028CAD11D
:10B55000052384F8313004F58263C4F82034C2E74F
:10B560000323F6E7E3696364236AA4F8483012B161
:10B57000062384F83C30637983B194F82E346BB998
:10B5800094F8303453B1022384F85030042120461B
:10B59000FFF77CFE0028A6D10623DAE70423D8E7CC
:10B5A00084F831309FE7D4F820142A4604F154007F
:10B5B000FFF768FE38B994F8301094F85400FFF79C
:10B5C00063FE002892D0F8BD94F83100984790E7C8
:10B5D0000820F8E710B50388112B0C460AD0262B5B
:10B5E0001FD0102B05D1C37B012B02D18388A1F87A
:10B5F000243410BD002381F82E348288B1F824341D
:10B600009A42F6D10B79002BF3D101212046FFF7A6
:10B61000D5FE0028EDD0A36B002BEAD0BDE810408A
:10B620001847037A013B012BE3D8897805230131C0
:10B63000B1FBF3F303EB8303C91AC9B2E6E790F851
:10B640002F345BB1009900230A4314BF01221A462C
:10B6500080F82F3480F8302418467047082070474F
:10B6600030B50D46041D0FCD0FC40FCD0FC495E8A6
:10B67000070084E8070030BD30B50B4B19680B4B51
:10B680000022914201D1002009E09D788478A542F2
:10B6900006D11D880488A54202D1054B186830BD2B
:10B6A00001320433EDE700BF6C48002070480020F1
:10B6B000644800202DE9F84F90F8C6A24FF0760BB1
:10B6C00004460AFB0B0088469146FFF7D5FF074664
:10B6D00070B3D4F8CC52052D2AD804EBC5165A46BF
:10B6E000A6F8D2920BFB0A4106F5357013F0B4FDB3
:10B6F000B8F1000F14BF0023022386F8D0320D4B9F
:10B70000C6F84C731A6801359542C4F8CC521D46F0
:10B710000ED104F534760027F36F304698472B6836
:10B7200001379F4206F18006F6D30023C4F8CC32DD
:10B73000BDE8F88F6C48002030B5A1B004460D4636
:10B740007C22002101A813F095FD03238DF804301D
:10B75000044BADF806501B6802940BB101A8984742
:10B7600021B030BD644800202DE9F041074691F832
:10B77000C60276234FF00008A0B081F8C88200FB13
:10B7800003100C461546FFF777FF064660B17C2292
:10B79000414601A813F06EFD01238DF80430ADF889
:10B7A0000650029701A8B04729462046FFF7C4FF7C
:10B7B00020B0BDE8F081000030B58BB004462022F7
:10B7C0000D4602A8002113F055FD04220DEB0200E6
:10B7D000002113F04FFD94F8C53294F8C62213B33C
:10B7E000013B7621DBB25143122000FB03132344BB
:10B7F0005B8A01339BB2ADF80430762303FB02422F
:10B8000002A91389ADF8063003238DF80830019B97
:10B81000CDE90543064B0493064B2A46186801F010
:10B82000EFFF0BB030BD762303FB0243DB88E2E77A
:10B8300069B7020088480020F0B5044689B020228C
:10B840000D466846002113F015FD94F8C7321E4AD4
:10B8500001331268DBB2934284F8C7324FF0000222
:10B860002BD294F8C632194F84F8C5220133DBB2CB
:10B87000762113FB01F057F8237084F8C63226189E
:10B88000275001FB034332711B68CDF81230104B77
:10B89000029302220F4B8DF800200122ADF81020F8
:10B8A000186803942A46694601F0AAFF18B12A468F
:10B8B0002146FFF759FF09B0F0BD84F8C822294698
:10B8C0002046FFF739FFF6E76C480020704800205B
:10B8D00069B70200884800202DE9F047044688B087
:10B8E0000D46164600212022684613F0C3FC94F84A
:10B8F000C62294F8C512762312FB03F2A018122771
:10B9000090F804C017FB012301F1010E0A33E6454C
:10B91000234411D004F11C0900F1220E0CF1FF3870
:10B920009144CAB294450BD988451B890ED102892E
:10B930009A421BD1002312E01B890289934215D140
:10B9400001232B70002008B0BDE8F08707FB01FA47
:10B9500001333EF80A2093421DD109EB0A0394F803
:10B96000C522013284F8C5220131DAE701339BB2E6
:10B97000ADF810300A4B029300210A4B29700421C4
:10B980008DF80010ADF8122018680394324669460D
:10B9900001F036FFD7E7013A9BB292B2E8E700BF69
:10B9A00069B702008848002010B570B1026862B122
:10B9B000436853B1064900200860064901240C7011
:10B9C00005490A60054A136010BD0E20FCE700BF60
:10B9D0006C48002068480020644800208848002007
:10B9E00010B5044680B10C4B1B787BB1FFF744FEC9
:10B9F00070B90A4A1368052B0CD80949246841F824
:10BA000023400133136010BD0E20FCE70820FAE745
:10BA10000020F8E70420F6E7684800206C48002082
:10BA200070480020F0B50D468BB0044600283BD08E
:10BA3000204B1B78002B39D01F4B1B68002B35D0B7
:10BA400090F8C812002933D14FF4BA621B4F01910C
:10BA500013F010FC0199202202A813F00BFC3868A7
:10BA6000294601F06DFFE8B9154BC4F8CC0284F803
:10BA7000C502A4F8C6021868206002238DF80830B9
:10BA80000126104BCDF81A00A4F8CA523868ADF858
:10BA900018602A4602A90594049301F0B1FE08B982
:10BAA00084F8C8620BB0F0BD0E20FBE70820F9E770
:10BAB0001120F7E7684800206C48002088480020E3
:10BAC0007048002069B702002DE9FF410C46054689
:10BAD00060B159B18C4B1B7843B10388322B70D0C5
