:020000022000DC
:1060000000F00020C1B20300E9B20300EBB20300CC
:10601000EDB20300EFB20300F1B203000000000094
:10602000000000000000000000000000F3B20300C8
:1060300015C2020000000000F7B20300F9B203002D
:10604000FBB20300FBB20300FBB2030039C603003E
:10605000FBB20300FBB203009161030079C00300AF
:10606000FBB20300FBB2030081650300FBB2030037
:10607000E5B40300FBB20300FBB20300FBB2030074
:10608000E162030035540300FBB20300FBB20300DE
:10609000FBB20300FBB2030099590300FBB20300FB
:1060A000FBB20300FBB20300FBB20300FBB2030030
:1060B00009BA0300FBB2030000000000000000006A
:1060C000FBB2030019BA0300FBB2030081CA03004C
:1060D00065B60300FBB20300FBB203000000000042
:1060E00000000000000000000000000000000000B0
:1060F00000000000000000000000000000000000A0
:10610000000000000000000000000000000000008F
:10611000000000000000000000000000000000007F
:10612000000000000000000000000000000000006F
:10613000000000000000000000000000000000005F
:10614000000000000000000000000000000000004F
:10615000000000000000000000000000000000003F
:10616000000000000000000000000000000000002F
:10617000000000000000000000000000000000001F
:10618000000000000000000000000000000000000F
:1061900000000000000000000000000000000000FF
:1061A00000000000000000000000000000000000EF
:1061B00000000000000000000000000000000000DF
:1061C00000000000000000000000000000000000CF
:1061D00000000000000000000000000000000000BF
:1061E00000000000000000000000000000000000AF
:1061F000000000000000000000000000000000009F
:1062000010B5054C237833B9044B13B10448AFF3F0
:1062100000800123237010BD503C002000000000CE
:10622000646A040008B5034B1BB103490348AFF38C
:10623000008008BD00000000543C0020646A040097
:10624000A3F5803A704700BF174B002B08BF134BD4
:106250009D46FFF7F5FF00218B460F461348144A71
:10626000121A1AF07FFB0E4B002B00D098470D4BF3
:10627000002B00D098470020002104000D000D489D
:10628000002802D00C48AFF300801AF02BFB20004E
:10629000290000F02FFC1AF011FB00BF00000800DD
:1062A000000000000000000000F00020503C002032
:1062B000246000200000000000000000064B0022C7
:1062C00033F83210814202D103EBC2007047013231
:1062D000042AF5D1002070479C3C002038B50D46BB
:1062E000FFF7ECFF044678B143680BB128469847A6
:1062F000A17849B10139C9B2A17029B92046082253
:10630000BDE838401AF02EBB38BD000038B5037820
:10631000044673B9456855B11448154B1549C01A60
:10632000C00800042A4640F001000EF03DF9124B6F
:106330001D60A5892846FFF7C1FF38B12378042BDB
:1063400005D8022B0CD8013B012B09D938BD052BF0
:10635000FCD1BDE838400948302200211AF002BBC8
:1063600061682846BDE83840FFF7B8BF446C0400B8
:106370000C6B0400DC1F0400A83200206C3C0020E1
:1063800038B51148114C0DF0D5F8054660B1104BE9
:10639000104811491B1ADB081B042A4643F0010070
:1063A0000EF002F9256038BD0DF0DAF8054638B177
:1063B000074B084809491B1ADB081B042A46EDE76E
:1063C0002368082BEFD1FEE70D630200A8320020FE
:1063D000446C04000C6B0400F71F04000D20040043
:1063E0002DE9F0411B4C16462268082A88B0074662
:1063F00088461D4601D1FFF7C3FF206810BB7C1EF5
:106400004BF6FE72A4B294421FD808F1FF339BB240
:1064100093421AD8DEB1D5B1CDE9010001AB05AA8E
:10642000414638460DF058FA60B903A905A80DF0A9
:10643000AFF938B9049B3360039B5B882B8005A8B8
:106440000DF0CCF908B0BDE8F0810720FAE70E2086
:10645000F8E700BFA83200202DE9F041404E9846F1
:106460003368082B88B004460F46154601D1FFF764
:1064700087FF3668002E65D1601E4BF6FE7280B233
:10648000904261D87B1E9BB293425DD8002D5DD0B7
:106490002046CDE90358ADF80840ADF80A70FFF783
:1064A0000DFF054620B9FFF709FF054600284FD02C
:1064B000AB782C800133AB700E9B6B600023CDE971
:1064C0000033BDF80A10BDF808006B4605AA0DF0B0
:1064D00003FA044640BB02A905A80DF0A7F948F24B
:1064E00006639842044610D10DF0D0F9BDF808209B
:1064F0001C4B04460C2101FB06F0C75A97421CD1E5
:106500000C2202A918441AF01FFA4CB1A97839B12B
:106510000139C9B2A97019B9082228461AF022FA1D
:10652000204608B0BDE8F08148F20963984211D1D5
:1065300002A905A80DF076F9D1E70136042EDAD1CB
:106540001124E3E73446EBE70724E9E70E24E7E705
:106550001124E5E748F206639842D7D1C4E700BFAB
:10656000A83200206C3C0020F8B5194C2268082A9B
:1065700006460F4601D1FFF703FF256815BB731EC2
:106580009BB24BF6FE7293421ED83046FFF796FE42
:10659000044618B9FFF792FE0446B8B1A3782680E6
:1065A0000133A370676030460DF048F9054648B1E5
:1065B000A17839B10139C9B2A17019B908222046B0
:1065C0001AF0D0F92846F8BD0725FBE71125F9E7B1
:1065D000A832002001207047054B064902460648B4
:1065E0001B1ADB081B0443F001000DF0DDBF00BFE8
:1065F000646B0400242004000C6B0400FF2808B521
:1066000001D100F06BFF10F0E3FC60B1064A074BCC
:1066100007499B1ADB081B04024643F00100BDE852
:1066200008400DF0C1BF08BD0C6B0400646B040092
:106630003520040037B50378042B044634D1D0E963
:1066400003052D1AADB2294600F062FF024608B1DB
:1066500000205BE0A18A2069491B89B211F02AF869
:106660000928F5D00728F3D050B1294A294B2A49E7
:106670009B1ADB081B04024643F001000DF094FF57
:10668000E0680022294600F053FF08B901203DE0F0
:106690001F4A204B21499B1ADB081B04024643F08A
:1066A00001000DF081FFF1E7052BEFD1037B023BE9
:1066B000062BCDD801A252F823F000BFD966020004
:1066C000F166020051660200F766020051660200A0
:1066D0005166020001670200037C8DF80630836872
:1066E0001B88ADF8043001A9042001F039FBCDE787
:1066F00000210920F9E70023019301A90B20F4E709
:10670000103010F075FCB0FA80F0400903B030BDD5
:106710000C6B0400646B0400512004007120040021
:10672000032807D14FF08043A922C3F82025002079
:106730000EF0BAB97047000008B5144A136823B3C5
:10674000013B13600BBB124B0120187002F012F9D1
:1067500050B1104A104B11499B1ADB081B0402462A
:1067600043F001000DF020FF012010F021FC60B18A
:10677000084A094B0A499B1ADB081B04024643F0EE
:106780000100BDE808400DF00FBF08BDBC3C002073
:10679000C43C00200C6B0400646B04008E200400D9
:1067A000A92004001FB5204B1A7872B35A6802B9A9
:1067B00058601A78013AD2B21A7032BB597801295E
:1067C0002BD002291CD1CDE9012203921A7A013281
:1067D0008DF804205A68DAB901228DF8052059890C
:1067E000D86801AA03F098FA50B1104A104B114929
:1067F0009B1ADB081B04024643F001000DF0D4FE97
:106800000948102200211AF0ADF805B05DF804FB2C
:10681000072A0CBF03220422DFE79A68002AEFD080
:1068200058689047ECE700BFC83C00200C6B0400A0
:10683000646B0400C720040008B5017881B9406882
:1068400010F074FF60B1074A074B08499B1ADB0838
:106850001B04024643F00100BDE808400DF0A4BE51
:1068600008BD00BF0C6B0400646B0400EF20040043
:1068700007B5037853B94FF6FF73ADF8043001A99B
:1068800043788DF80630042001F06AFA03B05DF811
:1068900004FB00002DE9F0478AB00023CDE9033363
:1068A00005930B785A1C8DF80C20012205460C46E6
:1068B0008DF80D200F2B50D8DFE813F010001D00CD
:1068C0002E004C006400CB00E4004F004F004F004E
:1068D0004F004F00E800ED000101040108238DF88E
:1068E0001030618803AA284603F016FA002846D023
:1068F0000EF0AAFD43E04B88ADF818308B680420F9
:106900001B788DF81A3006A901F02AFA0028E8D081
:1069100004238DF80D30E4E706AE0822002130464E
:106920001AF020F802A800F0E9FD029A002302F113
:106930000E00F15C0131F15411784F0748BF01336B
:10694000824203D0082B02F10202F2D18DF81030FE
:106950000596C6E7654B1A780AB10223D9E70122EA
:106960001A7002225A700A781A72D8604A885A81BC
:106970005F49A06800F026FE08B1FFF713FF0AB0D8
:10698000BDE8F0878B6806AF1022002138461E78DC
:1069900019F0E8FF0DF1020101A810F06FFEBDF83B
:1069A0000230082B28BF082302A8ADF8023000F0FF
:1069B000A5FD0022DDF808C0BDF8028001983B4625
:1069C0009646072E01D8082A03D18DF81420049783
:1069D00087E71CF8161093F800A0C943490001F09E
:1069E00002012AF0320A41EA0A0142450FFA86F909
:1069F000197027D21CF819100136C907F6B221D434
:106A0000815CC1F3040101EB81015970815C11F0DB
:106A10001F0102BF93F8009061F3410983F80090D1
:106A2000815C01F0E001A1F12009D9F1000141EB05
:106A3000090193F8009061F3820983F80090013214
:106A40000233BEE7197883F801E06EF34101197053
:106A5000F5E7264B1A78002A7FF47FAF02221A70DE
:106A60005A700A781A72D8604A885A812049A068F8
:106A700000F010FE08B1FFF795FE1D49A06810F068
:106A8000A5FD79E702238DF811302AE700F048FED2
:106A90008DF8100025E7154B1A78002A7FF45DAFBA
:106AA00001221A7002225A700A781A72D8604A8833
:106AB0005A818B680E49187800F034FE5CE700F0CC
:106AC00067FEE5E7094B1A78002A7FF446AF0122FA
:106AD0001A7002225A700A781A72D8604A885A814B
:106AE0008B680349187800F055FE45E7C83C002044
:106AF000A56702002DE9F04F9DB000AF05F04EF9FB
:106B000008B10EF0A1FC0EF0DDF9044650B1BE480C
:106B1000BE4BBF49C01AC0080004224640F0010025
:106B20000DF042FD0DF084FF054650B1B748B64B5D
:106B3000B8491B1ADB081B042A4643F001000DF07C
:106B400033FDB54AB54801210EF0EEF9002C08BF1F
:106B50002C46054650B1AD48AB4BB1491B1ADB087A
:106B60001B042A4643F001000DF01EFDAD4EAE4859
:106B700002233370AD4B12221A604FF420310022F1
:106B80000EF0E4F9002C08BF2C467E600546002874
:106B900000F066819D489C4BA5491B1ADB081B042D
:106BA0002A4643F001000DF0FFFC002C08BF2C46E4
:106BB00020460EF049FC9F4807F10F0100F040FB12
:106BC00008B10EF041FC07F110000FF0C1FF0446C0
:106BD00050B18D488D4B9849C01AC0080004224618
:106BE00040F001000DF0E0FC944B7B6107F11400D4
:106BF00001F03EF808B10EF027FC07F11809142245
:106C0000002148463D6919F0ADFE8D4B3B628D4B2E
:106C10007B624FF0000B022387F82B3087F828B0F7
:106C20002E68327DDBB262F3820387F82B3097F84F
:106C3000293007F1480823F01F0343F01F032822DF
:106C40005946404687F8293019F08CFE728887F83B
:106C5000492002EB42030733EA46DB08AAEBC303F1
:106C60009D460820EC4687F8480059464FF0030E31
:106C70007288CBB202EB4202B2FBFEF29A4201F101
:106C8000010156D897F85030C7F84CC023F00F03D5
:106C900043F00F0387F85030AA6807CA07F154037E
:106CA00083E80700684B7B661C22002107F12C005B
:106CB00019F058FE022387F82C303388FB856B6867
:106CC0003B63624BC7F83C80C7E90D39D5E9030146
:106CD00007F1400383E8030007F12C0004F0E2F819
:106CE000D54608B10EF0B0FB3B691B689A68FA64A0
:106CF000DA683A651B697B654046554BBB6404F016
:106D00008FFF054668B141483F4B52491B1ADB08CB
:106D10001B0443F001002A460DF046FC28460EF005
:106D200093FB9CB10121002000F0CCFF05F0D8F8C6
:106D3000FCE703EB43020CEB020B0CF802008BF8B0
:106D400001E07268D35C8BF8023091E7022010F00A
:106D50002FF908B10EF078FBFB7BFF2B02D100F07E
:106D6000BDFBF873F87B10F033F908B10EF06CFB43
:106D7000022001F0FFFD08B10EF066FB364D10F069
:106D800071F9044600F09CFF0EF034F929680646BC
:106D90000EF02BF9B0F5A47F10D37B682E601B7822
:106DA000012B12D80021084600F08CFF00210120A1
:106DB00000F088FF0021022000F084FF05F00CF8AD
:106DC0000028DCD10DF04AFED9E7002C14BF0321C6
:106DD0000021002000F076FF01F072FE011E18BFB6
:106DE0000321012000F06EFF01F064FE044601F073
:106DF0006CFE032C05D088BB022C18BF0024214652
:106E0000D9E70124FBE700BF646B04000C6B0400AE
:106E10000C21040020210400396702001022040024
:106E20003F210400C43C0020B0320020BC3C0020C4
:106E30005A210400FD65020077210400D96E02008A
:106E400095680200D96502003566020039680200C3
:106E5000716802008B210400C03C00200324CEE7AF
:106E6000002C3FF4A8AEA3E610B5154B1A78012A02
:106E700024D80220187001F07DFD50B1114A124B48
:106E800012499B1ADB081B04024643F001000DF077
:106E90008BFB022010F08CF8044650B109480A4BD5
:106EA0000B491B1ADB081B04224643F001000DF0BE
:106EB0007BFB084B12221A60204610BD0024F8E725
:106EC000C43C00200C6B0400646B04008E200400A2
:106ED000A9200400BC3C002070B50646FFF7C4FFA3
:106EE00033780A2B70D00B2B14D0092B40F09680EE
:106EF000032001F03FFD054650B15048504B514929
:106F0000C01AC00800042A4640F001000DF04CFBF6
:106F1000284670BD4C4C2378002B40F0848003231E
:106F200023700123637049487368A36000F024FB59
:106F300088B12378013BDBB22370636803B16060E2
:106F40003F4A3E4B42499B1ADB081B04024643F072
:106F500001000DF029FB3D4810F008FC88B12378B2
:106F6000013BDBB22370636803B16060344A334B8A
:106F700038499B1ADB081B04024643F001000DF060
:106F800013FB324801F0C8FD054688B12378013B68
:106F9000DBB22370636803B160602848284B2E4938
:106FA000C01AC00800042A4640F001000DF0FCFAA7
:106FB000A368002BACD1244A12F8011B002934D15C
:106FC0000133102BF8D1A3E71F4C23785BBB0123BF
:106FD000237063701D487368A36001F09DFD054632
:106FE00088B12378013BDBB22370636803B1606032
:106FF0001248134B1849C01AC00800042A4640F032
:1070000001000DF0D1FAA368002B81D10E4A12F8CD
:10701000011B51B90133102BF9D179E73046BDE896
:10702000704000F067B9082572E760687368984798
:1070300010220021044819F095FC69E7646B0400F4
:107040000C6B04009D210400C83C0020A5670200D1
:10705000BC210400D8210400F521040010B50D4C1A
:10706000214614F81030C3F340029B0706D511F8EF
:1070700010305B07044604D5002208E00138C0B296
:10708000EFE7431CD8B211F81430DC07EFD41046F8
:1070900010BD00BFD0320020064B002013F8102096
:1070A000120701D5C0B2704701300828F6D1FF2081
:1070B000704700BFD0320020064B002013F810208C
:1070C000D20601D5C0B2704701300828F6D1FF20A2
:1070D000704700BFD0320020002270B5114600F189
:1070E000100614461346057815F0020F1CBF013335
:1070F0005BB215F0040F1CBF03F1FF335BB215F058
:10710000080F1CBF0134E4B215F0100F1CBF013191
:10711000C9B2AD0648BF0132DDB248BFD2B2012DBF
:107120000AD8022C08D0022906D0022A04D0023044
:10713000B042D8D1012070BD0020FCE7FF281649DD
:10714000024607D10023D8B2013311F81020D2072C
:10715000F9D4704711F810305B070BD4431CD8B238
:1071600011F81030DB0715D59042F3D113460CE02F
:10717000431ED8B211F810309B07F9D5F0E7013360
:10718000D8B207284FF00002F0D811F81320D20728
:10719000D8B2F4D4704700BFD0320020FF2816497F
:1071A000024614D011F810309B0714D4431ED8B2F5
:1071B00011F81030DB071DD59042F3D1134614E0CF
:1071C0000138C0B211F81030DA07F9D4704707203F
:1071D000F8E7431CD8B211F810305B07F9D5E7E7A0
:1071E000013B581C4FF00702E8D011F81320D207DA
:1071F000D8B2F5D4704700BFD032002013B50C4A86
:1072000000900523012143F2DE00FFF725F9044633
:1072100050B10848084B09491B1ADB081B042246D9
:1072200043F001000DF0C0F9204602B010BD00BFD0
:10723000E03200200C6B0400646B04001422040094
:107240001FB5002846D0002944D0234B1860234B9B
:1072500023481A68824209D11A79083AD2B2F62A2A
:1072600004D95A79083AD2B2F62A03D84FF6FF72F7
:1072700018609A801B790B7003AA0DF10A03012193
:1072800043F2DE00FFF7ACF8044688B9BDF80A30D7
:10729000052B0BD10399043108460191FFF71CFF20
:1072A000019918B10F48102219F04EFB00240EE08E
:1072B00048F209639842F9D00B480C4B0C49C01AAC
:1072C000C0080004224640F001000DF06DF9204690
:1072D00004B010BD0E24FAE7D83C002000F00020D6
:1072E000BD34D330D0320020646B04000C6B04003A
:1072F0002B220400F7B503786E4D082B09D8DFE880
:1073000003F0051E27083659995D9D004FF6FF735F
:10731000AB804FF6FE74287904F0AEFC30F0080321
:1073200032D0062830D0644A644B65499B1ADB088A
:107330001B04024643F002000DF036F924E0FFF78B
:10734000ABFE2B79834208BFFF2028716871E0E70C
:10735000FFF7B2FE2B79834206BF6B792B71287140
:10736000584B28791B689847002003B0F0BD8379FB
:107370008488082B28BFFF232B716B714FF6FF7396
:107380009C42C8D14FF6FE742B79ADF8044001A899
:107390008DF8063003F098FF0028E1D0464A474BAD
:1073A00049499B1ADB081B04024643F002000DF01A
:1073B000FBF8D5E72879FFF7C1FEC6E72B79434FE5
:1073C000FF2B32D10023DCB2013317F81420D00791
:1073D000F9D426462346013417F813305A07E4B28D
:1073E000F8D5082C28BF00242046FFF737FE0028D8
:1073F000F0D02644F6B2B44203D017F814305B073D
:1074000015D517F81430DE0703D52046FFF796FE92
:1074100004462C716C717CE7013CE4B217F814202F
:107420001E1B9107F6B2F7D5D4E71C46F6E70134E8
:10743000E4B2E0E72879FFF7B1FE86E72B79234F26
:10744000FF2B31D1072317F813601C4616F00106F5
:1074500003F1FF33DBB2F6D12346013C17F81330BA
:107460009907E4B2F8D5072C28BF07242046FFF778
:10747000F5FD0028F0D0A61BF6B2B44203D017F8F1
:1074800014309A0712D517F81430DB07C1D52046FF
:10749000FFF784FEBCE70136F6B29C19E4B217F898
:1074A00014205007F7D5D7E70026F6E7013CE4B2F1
:1074B000E3E700BF00F000200C6B0400646B0400E5
:1074C00045220400D83C002058220400D03200207D
:1074D000014B1879704700BF00F00020064B0020D8
:1074E00013F81020920601D5C0B270470130082869
:1074F000F6D1FF20704700BFD032002018B1034BF7
:107500000360002070470E20704700BFD03200207B
:1075100008B540B1102908D1FFF7DEFD002814BFDF
:107520000020072008BD0E20FCE70920FAE7000034
:1075300070B50C461646054698B1102913D1FFF7D1
:10754000CBFD90B122462946094819F0FDF92246A3
:107550000749084819F0F8F93046BDE87040FFF7D0
:107560004DBE0E2070BD0920FCE70720FAE700BFE2
:10757000D0320020E43200201FB50446B8B11022FA
:107580000021684619F0EEF90A4B0B4A0B48CDE989
:1075900000330B4B6946CDE90223102219F0D4F9D0
:1075A000214643F2DE00FEF7DFFF04B010BD0E20DF
:1075B000FBE700BF0200040003000100D0320020FE
:1075C0000100050070B505460C4600295AD0037825
:1075D000013B062B01D9072070BD10222A492B48F8
:1075E00019F0B2F92A480022064600EB42010132A6
:1075F0000B79082A23F006030B71F6D16B682D78FE
:10760000CBB1002108468D4237D80828E3D10022AB
:1076100006EB4200017941F00201017113F8011BF0
:107620000A44511E06EB4101072A087940F0040084
:107630000871EDD912E0B2FBF5F2D2B206EB4300CD
:107640001344017941F002010171591E06EB410119
:10765000072B087940F004000871EFD90B48FFF7B9
:107660003BFD0028B7D009490748102219F06CF9F2
:107670002046BDE87040FFF7C1BD5A5C1044C0B25F
:107680000131C0E70E20A7E7D0320020E43200200D
:10769000E032002070B504460D46002938D002784B
:1076A000072A01D9072070BD43781344082BF9DC61
:1076B00018491948194E102219F046F9002063782C
:1076C000C1B28B420ED81448FFF706FD0028E9D05E
:1076D00011491048102219F037F92846BDE87040CA
:1076E000FFF78CBD04EB410301309A78920748BF45
:1076F000DA7823780B4406EB430348BFB2FA82F2F0
:1077000019794CBF5209012262F300011971D6E7C1
:107710000E20C8E7D0320020E4320020E032002002
:10772000FFF7BABC70B506460D4631B3154C164985
:107730001022201D19F008F9FFF7AEFC07280346B8
:107740009FBF04EB40031A796FF3C3021A71072E2F
:107750009FBF04EB4600037943F0080303710B4815
:10776000FFF7BAFC58B109490748102219F0ECF8A4
:107770002846BDE87040FFF741BD0E2070BD0720D0
:10778000FCE700BFE0320020D0320020E4320020CD
:10779000FFF792BC70B506460D4631B3154C16493D
:1077A0001022201D19F0D0F8FFF786FC07280346A9
:1077B0009FBF04EB40031A796FF304121A71072E6E
:1077C0009FBF04EB4600037943F0100303710B489D
:1077D000FFF782FC58B109490748102219F0B4F8A4
:1077E0002846BDE87040FFF709BD0E2070BD072098
:1077F000FCE700BFE0320020D0320020E43200205D
:1078000070B5264D2B78834204460BD12448254B76
:107810002549C01AC0080004BDE8704040F00200CD
:107820000CF0BEBE0128214E1CD13068431C01D093
:107830000EF08CFCF068411C01D00EF087FC1C4857
:107840000022A4210DF082FB50B1164A144B1949B5
:107850009B1ADB081B04024643F001000CF0A4FE57
:107860002C7070BD12480DF09CFB50B10D4A0C4BB2
:1078700011499B1ADB081B04024643F001000CF07F
:1078800093FE3068421C02D001210EF01BFCF06810
:10789000431CE5D001210EF015FCE1E7253D002059
:1078A000AC6B04000C6B04006B220400DC3C002079
:1078B000F8320020862204009E22040010B50EF04B
:1078C00085FBB0B1164B17484FF0FF310422196009
:1078D0005A72D9605A750121134A0DF025FB0446EE
:1078E000C8B11248124B1349C01AC00800042246FE
:1078F0000BE00EF02DFB04460028E3D00B480C4BA8
:107900000D49C01AC0080004224640F001000CF0E6
:107910004BFE204610BD094B01221A70F9E700BF4B
:10792000DC3C002048230400257B0200AC6B0400F3
:107930000C6B0400D8220400B6220400243D002071
:1079400030B4194A1368984213D0D368984212D1C0
:1079500001210C2000FB01F44FF0A0431519D3F8CE
:1079600010351459E3402C7A03F0010374B1DBB2F3
:107970000EE00021EDE70D480D4B0E49C01AC0087E
:10798000000430BC40F002000CF00ABE83F001039A
:1079900000FB0122D27A9A4203D030BC0120FFF7CB
:1079A0002FBF30BC704700BFDC3C0020AC6B040034
:1079B0000C6B0400F822040037B50446002843D0BD
:1079C000234B1B780BB9FFF779FF224B1A68013262
:1079D00033D0DA68013239D101210C224A432068C0
:1079E00098509918237A0B7263684B60637A4B72D4
:1079F00003238DF804309DF80630174A206823F0E1
:107A000007038DF80630237A002B0CBF03230123D4
:107A100001A98DF805300EF0E3FA054678B10F485C
:107A20000F4B1049C01AC00800042A4640F001005C
:107A30000CF0BAFD284603B030BD0021CDE7206828
:107A400001210EF03FFBF5E70E25F3E70425F1E7F2
:107A5000243D0020DC3C002041790200AC6B040096
:107A60000C6B04001C23040038B50446D8B103682D
:107A7000CBB10E4B1B780BB9FFF720FF0C4A00234C
:107A80000C2000FB03F18D5855B925685550D8B22C
:107A90005318A2889A80E288DA8022891A8138BD38
:107AA0000133042BEDD10420F9E700BF243D002071
:107AB000F43C00200328F7B504460D462BD80C23D0
:107AC000164F4343FE18FB582BB3728982B9012924
:107AD00002D0002003B0F0BD114601929847104B30
:107AE00075811B78012BF4D02846FFF789FEF0E75B
:107AF0000029EED1F188914207D2042198470C2049
:107B000000FB047400226281E3E7B188914234BF34
:107B100002210121F2E70720DCE700BFF43C00204E
:107B2000253D00202DE9F8430025DFF8D8902E46AA
:107B30004FF0A047A846D9F80000431C25D0D7F83D
:107B4000104599F80830C44004F00104002B44D1DA
:107B500084F0010499F80B30A34216D099F80A304A
:107B60005A1C032B89F80A2039D9D9F8043089F82E
:107B70000B4089F80A800BB12146984799F8090013
:107B8000042802D82146FFF795FF09F10C0916B326
:107B900000271B4C3E46D4F80080B8F1000F0ED0F1
:107BA000628962B123899A421BD10521F0B2C04794
:107BB00000236381638913B1013363810127013697
:107BC000042E04F10C04E6D1BDB9B7B93846BDE8BE
:107BD000F843FFF715BE0126ADE7E4B2BAE7012589
:107BE000D3E7E188B2FBF1F301FB13239BB2002B37
:107BF000E0D10321F0B2C047DCE7BDE8F88300BF65
:107C0000F43C0020DC3C002070B5154D154A2B7863
:107C1000154E01332B70137823B1013BDBB2137087
:107C200003B9F3700024E0B20CB9F37803B9335D03
:107C3000032B06D0022B0BD12B7803F00303032B6D
:107C40000BD1012101340FF0B7FF032CEBD170BD34
:107C5000012B02D12B78DB07F3D40021F2E700BF20
:107C6000303D0020273D0020283D0020FFF7CCBFFD
:107C700010B5B0B10368A3B10B4A0C4813600121E1
:107C80000B4A0DF051F9044648B10A480A4B0B491A
:107C90001B1ADB081B0443F001000CF081FC20469A
:107CA00010BD0E24FBE700BF2C3D0020682304001C
:107CB0006D7C02000C6B0400AC6B04004C230400D0
:107CC000704700001C4B70B51E4600241D4616F878
:107CD000012B02BB0134042CF9D103282BD82C5CD6
:107CE0008C4228D02954002113F8010BA8B9013186
:107CF0000429F9D15AB1114A1378013BDBB2137050
:107D00002BB90F480DF04DF908B10DF09DFBBDE802
:107D10007040FFF779BF0122DFE7002AF7D107495A
:107D20000B78581C0870002BF1D14FF40051044817
:107D30000DF00CF9E8E770BD283D0020263D00203D
:107D40001833002008B538B903210320FFF7BAFF24
:107D5000024B06221A7008BD0121F6E7273D0020DC
:107D600007B50B4B1B688BB18DF8000009B10A6891
:107D700001920A38012804D809B10A680AB9054AEB
:107D800001926846984703B05DF804FB0E20FAE7BD
:107D90002C3D0020457D020074DF704775DF704781
:107DA00076DF704777DF70478CDF70478FDF704773
:107DB0001FB5064B1B6833B100228DF808008DF803
:107DC000042001A8984705B05DF804FB704100202D
:107DD000054B0649024606481B1ADB081B0443F004
:107DE00001000CF0E1BB00BF946B04006C230400A5
:107DF0000C6B04000DF028BB2DE9F041124B134C25
:107E0000DFF84C80E41AE408240494B00E4644F0F1
:107E1000010405464FF6FF77284609F029F8B842D5
:107E200005460DD0694609F055F8024620B1414695
:107E300020460CF0B9FBEFE79DF80030B342EBD1E0
:107E4000284614B0BDE8F0810C6B0400946B04006C
:107E500081230400F7B5014606464FF6FF70FFF791
:107E6000CBFF002504464FF6FF77BC4202D12846DF
:107E700003B0F0BD0DF10601204608F0D5FF08B1B2
:107E80000DF0E2FABDF8060006F01EF8022818BF51
:107E900001352046314618BFEDB2FFF7ADFF04466D
:107EA000E3E7000070B58CB004462C22002101A845
:107EB00018F058FD40F20113ADF80830502240F69A
:107EC000B833CDE90523012C4FF4C863079324D0C0
:107ED000A31E012B94BF03260026234B234D93F8AA
:107EE0005400FFF759FF032C19D10123EB701E48F2
:107EF00001A904F09AFC1C48314604F055FB0446E5
:107F0000E8B11B4B1B481C49C01AC008000422469C
:107F100040F001000CF048FB11E00426DDE7AB78EF
:107F2000002B0CBF01230023EB700FD00120FFF7C3
:107F300091FF38B90020FFF73BFF00242C7020464A
:107F40000CB070BD06F01EF80128F3D0002CCED185
:107F5000012305488DF8043001A904F066FC204691
:107F6000FFF726FFEAE700BF343D0020684100200C
:107F70000C6B0400946B0400A0230400032838B5A4
:107F800004460BD0042818D038B9184D2B78A342DA
:107F900003D02046FFF70CFF2C7038BD134B5878E8
:107FA000012803D1BDE83840FFF77CBF9A78C2B101
:107FB000DB78002B08BF0224E7E70C4DEB7893B188
:107FC000AB7883B10120FFF745FF044638B9084B71
:107FD00093F85400FFF7E0FE0023EB70D5E701248F
:107FE000FAE70224D1E70124CFE700BF684100206F
:107FF000343D002007B5019006F07FFE0D4B0E4981
:10800000019800221A700D4A0123FFF7CDFE68B1D6
:108010000B4A0C4B0C499B1ADB081B04024643F02D
:10802000020003B05DF804EB0CF0BEBA03B05DF8DB
:1080300004FB00BFE44100209A26040066260400E9
:108040000C6B0400946B0400C2230400F0B50446DA
:1080500085B00220FFF7FEFE064605F083FF0746C7
:1080600004BB06F04AFE25461B4E3278A2420AD0D7
:108070001A4B1B6833B101228DF804208DF808409B
:1080800001A89847347055B11548164B1649C01AC7
:10809000C00800042A4640F001000CF085FA28468A
:1080A00005B0F0BD114A1248631E0E2101FB0321E9
:1080B00006F0B6FE054608B10DF0C6F9022F07D846
:1080C000032C00D036B10A4806F074FE0546CBE713
:1080D0000024C9E73446C7E7E4410020704100208E
:1080E000946B04000C6B0400EB2304007E26040058
:1080F0008C41002013B513210190FFF751FE019A26
:10810000034660B10748084C0849241AE4082404CF
:1081100044F0020002B0BDE810400CF04EBA02B0CC
:1081200010BD00BF0C6B0400946B04000624040017
:1081300013B5044609F010FB204609F049F92378ED
:10814000043B0C2B15D8DFE803F02C18141414147E
:108150001414141607142900A068294B1B6803B1D6
:108160009847284B5878FFF771FF274B5878FFF74F
:1081700099FE02B010BD0020EFE7234B60889B788A
:1081800053B1224B1B881A1A5342534101A98DF84F
:10819000043008F01FFEECE70123F7E708F01EFEAD
:1081A000E7E7638941F20602934226D1608805F031
:1081B00079FE0228608813D1154B9B7B83B1012186
:1081C00008F0FAFD0028D4D0124A134B13499B1A29
:1081D000DB081B04024643F002000CF0E5F9C8E797
:1081E00005F060FE012804D1084B62881B889A4282
:1081F000BFD0204609F0D4FABBE7B3F5885FF7E7B4
:108200006C410020E44100206841002074410020BE
:10821000784100200C6B0400946B04004724040098
:108220007FB503881F2B044600F0138108D8112B5B
:108230001AD01B2B00F0FA80102B57D004B070BD61
:108240003B2B00F00C81562B00F00981212BF5D13E
:1082500000238088ADF8043001A9FFF7A7FD0028AE
:10826000ECD00DF0F1F8E9E78588284605F01AFE14
:108270000128044621D17C4B1A88AA4204BF4FF63C
:10828000FF721A80794B1B6843B103228DF80420DA
:10829000ADF808508DF80A4001A89847744E33682D
:1082A0007BB105F059FE0028C8D108F029FE08B1BD
:1082B0003368984700233360C0E70228E2D16D4B52
:1082C000DAE7022CBAD16C4CA389AB4206D1204626
:1082D000FFF790FE4FF6FF73A381AFE7674B587827
:1082E0001B788342AAD0FFF7B1FEA7E7858828460E
:1082F00005F0D8FD0023CDE90133064603938DF840
:108300000A0002230422294603208DF80430ADF828
:108310000850FFF747FD50B1594A5A4B5A499B1A2A
:10832000DB081B04024643F001000CF03DF9022E6D
:108330004AD15149072204F1080018F0F7FA08B3AE
:1083400050484F4B5149C01AC008000440F001008A
:108350000CF026F9494C48480722002118F002FB8E
:108360002278022A03D14A4B5878FFF79BFD6078A8
:10837000FFF76CFE3D4B1B68002B3FF45FAF01A87D
:1083800098475BE78DF800006946284608F042FDF3
:108390009DF8001011F008010ED1284608F00CFDE0
:1083A00050B1374A374B3B499B1ADB081B04024646
:1083B00043F002000CF0F8F82F4B9B68002BC9D05B
:1083C00003932C4B1D80C5E7012ED3D1304CE678AA
:1083D000BEB1A378002B0CBF01230023E370224B16
:1083E0001D8004D00220FFF7E3FC0223237005F078
:1083F000C9FD012814D10020FFF7DAFC0023237007
:10840000B8E76946284608F021FDBDF800204FF680
:10841000FF739A42EBD131462846FFF76BFEE6E741
:108420000120FFF717FD0028E5D0A3E7037A022B10
:108430007FF404AF114C10480722002118F092FA83
:108440002278032A03D1124B5878FFF72BFD60786E
:1084500049E700F108018088FFF7A0FCFFE6A0884B
:108460001321FFF79DFCFAE67441002070410020C3
:108470006C4100208841002078410020E441002028
:108480000C6B0400946B04007A2404009C24040008
:1084900068410020B82404002DE9F04F037887B02C
:1084A0000646042B40D8DFE803F04F034F3F42005D
:1084B00002214FF6FF70FFF79FFC002504464FF6A0
:1084C000FF76B4422ED0072D12D9294602A808F013
:1084D0008DFC08B10CF0B8FF294602A808F090FC0A
:1084E00043F2042290421FD0F0B10CF0ADFF1BE02C
:1084F00001A92046ADF8046008F096FCBDF8040020
:1085000005F0E2FC02281CBF06AB03EB4503204646
:108510004FF002011CBF23F8104C0135FFF76CFC33
:108520000446CEE7002DD0D107B0BDE8F08F534B05
:108530005878FFF78BFD524B9A78022A14BF58786F
:108540000320FFF7AFFCEFE744684E480023072203
:1085500002A90293CDF80B3018F0E8F948B14A4867
:108560004A4B4B491B1ADB081B0443F001000CF07B
:1085700017F8484F484DD4F81890B4F81CA0ED1BDC
:108580002D094FF0000B5FFA8BF39D4241D8434D0C
:10859000A069A18B40F20113ADF8043001AA2B7839
:1085A0008DF8063005F008FA90B12346354A53F8A5
:1085B000020F1060997998889171002190809160E4
:1085C0003178B1FA81F1490918469173FFF712FD2C
:1085D00040F20133A069A18BADF8043001AA2B78D9
:1085E0008DF8063005F0E8F900289DD054F8020F08
:1085F000244BA2791860A1889A71002299809A6010
:108600003278B2FA82F2520920469A73FFF7F2FCEE
:108610008AE71A0107EB03185146BB5848469847AA
:108620000BF1010B0028AED0144B9B78002BAED180
:108630002346144D53F8020F28609A799988A9802F
:10864000AA71C5F808803278154FB2FA82F2520941
:108650003888AA734FF6FF72904203D11846FFF78D
:10866000C9FC94E73178002991D1AB8983428ED03F
:10867000FFF740FD3B88AB8189E700BFE441002064
:1086800068410020784100200C6B0400946B0400CA
:10869000D5240400AC6C0400CC6C0400E84100203C
:1086A0008841002070B50546AEB0002800F0E98092
:1086B000934B02681A600021782203A818F052F93F
:1086C0002C22002121A818F04DF9502140F6B83392
:1086D000CDE925134FF4C863279340F20133ADF879
:1086E00000306B798DF8023040F201128DF80630BF
:1086F000844BADF88820ADF804202A799A700223C3
:108700008DF80C3006238DF80F300123ADF81430AE
:108710008DF84A30ADF850307B4B2C9301AE7B4B3B
:108720007B48CDF818D003A915962D9303F0BDFE14
:1087300050B1784A784B79499B1ADB081B040246F2
:1087400043F001000BF030FF714C0121204603F093
:10875000A9FE94F8541004220120FFF723FB0446DD
:1087600050B16D486B4B6E49C01AC00800042246D8
:1087700040F001000BF018FF6A4A4FF6FF731380B8
:10878000002C32D168496A790A708DF806208DF87C
:108790000A20664A6648938141F61201654AADF89F
:1087A000001040F201311380ADF80410624B0393C6
:1087B00040F20111614BADF808100125604A0694A2
:1087C00003A904948DF8025005938DF8185006F013
:1087D00096FA044660B150484E4B5A49C01AC00838
:1087E0000004224628430BF0DFFE20462EB070BD69
:1087F0004F486A46032106F04DFA044668B94C48D2
:108800003246032106F046FA044630B9484802AA27
:10881000032106F03FFA044648B13F483D4B4A4920
:10882000C01AC0080004224640F00100DBE70246FF
:108830001F213F4806F04DFA0446002848D036482C
:10884000344B4249C01AC00800042246ECE703A892
:1088500008F0A8FA044638B12F482E4B3C49C01AFC
:10886000C00800042246DFE73A4808F083FA0446CD
:1088700048B12948274B3849C01AC008000422468D
:10888000D2E70E24B1E701461C2203A818F06AF8CB
:10889000324B03934FF4A0324FF4F023CDE904237D
:1088A00003238DF8183003A82D4BADF81A40089417
:1088B0008DF81C50099305F0CBF90446002894D09C
:1088C0001548144B2749C01AC00800042246ABE7DC
:1088D000254A264B024000F0FC0040F003041343FD
:1088E0008DF81040039308F0BDF904460028AED07F
:1088F0000948084B1E49C01AC0080004224693E7E5
:1089000070410020684100207D7F0200D17D02007F
:10891000343D00200C6B0400946B04000725040018
:108920002B25040074410020E841002078410020FC
:108930008C410020884100207E2604006626040029
:10894000998402004E2504006F2504008B25040045
:10895000CD25040031810200F125040076260400B3
:10896000F57D02001C2604008E0000FC3107100378
:10897000A82504002DE9F04F454D6B7801288CBFE8
:1089800000220122012B8CBF002301239A428FB0C9
:1089900004464BD001283F4A3F4EDFF814B18CBF4C
:1089A0000823002303A802EB030805F007FB3B4B59
:1089B000F61AF6083604002746F001060DF11009F4
:1089C000BA46039BBB4217D8032C354B31D11978DB
:1089D0006E7803292ED0334B93F85400FFF7DCF95F
:1089E0000020FFF7E5F9002320462B706E700FB0D2
:1089F000BDE8F04FFFF72ABB39F8023B0193184658
:108A000005F062FA0228019B0ED14146184605F096
:108A100059F9824640B143F20203984204D002461B
:108A2000594630460BF0C0FD0137CAE74FF0000A47
:108A3000CAE726465978A14206D0032C04D0204626
:108A40005C70FFF703FB8246A978012913D1164B0E
:108A5000187880B919706E70BAF1000F02D0032037
:108A6000FFF720FA1CB91148214605F0F7FA5046E5
:108A70000FB0BDE8F08F6B78B342F3D06E70304624
:108A8000BAF1000FECD1FFF70DFA8246EAE700BF1A
:108A9000684100206E260400946B04000C6B0400F7
:108AA000E4410020343D0020E7410020F580020031
:108AB00049260400014B1878704700BFE4410020AC
:108AC00008B505F05FFAC0B208BD08B505F04AFA6E
:108AD000C0B208BD00487047762604000148002156
:108AE00005F0BCBAF5800200094A937850B1013311
:108AF0009370084B18884FF6FF73984206D00021F8
:108B0000FFF7F8BA13B1013B93707047704700BF8D
:108B1000E44100208841002070B504460B4E06F069
:108B2000ECF80020FFF7BEF909483460002105F099
:108B300095FA054640B908F0E3F9044610B13368E8
:108B400098473560204670BD0024FBE76C4100204B
:108B5000F5800200A8DF7047ADDF7047AEDF7047D9
:108B6000B0DF704762DF704770B5094B1B780A258C
:108B7000013B4E195A1C01D1002407E005FB03F20A
:108B80008C180A3A013BB25A8242F3D1204670BD9A
:108B9000E941002070B50C4686B006461546002116
:108BA0001822684617F0DEFE636A8DF80060CDE992
:108BB00001450BB16846984706B070BD70B50546D3
:108BC00086B04B79ADF806300C461022002102A881
:108BD00017F0C8FEAB89ADF808300023ADF80C30B3
:108BE0000DF106030226049320888DF80A60A31D68
:108BF00002A90593FFF7B2FF40B96279BDF80630CC
:108C00009A420ED10323237106B070BD132806D0FB
:108C100000232371AB6A002BF6D09847F4E7267146
:108C2000F2E70C20F4E700002DE9F047AA4B90B0E2
:108C300000AF154603F1100E07F1100206468846F4
:108C40009446F24618685968144603C408337345BD
:108C50002246F7D1002E00F03D81002D00F03A8130
:108C6000697819B16B68002B00F034812B78002BE8
:108C700000F011810023DAB28A42C0F0FB80B8F123
:108C8000000F00F00881954B83F80080EB69736258
:108C90002B6AB3624FF6FF7108F1FF385FFA88F86C
:108CA000B8F1FF0F40F0F98031466046FFF75AFFF8
:108CB0000446002840F0D9803246391D12F8023BA4
:108CC000BB71012040F20133BB80FFF743FF044634
:108CD000002840F0CA802022BAF800303B810146CB
:108CE000B81887F80A8017F03DFE324640F202338A
:108CF0003B8412F8043B87F82230794B708807F1E7
:108D00000809C7E90939BB8D23F4875323F01F03F2
:108D100043F4805343F00103BB8507F12001012395
:108D200087F8333005F0E6F90446002840F09D80CE
:108D300020220146B81817F015FE6B785B000B3344
:108D400003F47E73E846ADEB030D2B7833776B7835
:108D500073772B89F3832B788DF800306B788DF83F
:108D6000013069460DF1020CE2B293420CF1020CA3
:108D700000F299805A1C288901F81200023301EB95
:108D800042025B00000A5070FB8440F20332BB8455
:108D900097F82D303A84327887F82220B96243F070
:108DA0000203708887F82D304FF0010A4A4607F118
:108DB000200187F831A005F09DF90446C54600283A
:108DC00053D120220146B81817F0CCFD32464FF49B
:108DD00041733B8412F8143B87F82230AB8AFB8442
:108DE000BB84EB68BB6297F82D30708887F834A09D
:108DF00023F00A0343F00A0387F82D3040F20113F1
:108E00003B8607F120012B7E87F8323005F072F99E
:108E1000044650BBAB8A3384142B06D9686A20B150
:108E2000B18A05F050FA0446F8B920220021B8189A
:108E30006C7E17F097FD324640F205333B8412F802
:108E40000C3B87F822301423BB8442F60103BB8518
:108E5000708887F83240012307F1200187F83340FA
:108E600087F8303005F046F9044620464037BD46C5
:108E7000BDE8F0876C6803EB4302A018A45C54B112
:108E800042780F2A07D8944205D982780F2A03F135
:108E900001037FF6F0AE0724E7E7F26A08EB8803E8
:108EA00022F81310F8E6D5F804A004EB440E0AEB00
:108EB0000E02013450789278120342EA00201AF828
:108EC0000E20024312B20CF8022CC2F307220CF857
:108ED000012C49E70E24C8E7A8260400E941002038
:108EE00008000300F0B505468BB00C4649B140B10F
:108EF0000388572B05D84F2B05D8102B1AD0112BD0
:108F000055D00BB0F0BD503B072BFAD801A252F858
:108F100023F000BFED8F02005F900200038F02007C
:108F200071910200038F0200038F0200038F020081
:108F300097910200C96A4FF6FF70FFF715FE0646CB
:108F400020B9A36A002BDCD00520BAE0AB880380EF
:108F50000822002104A817F005FD02232189A88812
:108F6000CDF814D004AA0493FFF7F6FD074650B9D4
:108F7000059805F0AEF830B10123B37032462146B2
:108F80003846FFF707FE218AA88804AAFFF7E4FD08
:108F90000028B6D1059805F0A0F80028B1D001232B
:108FA000F370324621460220FFF7F4FDA9E7C96AB3
:108FB0008088FFF7D9FD05460028C2D0837833B1F9
:108FC00000238370024621460120FFF7E3FDEB7882
:108FD00033B10023EB702A4621460320FFF7DAFD68
:108FE0004FF6FF732B8000232B718AE7C3880A8911
:108FF0009A421AD1C96A8088FFF7B6FD0646002852
:109000009FD02B8A022B7FF47CAF05F1120005F074
:1090100060F828B10123B370324621460020C3E72F
:10902000B070324621460120BEE70A8A9A427FF498
:1090300068AFC96A8088FFF797FD0646002880D090
:109040002F8A022F7FF45DAF05F1120005F045F87D
:109050000028A4D1F070324621460320A4E783798A
:10906000022B7FF44EAF837B013B022B3FF649AFCF
:1090700002898B899A427FF444AF8788C96A38464F
:10908000FFF772FD064618B9A36A0BB10520984791
:1090900002238DF800300023CDE902339DF806301D
:1090A00043F001038DF806306EB901236946384656
:1090B000ADF80430FFF754FD80B1A36A002B3FF4F4
:1090C00020AF98471DE7F3782BB13379002BEDD013
:1090D0004FF4FF73EAE740F2FD13E7E7BDF8043011
:1090E000002B7FF40EAF002E3FF40BAF0223337141
:1090F000297D8DF81C1020216A8A7371B1719DF849
:109100001C10F171032301397371072907D8DFE8B7
:1091100001F02B042B062B060623022A09D03372FA
:109120003379022B7FF4EDAE31462046FFF746FD42
:10913000E7E6012333726B7D8DF82030636A002BE4
:10914000EED00522CDE905468DF8102004A89847F9
:109150000028E5D10423E2E701231535013A3372F3
:109160000895ADF82420E9E7012AD8D13272E5E765
:10917000C96A8088FFF7F8FC00283FF4E2AEEA886D
:10918000A3899A427FF4BDAE0379032B7FF4B9AE75
:1091900000230371B5E6094B1D78013DEDB2FF2DAB
:1091A0003FF4AFAEE36A05EB850103EB41010B79B8
:1091B000022BF2D12046FFF701FDEEE7E941002046
:1091C000B0B588B00D46018CCB1D0446DB0868465F
:1091D000A0EBC30300AF9D46636AF9800BB9002082
:1091E00021E05388A18A9942F9D1BB1D6A462846DD
:1091F00005F084F8D0B90423E16A68883B72FC600A
:10920000FFF7B2FC237F38610DEB4303BB61FB88A2
:10921000BB83C7F814D0636A07F108009847002899
:10922000DDD14FF4C0702037BD46B0BDA36A002B1E
:10923000D5D09847D3E7F0B50E4689B0054600284B
:109240004AD0002A48D000238DF80830137851788E
:109250008DF80A10D80741BF50888DF80B00000A1E
:109260008DF80C004CBF0524032499078DF80930B4
:1092700006D508A8611C0444107904F8180C8CB2B7
:1092800013F0040F02AF06D0D3883B553A191B0ADE
:1092900002345370A4B2102200210DEB0200ADF88D
:1092A000064017F05FFBAB88ADF8103001238DF856
:1092B00012300023ADF8143004A90DF10603304636
:1092C000CDE90637FFF74AFC20B9BDF80630A342C6
:1092D00018BF0C2009B0F0BD0E20FBE7A4DF7047DB
:1092E00062DF704770B5094B1B780625013B4E19AC
:1092F0005A1C01D1002407E005FB03F28C18063A42
:10930000013BB25A8242F3D1204670BDEA410020AF
:1093100070B5094B044609481B1ADB081B040D46AF
:1093200043F0010006490BF03FF9EB681BB1204602
:10933000BDE87040184770BD546B04000C6B04000E
:10934000BB260400F0B50B7885B0044683BB888843
:1093500040F2013290422BD188792278904227D175
:1093600048880D7AADF8080001F10E06122740F288
:10937000053C9D420CD907FB03F236F802E0E645B6
:1093800018D11144CB8AADF80C300B8BADF80E30F0
:109390006168FFF7A7FF034610B10398C3F8020006
:1093A000A3682BB100228DF8042001A9204698471C
:1093B00005B0F0BD0133DCE773B50C461646054633
:1093C000002833D0002A31D0002931D019480DF1BE
:1093D0000601FFF785FF38BB40F20133ADF80430DA
:1093E0009DF806302B703368AB607368EB60B36830
:1093F0002B61114B06221C706FF0050312FB043227
:109400004FF6FF76034669688E5269681144013C45
:109410004B806968114414F0FF048B80A2F10602AE
:10942000F1D101A803F0C2FB02B070BD0E20FBE732
:109430000720F9E7F1260400EA4100207FB5044641
:109440000D4691B188B10388382B3AD0392B0ED014
:10945000112B0AD149688088FFF744FF28B14FF6E5
:10946000FF73038000234380838004B070BD00231A
:10947000496880880393CDE90133FFF733FF06463F
:109480000028F2D0438861899942EED10088FFF725
:1094900025FF02228DF80420AA68E3890296002A9B
:1094A000E3D0217C2029E0D1033B022BDDD9637C72
:1094B0008DF80C30A37C8DF80D3001A9284690471B
:1094C000D3E749688088FFF70DFF0028CDD0E088FA
:1094D0000028CAD0EB68002BC7D09847C5E700002A
:1094E000F0B50D468BB016460446002835D04168CD
:1094F0002846FFF7F7FE0746002830D0202200213B
:1095000002A817F02FFA184ACDE9042401237A881B
:109510008DF808308DF818303378ADF81A2001AA8C
:1095200008928DF804304FF48032013B0792042BEF
:1095300004D8DFE803F016061603160007200BB068
:10954000F0BD33798DF80530206902232A4602A93F
:10955000ADF81E3005F072FAF1E70E20EFE70520B6
:10956000EDE70620EBE700BF1193020070B50D4652
:109570008AB01646044650B341682846FFF7B2FE4B
:1095800038B3002E4FF0000108BF0B4686888DF8D7
:10959000051018BF0223202202A88DF8043017F00E
:1095A000E1F90D4A2069ADF81A60CDE9042401AA59
:1095B00008924FF400320123079202A92A468DF83F
:1095C00008308DF8183005F039FA0AB070BD0E2059
:1095D000FBE70520F9E700BF1193020070B50D46C7
:1095E00016460446A0B141682846FFF77BFE28B91D
:1095F0004FF6FF70FFF776FE60B1058016B1336855
:10960000C0F8023020692946BDE8704005F0B6BABE
:109610000E2070BD0520FCE7A8DF7047ADDF704766
:10962000AEDF704762DF704730B5084B1B780C1D0A
:10963000013B5A1C01D1002206E001EB8302013BF1
:1096400034F823508542F4D1104630BDEB41002060
:109650002DE9F041614B8EB0144602AA07468846B8
:1096600003F11006944618685968154603C5083377
:10967000B3422A46F7D1002F00F0AC80002C00F056
:10968000A980B8F1000F00F0A78063687B612369AF
:10969000534EBB6108F18043013B86F800809B007C
:1096A0004FF6FF71BA6B08F1FF3818F0FF08D1527E
:1096B000A3F10403F6D139466046FFF7B3FF002853
:1096C00040F085803A46694612F8023B8DF8023038
:1096D000012040F20113ADF80030FFF79DFF002894
:1096E00075D12022414606A88DF8068017F03AF978
:1096F0003A464FF48173ADF8183012F8043B8DF8F8
:109700001A30384B0793BDF82430788823F48753F8
:1097100023F01F0343F4805343F0010301ADADF880
:10972000243006A9637808958DF82B3004F0E2FC0C
:1097300000284CD1237CA27C218AADF80410012B97
:1097400098BF94F813808DF806200021202206A8E7
:109750008DF8078017F006F93A4640F20313ADF88A
:10976000183012F80C3B8DF81A304FF00413CDE985
:1097700007359DF82530788843F002038DF82530B1
:1097800006A963788DF8293004F0B4FCF8B9A36811
:10979000EBB10146142206A817F0E4F83B788DF8E7
:1097A0001830A3788DF81930E3788DF81A307B885B
:1097B0002069ADF82030A368CDF81B0009933178FB
:1097C000E3680A9306AA07F11C0000F047FA0EB0FE
:1097D000BDE8F0810E20FAE70720F8E70127040032
:1097E000EB410020130003002DE9F041054688B04D
:1097F0000C46002900F09B80002800F0988001466C
:1098000004F11C0000F030FBB5F80080B8F1110F36
:109810005AD0B8F1500F00F08D80B8F1100F40F021
:109820008680A16B4FF6FF70FFF7FEFE064600280C
:109830007DD0AB8803806169002978D108220DEBC7
:10984000020017F08FF801AB03932189A888022347
:1098500002AA0293FFF7E2FE0746A0B9039804F0BC
:1098600038FC80B10123B3704246394604A817F092
:1098700079F8AB88ADF818308DF8107063690594ED
:10988000079604A89847218DA88802AAFFF7C6FE6C
:10989000074600284BD1039804F01FFC002846D04F
:1098A00001231022F37039460DEB020017F05AF82D
:1098B00002238DF81030AB88ADF818306369059439
:1098C000079604A8984732E0A16BA888FFF7ACFE82
:1098D000064660B363693BB383788BB100211022E5
:1098E00081700DEB020017F03DF801238DF8103068
:1098F000AB88ADF8183005946369079604A89847BB
:10990000F3788BB100211022F1700DEB020017F0FB
:1099100029F803238DF81030AB88ADF81830059482
:109920006369079604A898474FF6FF73338008B021
:10993000BDE8F081EB8822899A4221D1AF88A16BE2
:109940003846FFF771FE06460028F0D02B8A022B1E
:10995000EDD1102200210DEB020017F003F805F104
:1099600012000594ADF81870079604F0B2FB0123BD
:1099700020B1B37000238DF8103023E0B070FAE707
:10998000228D9A42D3D1B5F80480A16B4046FFF7EF
:109990004BFE06460028CAD02F8A022FC7D11022BC
:1099A00000210DEB020016F0DDFF05F11200059419
:1099B000ADF81880079604F090FB40B10123F370D6
:1099C0008DF810706369002B7FF47BAFAFE7F07008
:1099D0000323D0E72DE9F0410F468AB0816B804622
:1099E00038461446FFF720FE002800F0D780837821
:1099F000002B00F0D38023788DF8143005AD33B3FD
:109A0000012B00F0918001239CB20021102201A8BB
:109A1000ADF8024016F0A6FFB8F80430ADF80430F7
:109A200001238DF806300023ADF8083001A90DF1AF
:109A300002033846CDE90335FFF7F2FD20B9BDF842
:109A40000230A34218BF0C200AB0BDE8F081628842
:109A5000C2F309038DF815301B0A8DF816302379EF
:109A60008DF81730D30744BF63798DF81830D6B21C
:109A70004CBF05230423B00708D50AA9581C0B4482
:109A8000A17901F00F0103F8141CC3B2710708D5C6
:109A90000AA9581C0B44E17901F00F0103F8141CCA
:109AA000C3B2300706D52189E954E818090A023300
:109AB0004170DBB2F10606D56189E954E818090A5C
:109AC00002334170DBB2B00606D50AA8591C034424
:109AD000A07B03F8140CCBB2710606D5218AE95499
:109AE000E818090A02334170DBB2160606D50AA847
:109AF000591C0344A07C03F8140CCBB2D0054FEAE8
:109B0000122106D50AA85A1C0344E07C03F8140C61
:109B1000D3B28A077FF578AFA28AEA54E918120A0D
:109B200002334A70DBB26FE76288C2F309038DF833
:109B300015301B0A8DF8163023798DF81730D307AE
:109B400044BF63798DF81830D6B245BFA3798DF83C
:109B5000193004230623B00708D50AA9581C0B4462
:109B6000E17901F00F0103F8141CC3B2710708D5A5
:109B70000AA9581C0B44217A01F00F0103F8141CA8
:109B8000C3B2300706D56189E954E818090A0233DF
:109B90004170DBB2F10696D5A1898EE7082053E724
:109BA000ADDF7047AEDF7047B0DF704770B5094B6F
:109BB0001B781825013B4E195A1C01D1002407E0DF
:109BC00005FB03F28C18183A013BB25A8242F3D1DA
:109BD000204670BDEC410020F0B50E4687B081698B
:109BE00005463046FFF7E2FF044620B96B6913B122
:109BF0000520984723E0A778022F20D12379ADF8DC
:109C000006300021102202A816F0ACFE2B89ADF818
:109C100008300023ADF80C300DF10603049302A9BF
:109C2000631D30468DF80A700593FFF7BBFF40B9FE
:109C30002279BDF806309A420DD10323A37007B0F4
:109C4000F0BD132805D00023A3706B69002BD0D181
:109C5000F5E7A770F3E70C20F5E7000070B51546AF
:109C600088B00446002850D0002A4ED000294ED09B
:109C7000284B197013464FF6FF7613F8032B02702A
:109C80001B68C0F801302B89C380EB6803612B6926
:109C900043616FF01702182313FB01230020A26910
:109CA000D652A26901391A4411F0FF019070A3F154
:109CB0001803F4D12022684616F054FE22464FF4D1
:109CC0008273ADF8003012F8083B8DF80230132390
:109CD000ADF80430BDF80C30E08823F4235323F0B2
:109CE0003F0343F4205343F00103ADF80C3001234C
:109CF0008DF81030AB788DF8123069466B788DF89E
:109D0000133004F0F7F908B070BD0E20FBE7072010
:109D1000F9E700BFEC4100202DE9F0410F4606466F
:109D2000816938461446FFF741FF002800F095800E
:109D3000002C00F094808378012B40F09280022365
:109D4000837020234371237883716378C371012B5F
:109D500040F081802378013B451D0E2B7BD8DFE846
:109D600003F0777A087A597A71715D5D717A777A42
:109D7000770023790372A36893B9042308E0A168EC
:109D8000895CE95401322179131D8A42DBB2F6D392
:109D9000037139463046FFF71FFF0020BDE8F08110
:109DA0000022F0E7717849B101291AD00CF1010CB9
:109DB000217A5FFA8CF29142F4D8E9E7112BF5D8B9
:109DC000616811F81210E954616801EB420203F175
:109DD000010E527802335FFA8EFEDBB205F80E20D8
:109DE000E4E7102BE2D8616802EB420203F1020EB5
:109DF000895CE954616811445FFA8EFE91F8018034
:109E0000591CC9B2033305F8018061680A44DBB20A
:109E10009278E3E74FF0000C0323C9E7B4F904306C
:109E20000372C3F307234372B4F906308372C3F39A
:109E30000723C372B4F908300373C3F307234373D2
:109E40000923A5E7237903726379437205239FE70A
:109E50002379037291E703239AE705209EE70E20FA
:109E60009CE708209AE700002DE9F0430B88512B6E
:109E700091B004460D463DD006D8102B1CD0112BB6
:109E80002BD011B0BDE8F083532B00F08481572B09
:109E9000F7D1964B1D781826002DF2D0A26906FB4B
:109EA00005F3183BD1188978022903D1D15A2046ED
:109EB000FFF792FE013DEFE781694FF6FF70FFF774
:109EC00075FE28B96369002BDBD004209847D8E7DA
:109ED000AB88038000238370D3E78169A888FFF7EC
:109EE00065FE20B96369002BCBD00520EEE74FF665
:109EF000FF73EEE78E79022EC3D18B7B043B022BDE
:109F0000BFD90A8903899A42BBD1B1F8048081691B
:109F10004046FFF74BFE074618B963690BB10520B1
:109F200098479DF816304FF00209002143F00103D5
:109F3000082208A8CDE906118DF810908DF816308A
:109F400016F010FDCDF82090A1890DF1040908AAA2
:109F50004046CDF82490FFF723FE10B1636903B1AA
:109F60009847484604F0B9F858B33FB3BB782BBBC9
:109F700004A94046ADF81430FFF716FE10B163692E
:109F800003B19847BDF81430002B7FF47AAF002F4F
:109F90003FF477AF0123BB70AB7CBBB12A7D8DF85A
:109FA0002020013A0F2A11D8DFE802F00E950E7E2C
:109FB00095240E0E0E0E0E8C0E950E954FF4FF731B
:109FC000D6E740F2FD13D3E7012B28D003238DF809
:109FD00005309DF820308DF804304A464146204631
:109FE000FFF79AFE00283FF44CAF6369002B7FF423
:109FF0006DAF46E794F801C0BCF1000F21D1122BE0
:10A00000E4D8DA07E2D46A7D8DF8242000228DF8A6
:10A01000252008AA05F114001546B3421FD825696A
:10A020009DF82010002D7DD04A1E0F2A7AD8DFE837
:10A0300002F0635F59596375637F818183838585EE
:10A040008989BCF1010FDED11A2BBFD8991E0322DA
:10A0500091FBF2F202EB42029142D4D0B6E7711CBE
:10A0600010F806E0C9B2BCF1000F0BD0BCF1010F33
:10A070000FD09DF8256001368DF82560033202353A
:10A080000E46CAE7415CE971023685F806E0F1B296
:10A09000EFE7415CD171F11C0236F6B282F806E0BE
:10A0A000865D1672C9B2E4E76A7D8DF82420991E98
:10A0B000914202D116350A95B1E7022B86D10023D1
:10A0C0000A93ACE7032B81D16B7D8DF82430AB7DF7
:10A0D0008DF82530A3E7022B7FF478AF6B7D8DF8E8
:10A0E00024309CE7A37813F0040F1AE0EC41002021
:10A0F000A37803F00103ABB109ABADF8068002977A
:10A1000003930F2A3FF6BDAEDFE802F0202B272F86
:10A11000292D31333537393B3D3F4143A37813F087
:10A12000020FE9D102238DF805308DF8041054E7B1
:10A13000E378DEE7E378F2E7E378D4E7A37813F097
:10A14000080FEEE7A37813F0100FEAE700238DF86D
:10A15000043049462046A84793E60223F7E7042344
:10A16000F5E70123F3E70523F1E70323EFE70623F0
:10A17000EDE70723EBE70823E9E70923E7E70A23ED
:10A18000E5E70B23E3E70C23E1E70D23DFE70E23ED
:10A19000DDE70F23DBE78169A888FFF707FD0028CB
:10A1A0003FF4A0AEEA8823899A427FF46AAE8378AE
:10A1B000032B7FF466AE8DE6A4DF704762DF704745
:10A1C00070B5094B1B780C25013B4E195A1C01D167
:10A1D000002407E005FB03F28C180C3A013BB25A4D
:10A1E0008242F3D1204670BDED41002030B50546D6
:10A1F00085B00C464FF6FF704968FFF7E1FF48B1A4
:10A20000E3683BB10022CDE902058DF8042001A9E5
:10A210002046984705B030BD70B58AB004460D465B
:10A2200016460021202202A88DF804308DF8051072
:10A2300016F098FB0A4A2069ADF81A60CDE90424AB
:10A2400001AA08924FF400320123079202A92A467C
:10A250008DF808308DF8183004F0F0FB0AB070BDAE
:10A26000EDA10200F0B50B7889B00446002B5AD15D
:10A27000888840F20112904255D188792278904224
:10A2800051D148880D7AADF8040001F10E0612276D
:10A290009D420DD907FB03F236F802C0BCF5817F61
:10A2A00043D18B18DA8A1B8BADF80820ADF80A3041
:10A2B000002301F10E06122740F2031C9D4209D92A
:10A2C00007FB03F236F802E0E64530D10A44D38AB0
:10A2D000ADF80C30002201F10E06122795420DD97F
:10A2E00007FB02F336F803C0BCF5827F21D1194485
:10A2F000CB8AADF80E300B8BADF810306168FFF7EC
:10A300005FFF034638B102AA03CAC3F80200C3F8CC
:10A31000061012885A81A3682BB100228DF8002004
:10A3200069462046984709B0F0BD0133B0E70133D4
:10A33000C4E70132D2E7000073B50D461646044665
:10A3400000283DD0002A3BD000293BD01E480DF10B
:10A350000601FFF733FF002830D140F20113ADF8BA
:10A3600004309DF8063023703368A3607368E3609F
:10A37000B3682361154B0C221D706FF00B0312FBA9
:10A3800005324FF6FF76034661688E5261681144CC
:10A39000013D4B806168114415F0FF058B806168B9
:10A3A0001144CB80616811440B8161681144A2F1B2
:10A3B0000C024B81E8D101A802F0F8FB02B070BD9D
:10A3C0000E20FBE70720F9E711270400ED410020EC
:10A3D000F0B5044689B00D4651B148B10388382B19
:10A3E00000F0248106D8112B63D0362B00F0468173
:10A3F00009B0F0BD392BFBD149688088FFF7E0FE3A
:10A4000006460028F4D020220021684616F0AAFA59
:10A410000196628973889A421AD10223A17C8DF831
:10A420000030637C227CE77C8DF8082043EA01231E
:10A4300018B21946ADF80A3004F11403002A48D0C6
:10A44000012A00F09380AB6813B16946284698470B
:10A45000338961899942CBD13088FFF7ADFEAE6870
:10A46000E38904228DF80020002EC1D0227C202A0E
:10A47000BED1A17C627C8DF8082001298DF80910DD
:10A4800040F0AD80033B013A9BB20E2A00F2A78058
:10A49000DFE812F0C800A5009A00A500A900A500F9
:10A4A000C100C100AE00AE00C100A500C800A500FB
:10A4B000C80049688088FFF783FE002898D04FF6CF
:10A4C000FF730380002343808380C3800381438123
:10A4D0008EE78DF80C70C70742BF277D8DF80D7091
:10A4E00004F11503C2B2970744BF13F8017B8DF83E
:10A4F0000E70570744BF13F8017B8DF80F701707D4
:10A5000041BF93F801C013F8027B47EA0C27ADF86E
:10A510001070D70607D593F801C013F8027B47EAFD
:10A520000C27ADF81270970644BF13F8017B8DF825
:10A530001670570641BF5F7813F8022B42EA0722D4
:10A54000ADF81820000644BF1A788DF81A200A0AC0
:10A55000C90544BF19788DF81B10920741BF5A787E
:10A560001B7843EA0223ADF81C306CE78DF80C70C1
:10A57000C707C2B207D5237D677D8DF80D308DF8F2
:10A580000E7004F11603970744BF13F8017B8DF892
:10A590000F70570744BF13F8017B8DF81070170731
:10A5A00041BF93F801C013F8027B47EA0C27ADF8CE
:10A5B0001470D70641BF93F801C013F8027B47EA35
:10A5C0000C27ADF81470AEE7E27C8DF80C20023B4E
:10A5D000934202D11434049401E0002304936946A9
:10A5E0002846B04704E7033B8DF80C301334F2E7FC
:10A5F000227DE37C43EA0223ADF80C30A27D637D2B
:10A6000043EA0223ADF80E30227EE37D43EA0223C3
:10A61000ADF81030E3E7E37C8DF80C30237D8DF846
:10A620000D30DCE7E37C8DF80C30D8E74968808892
:10A63000FFF7C6FD00283FF4DBAEE388002B3FF4B4
:10A64000D7AEEA68002A3FF4D3AEADF808300190E7
:10A6500063898188994206D101238DF800306946CB
:10A6600028469047C4E60189994201D10323F4E7C3
:10A67000418999427FF4BCAE0223EEE749688088A5
:10A68000FFF79EFD064600283FF4B2AE6289C388FC
:10A690009A427FF4ADAE20220021684616F062F99E
:10A6A0000323627C8DF80030237C019643EA022369
:10A6B000ADF80830AB68002B3FF49AAE69462846E7
:10A6C000984795E6F0B50E468FB01446054600282B
:10A6D00071D041683046FFF773FD074600286CD003
:10A6E0002022002106A816F03DF9374ACDE90825B9
:10A6F00001233A898DF818308DF828302378ADF889
:10A700002A2001AA0C928DF804304FF48032023BCB
:10A710000B920E2B53D8DFE803F04952084926521A
:10A72000525252523F5249524900A06821798DF845
:10A7300005100223ADF82E3020B10DF106040023E0
:10A740008B4206D32869324606A904F077F90FB088
:10A75000F0BDC25C04F8012BBDF82E200132ADF82B
:10A760002E200133ECE7617912292AD823798DF85C
:10A7700005300223ADF82E300DF1060000238B4288
:10A78000E0D2A268D25C00F8012BBDF82E20013285
:10A79000ADF82E200133F2E723798DF80530637987
:10A7A0008DF806300323ADF82E30CBE723798DF8F2
:10A7B00005300223F7E70E20C9E70520C7E7072089
:10A7C000C5E70420C3E700BFEDA1020070B50D4648
:10A7D0001646044680B141682846FFF7F1FC68B18F
:10A7E000002E42892946204618BF0223BDE870404A
:10A7F00008BF0023FFF710BD0E2070BD0520FCE749
:10A8000070B50E4614460546C8B141683046FFF79C
:10A81000D7FC28B94FF6FF70FFF7D2FC88B106804D
:10A820003CB12368C0F802306368C0F80630238961
:10A83000438128693146BDE8704004F09FB90E207D
:10A8400070BD0520FCE78B6903B11847704707B559
:10A85000E8B1E1B101238DF8063041F61203ADF8FD
:10A8600004304FF6FF730360002383800A6882611F
:10A870004A68C2618A680262C0E90233C0E90433EF
:10A88000C38001A802F092F903B05DF804FB0E202A
:10A89000FAE72DE9F043064689B00C4641B138B1DC
:10A8A0000388382B3DD006D8112B28D0362B4AD020
:10A8B00009B0BDE8F083392BFAD182880B889A421F
:10A8C000F6D14389CA889A4227D08A899A4226D0EB
:10A8D0004A8A9A42ECD102238DF80E3006F1100319
:10A8E0000293F389ADF80C30E36904228DF804205B
:10A8F000002BDDD00DEB020120469847D8E7828877
:10A900000B889A42D4D100234FF6FF70C1E90003AF
:10A91000C1E90233C1E90433CAE70023DCE70123BC
:10A92000DAE70A8883889A42C2D101F11205F088D9
:10A9300028B1328923899A4201D10AF085FD063473
:10A94000AC42F4D1B4E70A8883889A42B0D14289F4
:10A950004B889A4226D10422002102A816F002F860
:10A960000223727C8DF80430337C43EA0223F27CAC
:10A97000ADF80830D107B37C8DF80A3042BF9DF89E
:10A980000B3043F001038DF80B30930742BF9DF865
:10A990000B3043F002038DF80B30E36913B101A9CA
:10A9A000204698477289A3889A420DD103238DF8D7
:10A9B000043006F110030293F389ADF80C30E3691B
:10A9C00013B101A920469847012506274FF0050835
:10A9D00006F1100907FB05F37289E35A9A420ED17A
:10A9E0006B1E8DF80E30F389ADF80C30E3698DF8ED
:10A9F0000480CDF8089013B101A92046984701358D
:10AA0000042DE7D1002504F10A08062707FB05F30A
:10AA1000728938F803309A420ED1337C8DF80930B0
:10AA2000737C8DF80A30E3698DF804708DF8085056
:10AA300013B101A9204698470135032DE6D137E728
:10AA400030B504468BB020B3022924D8062303FB7B
:10AA500001018DF804200D892022002102A88DF823
:10AA6000051015F07FFF0D4A206AADF81A50CDE9A8
:10AA7000042401AA08924FF400320123079202A98C
:10AA800022888DF808308DF8183003F0D7FF0BB00E
:10AA900030BD0E20FBE70720F9E700BF47A8020002
:10AAA00030B480B1018052B1831C02F1140452F819
:10AAB000045B43F8045BA242F9D112881A8030BCCF
:10AAC000006A04F05BB80E2030BC704778DF704736
:10AAD0007ADF70477CDF704770470000054B0649FE
:10AAE000024606481B1ADB081B0443F0010009F06C
:10AAF0005BBD00BF946B04002C2704000C6B0400AA
:10AB0000054B0649024606481B1ADB081B0443F0A6
:10AB1000010009F049BD00BF946B0400392704000F
:10AB20000C6B0400054B0649024606481B1ADB085D
:10AB30001B0443F0010009F037BD00BF946B040013
:10AB4000462704000C6B040038B50378022B04463A
:10AB50006DD18379012B0FD18188354803F017FC23
:10AB600050B1344A344B35499B1ADB081B0402466A
:10AB700043F0020009F018FDA26852B3304DD368CB
:10AB8000EB61A3685B689847A18802462846FFF7F7
:10AB900087FF50B1274A284B2A499B1ADB081B0420
:10ABA000024643F0020009F0FFFCA36824489B68BA
:10ABB0000121984700283AD01E4A1F4B22499B1A70
:10ABC000DB081B04024643F00200BDE8384009F0F0
:10ABD000EBBCA1881D48FFF713FE50B1154A164B78
:10ABE0001B499B1ADB081B04024643F0020009F0D4
:10ABF000DBFCA18817480022FEF7F0FC50B10D4A9B
:10AC00000D4B15499B1ADB081B04024643F002005A
:10AC100009F0CAFCA188114801F0EAFF38B1054AE1
:10AC2000054B0F499B1ADB081B040246CBE738BDD6
:10AC3000944700200C6B0400946B04005A27040016
:10AC400084460020752704009027040068390020FE
:10AC5000B127040024390020CC2704003833002019
:10AC6000E727040070B583680446188803F01AF9D2
:10AC70000128054604D12378022B08D0032B0ED0DF
:10AC80000D4B1B68ABB12046BDE8704018470B4E1A
:10AC90003378002BF4D1FDF727FF3570F0E7074D2F
:10ACA0002B78002BECD00020FDF71EFF00232B702B
:10ACB000E6E7184670BD00BF90470020E946002037
:10ACC0000A4601460148FEF77BBA00BF383900202A
:10ACD0000AF0BABB07B5014601900548FFF7C2FA72
:10ACE0000199044803B05DF804EBFEF72BBB00BFED
:10ACF0006839002024390020F0B583B000AF08B3D4
:10AD0000124D2B68F3B10388502B1BD10389B3F587
:10AD1000285F17D1048A04F108036E46DB08A6EB0E
:10AD2000C3039D4600F112012246684615F00CFE51
:10AD300000230DF804303B70C7F804D02B68384668
:10AD40009847B5460C37BD46F0BD00BF8C47002084
:10AD500008B503281DD8DFE800F0022309150020FC
:10AD6000FDF708FEBDE80840FDF7B8BE0D480E4BE4
:10AD70000E49C01AC0080004BDE8084040F00100B8
:10AD800009F00EBC0748084B0949C01AC008000466
:10AD9000F2E70448044B0749C01AC0080004EBE777
:10ADA00008BD00BF946B04000C6B0400092804006C
:10ADB000422804006F28040038B50546008903F0D6
:10ADC00071F80128044604D12B78022B02D0032B02
:10ADD00008D038BD084D2B78002BFAD1FDF784FE42
:10ADE0002C70F6E7044C2378002BF2D00020FDF7FE
:10ADF0007BFE00232370ECE7E846002008B50B78C3
:10AE000043B989880122FEF7B1FB18B1BDE80840BB
:10AE10000AF01ABB08BD08B50B7843B9898801222E
:10AE2000FFF7D4FC18B1BDE808400AF00DBB08BD1F
:10AE300010B50B88834286B0044623D002228B785B
:10AE40008DF80C208DF80420014601AA10488DF8D9
:10AE500010308DF80830FEF743FB052814D10D485B
:10AE600003AA2146FFF72EFC60B105280AD00A4A42
:10AE70000A4B0B499B1ADB081B04024643F00100F6
:10AE800009F092FB06B010BD0028FBD0EFE700BF31
:10AE900024390020683900200C6B0400946B0400F6
:10AEA000962804002DE9F04105469CB0002800F0EA
:10AEB000EB818368002B00F0E781A14A136002F068
:10AEC0005BFA044658B19F489F4BA049C01AC0087E
:10AED0000004224640F0010009F066FB44E00AF05D
:10AEE000C3FC50B1984A974B99499B1ADB081B0445
:10AEF000024643F0010009F057FB00230CA9012092
:10AF00000C930AF04FFB50B18F4A8E4B91499B1A1C
:10AF1000DB081B04024643F0010009F045FB0CA8C6
:10AF20000AF0F4FB50B1884A864B8B499B1ADB0828
:10AF30001B04024643F0010009F036FB6C886E6882
:10AF4000FDF7C8FD0246006851680CAB1F2C03C317
:10AF50000ED97D4B7B488149C01AC008000440F0DF
:10AF6000010009F01DFB092420461CB0BDE8F0815A
:10AF7000B4B111238DF8203031680191084615F0E5
:10AF800001FD019982B208A8FFF7A4FD044650B163
:10AF90006C486D4B7249C01AC0080004224699E7FC
:10AFA0008DF82040E8E7308AFFF790FD044638B17D
:10AFB0006448654B6B49C01AC0080004224689E703
:10AFC0000CA8FFF785FD044688B901466648D5F808
:10AFD0000480D5E9037603F011FB044678B15948A3
:10AFE000594B6249C01AC0080004224672E755480E
:10AFF000554B5F49C01AC008000422466AE7014663
:10B00000059040220CA815F0ADFCD5E9050109AB6F
:10B0100083E80300574B08935748584B0B9308A9F4
:10B0200003F029F9044638B14648474B5449C01A41
:10B03000C008000422464DE7D8F8041011B10CA84E
:10B0400003F04FF8D8F8081011B10EA803F049F832
:10B05000D8F80C1011B112A803F043F8494914A80C
:10B0600003F03FF801230CA88DF86C3001F06EFF5F
:10B07000044638B13348344B4349C01AC008000471
:10B08000224627E797B1414B3B60414B41487B60EB
:10B090003A460421FEF7DCFA044638B129482A4B27
:10B0A0003D49C01AC0080004224613E7F6B140F239
:10B0B00002233383394BF2691A60394BF361394B00
:10B0C00033622D4B38481A78002A08BF0023736278
:10B0D00032460421FDF7A8FD044638B119481A4B41
:10B0E0003249C01AC00800042246F3E6304B0593EB
:10B0F00005A802F0C5F80446D0B92E4F2E4EF61B17
:10B10000F60880465FFA88F39E425FD82B4B2C4EA0
:10B11000039303A8049601F02DFD0446002861D096
:10B120000848094B2749C01AC00800042246D1E646
:10B130000448054B2449C01AC00800042246C9E649
:10B140008C470020946B04000C6B0400AD280400B5
:10B15000C4280400EF280400142904002F29040047
:10B16000EF2004004C290400F0410020A72904002E
:10B170006F29040001AB020094470020C1AC02001B
:10B18000BA290400CC290400D229040001010202DA
:10B19000B9AD02007C390020FB2904009047002053
:10B1A00065AC0200DDAA0200383900201F2A040025
:10B1B00051AD0200E06C0400E86C0400D5AC020064
:10B1C000083900205D2A0400432A040007EBC3026B
:10B1D00057F833305068984708F1010804460028B2
:10B1E00090D0C1E6294B2A48069405A905930796F5
:10B1F000FFF72DFB044638B12648274B2749C01AD4
:10B20000C0080004224665E6254B09932548264BD5
:10B21000089308AA04210A96FFF78EF8044638B16D
:10B220001C481D4B2149C01AC0080004224651E6A3
:10B230000E961F4E1F4B0D930CAA1F4B0C9304210F
:10B240003046FEF7B9F80446B0B92B788DF83430A3
:10B2500033788DF835300CA8184B0C93FDF722FA93
:10B26000044600283FF480AE0A480B4B1449C01A2C
:10B27000C008000422462DE60648074B1149C01AB3
:10B28000C0080004224625E60E246DE6D1AC02007B
:10B2900084460020946B04000C6B04007E2A04009A
:10B2A000D9AA02006839002017AE0200982A0400CB
:10B2B0002439002025AB0200FDAD020049AB02009D
:10B2C000EE2A0400C32A0400014608B5034802F030
:10B2D000C5FE00280CBF0520002008BD31AE0200CD
:10B2E0002DE9F041044686B000287DD016220021C9
:10B2F000684615F037FB00238DF800302388ADF841
:10B30000043023789B070DD5A3788DF807309DF87E
:10B31000023023F0150343F015038DF80230A388A3
:10B32000ADF80A3094F9062002F12803DBB27D2B38
:10B330009CBF9DF802308DF80E2022899CBF43F0FF
:10B3400020038DF802303AB19DF80230ADF810209C
:10B3500043F040038DF8023094F90A2002F15A03B9
:10B36000DBB2B42B9CBF9DF802308DF81220E27A3C
:10B370009CBF43F080038DF80230642A9FBF9DF884
:10B3800003308DF8132043F001038DF80330A289B8
:10B390003AB19DF80330ADF8142043F002038DF864
:10B3A00003300025114E124F2C4608234FF6FF782C
:10B3B0003188414508D0B27832B16A4638467CB906
:10B3C000FEF708FB234604460135042D06F104066A
:10B3D000EED1002B18BF1C46204606B0BDE8F08118
:10B3E000FEF7F8FA0023EFE70E24F5E71A470020EE
:10B3F0007C3900202DE9F341002846D00023428803
:10B40000CDE9003303788DF801303AB19DF8003072
:10B41000ADF8022043F001038DF8003090F90420CC
:10B4200002F12803DBB27D2B9CBF9DF800308DF824
:10B430000420C2889CBF43F002038DF800303AB16B
:10B440009DF80030ADF8062043F004038DF800307D
:10B4500000250F4E0F4F2C464FF6FF78318841459F
:10B4600007D0B3782BB16A4638465CB9FDF7E3FEE6
:10B4700004460135042D06F10A06EFD1204602B03C
:10B48000BDE8F081FDF7D7FEF3E70E24F6E700BF35
:10B49000C04600203839002042DF704710B5421EF8
:10B4A000FF2012F8013F5840082300F00104400833
:10B4B00014B180F08C00C0B2013B13F0FF03F4D153
:10B4C000013989B20029ECD110BD30B58478C37838
:10B4D000A3422AD945780279032D22D8611C04F0B1
:10B4E0000704C9B2072C0378817008BF00EBD101B3
:10B4F0004FEA430314BFD9B24979017003F4807352
:10B50000191E02F0010418BF01219C420DBF013534
:10B51000002361F3000245701CBF437002710846AE
:10B5200030BDD34303F00103EAE70023C3700121D8
:10B53000F5E70000014B00221A807047DC4700202D
:10B5400038B50279002363F30002837043700271FF
:10B550008B780333DB00C3700B78037043714A7838
:10B560008B7803EB021383710D468A78044603310E
:10B57000073015F0E9F9AD78601DA91CFFF78EFFC3
:10B580002C44E07138BD000010B5094C20460AF08B
:10B59000AFFF38B12268D2F84C355F33DBB2C2F866
:10B5A000443510BD2046BDE810400AF087BF00BFFB
:10B5B000C03900201FB51C4C6368013314D01B48F0
:10B5C0000AF096FF90B119480AF09EFFE368013334
:10B5D00010D1164800210AF0B6FF6268012393409B
:10B5E0004FF0A042C2F80C3504B010BD0F480AF06D
:10B5F00065FFEBE70E4B0F489A1C00921B880193E6
:10B6000000226946CDE9022211F0A6F90028EBD00C
:10B61000094A0A4B0A499B1ADB081B04024643F0FD
:10B62000010008F0C1FFDFE7B4470020C039002067
:10B63000DC470020B83900200C6B04009C6B040030
:10B640004C2B04002DE9F043B0F5A07F89B020D148
:10B650006F4B5C68611C16D0DB68013313D16D48F9
:10B66000FFF733FF0123A3404FF0A04270B1C2F8AF
:10B670000835684AD17831B94FF0A0426648C2F81F
:10B6800008350AF074FF09B0BDE8F083C2F80C3544
:10B69000EFE7B0F5A27FF6D14FF0A0435F4CD3F8AF
:10B6A00010555B4B67789A68032F25FA02F505F071
:10B6B000010598462AD823785B0005B10133A278AA
:10B6C00002F00701072908BF04EBD201DBB208BF73
:10B6D0000B718F2A237015D90926E37803F0010234
:10B6E000AA4230D1FF2F04D00137FFB2082F677074
:10B6F0002ED94B4A002D51D01378072B50D8013347
:10B700001370C0E70132A2701126E6E7002DFBD0CE
:10B71000E378DA07F8D5052FF6D16179A37801F03F
:10B720000F01CA1CB2EBD30F4FEAD309D4D10231B7
:10B73000201DA144FFF7B2FE99F80360864214BFB2
:10B740000B260026C9E7002265F300036270E37050
:10B75000C6B9627923798DF80C30324913090DF19D
:10B760000F0002F00F028DF80D308DF80E2015F04D
:10B77000EBF803AB0293D8F800308DF8046001A811
:10B780009847B6E70B2EB4D10023CDE9033301234C
:10B790008DF80C3003A8D8F80030F1E7157072E787
:10B7A000D8F80C3001331B4B0CBFDB781B8813B16E
:10B7B000FFF700FF67E7D8F804201748531C1FBFA6
:10B7C000012393404FF0A042C2F808350AF084FEEE
:10B7D00011480AF099FE10480AF096FE0023194617
:10B7E0000D48FF220AF094FE012319460A485F2201
:10B7F0000AF08EFE04236370E3780B48002143F0C7
:10B80000010312222170A170E37015F0ABF83AE742
:10B81000B4470020DC470020C0390020C547002085
:10B82000C4470020CB470020C94700207FB505460C
:10B83000002800F0CE800368002B00F0CA808668E4
:10B84000741C03D14368013340F0C58095E80F00B4
:10B85000634C013684E80F0002D1013100F0BD8055
:10B86000FFF71AFE5F4A604960480AF0B7FD0446D8
:10B8700068B15F485F4B6049C01AC00800042246A7
:10B8800040F0010008F090FE204604B070BD57481B
:10B890000AF03AFE55482346FF2221460AF038FEB8
:10B8A0000123524819465F220AF032FEEB68581C09
:10B8B00022D0FF224FF6FF7101948DF80120ADF8E0
:10B8C00002108DF8062007214FF000728DF8051048
:10B8D00002928DF80030494A49480394234669464C
:10B8E00010F06AFF044638B14148424B4549C01A3E
:10B8F000C00800042246C3E70AF068FB58B90AF002
:10B9000027FB044638B13A483A4B3F49C01AC008B1
:10B9100000042246B4E70323ADF800309DF802305E
:10B920003A4A23F0070343F004038DF80230D5E9C7
:10B930000130984208BF9DF80230694604BF43F0C9
:10B9400001038DF802300AF04BFB044638B1284859
:10B95000284B2F49C01AC0080004224690E7D5E9B9
:10B96000013199424FF0A0421DD101F5E07140F242
:10B97000017342F82130A96801238B40C2F80835D1
:10B98000EA68531C0AD01E4B69681B68C3F8082577
:10B990004FF0FF32C3F80C15C3F81025A868012139
:10B9A0000AF090FB70E7591C0AD003F5E07340F2EF
:10B9B000037142F82310696801238B40C2F80835EF
:10B9C000AB684FF0A04203F5E073002142F823106A
:10B9D000D6E70E2458E7072456E7002454E700BFB3
:10B9E000B447002045B60200E42B0400C039002013
:10B9F0009C6B04000C6B0400672B040035B502003F
:10BA0000B8390020842B04009F2B040089B5020064
:10BA1000BD2B040030B52D4B1A6887B00146002AB3
:10BA20004CD05A68013205D19B68013348D10020BF
:10BA300007B030BD002845D0DB68254C013310D15C
:10BA4000E378002B40D12046FFF77AFD21480AF029
:10BA50004FFD0028EBD11F480AF030FDFFF7AAFD8B
:10BA6000E5E7258885BB6846FFF76AFD2388E2186D
:10BA700095709A1C013314FA83F322809D70FF2580
:10BA80009DF80330002BE1D02388B3F5AE7FDDD2E3
:10BA90006846FFF71AFD2388E21838B195709A1CA2
:10BAA000013314FA83F322809D70E9E790709A1CA9
:10BAB000013314FA83F322809870E1E70820B7E796
:10BAC0000620B5E70E20B3E70420B1E7B447002015
:10BAD000DC470020C039002037B5414B196849B117
