:020000022000DC
:1060000000F00020E19F030009A003000BA00300A3
:106010000DA003000FA0030011A00300000000006A
:1060200000000000000000000000000013A00300BA
:10603000A9A702000000000017A0030019A0030098
:106040001BA003001BA003001BA0030059B3030007
:106050001BA003001BA00300C547030099AD03006C
:106060001BA003001BA00300B54B03001BA00300F3
:1060700005A203001BA003001BA003001BA003003C
:1060800015490300693A03001BA003001BA003008D
:106090001BA003001BA00300CD3F03001BA00300B7
:1060A0001BA003001BA003001BA003001BA00300F8
:1060B00029A703001BA0030000000000000000004F
:1060C0001BA0030039A703001BA00300D14E03004F
:1060D00085A303001BA003001BA003000000000019
:1060E00000000000000000000000000000000000B0
:1060F00000000000000000000000000000000000A0
:10610000000000000000000000000000000000008F
:10611000000000000000000000000000000000007F
:10612000000000000000000000000000000000006F
:10613000000000000000000000000000000000005F
:10614000000000000000000000000000000000004F
:10615000000000000000000000000000000000003F
:10616000000000000000000000000000000000002F
:10617000000000000000000000000000000000001F
:10618000000000000000000000000000000000000F
:1061900000000000000000000000000000000000FF
:1061A00000000000000000000000000000000000EF
:1061B00000000000000000000000000000000000DF
:1061C00000000000000000000000000000000000CF
:1061D00000000000000000000000000000000000BF
:1061E00000000000000000000000000000000000AF
:1061F000000000000000000000000000000000009F
:1062000010B5054C237833B9044B13B10448AFF3F0
:1062100000800123237010BD083C00200000000016
:106220008054040008B5034B1BB103490348AFF386
:10623000008008BD000000000C3C002080540400D9
:10624000A3F5803A704700BF174B002B08BF134BD4
:106250009D46FFF7F5FF00218B460F461348144A71
:10626000121A19F07FF80E4B002B00D098470D4BF7
:10627000002B00D098470020002104000D000D489D
:10628000002802D00C48AFF3008019F02BF8200052
:10629000290000F00FFB19F011F800BF0000080002
:1062A000000000000000000000F00020083C00207A
:1062B000685F00200000000000000000074A002383
:1062C00032F8331021B1064B01221A7000207047BA
:1062D0000133042BF4D10120704700BF583C00204B
:1062E000543C0020064B002233F83210814202D188
:1062F00003EBC20070470132042AF5D10020704739
:10630000583C002038B50D46FFF7ECFF044678B145
:1063100043680BB128469847A17849B10139C9B201
:10632000A17029B920460822BDE8384019F01AB8F2
:1063300038BD000038B50378044673B9456855B1D7
:106340001B481C4B1C49C01AC00800042A4640F0D8
:1063500001000CF043FC194B1D60A5892846FFF78E
:10636000C1FF20B32378042B14D8022B1AD8013B89
:10637000012B17D9124B1A78CAB11249002031F8F3
:106380003020A2B901300428F9D11A70BDE8384094
:106390000CF0A4BE052BEDD1302200210A4818F0E4
:1063A000E1FFE7E761682846FFF7ACFFE2E738BDA9
:1063B0006456040024550400DC090400A8320020BF
:1063C000543C0020583C0020243C002038B51148A3
:1063D000114C0BF0C9FB054660B1104B1048114938
:1063E0001B1ADB081B042A4643F001000CF0F6FBE5
:1063F000256038BD0BF0CEFB054638B1074B084889
:1064000009491B1ADB081B042A46EDE72368082B01
:10641000EFD1FEE735630200A83200206456040085
:1064200024550400F70904000D0A04002DE9F04189
:106430001B4C16462268082A88B0074688461D4627
:1064400001D1FFF7C3FF206810BB7C1E4BF6FE7224
:10645000A4B294421FD808F1FF339BB293421AD8DA
:10646000DEB1D5B1CDE9010001AB05AA4146384600
:106470000BF04CFD60B903A905A80BF0A3FC38B9DB
:10648000049B3360039B5B882B8005A80BF0C0FC4A
:1064900008B0BDE8F0810720FAE70E20F8E700BF5A
:1064A000A83200202DE9F041404E98463368082B71
:1064B00088B004460F46154601D1FFF787FF3668BE
:1064C000002E65D1601E4BF6FE7280B2904261D8FC
:1064D0007B1E9BB293425DD8002D5DD02046CDE956
:1064E0000358ADF80840ADF80A70FFF7FBFE05460B
:1064F00020B9FFF7F7FE054600284FD0AB782C8077
:106500000133AB700E9B6B600023CDE90033BDF807
:106510000A10BDF808006B4605AA0BF0F7FC04460C
:1065200040BB02A905A80BF09BFC48F20663984209
:10653000044610D10BF0C4FCBDF808201C4B0446E7
:106540000C2101FB06F0C75A97421CD10C2202A96C
:10655000184418F0F9FE4CB1A97839B10139C9B223
:10656000A97019B90822284618F0FCFE204608B088
:10657000BDE8F08148F20963984211D102A905A84B
:106580000BF06AFCD1E70136042EDAD11124E3E7DF
:106590003446EBE70724E9E70E24E7E71124E5E7B3
:1065A00048F206639842D7D1C4E700BFA832002062
:1065B000243C0020F8B5194C2268082A06460F46EC
:1065C00001D1FFF703FF256815BB731E9BB24BF685
:1065D000FE7293421ED83046FFF784FE044618B977
:1065E000FFF780FE0446B8B1A37826800133A3707C
:1065F000676030460BF03CFC054648B1A17839B1E4
:106600000139C9B2A17019B90822204618F0AAFEB2
:106610002846F8BD0725FBE71125F9E7A832002039
:10662000FF2808B501D100F0B9FD0FF07DF960B188
:10663000064A074B07499B1ADB081B04024643F036
:106640000100BDE808400CF0C9BA08BD245504009B
:106650007C550400240A040037B50378042B044653
:1066600034D1D0E903052D1AADB2294600F0B0FDB2
:10667000024608B100205BE0A18A2069491B89B26B
:106680000FF0CCFB0928F5D00728F3D050B1294AE8
:10669000294B2A499B1ADB081B04024643F00100E0
:1066A0000CF09CFAE0680022294600F0A1FD08B930
:1066B00001203DE01F4A204B21499B1ADB081B04A7
:1066C000024643F001000CF089FAF1E7052BEFD107
:1066D000037B023B062BCDD801A252F823F000BF6A
:1066E000FD66020015670200756602001B67020066
:1066F000756602007566020025670200037C8DF84E
:10670000063083681B88ADF8043001A9042001F02D
:1067100083F8CDE700210920F9E70023019301A9BF
:106720000B20F4E710300FF00FF9B0FA80F04009B9
:1067300003B030BD245504007C550400400A040019
:10674000600A0400012808B50BD80021084601F0B2
:1067500015F80021012001F011F80021022001F0BC
:106760000DF8012008BD000008B50D4B1A78AAB13C
:106770005A6802B958601A78013AD2B21A706AB9E6
:106780005A78012A03D19A680AB158689047BDE83F
:10679000084003481022002118F0E4BD08BD00BFE6
:1067A000843C002008B51C4A13689BB3013B13606E
:1067B00083BB1A4B0120187001F028FE50B1184A13
:1067C000184B19499B1ADB081B04024643F00100D1
:1067D0000CF004FA01200FF097F850B1104A114B59
:1067E00012499B1ADB081B04024643F001000CF01F
:1067F000F5F90F480CF0EFFE60B1094A094B0D495D
:106800009B1ADB081B04024643F00100BDE8084068
:106810000CF0E4B908BD00BF783C0020803C0020AB
:10682000245504007C5504007D0A0400980A0400E5
:10683000B0320020B60A040008B5017881B940687A
:106840000FF028FBD0B10E4A0E4B0F499B1ADB0804
:106850001B04024643F00100BDE808400CF0BEB93D
:1068600001290BD140680FF087FB38B1044A054B72
:1068700006499B1ADB081B040246EBE708BD00BF74
:10688000245504007C550400CF0A0400EC0A0400DF
:1068900007B5037853B94FF6FF73ADF8043001A97B
:1068A00043788DF80630042000F0B6FF03B05DF8A1
:1068B00004FB0000F0B595B003F0B4FE08B10DF094
:1068C000DDF80CF019FE044650B18C488C4B8D4914
:1068D000C01AC0080004224640F001000CF07EF906
:1068E0000CF0C0FB054650B18548844B86491B1A05
:1068F000DB081B042A4643F001000CF06FF9834AC1
:10690000834801210CF02AFE002C08BF2C460546C6
:10691000002800F0EF807A48784B7E491B1ADB088C
:106920001B042A4643F001000CF058F9002C08BF64
:106930002C4620460DF0A2F877480DF1070100F033
:10694000C1FA08B10DF09AF802A80EF0ABFD0446AA
:1069500050B16B48694B71491B1ADB081B04224676
:1069600043F001000CF03AF96D4B039303A800F0DB
:10697000DBFE08B10DF082F80AAF2822002138466C
:10698000029D18F0EFFC08238DF828302E68B3889C
:106990008DF82930B3680B939DF8303023F00F0346
:1069A00043F00F038DF83030AA6807CA0DAB83E8B7
:1069B00007005C4B11930021182204A818F0D2FCA8
:1069C000B3788DF810303388ADF812306B680593CA
:1069D000554BCDE90637D5E9030108AB83E8030041
:1069E00004A802F08BFF08B10DF048F8029B1B6869
:1069F000DA680B921A690C925B690D9338464B4B1F
:106A00000A9303F077FD054668B13D483B4B484982
:106A10001B1ADB081B0443F001002A460CF0DEF8C9
:106A200028460DF02BF834B10121002000F0A6FE1D
:106A300003F0A2FEFCE73F4B012018703E4B1C60A8
:106A40000EF062FF08B10DF019F8012001F0DEFC34
:106A500008B10DF013F89DF80730FF2B03D100F0BB
:106A60009DFB8DF807009DF807000EF05DFF08B153
:106A70000DF004F8314D0EF0A1FF00F07DFE0CF09A
:106A8000D3FD296804460CF0CAFDB0F5A47F22D3DB
:106A90002C6001F05BFD044601F064FD032C01460F
:106AA00020D008BB013CE4B2012C98BF0221012098
:106AB00000F064FE01F050FD044601F058FD032C87
:106AC000014613D0A0B9013CE4B2012C98BF0221C9
:106AD000022000F053FE03F0C3FD0028CBD10CF0E0
:106AE000D7FAC8E70121E2E70321E0E70121EFE758
:106AF0000321EDE7002C3FF41FAF1AE77C5504009B
:106B0000245504000B0B04001F0B0400A5670200B2
:106B10000C0C04003E0B040021660200590B04001B
:106B2000E16B0200596602003968020091680200B8
:106B30006D0B0400803C0020783C00207C3C002051
:106B400010B51F4B1A78012A37D802221A701D4837
:106B500000224FF420310CF013FD50B11A4A1B4BA8
:106B60001B499B1ADB081B04024643F001000CF092
:106B700035F8022001F04AFC50B1134A134B154975
:106B80009B1ADB081B04024643F001000CF026F8B8
:106B900002200EF0B9FE044650B10B480B4B0E49D3
:106BA0001B1ADB081B04224643F001000CF016F808
:106BB0000A4B12221A60204610BD0024F8E700BFDD
:106BC000803C0020B0320020245504007C55040095
:106BD0007F0B04007D0A0400980A0400783C002022
:106BE00070B50646FFF7ACFF33780A2B70D00B2B3D
:106BF00014D0092B40F09680032001F007FC0546D5
:106C000050B15048504B5149C01AC00800042A46A0
:106C100040F001000BF0E2FF284670BD4C4C237899
:106C2000002B40F0848003232370012363704948C4
:106C30007368A36000F01AFB88B12378013BDBB2D4
:106C40002370636803B160603F4A3E4B42499B1A20
:106C5000DB081B04024643F001000BF0BFFF3D4878
:106C60000FF038F988B12378013BDBB223706368F9
:106C700003B16060344A334B38499B1ADB081B046C
:106C8000024643F001000BF0A9FF324801F096FCE8
:106C9000054688B12378013BDBB22370636803B1FA
:106CA00060602848284B2E49C01AC00800042A46B4
:106CB00040F001000BF092FFA368002BACD1244AF6
:106CC00012F8011B002934D10133102BF8D1A3E7AE
:106CD0001F4C23785BBB0123237063701D487368CE
:106CE000A36001F06BFC054688B12378013BDBB261
:106CF0002370636803B160601248134B1849C01ACF
:106D0000C00800042A4640F001000BF067FFA368AA
:106D1000002B81D10E4A12F8011B51B90133102BFF
:106D2000F9D179E73046BDE8704000F025B9082573
:106D300072E760687368984710220021044818F0D1
:106D400011FB69E77C550400245504009C0B0400EA
:106D5000843C002069670200BB0B0400D70B0400D1
:106D6000F40B040010B50D4C214614F81030C3F399
:106D700040029B0706D511F810305B07044604D586
:106D8000002208E00138C0B2EFE7431CD8B211F886
:106D90001430DC07EFD4104610BD00BFD032002005
:106DA000002270B5114600F110061446134605780E
:106DB00015F0020F1CBF01335BB215F0040F1CBFAE
:106DC00003F1FF335BB215F0080F1CBF0134E4B2CE
:106DD00015F0100F1CBF0131C9B2AD0648BF01321A
:106DE000DDB248BFD2B2012D0AD8022C08D0022948
:106DF00006D0022A04D00230B042D8D1012070BDA2
:106E00000020FCE7FF281649024607D10023D8B22C
:106E1000013311F81020D207F9D4704711F810305F
:106E20005B070BD4431CD8B211F81030DB0715D523
:106E30009042F3D113460CE0431ED8B211F8103043
:106E40009B07F9D5F0E70133D8B207284FF00002CD
:106E5000F0D811F81320D207D8B2F4D4704700BF8D
:106E6000D0320020FF281649024614D011F8103005
:106E70009B0714D4431ED8B211F81030DB071DD580
:106E80009042F3D1134614E00138C0B211F810302B
:106E9000DA07F9D470470720F8E7431CD8B211F895
:106EA00010305B07F9D5E7E7013B581C4FF00702AC
:106EB000E8D011F81320D207D8B2F5D4704700BF3C
:106EC000D03200201FB5002846D0002944D0234BE3
:106ED0001860234B23481A68824209D11A79083A6C
:106EE000D2B2F62A04D95A79083AD2B2F62A03D88D
:106EF0004FF6FF7218609A801B790B7003AA0DF190
:106F00000A03012143F2DE00FFF790FA044688B934
:106F1000BDF80A30052B0BD10399043108460191C5
:106F2000FFF73EFF019918B10F48102218F00CFA34
:106F300000240EE048F209639842F9D00B480C4B4C
:106F40000C49C01AC0080004224640F001000BF0B2
:106F500045FE204604B010BD0E24FAE7943C002004
:106F600000F00020BD34D330D03200207C55040026
:106F700024550400100C0400F7B50378082B0AD838
:106F8000DFE803F0052034094E73B77ABC00794B73
:106F90004FF6FF729A804FF6FE74764B187903F025
:106FA000D5FA30F0080349D0062847D0724A734B0F
:106FB00073499B1ADB081B04024643F002000BF0E6
:106FC0000DFE3BE06F4A002312F813100D0708D5A1
:106FD000DBB2684A1179994208BFFF2313715371DC
:106FE000D9E70133082BEFD1FF23F2E7654A0023ED
:106FF00012F81310CC060ED5DBB25E4A1179994215
:1070000008BF537913715B4A5F4B10791B6898472F
:10701000002003B0F0BD0133082BE9D1FF23ECE7DA
:107020008379544A8488082B28BFFF231371537136
:107030004FF6FF739C42B0D14FF6FE744D4BADF846
:1070400004401B798DF8063001A802F033FE0028B9
:10705000D9D0494A494B4D499B1ADB081B040246CB
:1070600043F002000BF0BAFDCDE7424C2079FFF768
:10707000C9FE207160718EE73E4E424F3379FF2B7F
:1070800032D10023DCB2013317F81420D007F9D431
:1070900025462346013417F813305A07E4B2F8D5D1
:1070A000082C28BF00242046FFF75CFE0028F0D003
:1070B0002544EDB2A54203D017F814305B0715D56F
:1070C00017F81430DD0703D52046FFF79BFE044672
:1070D000347174715FE7013CE4B217F814201D1B92
:1070E0009107EDB2F7D5D4E71C46F6E70134E4B2D8
:1070F000E0E7204C2079FFF7B5FEBAE71D4E214F9F
:107100003379FF2B31D1072317F813501C4615F0A4
:10711000010503F1FF33DBB2F6D12346013C17F83A
:1071200013309907E4B2F8D5072C28BF072420466E
:10713000FFF718FE0028F0D0651BEDB2A54203D082
:1071400017F814309A0712D517F81430DB07BFD59B
:107150002046FFF787FEBAE70135EDB25C19E4B2CD
:1071600017F814205007F7D5D7E70025F6E7013CBC
:10717000E4B2E3E700F00020245504007C5504004D
:107180002A0C0400D0320020943C00203D0C040066
:10719000014B1879704700BF00F00020064B00201B
:1071A00013F81020920601D5C0B2704701300828AC
:1071B000F6D1FF20704700BFD032002018B1034B3A
:1071C0000360002070470E20704700BFD0320020BF
:1071D00008B540B1102908D1FFF7E2FD002814BF1F
:1071E0000020072008BD0E20FCE70920FAE7000078
:1071F00073B50C461646054630B3102926D1FFF765
:10720000CFFD28B322462946124818F09DF82246A1
:107210001049114818F098F8104A009605230121EA
:1072200043F2DE00FFF73EF9044650B10C480D4B27
:107230000D49C01AC0080004224640F001000BF0BE
:10724000CDFC204602B070BD0E24FAE70924F8E711
:107250000724F6E7D0320020E4320020E03200209C
:107260007C55040024550400500C04001FB504464E
:10727000B8B110220021684618F074F80A4B0B4A86
:107280000B48CDE900330B4B6946CDE902231022B0
:1072900018F05AF8214643F2DE00FFF78BF904B0EC
:1072A00010BD0E20FBE700BF020004000300010038
:1072B000D03200200100050070B5264D2B788342A6
:1072C00004460BD12448254B2549C01AC0080004A8
:1072D000BDE8704040F002000BF07CBC0128214E5C
:1072E0001CD13068431C01D00DF04AFAF068411CF3
:1072F00001D00DF045FA1C480022A4210CF040F901
:1073000050B1164A144B19499B1ADB081B0402465C
:1073100043F001000BF062FC2C7070BD12480CF0C1
:107320005AF950B10D4A0C4B11499B1ADB081B044A
:10733000024643F001000BF051FC3068421C02D0C1
:1073400001210DF0D9F9F068431CE5D001210DF0C1
:10735000D3F9E1E7E13C0020CC55040024550400BA
:10736000670C0400983C0020F8320020820C0400D6
:107370009A0C040010B50DF043F9B0B1164B174844
:107380004FF0FF31042219605A72D9605A750121F9
:10739000134A0CF0E3F80446C8B11248124B1349E3
:1073A000C01AC008000422460BE00DF0EBF80446BA
:1073B0000028E3D00B480C4B0D49C01AC00800044C
:1073C000224640F001000BF009FC204610BD094B9D
:1073D00001221A70F9E700BF983C0020440D040018
:1073E000DD750200CC55040024550400D40C0400C3
:1073F000B20C0400E03C002030B4194A13689842F3
:1074000013D0D368984212D101210C2000FB01F463
:107410004FF0A0431519D3F810351459E3402C7AD6
:1074200003F0010374B1DBB20EE00021EDE70D487B
:107430000D4B0E49C01AC008000430BC40F00200D9
:107440000BF0C8BB83F0010300FB0122D27A9A4201
:1074500003D030BC0120FFF72FBF30BC704700BF06
:10746000983C0020CC55040024550400F40C040082
:1074700037B50446002843D0234B1B780BB9FFF7E0
:1074800079FF224B1A68013233D0DA68013239D1E0
:1074900001210C224A43206898509918237A0B72D4
:1074A00063684B60637A4B7203238DF804309DF858
:1074B0000630174A206823F007038DF80630237A38
:1074C000002B0CBF0323012301A98DF805300DF01B
:1074D000A1F8054678B10F480F4B1049C01AC008F3
:1074E00000042A4640F001000BF078FB284603B068
:1074F00030BD0021CDE7206801210DF0FDF8F5E752
:107500000E25F3E70425F1E7E03C0020983C00203D
:10751000F9730200CC55040024550400180D040032
:1075200038B50446D8B10368CBB10E4B1B780BB904
:10753000FFF720FF0C4A00230C2000FB03F18D58BD
:1075400055B925685550D8B25318A2889A80E28858
:10755000DA8022891A8138BD0133042BEDD1042051
:10756000F9E700BFE03C0020B03C00200328F7B55D
:1075700004460D462BD80C23164F4343FE18FB58E8
:107580002BB3728982B9012902D0002003B0F0BD6B
:10759000114601929847104B75811B78012BF4D04E
:1075A0002846FFF789FEF0E70029EED1F1889142E5
:1075B00007D2042198470C2000FB0474002262814A
:1075C000E3E7B188914234BF02210121F2E70720AD
:1075D000DCE700BFB03C0020E13C00202DE9F8438F
:1075E0000025DFF8D8902E464FF0A047A846D9F8DE
:1075F0000000431C25D0D7F8104599F80830C44046
:1076000004F00104002B44D184F0010499F80B30FC
:10761000A34216D099F80A305A1C032B89F80A2085
:1076200039D9D9F8043089F80B4089F80A800BB1B0
:107630002146984799F80900042802D82146FFF707
:1076400095FF09F10C0916B300271B4C3E46D4F8F0
:107650000080B8F1000F0ED0628962B123899A428E
:107660001BD10521F0B2C04700236381638913B1A8
:107670000133638101270136042E04F10C04E6D1A5
:10768000BDB9B7B93846BDE8F843FFF715BE0126C6
:10769000ADE7E4B2BAE70125D3E7E188B2FBF1F345
:1076A00001FB13239BB2002BE0D10321F0B2C047B2
:1076B000DCE7BDE8F88300BFB03C0020983C002028
:1076C00070B5154D154A2B78154E01332B70137874
:1076D00023B1013BDBB2137003B9F3700024E0B2B5
:1076E0000CB9F37803B9335D032B06D0022B0BD111
:1076F0002B7803F00303032B0BD1012101340EF08F
:107700002BFE032CEBD170BD012B02D12B78DB07B4
:10771000F3D40021F2E700BFEC3C0020E33C002062
:10772000E43C0020FFF7CCBF10B5B0B10368A3B1B3
:107730000B4A0C48136001210B4A0BF00FFF044663
:1077400048B10A480A4B0B491B1ADB081B0443F0DB
:1077500001000BF03FFA204610BD0E24FBE700BFEE
:10776000E83C0020640D0400257702002455040045
:10777000CC550400480D0400704700001C4B70B548
:107780001E4600241D4616F8012B02BB0134042CB2
:10779000F9D103282BD82C5C8C4228D02954002105
:1077A00013F8010BA8B901310429F9D15AB1114AD2
:1077B0001378013BDBB213702BB90F480BF00BFFB2
:1077C00008B10CF05BF9BDE87040FFF779BF01220A
:1077D000DFE7002AF7D107490B78581C0870002B07
:1077E000F1D14FF4005104480BF0CAFEE8E770BD38
:1077F000E43C0020E23C00201833002008B538B9F2
:1078000003210320FFF7BAFF024B06221A7008BDBE
:107810000121F6E7E33C002007B50B4B1B688BB159
:107820008DF8000009B10A6801920A38012804D8CD
:1078300009B10A680AB9054A01926846984703B037
:107840005DF804FB0E20FAE7E83C0020FD7702001B
:1078500074DF704775DF704776DF704777DF7047FA
:107860008CDF70478FDF70471FB5064B1B6833B145
:1078700000228DF808008DF8042001A8984705B073
:107880005DF804FB2C410020054B064902460648E2
:107890001B1ADB081B0443F001000BF09FB900BF6B
:1078A000B4550400680D0400245504000CF0E6B83B
:1078B0002DE9F041124B134CDFF84C80E41AE40838
:1078C000240494B00E4644F0010405464FF6FF77B9
:1078D000284607F0E7FDB84205460DD0694607F097
:1078E00013FE024620B1414620460BF077F9EFE740
:1078F0009DF80030B342EBD1284614B0BDE8F081CA
:1079000024550400B45504007D0D0400F7B501466C
:1079100006464FF6FF70FFF7CBFF002504464FF6F3
:10792000FF77BC4202D1284603B0F0BD0DF106013D
:10793000204607F093FD08B10CF0A0F8BDF8060052
:1079400004F08CFD022818BF01352046314618BFCF
:10795000EDB2FFF7ADFF0446E3E7000070B58CB071
:1079600004462C22002101A817F0FCFC40F2011370
:10797000ADF80830502240F6B833CDE90523012C8C
:107980004FF4C86307931ED0A31E012B94BF032698
:107990000026234B234D93F85400FFF759FF032C87
:1079A0001DBFAB78B3FA83F35B090123EB7004F0DE
:1079B000B3FD012809D10020FFF756FF00242C70E9
:1079C00020460CB070BD0426E3E7EB7823B9012014
:1079D000FFF79CFF0028EED054B9012310488DF822
:1079E000043001A903F0EBF92046FFF73DFFE6E77D
:1079F0000B4801A903F0E3F90948314603F09EF86A
:107A000004460028DCD0084B08480949C01AC008C1
:107A10000004224640F001000BF0E0F8D0E700BF80
:107A2000F03C00202441002024550400B4550400FB
:107A30009C0D0400032838B504460BD0042818D048
:107A400038B9184D2B78A34203D02046FFF70CFF1E
:107A50002C7038BD134B5878012803D1BDE838404D
:107A6000FFF77CBF9A78C2B1DB78002B08BF0224F5
:107A7000E7E70C4DEB7893B1AB7883B10120FFF7CA
:107A800045FF044638B9084B93F85400FFF7E0FE71
:107A90000023EB70D5E70124FAE70224D1E70124A3
:107AA000CFE700BF24410020F03C002007B5019043
:107AB00005F03DFC0D4B0E49019800221A700D4A4D
:107AC0000123FFF7CDFE68B10B4A0C4B0C499B1A02
:107AD000DB081B04024643F0020003B05DF804EB30
:107AE0000BF07CB803B05DF804FB00BFA0410020A0
:107AF000961004006210040024550400B4550400DC
:107B0000BE0D0400F0B5044685B00220FFF7FEFE6E
:107B1000064604F0F1FC074604BB05F008FC2546C8
:107B20001B4E3278A2420AD01A4B1B6833B1012295
:107B30008DF804208DF8084001A89847347055B19D
:107B40001548164B1649C01AC00800042A4640F0D2
:107B500001000BF043F8284605B0F0BD114A124869
:107B6000631E0E2101FB032105F074FC054608B1DC
:107B70000BF084FF022F07D8032C00D036B10A483F
:107B800005F032FC0546CBE70024C9E73446C7E7D9
:107B9000A04100202C410020B455040024550400CD
:107BA000E70D04007A1004004841002013B51321AA
:107BB0000190FFF751FE019A034660B10748084C57
:107BC0000849241AE408240444F0020002B0BDE885
:107BD00010400BF00CB802B010BD00BF24550400DB
:107BE000B4550400020E040013B5044608F0CEF8A4
:107BF000204607F007FF2378043B0C2B15D8DFE85D
:107C000003F02C1814141414141414160714290057
:107C1000A068294B1B6803B19847284B5878FFF799
:107C200071FF274B5878FFF799FE02B010BD002076
:107C3000EFE7234B60889B7853B1224B1B881A1ABD
:107C40005342534101A98DF8043007F0DDFBECE706
:107C50000123F7E707F0DCFBE7E7638941F206025F
:107C6000934226D1608804F0E7FB0228608813D194
:107C7000154B9B7B83B1012107F0B8FB0028D4D0C2
:107C8000124A134B13499B1ADB081B04024643F0AC
:107C900002000AF0A3FFC8E704F0CEFB012804D1DC
:107CA000084B62881B889A42BFD0204608F092F8A1
:107CB000BBE7B3F5885FF7E728410020A04100202B
:107CC000244100203041002034410020245504008C
:107CD000B4550400430E04007FB503881F2B0446EF
:107CE00000F0108108D8112B1AD01B2B00F0F78060
:107CF000102B54D004B070BD3B2B00F00981562BE3
:107D000000F00681212BF5D100238088ADF80430E6
:107D100001A9FFF7A7FD0028ECD00BF0AFFEE9E7C3
:107D20008588284604F088FB0128044621D17B4B36
:107D30001A88AA4204BF4FF6FF721A80784B1B685C
:107D400043B103228DF80420ADF808508DF80A40A5
:107D500001A89847734E33687BB104F0C7FB002835
:107D6000C8D107F0E7FB08B13368984700233360B8
:107D7000C0E70228E2D16C4BDAE7022CBAD16B4C97
:107D8000A389AB4206D12046FFF790FE4FF6FF7362
:107D9000A381AFE7664B5878FFF7B4FEAAE7858862
:107DA000284604F049FB0023CDE90133064603933E
:107DB0008DF80A0002230422294603208DF804309E
:107DC000ADF80850FFF74AFD50B15A4A5A4B5B498B
:107DD0009B1ADB081B04024643F001000AF0FEFE7A
:107DE000022E4AD15149072204F1080017F09EFAE9
:107DF00008B351484F4B5249C01AC008000440F024
:107E000001000AF0E7FE4A4C48480722002117F01B
:107E1000A9FA2278022A03D14A4B5878FFF79EFD2F
:107E20006078FFF76FFE3E4B1B68002B3FF462AF9C
:107E300001A898475EE78DF800006946284607F0DC
:107E400003FB9DF8001011F008010ED1284607F041
:107E5000CDFA50B1374A384B3B499B1ADB081B041B
:107E6000024643F002000AF0B9FE304B9B68002B3B
:107E7000C9D003932C4B1D80C5E7012ED3D1314CC3
:107E8000E678BEB1A378002B0CBF01230023E3707A
:107E9000224B1D8004D00220FFF7E6FC0223237052
:107EA00004F03AFB012814D10020FFF7DDFC002389
:107EB0002370B8E76946284607F0E2FABDF80020CB
:107EC0004FF6FF739A42EBD131462846FFF76EFE1C
:107ED000E6E70120FFF71AFD0028E5D0A3E7037AC3
:107EE000022B7FF407AF124C10480722002117F035
:107EF00039FA2278032A03D1124B5878FFF72EFD66
:107F0000607849E700F108018088FFF7A3FC02E7E9
:107F1000A0881321FFF7A0FCFDE600BF3041002040
:107F20002C41002028410020444100203441002001
:107F3000A041002024550400B4550400760E04002E
:107F4000980E040024410020B40E04002DE9F04FE7
:107F5000037887B00646042B40D8DFE803F04F03D0
:107F60004F3F420002214FF6FF70FFF7A1FC0025B2
:107F700004464FF6FF76B4422ED0072D12D929467B
:107F800002A807F04DFA08B10BF078FD294602A8C7
:107F900007F050FA43F2042290421FD0F0B10BF0E8
:107FA0006DFD1BE001A92046ADF8046007F056FA0C
:107FB000BDF8040004F052FA02281CBF06AB03EB24
:107FC000450320464FF002011CBF23F8104C013539
:107FD000FFF76EFC0446CEE7002DD0D107B0BDE818
:107FE000F08F534B5878FFF78DFD524B9A78022A49
:107FF00014BF58780320FFF7B1FCEFE744684E4800
:108000000023072202A90293CDF80B3017F08EF956
:1080100048B14A484A4B4B491B1ADB081B0443F042
:1080200001000AF0D7FD484F484DD4F81890B4F835
:108030001CA0ED1B2D094FF0000B5FFA8BF39D4246
:1080400041D8434DA069A18B40F20113ADF8043033
:1080500001AA2B788DF8063003F078FF90B1234603
:10806000354A53F8020F1060997998889171002170
:10807000908091603178B1FA81F149091846917385
:10808000FFF714FD40F20133A069A18BADF8043075
:1080900001AA2B788DF8063003F058FF00289DD0F8
:1080A00054F8020F244BA2791860A1889A7100221B
:1080B00099809A603278B2FA82F2520920469A7315
:1080C000FFF7F4FC8AE71A0107EB03185146BB5887
:1080D000484698470BF1010B0028AED0144B9B7813
:1080E000002BAED12346144D53F8020F28609A7925
:1080F0009988A980AA71C5F808803278154FB2FA1C
:1081000082F252093888AA734FF6FF72904203D167
:108110001846FFF7CBFC94E73178002991D1AB8961
:1081200083428ED0FFF742FD3B88AB8189E700BFD9
:10813000A0410020244100203441002024550400A7
:10814000B4550400D10E0400C4560400E4560400E3
:10815000A441002044410020F0B50546AFB00028FE
:1081600000F0DB808C4B02681A600021782203A8A3
:1081700017F0F8F82C22002121A817F0F3F850216D
:1081800040F6B833CDE925134FF4C863279340F286
:108190000133ADF804306B798DF8063040F20112EE
:1081A0008DF80A307D4BADF88820ADF808202A798B
:1081B0009A7002238DF80C3006238DF80F300123BE
:1081C000ADF814308DF84A30ADF85030744B2C9324
:1081D00001AF744B7448069702AE03A915962D9310
:1081E00002F02DFC50B1714A714B72499B1ADB08A9
:1081F0001B04024643F001000AF0F0FC6A4C012126
:10820000204602F019FC94F8541004220120FFF7D4
:1082100025FB044650B16648644B6749C01AC00844
:108220000004224640F001000AF0D8FC634A4FF6F1
:10823000FF731380002C4BD161496A790A708DF865
:108240000A20604A60489381604A069441F6120110
:108250001380ADF804105E4B039340F201315D4B87
:10826000ADF8081001255C4A049403A98DF8065066
:1082700005938DF8185005F05CF80446E8B95248AB
:108280003A46032105F020F8044620BB4E4832460A
:10829000032105F019F80446E8B902461F214A48AF
:1082A00005F031F8044600285ED041483F4B4B4969
:1082B000C01AC0080004224606E03D483B4B48492E
:1082C000C01AC0080004224640F001000AF086FCF3
:1082D00020462FB0F0BD3648344B4249C01AC00882
:1082E00000042246F0E703A807F076F8044638B108
:1082F0002F482E4B3C49C01AC00800042246E3E731
:108300003A4807F051F8044648B12948274B384904
:10831000C01AC00800042246D6E70E24D8E701465A
:108320001C2203A817F01EF8324B03934FF4A0321F
:108330004FF4F023CDE9042303238DF8183003A86C
:108340002D4BADF81A4008948DF81C50099303F09A
:1083500049FF04460028BBD01548144B2749C01AD2
:10836000C00800042246AFE7254A264B024000F031
:10837000FC0040F0030413438DF81040039306F013
:108380008BFF04460028AED00948084B1E49C01A8E
:10839000C0080004224697E72C4100202441002019
:1083A000357A020089780200F03C00202455040050
:1083B000B4550400030F0400270F040030410020CF
:1083C000A4410020344100204841002044410020C5
:1083D0007A100400621004004D7F0200870F040031
:1083E0004A0F04006B0F0400C90F0400E97B020070
:1083F000ED0F040072100400AD78020018100400A4
:108400008E0000FC31071003A40F04002DE9F04F8B
:10841000454D6B7801288CBF00220122012B8CBFB7
:10842000002301239A428FB004464BD001283F4AD3
:108430003F4EDFF814B18CBF0823002303A802EBE2
:10844000030804F085F83B4BF61AF60836040027BB
:1084500046F001060DF11009BA46039BBB4217D83E
:10846000032C354B31D119786E7803292ED0334B3C
:1084700093F85400FFF7ECF90020FFF7F5F900231B
:1084800020462B706E700FB0BDE8F04FFFF73ABB7F
:1084900039F8023B0193184603F0E0FF0228019BE4
:1084A0000ED14146184603F0D7FE824640B143F252
:1084B0000203984204D00246594630460AF08EFB29
:1084C0000137CAE74FF0000ACAE726465978A142A9
:1084D00006D0032C04D020465C70FFF713FB8246C5
:1084E000A978012913D1164B187880B919706E70CC
:1084F000BAF1000F02D00320FFF730FA1CB911487F
:10850000214604F075F850460FB0BDE8F08F6B7847
:10851000B342F3D06E703046BAF1000FECD1FFF7E2
:108520001DFA8246EAE700BF244100206A100400D9
:10853000B455040024550400A0410020F03C002064
:10854000A3410020AD7B020045100400014B1878C8
:10855000704700BF24410020014B1878704700BFCE
:10856000A041002008B503F0D7FFC0B208BD08B590
:1085700003F0C2FFC0B208BD00487047721004008B
:108580000148002104F034B8AD7B0200094A937819
:1085900050B101339370084B18884FF6FF7398421F
:1085A00006D00021FFF702BB13B1013B9370704767
:1085B000704700BFA04100204441002070B5044630
:1085C0000B4E04F0B4FE0020FFF7C8F909483460F0
:1085D000002104F00DF8054640B906F0ABFF044653
:1085E00010B1336898473560204670BD0024FBE722
:1085F00028410020AD7B0200A8DF7047ADDF704747
:10860000AEDF7047B0DF704762DF704770B5094B6F
:108610001B780A25013B4E195A1C01D1002407E0A2
:1086200005FB03F28C180A3A013BB25A8242F3D19D
:10863000204670BDA541002070B50C4686B00646A8
:10864000154600211822684616F08CFEE36A8DF864
:108650000060CDE901450BB16846984706B070BD92
:1086600070B5054686B08B79ADF806300C46102201
:10867000002102A816F076FEAB89ADF80830002381
:10868000ADF80C300DF106030226049320888DF816
:108690000A60E31D02A90593FFF7B2FF40B9A27972
:1086A000BDF806309A420ED10323637106B070BD47
:1086B000132806D0002363712B6B002BF6D098474C
:1086C000F4E76671F2E70C20F4E700002DE9F047CB
:1086D000C94B90B000AF904603F1100C07F11002A7
:1086E000054689461646E24618685968144603C48A
:1086F000083363452246F7D1002D00F07B81B8F1A5
:10870000000F00F0778198F8011021B1D8F80430FB
:10871000002B00F06F8198F80030002B00F04B81A7
:108720000023DAB2914200F23481B9F1000F00F077
:108730004281B24B83F80090D8F81C30EB62D8F835
:1087400020302B634FF6FF7109F1FF395FFA89F989
:10875000B9F1FF0F40F0318129463046FFF754FF51
:108760000446002840F010812A46391D12F8023BC9
:10877000BB71012040F20133BB80FFF73DFF04468F
:10878000002840F001812022BAF800303B810146E8
:10879000B81887F80A9016F0E5FD2A4640F2023331
:1087A0003B8412F8043B87F82230954B688807F128
:1087B0000806C7E90936BB8D23F4875323F01F034E
:1087C00043F4805343F00103BB8507F120010123EB
:1087D00087F8333003F060FF0446002840F0D4806F
:1087E00020220146B81816F0BDFD98F801305B0054
:1087F0000B3303F47E73E946ADEB030D98F80030BC
:1088000085F8243098F8013085F82530B8F808301C
:10881000EB8498F800308DF8003098F801308DF82E
:10882000013069460DF1020CE2B293420CF1020CE8
:1088300000F2C9805A1CB8F8080001F8120002338F
:1088400001EB42025B00000A5070FB8440F20332ED
:10885000BB8497F82D303A842A7887F82220B962B1
:1088600043F00203688887F82D304FF0010A324642
:1088700007F1200187F831A003F00EFF0446CD4632
:10888000002840F0818020220146B81816F06AFDC9
:108890002A464FF441733B8412F8143B87F8223088
:1088A000B8F81430FB84BB84D8F80C30BB6297F85E
:1088B0002D30688887F834A023F00A0343F00A03B8
:1088C00087F82D3040F201133B8607F1200198F81C
:1088D000183087F8323003F0DFFE0446002853D109
:1088E000B8F814302B85142B08D9D8F8240028B1F7
:1088F000A98A04F003F80446002845D1202200216B
:10890000B81898F8194016F02DFD2A4640F20533A4
:108910003B8412F80C3B87F822301423BB84688810
:1089200087F8324042F601034FF0010807F12001B9
:1089300087F83340BB8587F8308003F0ADFE0446EE
:1089400010BB202201463881B81816F00BFD2A46CC
:1089500040F206333B8412F81C3B87F82230294B47
:10896000688887F83380C7E90936BB8D23F48753BD
:1089700023F01F0343F4805343EA080307F1200167
:10898000BB8503F089FE044620464037BD46BDE85E
:10899000F087D8F8044003EB4302A018A45C54B15C
:1089A00042780F2A07D8944205D982780F2A03F11A
:1089B00001037FF6B6AE0724E6E76A6B09EB89038D
:1089C00022F81310C0E6D8F804A004EB440E0AEB1A
:1089D0000E02013450789278120342EA00201AF80D
:1089E0000E20024312B20CF8022CC2F307220CF83C
:1089F000012C19E70E24C7E7A4100400A5410020AC
:108A0000080003000A000200F0B505468BB00C46D2
:108A100049B140B10388572B05D84F2B05D8102BEF
:108A20001AD0112B64D00BB0F0BD503B072BFAD8F5
:108A300001A252F823F000BF418B0200FB8B020021
:108A4000278A02000D8D0200278A0200278A020071
:108A5000278A0200338D0200496B4FF6FF70FFF743
:108A6000D5FD064620B9236B002BDCD00520F6E0AF
:108A7000AB8803800822002104A816F073FC0223AF
:108A80002189A888CDF814D004AA0493FFF7B6FD75
:108A9000074650B9059803F0E8FD30B10123B370E3
:108AA000324621463846FFF7C7FD218AA88804AA26
:108AB000FFF7A4FD50B9059803F0DBFD30B10123A9
:108AC000F370324621460220FFF7B6FD218CA888BC
:108AD00004AAFFF793FD0028A5D1059803F0C5FD72
:108AE0000028A0D00123B37032462146062040E082
:108AF000496B8088FFF78AFD05460028B3D083784C
:108B000033B100238370024621460120FFF794FD14
:108B1000EB7833B10023EB702A4621460320FFF7A0
:108B20008BFD2B7933B100232B712A462146072078
:108B3000FFF782FD4FF6FF732B8000236B7172E706
:108B4000C3880A899A421CD1496B8088FFF75EFD71
:108B50000646002887D02B8A022B7FF464AF05F1EC
:108B6000120003F082FD38B10123B3703246214672
:108B70000020FFF761FD56E7B07032462146012024
:108B8000F7E70A8A9A421BD1496B8088FFF73EFDBE
:108B9000064600283FF467AF2F8A022F7FF443AFC9
:108BA00005F1120003F065FD28B10123F370324690
:108BB00021463846DDE7F070324621460320D8E7EB
:108BC0000A8C9A427FF42FAF496B8088FFF71EFD15
:108BD000064600283FF447AF2B8A022B7FF423AFD1
:108BE00005F1120003F041FD10B1012333717BE761
:108BF0003071324621460720BBE78379022B7FF490
:108C000012AF837B013B022B3FF60DAF02898B89AC
:108C10009A427FF408AF8788496B3846FFF7F6FC25
:108C2000064618B9236B0BB10520984702238DF82F
:108C300000300023CDE902339DF8063043F00103F4
:108C40008DF806306EB9012369463846ADF8043018
:108C5000FFF7D8FC80B1236B002B3FF4E4AE9847BC
:108C6000E1E6F3782BB17379002BEDD04FF4FF736D
:108C7000EAE740F2FD13E7E7BDF80430002B7FF48C
:108C8000D2AE002E3FF4CFAE02237371297D8DF852
:108C90001C1020216A8AB371F1719DF81C10317289
:108CA00003230139B371072907D8DFE801F02B044A
:108CB0002B062B060623022A09D073727379022B26
:108CC0007FF4B1AE31462046FFF7CAFCABE6012384
:108CD00073726B7D8DF82030E36A002BEED0052295
:108CE000CDE905468DF8102004A898470028E5D165
:108CF0000423E2E701231535013A73720895ADF8B4
:108D00002420E9E7012AD8D17272E5E7496B80880F
:108D1000FFF77CFC00283FF4A6AEEA88A3899A42BC
:108D20007FF481AE4379032B7FF47DAE0023437142
:108D300079E6094B1D78013DEDB2FF2D3FF473AE8E
:108D4000636B05EB850103EB41014B79022BF2D1FB
:108D50002046FFF785FCEEE7A5410020B0B588B0BE
:108D60000D46018DCB1D0446DB086846A0EBC3030E
:108D700000AF9D46E36AF9800BB9002022E05388DA
:108D8000A18A9942F9D1BB1D6A46284603F0D1FD5C
:108D9000D8B90423616B68883B72FC60FFF736FC2E
:108DA00094F8243038610DEB4303BB61FB88BB832F
:108DB000C7F814D0E36A07F1080098470028DCD10F
:108DC0004FF4C0702037BD46B0BD236B002BD4D00C
:108DD0009847D2E7F0B50E4689B0054600284AD03C
:108DE000002A48D000238DF80830137851788DF888
:108DF0000A10D80741BF50888DF80B00000A8DF883
:108E00000C004CBF0524032499078DF8093006D5C2
:108E100008A8611C0444107904F8180C8CB213F0F3
:108E2000040F02AF06D0D3883B553A191B0A02340F
:108E30005370A4B2102200210DEB0200ADF80640E1
:108E400016F090FAAB88ADF8103001238DF812308F
:108E50000023ADF8143004A90DF106033046CDE926
:108E60000637FFF7CDFB20B9BDF80630A34218BF87
:108E70000C2009B0F0BD0E20FBE7A4DF704762DFD5
:108E80007047000070B5094B1B780A25013B4E194D
:108E90005A1C01D1002407E005FB03F28C180A3AA2
:108EA000013BB25A8242F3D1204670BDA641002058
:108EB00070B58AB004460D4616460021202202A84D
:108EC0008DF804308DF8051016F04CFA0A4A206926
:108ED000ADF81A60CDE9042401AA08924FF40032DB
:108EE0000123079202A92A468DF808308DF8183020
:108EF00004F0BEF80AB070BDFD8E020070B5094BDB
:108F0000044609481B1ADB081B040D4643F0010008
:108F1000064909F063FEEB681BB12046BDE87040CE
:108F2000184770BD6C55040024550400B7100400A8
:108F30002DE9F04F0B7887B00446002B3AD1888892
:108F400040F20132904235D188792278904231D175
:108F5000CDE90333488891F80890ADF808001E4623
:108F60001D461F469E469C461A4640F2053A40F270
:108F7000063B914521D8BEF1000F03D0ADF80CC0DF
:108F8000ADF80E701EB1ADF81050ADF8123061683A
:108F9000FFF778FF034628B103AA03CAC3F802000B
:108FA000C3F80610A3682BB100228DF8042001A994
:108FB0002046984707B0BDE8F08FB1F80E80D04545
:108FC00007D1B1F816C00F8B4FF0010E01321231EC
:108FD000CFE7D84502BFCD8A0B8B0126F6E700000C
:108FE00073B50D4616460446002839D0002A37D0FE
:108FF000002937D01C480DF10601FFF740FF68BB80
:1090000040F20133ADF804309DF806302370336828
:10901000A3607368E360B3682361144B0A221D7078
:109020006FF0090312FB05324FF6FF7603466168C5
:109030008E5261681144013D4B806168114415F006
:10904000FF058B8061681144CB8061681144A2F1F7
:109050000A020B81EBD101A802F072F802B070BDD8
:109060000E20FBE70720F9E7ED100400A6410020E1
:1090700070B5044686B00D4699B190B10388382B7F
:1090800000F08A80392B0ED0112B0AD149688088D4
:10909000FFF7F8FE28B14FF6FF73038000234380EB
:1090A000838006B070BD1422002101A816F05AF981
:1090B0006968A088FFF7E6FE06460028F1D04388DD
:1090C0006189994218D10088FFF7D7FE02228DF8F6
:1090D0000420AA68E389029672B1217C20290BD171
:1090E000033B022B08D9637C8DF80C30A37C8DF8F0
:1090F0000D3001A9284690476289F3889A42D0D161
:109100000296AE68E18903238DF80430002EC8D0A2
:10911000CB1E012BC5D9637C227C42EA032212B20A
:10912000ADF80C204B1FD0B2D2069BB228D412341B
:1091300082070AD5012BB4D9617814F8022B023BBF
:1091400042EA0122ADF810209BB241070AD5012B5B
:10915000A7D9617814F8022B023B42EA0122ADF84C
:1091600012209BB2020707D5012B9AD96278237887
:1091700043EA0223ADF8143001A92846B04790E72E
:10918000012B8ED9E27CA37C43EA0223ADF8163092
:10919000CB1F14349BB2CBE749688088FFF772FE7F
:1091A00000283FF47EAFE08800283FF47AAFEB68F8
:1091B000002B3FF476AF984773E70000F0B50D46FB
:1091C0008BB016460446002835D041682846FFF784
:1091D00059FE0746002830D02022002102A816F0B0
:1091E000C1F8184ACDE9042401237A888DF80830A3
:1091F0008DF818303378ADF81A2001AA08928DF84E
:1092000004304FF48032013B0792042B04D8DFE88E
:1092100003F016061603160007200BB0F0BD3379D5
:109220008DF80530206902232A4602A9ADF81E30C8
:1092300003F01EFFF1E70E20EFE70520EDE7062023
:10924000EBE700BFFD8E020070B50D4616460446E2
:1092500088B141682846FFF715FE70B1828872B167
:10926000002E2946204618BF0223BDE8704008BFE3
:109270000023FFF71DBE0E2070BD0520FCE7062071
:10928000FAE737B50D460192044670B141682846A9
:10929000FFF7F8FD60B1028962B1019B29462046C3
:1092A00003B0BDE83040FFF703BE0E2003B030BD71
:1092B0000520FBE70620F9E770B50D461646044683
:1092C000B8B141682846FFF7DDFD28B94FF6FF70B9
:1092D000FFF7D8FD78B105802EB13368C0F80230B1
:1092E0007368C0F8063020692946BDE8704003F075
:1092F0005FBF0E2070BD0520FCE78B6903B11847E6
:10930000704707B5E8B1E1B101238DF8063041F6A9
:109310001203ADF804304FF6FF730360002383801F
:109320000A6882614A68C2618A680262C0E90233DF
:10933000C0E90433C38001A801F002FF03B05DF867
:1093400004FB0E20FAE72DE9F043064689B00C46EF
:1093500041B138B10388382B3DD006D8112B28D025
:10936000362B4AD009B0BDE8F083392BFAD1828878
:109370000B889A42F6D14389CA889A4227D08A89B3
:109380009A4226D04A8A9A42ECD102238DF80E30B6
:1093900006F110030293F389ADF80C30E36904225F
:1093A0008DF80420002BDDD00DEB020120469847FC
:1093B000D8E782880B889A42D4D100234FF6FF70F9
:1093C000C1E90003C1E90233C1E90433CAE700235C
:1093D000DCE70123DAE70A8883889A42C2D101F1E7
:1093E0001205F08828B1328923899A4201D10AF006
:1093F00045FB0634AC42F4D1B4E70A8883889A422C
:10940000B0D142894B889A4226D10422002102A879
:1094100015F0A8FF0223727C8DF80430337C43EAF8
:109420000223F27CADF80830D107B37C8DF80A3006
:1094300042BF9DF80B3043F001038DF80B309307CA
:1094400042BF9DF80B3043F002038DF80B30E36907
:1094500013B101A9204698477289A3889A420DD179
:1094600003238DF8043006F110030293F389ADF85D
:109470000C30E36913B101A920469847012506275E
:109480004FF0050806F1100907FB05F37289E35A4E
:109490009A420ED16B1E8DF80E30F389ADF80C3068
:1094A000E3698DF80480CDF8089013B101A9204636
:1094B00098470135042DE7D1002504F10A08062755
:1094C00007FB05F3728938F803309A420ED1337CDA
:1094D0008DF80930737C8DF80A30E3698DF80470DB
:1094E0008DF8085013B101A9204698470135032D86
:1094F000E6D137E730B504468BB020B3022924D833
:10950000062303FB01018DF804200D892022002190
:1095100002A88DF8051015F025FF0D4A206AADF858
:109520001A50CDE9042401AA08924FF40032012315
:10953000079202A922888DF808308DF8183003F0C0
:1095400097FD0BB030BD0E20FBE70720F9E700BF09
:10955000FB92020030B480B1018052B1831C02F151
:10956000140452F8045B43F8045BA242F9D1128858
:109570001A8030BC006A03F01BBE0E2030BC70475E
:1095800078DF70477ADF70477CDF7047054B06490C
:10959000024606481B1ADB081B0443F0010009F0D1
:1095A0001DBB00BFB455040008110400245504007D
:1095B000054B0649024606481B1ADB081B0443F00C
:1095C000010009F00BBB00BFB455040015110400E5
:1095D00024550400054B0649024606481B1ADB08C1
:1095E0001B0443F0010009F0F9BA00BFB4550400B0
:1095F000221104002455040038B50378022B0446D8
:109600005BD18379012B0FD181882C4803F0DAF9E3
:1096100050B12B4A2B4B2C499B1ADB081B040246EA
:1096200043F0020009F0DAFAA2684AB3274DD36882
:10963000EB61A3685B689847A18802462846FFF75C
:1096400089FF50B11E4A1F4B21499B1ADB081B049E
:10965000024643F0020009F0C1FAA3681B489B6868
:109660000121984748B3164A164B1A499B1ADB0842
:109670001B04024643F00200BDE8384009F0AEBAD0
:10968000A1881548FFF718FE50B10D4A0D4B13493C
:109690009B1ADB081B04024643F0020009F09EFA05
:1096A000A1880F4801F06EFD38B1054A054B0D4900
:1096B0009B1ADB081B040246DCE738BDBC460020D1
:1096C00024550400B4550400361104003C46002023
:1096D000511104006C110400243900208D11040084
:1096E00038330020A811040070B583680446188838
:1096F00002F0A2FE0128054604D12378022B08D0EF
:10970000032B0ED00D4B1B68ABB12046BDE870405B
:1097100018470B4E3378002BF4D1FEF737FF357026
:10972000F0E7074D2B78002BECD00020FEF72EFF42
:1097300000232B70E6E7184670BD00BFB846002036
:10974000B04600200A4601460148FFF707BB00BFAC
:10975000383900200AF092B901460148FFF7E8BB0A
:1097600024390020F0B583B000AF08B3124D2B6848
:10977000F3B10388502B1BD10389B3F5285F17D1B0
:10978000048A04F108036E46DB08A6EBC3039D467A
:1097900000F112012246684615F0D6FD00230DF8AF
:1097A00004303B70C7F804D02B6838469847B5465C
:1097B0000C37BD46F0BD00BFB446002008B50328F5
:1097C0001DD8DFE800F0022309150020FEF71EFE79
:1097D000BDE80840FEF7D4BE0D480E4B0E49C01A36
:1097E000C0080004BDE8084040F0010009F0F2B9EB
:1097F0000748084B0949C01AC0080004F2E70448AA
:10980000044B0749C01AC0080004EBE708BD00BFBD
:10981000B455040024550400CA11040003120400C6
:109820003012040037B50B7805460C4633BB0122D5
:109830008988FFF709FD024658B1062809D0164865
:10984000164B17491B1ADB081B0443F0010009F0F3
:10985000C5F9A18801222846FFF713FD60B106284B
:109860000AD00D4A0D4B0F499B1ADB081B04024618
:1098700043F0010009F0B2F903B030BD032BFBD176
:10988000094B1B68002BF7D0012208348DF800200B
:10989000019468469847EFE724550400B455040046
:1098A0005712040083120400B446002007B50B8849
:1098B000834218D002238DF800306A468B788DF8E9
:1098C000043001460948FFF779FC60B105280AD049
:1098D000074A084B08499B1ADB081B04024643F061
:1098E000010009F07BF903B05DF804FB2439002086
:1098F00024550400B4550400AB1204002DE9F041D6
:10990000054698B0002800F0BD818368002B00F068
:10991000B9819E4A136001F0F9FF30F00403044658
:109920000BD09B489B4B9C49C01AC00800042246A0
:1099300040F0010009F052F944E00AF0AFFA50B1EA
:10994000944A934B95499B1ADB081B04024643F04B
:10995000010009F043F9002308A9012008930AF047
:109960003BF950B18B4A8A4B8D499B1ADB081B048B
:10997000024643F0010009F031F908A80AF0E0F9C5
:1099800050B1844A824B87499B1ADB081B0402466C
:1099900043F0010009F022F96C886E68FEF7ECFDD7
:1099A00002460068516808AB1F2C03C30ED9794BDF
:1099B00077487D49C01AC008000440F0010009F052
:1099C00009F90924204618B0BDE8F081B4B111238B
:1099D0008DF8103031680191084615F0D3FC0199DB
:1099E00082B204A8FFF7D0FD044650B16848694B25
:1099F0006E49C01AC0080004224699E78DF810404D
:109A0000E8E7308AFFF7BCFD044638B16048614B97
:109A10006749C01AC0080004224689E708A8FFF772
:109A2000B1FD044678B901466248EF686E6803F0FC
:109A3000FFF8044678B15648564B5F49C01AC00833
:109A40000004224674E75248524B5C49C01AC008D1
:109A5000000422466CE701460290402208A815F057
:109A600081FCD5E9040105AB83E80300544B049362
:109A70005448554B079304A902F018FF044638B127
:109A80004348444B5149C01AC008000422464FE7DE
:109A9000716811B108A802F0F6FDB16811B10AA809
:109AA00002F0F1FDF16811B10EA802F0ECFD484999
:109AB00010A802F0E8FD012308A88DF85C3001F041
:109AC0000FFD064660B1334B31484249C01AC00809
:109AD0000004324640F0010009F080F8344671E796
:109AE000F7B140F202233B833B4BFA691A603B4BD0
:109AF000FB613B4B3B62334B3A481A78002A08BF64
:109B000000237B623A460421FEF7E0FD044638B1AB
:109B10001F48204B3449C01AC0080004224607E7FA
:109B2000324B029302A801F075FE044608B10528E5
:109B300019D12F4B2F4FFF1AFF089846F3B29F42BF
:109B400019D82D4B2D4E029302A8039601F0DCFA92
:109B50000446002858D00E480E4B2949C01AC008A8
:109B600000042246E4E60A480A4B2649C01AC00807
:109B700000042246DCE608EBC30258F83330506894
:109B80009847013604460028D8D01BE7B446002089
:109B9000B455040024550400C2120400D912040074
:109BA000041304002913040044130400CF0A040022
:109BB00061130400A8410020BC13040084130400B6
:109BC000B1950200BC46002045970200CF13040067
:109BD000E1130400EC130400B8460020E9960200EB
:109BE0008D9502003839002015140400BD9702003D
:109BF000F856040000570400599702000839002065
:109C000053140400391404001F4B2048059404A980
:109C100004930696FFF775FB044638B11C481D4BAC
:109C20001D49C01AC0080004224681E60A961B4E50
:109C30001B4B099308AA1B4B089304213046FFF7DE
:109C4000CFF90446B0B92B788DF8243033788DF8ED
:109C5000253008A8144B0893FEF77EFA0446002826
:109C60003FF4B0AE0A480B4B1049C01AC0080004BC
:109C700022465DE60648074B0D49C01AC00800049D
:109C8000224655E60E249DE6559702003C460020EC
:109C9000B455040024550400741404002439002031
:109CA000D595020025980200F9950200B914040028
:109CB0008E140400014608B5034802F099FC002800
:109CC0000CBF0520002008BDAD9802002DE9F3412E
:109CD000002846D000234288CDE9003303788DF870
:109CE00001303AB19DF80030ADF8022043F0010395
:109CF0008DF8003090F9042002F12803DBB27D2BAF
:109D00009CBF9DF800308DF80420C2889CBF43F0B2
:109D100002038DF800303AB19DF80030ADF806200E
:109D200043F004038DF8003000250F4E0F4F2C46F2
:109D30004FF6FF783188414507D0B3782BB16A469A
:109D400038465CB9FFF746F804460135042D06F1A4
:109D50000A06EFD1204602B0BDE8F081FFF73AF8DD
:109D6000F3E70E24F6E700BF8846002038390020CC
:109D700042DF704710B5421EFF2012F8013F5840E5
:109D8000082300F00104400814B180F08C00C0B238
:109D9000013B13F0FF03F4D1013989B20029ECD162
:109DA00010BD30B58478C378A3422AD945780279AA
:109DB000032D22D8611C04F00704C9B2072C0378D4
:109DC000817008BF00EBD1014FEA430314BFD9B241
:109DD0004979017003F48073191E02F0010418BF61
:109DE00001219C420DBF0135002361F30002457043
:109DF0001CBF43700271084630BDD34303F001031A
:109E0000EAE70023C3700121F5E70000014B0022BF
:109E10001A8070470447002038B50279002363F3A5
:109E200000028370437002718B780333DB00C370D0
:109E30000B78037043714A788B7803EB02138371BC
:109E40000D468A7804460331073015F07DFAAD7867
:109E5000601DA91CFFF78EFF2C44E07138BD000087
:109E600010B5094C20460AF05DFE38B12268D2F8E0
:109E70004C355F33DBB2C2F8443510BD2046BDE837
:109E800010400AF035BE00BF783900201FB51C4CC9
:109E90006368013314D01B480AF044FE90B119489E
:109EA0000AF04CFEE368013310D1164800210AF095
:109EB00064FE6268012393404FF0A042C2F80C3563
:109EC00004B010BD0F480AF013FEEBE70E4B0F482D
:109ED0009A1C00921B88019300226946CDE9022258
:109EE0000AF062FF0028EBD0094A0A4B0A499B1A84
:109EF000DB081B04024643F0010008F06FFEDFE7B9
:109F0000DC4600207839002004470020703900200A
:109F100024550400BC550400181504002DE9F04335
:109F2000B0F5A07F89B020D16F4B5C68611C16D062
:109F3000DB68013313D16D48FFF733FF0123A340E2
:109F40004FF0A04270B1C2F80835684AD17831B9F3
:109F50004FF0A0426648C2F808350AF022FE09B068
:109F6000BDE8F083C2F80C35EFE7B0F5A27FF6D17B
:109F70004FF0A0435F4CD3F810555B4B67789A685D
:109F8000032F25FA02F505F0010598462AD8237813
:109F90005B0005B10133A27802F00701072908BF71
:109FA00004EBD201DBB208BF0B718F2A237015D9E5
:109FB0000926E37803F00102AA4230D1FF2F04D032
:109FC0000137FFB2082F67702ED94B4A002D51D0B0
:109FD0001378072B50D801331370C0E70132A270F9
:109FE0001126E6E7002DFBD0E378DA07F8D5052F38
:109FF000F6D16179A37801F00F01CA1CB2EBD30F3F
:10A000004FEAD309D4D10231201DA144FFF7B2FE9B
:10A0100099F80360864214BF0B260026C9E7002288
:10A0200065F300036270E370C6B9627923798DF835
:10A030000C30324913090DF10F0002F00F028DF8B8
:10A040000D308DF80E2015F07FF903AB0293D8F890
:10A0500000308DF8046001A89847B6E70B2EB4D104
:10A060000023CDE9033301238DF80C3003A8D8F881
:10A070000030F1E7157072E7D8F80C3001331B4B54
:10A080000CBFDB781B8813B1FFF700FF67E7D8F838
:10A0900004201748531C1FBF012393404FF0A042D8
:10A0A000C2F808350AF032FD11480AF047FD1048A1
:10A0B0000AF044FD002319460D48FF220AF042FD34
:10A0C000012319460A485F220AF03CFD042363700D
:10A0D000E3780B48002143F0010312222170A170A4
:10A0E000E37015F03FF93AE7DC4600200447002012
:10A0F00078390020ED460020EC460020F346002091
:10A10000F14600207FB50546002800F0CE800368A8
:10A11000002B00F0CA808668741C03D143680133A9
:10A1200040F0C58095E80F00634C013684E80F00CD
:10A1300002D1013100F0BD80FFF71AFE5F4A60498D
:10A1400060480AF065FC044668B15F485F4B6049AF
:10A15000C01AC0080004224640F0010008F03EFD8D
:10A16000204604B070BD57480AF0E8FC5548234625
:10A17000FF2221460AF0E6FC0123524819465F22DD
:10A180000AF0E0FCEB68581C22D0FF224FF6FF716A
:10A1900001948DF80120ADF802108DF806200721FA
:10A1A0004FF000728DF8051002928DF80030494A88
:10A1B00049480394234669460AF026FD044638B10F
:10A1C0004148424B4549C01AC00800042246C3E733
:10A1D0000AF016FA58B90AF0D5F9044638B13A48E7
:10A1E0003A4B3F49C01AC00800042246B4E7032393
:10A1F000ADF800309DF802303A4A23F0070343F0EF
:10A2000004038DF80230D5E90130984208BF9DF86B
:10A210000230694604BF43F001038DF802300AF0B2
:10A22000F9F9044638B12848284B2F49C01AC0080C
:10A230000004224690E7D5E9013199424FF0A0424F
:10A240001DD101F5E07140F2017342F82130A96897
:10A2500001238B40C2F80835EA68531C0AD01E4B14
:10A2600069681B68C3F808254FF0FF32C3F80C1566
:10A27000C3F81025A86801210AF03EFA70E7591CBE
:10A280000AD003F5E07340F2037142F823106968C5
:10A2900001238B40C2F80835AB684FF0A04203F5AC
:10A2A000E073002142F82310D6E70E2458E7072474
:10A2B00056E7002454E700BFDC4600201D9F020043
:10A2C000B015040078390020BC5504002455040062
:10A2D000331504000D9E0200703900205015040053
:10A2E0006B150400619E02008915040030B52D4BEA
:10A2F0001A6887B00146002A4CD05A68013205D14D
:10A300009B68013348D1002007B030BD002845D0FC
:10A31000DB68254C013310D1E378002B40D1204677
:10A32000FFF77AFD21480AF0FDFB0028EBD11F481A
:10A330000AF0DEFBFFF7AAFDE5E7258885BB684646
:10A34000FFF76AFD2388E21895709A1C013314FA0E
:10A3500083F322809D70FF259DF80330002BE1D010
:10A360002388B3F5AE7FDDD26846FFF71AFD238858
:10A37000E21838B195709A1C013314FA83F32280E5
:10A380009D70E9E790709A1C013314FA83F32280E0
:10A390009870E1E70820B7E70620B5E70E20B3E79D
:10A3A0000420B1E7DC460020044700207839002073
:10A3B00037B5404B196849B104783CB943685A78BD
:10A3C000042A46D004D892B1012A38D003B030BD57
:10A3D0000F2AFBD11B78642BF8D1374B1B78002B4D
:10A3E000F4D002238DF805408DF804302EE01A7861
:10A3F0006A2A01D06C2A15D19978052912D11A79C7
:10A400005B792E4C12090132520053435B0340F634
:10A41000C412B3FBF2F323800023A37009F004F904
:10A420006060D3E702F0FD02242ACFD19A78072A90
:10A43000CCD1234C5B7A237000236370EEE71B784A
:10A44000642BC3D18DF805408DF8042001A88847FE
:10A45000BCE71A7812F0FD04B8D198780328B5D17A
:10A46000184805781DB1022A01D10470AEE7002218
:10A470008DF80420DA78022A06D11B7913F00F0335
:10A480000BD18DF80530E1E7332A0AD11B7913F09F
:10A490000F0F14BFFF230123F3E7022B18BFFF2385
:10A4A000EFE7302A04D11B7903F00F03032BF5E704
:10A4B000FF23E6E76C480020714800207448002024
:10A4C00064480020704800207FB5094B1B786BB1B1
:10A4D0000F238DF804008DF8053001A800238DF8B6
:10A4E0000630FFF703FF07B05DF804FB0620FAE72C
:10A4F000714800201FB5044600B30368F3B1D0E9EA
:10A500000123511C05D101330CBF0020072004B0EA
:10A5100010BDCDE90132C36803936846084B009330
:10A52000FFF7F0FD0028F2D1064B22681A60A368FD
:10A53000054A013318BF01231370E8E70E20E6E750
:10A54000B1A302006C480020714800207FB51D4B6C
:10A550001B6893B31C4B1B788BB340F20243ADF8DE
:10A56000043003238DF80630032822D8DFE800F0FA
:10A570000213151B02238DF807304FF4007301A856
:10A58000ADF80830FFF7B2FE10B9104B01221A7077
:10A5900007B05DF804FB3323EDE702238DF80730A5
:10A5A00040F20223EBE730238DF8073040F203231B
:10A5B000E5E700238DF80730E1E70820E8E706200B
:10A5C000E6E700BF6C48002071480020704800207A
:10A5D00038B50546D8B109F027F8104C23782B7010
:10A5E0002546B0B1616809F01AF8B0F5F02F01D234
:10A5F000636883B96B7823B92620FFF765FF0123D1
:10A600006B706B68002B0CBF05200D2038BD0E2031
:10A61000FCE70820FAE70020F8E700BF64480020C4
:10A6200034DF70470D4B602210B583F820204FF0C7
:10A630008043A922C3F820254FF48041002008F070
:10A6400031F9044608F06EF81CB9BDE8104000F07E
:10A650002FB800F02DF8204610BD00BF00ED00E03F
:10A6600008B506480368013301D1FFF7D9FF00F0B0
:10A6700083F8BDE8084008F067B900BF80390020C2
:10A68000EFF30880014B18477047000091A60200C5
:10A6900010B5064C01462022204614F055FE00223B
:10A6A0002021204606F032FD208410BD08F0002055
:10A6B00038B54FF08042D2F80034C2F800349B071E
:10A6C00015D5234C00222021204606F01FFD214BEA
:10A6D000024621481B1ADB081B0443F00100238CAF
:10A6E00093421CD1A369E2681C4908F080FA242235
:10A6F0000021174814F036FE19491A480AF01CF9CF
:10A70000044680B11348144B1749C01AC00800040E
:10A71000224640F0010008F061FA204638BD134996
:10A7200008F058FAE3E7124D28460AF03FF90446CC
:10A7300038B10848084B0F49C01AC0080004224627
:10A74000E7E70AF025F928780AF056F9E5E700BFAF
:10A7500008F00020C455040024550400BC15040072
:10A7600081A6020030160400F1150400E115040072
:10A770007C48002008160400014B18780AF03CB908
:10A780007C48002070477047024A13680133136009
:10A79000FFF7F2BF245F00204A4C494E4B4D4F4E0D
:10A7A00048414E444C45520000B5FFF7ECFF5DF8C0
:10A7B00004EB134B02E058680003FCD4586840F4E3
:10A7C0000020586000B5FFF7DFFF5DF804EB0C4B8D
:10A7D0005868000DF6D21868010A0006000E00281D
:10A7E00012D0022818D002D3032814D0E6E7586804
:10A7F00020F40020586000B5FFF7C4FF00BD00BF83
:10A80000F8ED00E088ED00E064201860586840F43E
:10A8100000205860CFE77DE05FEADE022CBFEFF357
:10A820000982EFF30882042902D252F821006BE07A
:10A83000052901D2204667E0062901D2284663E0B7
:10A84000072901D230465FE0082901D238465BE093
:10A85000092901D2404657E00A2901D2484653E06F
:10A860000B2901D250464FE00C2901D258464BE04B
:10A870000E2901D2106947E00F2901D2506943E047
:10A88000102901D290693FE0112901D2D0693BE043
:10A8900012290ED2EFF308805FEADE0131D25FEABF
:10A8A0005E112CBF20304830D169490928BF0430DF
:10A8B0002AE0132905D2EFF309805FEADE0120D3F5
:10A8C000EDE714291CD20020EFF310821043EFF3C0
:10A8D000118212021043EFF3138212041043EFF3BC
:10A8E00014825FEADE0128BF42F002025FEA5E11D5
:10A8F0002CBF22F0040242F004021206104303E0CF
:10A9000000E001E00020FFE71860586840F40020F4
:10A91000586050E7586840F40020586058680003B9
:10A92000FCD418685FEADE022CBFEFF30982EFF374
:10A930000882042902D242F8210061E0052901D2EF
:10A9400004465DE0062901D2054659E0072901D2F7
:10A95000064655E0082901D2074651E0092901D2EF
:10A9600080464DE00A2901D2814649E00B2901D2F7
:10A97000824645E00C2901D2834641E00E2901D2EE
:10A9800010613DE00F2901D2506139E0102901D258
:10A99000906135E0112901D2D06131E0122900D255
:10A9A0002EE0132900D22BE0142927D20106090E2C
:10A9B00081F310880104090E81F311880102090E48
:10A9C00081F31388010E88082CBF4EF0040E2EF080
:10A9D000040E21F00201C8082CBF2EF0100E4EF01C
:10A9E000100EEFF31480C0082CBF41F0040121F0D9
:10A9F000040181F31488BFF36F8F01E0FFE7FFE7E5
:10AA0000DCE600BF72DF704773DF704738B50122A4
:10AA100004460D46B0F81414D0F8100401F086FA7C
:10AA200000B1057004F13C0204F5826104F15400A8
:10AA3000BDE83840FFF7E6BF80F830107047F8B542
:10AA400004460F46002975D0002873D091F87A305B
:10AA50001BB191F89830002B6ED1D7F8A030042BA1
:10AA60006AD0D7F89C30042B66D04FF0000C84F8E5
:10AA700002C007F178060FCE251D0FC50FCE0FC5FA
:10AA800096E8070085E8070084F830C0D7F8A430BE
:10AA90006363D7F8A830A3634FF6FF7504F58263AC
:10AAA000C4F82034A4F824540722614604F2264056
:10AAB00014F058FC23780BB984F8545094F82430DF
:10AAC000002B14BFEE231F2304F15501C4F810140A
:10AAD000A4F8143404F21442384601F039F840BBAB
:10AAE00094F82430002B14BFEE231F2304F23121ED
:10AAF000C4F81814A4F81C3404F21C4207F13C00FA
:10AB000001F026F8A8B9A369A4F848304FF480737F
:10AB10000125A4F8503063692064014684F83C5054
:10AB2000636404F13C0204F15400FFF76BFF00B9C9
:10AB30002570F8BD0E20FCE70720FAE7F8B5077886
:10AB400004460D46002F00F0038100F22646817076
:10AB500007220021304614F005FCE38813B1A378E6
:10AB6000012B04D0E3794BB1A378022B06D1636BA0
:10AB7000A3B1012284F82D2408209847334604F21B
:10AB80002C4113F8012F12B99942FAD117466B1EC6
:10AB9000032B51D8DFE803F0050B0F1284F82D3496
:10ABA000ECE7A3791BB194F8243003B95FB9E379DA
:10ABB0000BB1002F42D1237A002B41D1637A002BB5
:10ABC0000CBF00250425636BA570002B3AD0033D14
:10ABD000012D37D86279AAB394F82E2492BB84F859
:10ABE0003024012284F82F240720984704F13C05E3
:10ABF00018220021284614F0B5FBE26A531E0121F9
:10AC0000022B28BF0A4684F8512094F8242084F8A7
:10AC10003C1032B1A36A581E022828BF0B4684F8A4
:10AC20005230A178002384F8503004291BD8DFE883
:10AC300001F0770D223559000025C4E70225C2E74F
:10AC40000325C0E7002384F82F34CFE7C4E910635D
:10AC5000C4F820340223012284F83C30802384F895
:10AC60003120A4F84830A378002B5CD1636B002B13
:10AC70006AD1002067E00223002A84F8313014BF33
:10AC80000723032384F83C302369A4F848300023C9
:10AC9000C4F82034E36826646364E4E763696364AA
:10ACA000A369A4F8483012B1062384F83C306379D4
:10ACB000B3B194F82E349BB994F8303483B10223A5
:10ACC00084F8503004212046FFF7A0FE0028CAD1A6
:10ACD000052384F8313004F58263C4F82034C2E7D8
:10ACE0000323F6E7E3696364236AA4F8483012B1EA
:10ACF000062384F83C30637983B194F82E346BB921
:10AD000094F8303453B1022384F8503004212046A3
:10AD1000FFF77CFE0028A6D10623DAE70423D8E754
:10AD200084F831309FE7D4F820142A4604F1540007
:10AD3000FFF768FE38B994F8301094F85400FFF724
:10AD400063FE002892D0F8BD94F83100984790E750
:10AD50000820F8E710B50388112B0C460AD0262BE3
:10AD60001FD0102B05D1C37B012B02D18388A1F802
:10AD7000243410BD002381F82E348288B1F82434A5
:10AD80009A42F6D10B79002BF3D101212046FFF72F
:10AD9000D5FE0028EDD0A36B002BEAD0BDE8104013
:10ADA0001847037A013B012BE3D889780523013149
:10ADB000B1FBF3F303EB8303C91AC9B2E6E730B57D
:10ADC0000D46041D0FCD0FC40FCD0FC495E807002D
:10ADD00084E8070030BD000030B50B4B19680B4B01
:10ADE0000022914201D1002009E09D788478A5429B
:10ADF00006D11D880488A54202D1054B186830BDD4
:10AE000001320433EDE700BF884800208C48002061
:10AE1000804800202DE9F84F90F8C6A24FF0760B3D
:10AE200004460AFB0B0088469146FFF7D5FF07460C
:10AE300070B3D4F8CC52052D2AD804EBC5165A4667
:10AE4000A6F8D2920BFB0A4106F5357014F07CFA95
:10AE5000B8F1000F14BF0023022386F8D0320D4B47
:10AE6000C6F84C731A6801359542C4F8CC521D4699
:10AE70000ED104F534760027F36F304698472B68DF
:10AE800001379F4206F18006F6D30023C4F8CC3286
:10AE9000BDE8F88F8848002030B5A1B004460D46C3
:10AEA0007C22002101A814F05DFA03238DF8043000
:10AEB000044BADF806501B6802940BB101A89847EB
:10AEC00021B030BD804800202DE9F041074691F8BF
:10AED000C60276234FF00008A0B081F8C88200FBBC
:10AEE00003100C461546FFF777FF064660B17C223B
:10AEF000414601A814F036FA01238DF80430ADF86C
:10AF00000650029701A8B04729462046FFF7C4FF24
:10AF100020B0BDE8F081000030B58BB0044620229F
:10AF20000D4602A8002114F01DFA04220DEB0200C8
:10AF3000002114F017FA94F8C53294F8C62213B31E
:10AF4000013B7621DBB25143122000FB0313234463
:10AF50005B8A01339BB2ADF80430762303FB0242D7
:10AF600002A91389ADF8063003238DF80830019B40
:10AF7000CDE90543064B0493064B2A46186802F0B8
:10AF800077F80BB030BD762303FB0243DB88E2E7A2
:10AF9000C9AE0200A4480020F0B5044689B02022C2
:10AFA0000D466846002114F0DDF994F8C7321E4AB8
:10AFB00001331268DBB2934284F8C7324FF00002CB
:10AFC0002BD294F8C632194F84F8C5220133DBB274
:10AFD000762113FB01F057F8237084F8C632261847
:10AFE000275001FB034332711B68CDF81230104B20
:10AFF000029302220F4B8DF800200122ADF81020A1
:10B00000186803942A46694602F032F818B12A46B5
:10B010002146FFF759FF09B0F0BD84F8C822294640
:10B020002046FFF739FFF6E7884800208C480020CB
:10B03000C9AE0200A44800202DE9F047044688B0BC
:10B040000D46164600212022684614F08BF994F82C
:10B05000C62294F8C512762312FB03F2A018122719
:10B0600090F804C017FB012301F1010E0A33E645F5
:10B07000234411D004F11C0900F1220E0CF1FF3819
:10B080009144CAB294450BD988451B890ED10289D7
:10B090009A421BD1002312E01B890289934215D1E9
:10B0A00001232B70002008B0BDE8F08707FB01FAF0
:10B0B00001333EF80A2093421DD109EB0A0394F8AC
:10B0C000C522013284F8C5220131DAE701339BB28F
:10B0D000ADF810300A4B029300210A4B297004216D
:10B0E0008DF80010ADF812201868039432466946B6
:10B0F00001F0BEFFD7E7013A9BB292B2E8E700BF8A
:10B10000C9AE0200A448002010B570B1026862B157
:10B11000436853B1064900200860064901240C70B9
:10B1200005490A60054A136010BD0E20FCE700BF08
:10B13000884800208448002080480020A44800203F
:10B1400010B5044680B10C4B1B787BB1FFF744FE71
:10B1500070B90A4A1368052B0CD80949246841F8CC
:10B1600023400133136010BD0E20FCE70820FAE7EE
:10B170000020F8E70420F6E78448002088480020F3
:10B180008C480020F0B50D468BB0044600283BD01B
:10B19000204B1B78002B39D01F4B1B68002B35D060
:10B1A00090F8C812002933D14FF4BA621B4F0191B5
:10B1B00014F0D8F80199202202A814F0D3F83868C6
:10B1C000294601F0F5FFE8B9154BC4F8CC0284F824
:10B1D000C502A4F8C6021868206002238DF8083062
:10B1E0000126104BCDF81A00A4F8CA523868ADF801
:10B1F00018602A4602A90594049301F039FF08B9A2
:10B2000084F8C8620BB0F0BD0E20FBE70820F9E718
:10B210001120F7E78448002088480020A448002037
:10B220008C480020C9AE02002DE9FF410C460546BE
:10B2300060B159B18C4B1B7843B10388322B70D06D
:10B2400007D8112B00F00381302B2CD004B0BDE8BF
:10B25000F081332BFAD18288B1F8CA329A42F5D103
:10B26000C08891F8C67291F8C5C250B976267E435F
:10B27000122303FB0C63294623446A899042C0F0E1
:10B28000C280762202FB0742002312798DF80F302C
:10B290000CF10103934240F0A58001238DF80F309B
:10B2A000AA88012135E08388B1F8CA229A42CDD11B
:10B2B000C3886BBB91F8C632762202FB0313026986
:10B2C000C3F8062091F8C432827A1344062B0CDCB2
:10B2D00081F8C432A9882046FFF71EFE0028B5D0A9
:10B2E000AA882146FFF7F0FDB0E7062381F8C432B3
:10B2F0005E485F4B5F49C01AC008000440F002007E
:10B30000019007F067FC5C49019807F063FCE1E7F6
:10B3100000212046FFF77EFDA9882046FFF73CFE6E
:10B3200094E78288B1F8CA329A428FD1C388002B41
:10B3300057D191F8C672762317FB03F701EB070884
:10B34000837A98F804603344062B25DC88F80430AF
:10B35000334603EBC30207EB420205F10C0622441D
:10B36000002198F80400834206F10A0602F1120255
:10B3700026D31222013B02FB034394F8C622762116
:10B380003B4401FB0242598A1389994229D206287B
:10B3900027D084F8C5029DE7062388F80430334897
:10B3A000334BCA5B3549C01AC008000440F00200A4
:10B3B000019007F013FC3249019807F00BFCC7E736
:10B3C0003046013350F80ACD42F808CCD0F804C01A
:10B3D00042F804CC0089108051809180D180118185
:10B3E000BFE7002384F8C532AA880DF10F0120467B
:10B3F000FFF722FE00287FF473AF9DF80F30002B7B
:10B400003FF424AF4CE7CA89A2F52452082A08D891
:10B41000DFE802F014170507070707071A008A89F3
:10B420009A829A8A3AB1DA8A2AB11A8B1AB15A8B5D
:10B43000002A7FF426AF013006311EE78A89DA82BE
:10B44000EFE78A891A83ECE78A895A83E9E7B1F83A
:10B45000CA3282889A4201BF002381F8C8324FF66F
:10B46000FF73A1F8CA32F1E6844800208C5504002D
:10B47000245504003C1604005B160400A0160400CA
:10B48000E6160400A8DF7047F0B5074689B01446F9
:10B490001E460D4611B9084608F0F0FA14B92046C8
:10B4A00008F0ECFA20220021684613F05BFF9DF8BB
:10B4B0000D300E9AADF8007043F002038DF80D3098
:10B4C000064BADF804401888ADF806406946029571
:10B4D0008DF8116001F0E0F809B0F0BDE0480020FF
:10B4E00030B587B041F60A035C4AADF80C3004462B
:10B4F00003A901208DF80E00FFF7C4FF05460028C0
:10B5000049D12288002A49D1228952B1544B009353
:10B51000E16894F83C3042F62420FFF7B5FF00289C
:10B5200047D1228A52B14F4B0093616994F83C3065
:10B5300042F62520FFF7A8FF00283AD1228B52B10E
:10B54000494B0093E16994F83C3042F62720FFF71D
:10B550009BFF00282DD1228C4AB1444B0093616A95
:10B5600094F83C3042F62620FFF78EFF08BB228D70
:10B570004AB13F4B0093E16A94F83C3042F62820F0
:10B58000FFF782FFA8B9236BABB9616B002938D1F3
:10B59000A36B002B42D1284607B030BD354B00933A
:10B5A000616894F83C3042F62920FFF76DFF0028CF
:10B5B000AAD00546EFE71A688DF810201A68120A1B
:10B5C0008DF811205A888DF81220DA788DF8132022
:10B5D0005A688DF814209B688DF815301A0A1B0CD8
:10B5E0008DF81730244B8DF816200093082294F81C
:10B5F0003C3004A942F62320FFF746FF0028C4D0C0
:10B60000D7E71E4B0A790093096894F83C3042F65C
:10B610002A20FFF739FF0028BAD0CAE71A788DF838
:10B6200010205A888DF81120120A8DF812209A885D
:10B630008DF81320120A8DF81420DB888DF8153050
:10B640001B0A8DF816300E4B0093072294F83C30FD
:10B6500004A942F65020FFF717FFAAE7E0480020B0
:10B66000C0480020D8480020B0480020A84800204A
:10B67000E2480020B8480020EA480020D0480020D6
:10B68000C8480020A8DF7047ADDF7047AEDF7047C5
:10B69000B0DF704762DF70473CDF70473DDF7047C7
:10B6A00070470000F0B5044689B038B10388512BCB
:10B6B00024D005D8102B15D0112B17D009B0F0BD10
:10B6C000532BFBD12E4DC288EB889A42F6D12B7EAC
:10B6D000002BF3D000F0B6F90028EFD06B69022000
:10B6E0009847EBE78288264B9A80E7E7244B8188CE
:10B6F0009A889142E2D14FF6FF72F5E7204D828899
:10B70000AB889A42DAD18679022ED7D10289EB88AA
:10B710009A42D3D1837B043B022BCFD91022002144
:10B720000DEB020013F01EFE01AF6989A8888DF8A9
:10B73000106002AA02960397FFF7A6FF0646D0B94B
:10B74000384600F096FFB0B19DF81630ADF81460A1
:10B7500043F001038DF81630A88804A9FFF798FF7D
:10B760001128F9D0BDF81430002BA7D104F108003E
:10B7700000F004F9A2E740F2FD13ADF81430EBE756
:10B78000F448002030B587B005460C461022002151
:10B7900002A813F0E7FD0323ADF8023020238DF853
:10B7A00004300F4B8DF80550DA88ADF808200222DE
:10B7B0008DF80A200022ADF80C200DF1020204924F
:10B7C00098888DF8064001AA02A90592FFF75EFF4E
:10B7D00020B9BDF80230032B18BF0C2007B030BDD4
:10B7E000F448002010B54FF0FF310020FFF756FF5E
:10B7F000044658B9B121FFF74FFF044630B9044B56
:10B8000001205B699847022007F068FC204610BDC4
:10B81000F4480020F0B51B4B87B002AC024603F1A0
:10B820001007254618685968264603C60833BB42E8
:10B830003446F7D122B3144B4FF6FF71998012684A
:10B840005A61002119760AB9104A5A610E4800F06F
:10B8500053F898B901204FF659630D4A8DF8060048
:10B8600001A9ADF80430FFF70DFF38B906492846A5
:10B87000FFF710FF10B9044800F058F807B0F0BD0A
:10B880000E20FBE754170400F4480020A1B6020084
:10B89000F64800204FF0030C00DF704770B51449E4
:10B8A0000B6823B34B6813B30831984708281ED0A0
:10B8B000104C2368254658B9587601210220FFF71D
:10B8C00061FFA0B123685B690320BDE870401847A1
:10B8D00000225A7606210220FFF754FF18B1236890
:10B8E00003205B6998472B6802205B69EDE770BD18
:10B8F000304900202C49002018B1034B186000206B
:10B9000070470E20704700BF2C49002008B505F095
:10B91000B3FB38B90448FFF7BDFF18B9BDE80840CC
:10B9200005F0DABB08BD00BF3049002010B588B073
:10B93000044620220021684613F014FD224603230A
:10B94000ADF8003012F8063B8DF80230BDF80C302F
:10B95000608823F4235323F03F0343F4205343F040
:10B960000103ADF80C301723ADF8043069464FF0F1
:10B970000133049300F090FE08B010BD70B5054689
:10B98000007B2A4C01280ED0022824D00221287BDB
:10B99000FFF7F8FE18B1236803205B699847236816
:10B9A00002205B6909E023685E7E4EB10621FFF745
:10B9B000E9FE48B323685B690320BDE8704018477F
:10B9C00018760146FFF7DEFEF0B1236811281E76D7
:10B9D00028D00421DBE76A7B531E132B24D8144E96
:10B9E00005F10E01301D13F0AFFC6B7BB3612368D2
:10B9F0005B7E002BEDD10F49304651F8083B98474C
:10BA000018B9236801225A7670BD0F28E1D10A4B7C
:10BA10000A480B49C01AC008000440F0010007F0B2
:10BA2000D9F8D6E70621B2E70521B0E72C49002076
:10BA30001049002030490020245504006C550400B2
:10BA40006417040008B5044B1B6800205B69984725
:10BA5000BDE80840FFF7C6BE2C4900206DDF7047E7
:10BA600079DF70477DDF704764DF70472DE9F04F65
:10BA700085B000250E9CBDF83CB0B4F800A0019143
:10BA8000074690461E46A9463A884A450DDC45B110
:10BA90002388013BA3EB0A039BB2FF2B3AD806F89D
:10BAA0000A30002005B0BDE8F08F7A6852F829000E
:10BAB000039000220DF10B0103A8FFF7D5FF00282A
:10BAC000F0D19DF80B20424521D12288002D14BFD2
:10BAD0000020022002EB0801014459451ADC3DB95F
