:020000022000DC
:1060000000F0002061B0030089B003008BB00300F2
:106010008DB003008FB0030091B0030000000000BA
:1060200000000000000000000000000093B003002A
:1060300065C102000000000097B0030099B00300A2
:106040009BB003009BB003009BB00300D9C30300C7
:106050009BB003009BB003007D60030019BE0300EA
:106060009BB003009BB003006D6403009BB0030072
:1060700085B203009BB003009BB003009BB00300FC
:10608000CD610300215303009BB003009BB00300CC
:106090009BB003009BB00300855803009BB0030036
:1060A0009BB003009BB003009BB003009BB00300B8
:1060B000A9B703009BB0030000000000000000002F
:1060C0009BB00300B9B703009BB0030021C80300D5
:1060D00005B403009BB003009BB003000000000068
:1060E00000000000000000000000000000000000B0
:1060F00000000000000000000000000000000000A0
:10610000000000000000000000000000000000008F
:10611000000000000000000000000000000000007F
:10612000000000000000000000000000000000006F
:10613000000000000000000000000000000000005F
:10614000000000000000000000000000000000004F
:10615000000000000000000000000000000000003F
:10616000000000000000000000000000000000002F
:10617000000000000000000000000000000000001F
:10618000000000000000000000000000000000000F
:1061900000000000000000000000000000000000FF
:1061A00000000000000000000000000000000000EF
:1061B00000000000000000000000000000000000DF
:1061C00000000000000000000000000000000000CF
:1061D00000000000000000000000000000000000BF
:1061E00000000000000000000000000000000000AF
:1061F000000000000000000000000000000000009F
:1062000010B5054C237833B9044B13B10448AFF3F0
:1062100000800123237010BD483C002000000000D6
:10622000B467040008B5034B1BB103490348AFF33F
:10623000008008BD000000004C3C0020B467040052
:10624000A3F5803A704700BF174B002B08BF134BD4
:106250009D46FFF7F5FF00218B460F461348144A71
:10626000121A1AF04FFA0E4B002B00D098470D4B24
:10627000002B00D098470020002104000D000D489D
:10628000002802D00C48AFF300801AF0FBF9200080
:10629000290000F02FFC1AF0E1F900BF000008000F
:1062A000000000000000000000F00020483C00203A
:1062B0001C6000200000000000000000064B0022CF
:1062C00033F83210814202D103EBC2007047013231
:1062D000042AF5D100207047943C002038B50D46C3
:1062E000FFF7ECFF044678B143680BB128469847A6
:1062F000A17849B10139C9B2A17029B92046082253
:10630000BDE838401AF0FEB938BD000038B5037852
:10631000044673B9456855B11448154B1549C01A60
:10632000C00800042A4640F001000EF0B3F8124BFA
:106330001D60A5892846FFF7C1FF38B12378042BDB
:1063400005D8022B0CD8013B012B09D938BD052BF0
:10635000FCD1BDE838400948302200211AF0D2B9FA
:1063600061682846BDE83840FFF7B8BF946904006B
:106370005C6804007C1D0400A8320020643C0020FE
:1063800038B51148114C0DF04BF8054660B1104B73
:10639000104811491B1ADB081B042A4643F0010070
:1063A0000EF078F8256038BD0DF050F8054638B18C
:1063B000074B084809491B1ADB081B042A46EDE76E
:1063C0002368082BEFD1FEE70D630200A8320020FE
:1063D000946904005C680400971D0400AD1D04006E
:1063E0002DE9F0411B4C16462268082A88B0074662
:1063F00088461D4601D1FFF7C3FF206810BB7C1EF5
:106400004BF6FE72A4B294421FD808F1FF339BB240
:1064100093421AD8DEB1D5B1CDE9010001AB05AA8E
:10642000414638460DF0CEF960B903A905A80DF034
:1064300025F938B9049B3360039B5B882B8005A842
:106440000DF042F908B0BDE8F0810720FAE70E2010
:10645000F8E700BFA83200202DE9F041404E9846F1
:106460003368082B88B004460F46154601D1FFF764
:1064700087FF3668002E65D1601E4BF6FE7280B233
:10648000904261D87B1E9BB293425DD8002D5DD0B7
:106490002046CDE90358ADF80840ADF80A70FFF783
:1064A0000DFF054620B9FFF709FF054600284FD02C
:1064B000AB782C800133AB700E9B6B600023CDE971
:1064C0000033BDF80A10BDF808006B4605AA0DF0B0
:1064D00079F9044640BB02A905A80DF01DF948F260
:1064E00006639842044610D10DF046F9BDF8082025
:1064F0001C4B04460C2101FB06F0C75A97421CD1E5
:106500000C2202A918441AF0EFF84CB1A97839B15D
:106510000139C9B2A97019B9082228461AF0F2F84F
:10652000204608B0BDE8F08148F20963984211D1D5
:1065300002A905A80DF0ECF8D1E70136042EDAD156
:106540001124E3E73446EBE70724E9E70E24E7E705
:106550001124E5E748F206639842D7D1C4E700BFAB
:10656000A8320020643C0020F8B5194C2268082AA3
:1065700006460F4601D1FFF703FF256815BB731EC2
:106580009BB24BF6FE7293421ED83046FFF796FE42
:10659000044618B9FFF792FE0446B8B1A3782680E6
:1065A0000133A370676030460DF0BEF8054648B170
:1065B000A17839B10139C9B2A17019B908222046B0
:1065C0001AF0A0F82846F8BD0725FBE71125F9E7E2
:1065D000A832002001207047054B064902460648B4
:1065E0001B1ADB081B0443F001000DF053BF00BF72
:1065F000B4680400C41D04005C680400FF2808B5EA
:1066000001D100F06DFF10F057FC60B1064A074B56
:1066100007499B1ADB081B04024643F00100BDE852
:1066200008400DF037BF08BD5C680400B468040082
:10663000D51D040037B50378042B044634D1D0E9C6
:1066400003052D1AADB2294600F064FF024608B1D9
:1066500000205BE0A18A2069491B89B210F09EFFEF
:106660000928F5D00728F3D050B1294A294B2A49E7
:106670009B1ADB081B04024643F001000DF00AFFE1
:10668000E0680022294600F055FF08B901203DE0EE
:106690001F4A204B21499B1ADB081B04024643F08A
:1066A00001000DF0F7FEF1E7052BEFD1037B023B74
:1066B000062BCDD801A252F823F000BFD966020004
:1066C000F166020051660200F766020051660200A0
:1066D0005166020001670200037C8DF80630836872
:1066E0001B88ADF8043001A9042001F03BFBCDE785
:1066F00000210920F9E70023019301A90B20F4E709
:10670000103010F0E9FBB0FA80F0400903B030BD62
:106710005C680400B4680400F11D0400111E04004C
:10672000032807D14FF08043A922C3F82025002079
:106730000EF030B97047000008B5144A136823B34F
:10674000013B13600BBB124B0120187002F00AF9D9
:1067500050B1104A104B11499B1ADB081B0402462A
:1067600043F001000DF096FE012010F095FB60B1A2
:10677000084A094B0A499B1ADB081B04024643F0EE
:106780000100BDE808400DF085BE08BDB43C002006
:10679000BC3C00205C680400B46804002E1E0400A9
:1067A000491E04001FB5204B1A7872B35A6802B90B
:1067B00058601A78013AD2B21A7032BB597801295E
:1067C0002BD002291CD1CDE9012203921A7A013281
:1067D0008DF804205A68DAB901228DF8052059890C
:1067E000D86801AA03F040FA50B1104A104B114981
:1067F0009B1ADB081B04024643F001000DF04AFE21
:1068000009481022002119F07DFF05B05DF804FB56
:10681000072A0CBF03220422DFE79A68002AEFD080
:1068200058689047ECE700BFC03C00205C6804005B
:10683000B4680400671E040008B5017881B9406897
:1068400010F0E8FE60B1074A074B08499B1ADB08C5
:106850001B04024643F00100BDE808400DF01ABEDB
:1068600008BD00BF5C680400B46804008F1E04000B
:1068700007B5037853B94FF6FF73ADF8043001A99B
:1068800043788DF80630042001F06CFA03B05DF80F
:1068900004FB00002DE9F0478AB00023CDE9033363
:1068A00005930B785A1C8DF80C20012205460C46E6
:1068B0008DF80D200F2B50D8DFE813F010001D00CD
:1068C0002E004C006400CB00E4004F004F004F004E
:1068D0004F004F00E800ED000101040108238DF88E
:1068E0001030618803AA284603F0BEF9002846D07C
:1068F0000EF020FD43E04B88ADF818308B68042083
:106900001B788DF81A3006A901F02CFA0028E8D07F
:1069100004238DF80D30E4E706AE0822002130464E
:1069200019F0F0FE02A800F0EBFD029A002302F13C
:106930000E00F15C0131F15411784F0748BF01336B
:10694000824203D0082B02F10202F2D18DF81030FE
:106950000596C6E7654B1A780AB10223D9E70122EA
:106960001A7002225A700A781A72D8604A885A81BC
:106970005F49A06800F028FE08B1FFF713FF0AB0D6
:10698000BDE8F0878B6806AF1022002138461E78DC
:1069900019F0B8FE0DF1020101A810F0E3FDBDF8F9
:1069A0000230082B28BF082302A8ADF8023000F0FF
:1069B000A7FD0022DDF808C0BDF8028001983B4623
:1069C0009646072E01D8082A03D18DF81420049783
:1069D00087E71CF8161093F800A0C943490001F09E
:1069E00002012AF0320A41EA0A0142450FFA86F909
:1069F000197027D21CF819100136C907F6B221D434
:106A0000815CC1F3040101EB81015970815C11F0DB
:106A10001F0102BF93F8009061F3410983F80090D1
:106A2000815C01F0E001A1F12009D9F1000141EB05
:106A3000090193F8009061F3820983F80090013214
:106A40000233BEE7197883F801E06EF34101197053
:106A5000F5E7264B1A78002A7FF47FAF02221A70DE
:106A60005A700A781A72D8604A885A812049A068F8
:106A700000F012FE08B1FFF795FE1D49A06810F066
:106A800019FD79E702238DF811302AE700F04AFE5C
:106A90008DF8100025E7154B1A78002A7FF45DAFBA
:106AA00001221A7002225A700A781A72D8604A8833
:106AB0005A818B680E49187800F036FE5CE700F0CA
:106AC00069FEE5E7094B1A78002A7FF446AF0122F8
:106AD0001A7002225A700A781A72D8604A885A814B
:106AE0008B680349187800F057FE45E7C03C00204A
:106AF000A56702002DE9F04F9DB000AF05F0F6F854
:106B000008B10EF017FCB24807F10F0100F09AFB34
:106B100008B10EF00FFC07F110000FF08FFF0446D4
:106B200050B1AC48AC4BAD49C01AC0080004224675
:106B300040F001000DF0AEFC0EF03AF9054650B100
:106B4000A448A54BA649C01AC00800042A4640F034
:106B500001000DF09FFC0DF0E1FE064650B19E488D
:106B60009C4BA0491B1ADB081B04324643F0010072
:106B70000DF090FC9C4A9D4801210EF04BF9002D30
:106B800008BF3546064650B19348924B98491B1AA8
:106B9000DB081B04324643F001000DF07BFCDFF8FC
:106BA00080829448022388F80030934B12221A60A6
:106BB0004FF4203100220EF03FF9002D08BF35467A
:106BC000C7F804800646002800F04C818248814BBB
:106BD0008A491B1ADB081B04324643F001000DF002
:106BE00059FC002D08BF354628460EF0A3FB844B08
:106BF0007B6107F1140001F03DF808B10EF09AFB3B
:106C000007F118091422002148463D6919F07AFD60
:106C10007C4B3B627C4B7B624FF0000B022387F87E
:106C20002B3087F828B02E68327DDBB262F3820306
:106C300087F82B3097F8293007F1480823F01F0315
:106C400043F01F0328225946404687F8293019F09F
:106C500059FD728887F8492002EB42030733EA4660
:106C6000DB08AAEBC3039D460820EC4687F84800E2
:106C700059464FF0030E7288CBB202EB4202B2FBD0
:106C8000FEF29A4201F1010156D897F85030C7F848
:106C90004CC023F00F0343F00F0387F85030AA686D
:106CA00007CA07F1540383E80700584B7B661C2290
:106CB000002107F12C0019F025FD022387F82C3064
:106CC0003388FB856B683B63514BC7F83C80C7E951
:106CD0000D39D5E9030107F1400383E8030007F10B
:106CE0002C0004F087F8D54608B10EF023FB3B6971
:106CF0001B689A68FA64DA683A651B697B654046E6
:106D0000444BBB6404F034FF054668B13248314B54
:106D100041491B1ADB081B0443F001002A460DF011
:106D2000B9FB28460EF006FB9CB10121002000F0C3
:106D3000CBFF05F07DF8FCE703EB43020CEB020B05
:106D40000CF802008BF801E07268D35C8BF802301B
:106D500091E7022010F0A0F808B10EF0EBFAFB7BEF
:106D6000FF2B02D100F0BCFBF873F87B10F0A4F805
:106D700008B10EF0DFFA022001F0F4FD08B10EF0C8
:106D8000D9FA264D10F0E2F8044600F09BFF0EF011
:106D9000A7F8296806460EF09EF8B0F5A47F10D338
:106DA0007B682E601B78012B3CD80021084600F040
:106DB0008BFF0021012000F087FF0021022000F05E
:106DC00083FF04F0B1FF0028DCD10DF0BDFDD9E751
:106DD000FD650200B46804005C680400AC1E040099
:106DE000C01E0400D41E040039670200B01F040056
:106DF000F31E0400B0320020B43C00200E1F04003B
:106E0000DD6E020095680200D96502003566020059
:106E100039680200716802002B1F0400B83C002092
:106E2000BC3C0020002C14BF03210021002000F0F6
:106E30004BFF01F0EDFD011E18BF0321012000F002
:106E400043FF01F0DFFD044601F0E7FD032C05D010
:106E500030B9022C18BF00242146AFE70124FBE71C
:106E60000324F9E7002D3FF4C2AEBDE610B5154B83
:106E70001A78012A24D80220187001F073FD50B14D
:106E8000114A124B12499B1ADB081B04024643F0BD
:106E900001000DF0FFFA02200FF0FEFF044650B192
:106EA00009480A4B0B491B1ADB081B04224643F016
:106EB00001000DF0EFFA084B12221A60204610BDB7
:106EC0000024F8E7BC3C00205C680400B4680400BF
:106ED0002E1E0400491E0400B43C002070B5064676
:106EE000FFF7C4FF33780A2B70D00B2B14D0092B7B
:106EF00040F09680032001F035FD054650B1504822
:106F0000504B5149C01AC00800042A4640F0010005
:106F10000DF0C0FA284670BD4C4C2378002B40F091
:106F20008480032323700123637049487368A3603E
:106F300000F024FB88B12378013BDBB22370636847
:106F400003B160603F4A3E4B42499B1ADB081B0479
:106F5000024643F001000DF09DFA3D4810F07AFB27
:106F600088B12378013BDBB22370636803B16060B2
:106F7000344A334B38499B1ADB081B04024643F062
:106F800001000DF087FA324801F06EFD054688B128
:106F90002378013BDBB22370636803B1606028484B
:106FA000284B2E49C01AC00800042A4640F00100B0
:106FB0000DF070FAA368002BACD1244A12F8011B23
:106FC000002934D10133102BF8D1A3E71F4C2378CB
:106FD0005BBB0123237063701D487368A36001F0DD
:106FE00043FD054688B12378013BDBB2237063681B
:106FF00003B160601248134B1849C01AC00800045E
:107000002A4640F001000DF045FAA368002B81D11B
:107010000E4A12F8011B51B90133102BF9D179E74F
:107020003046BDE8704000F067B9082572E7606837
:107030007368984710220021044819F063FB69E740
:10704000B46804005C6804003D1F0400C03C0020DC
:10705000A56702005C1F0400781F0400951F040050
:1070600010B50D4C214614F81030C3F340029B07B5
:1070700006D511F810305B07044604D5002208E05D
:107080000138C0B2EFE7431CD8B211F81430DC0766
:10709000EFD4104610BD00BFD0320020064B0020B8
:1070A00013F81020120701D5C0B27047013008282C
:1070B000F6D1FF20704700BFD0320020064B0020E1
:1070C00013F81020D20601D5C0B27047013008284D
:1070D000F6D1FF20704700BFD0320020002270B5EB
:1070E000114600F1100614461346057815F0020FFC
:1070F0001CBF01335BB215F0040F1CBF03F1FF335B
:107100005BB215F0080F1CBF0134E4B215F0100F8C
:107110001CBF0131C9B2AD0648BF0132DDB248BF64
:10712000D2B2012D0AD8022C08D0022906D0022A98
:1071300004D00230B042D8D1012070BD0020FCE75D
:10714000FF281649024607D10023D8B2013311F8AF
:107150001020D207F9D4704711F810305B070BD418
:10716000431CD8B211F81030DB0715D59042F3D18B
:1071700013460CE0431ED8B211F810309B07F9D526
:10718000F0E70133D8B207284FF00002F0D811F829
:107190001320D207D8B2F4D4704700BFD0320020F9
:1071A000FF281649024614D011F810309B0714D45A
:1071B000431ED8B211F81030DB071DD59042F3D131
:1071C000134614E00138C0B211F81030DA07F9D4D0
:1071D00070470720F8E7431CD8B211F810305B075E
:1071E000F9D5E7E7013B581C4FF00702E8D011F84A
:1071F0001320D207D8B2F5D4704700BFD032002098
:1072000013B50C4A00900523012143F2DE00FFF77D
:1072100023F9044650B10848084B09491B1ADB08FA
:107220001B04224643F001000DF034F9204602B061
:1072300010BD00BFE03200205C680400B4680400A8
:10724000B41F04001FB5002846D0002944D0234BAA
:107250001860234B23481A68824209D11A79083AE8
:10726000D2B2F62A04D95A79083AD2B2F62A03D809
:107270004FF6FF7218609A801B790B7003AA0DF10C
:107280000A03012143F2DE00FFF7AAF8044688B999
:10729000BDF80A30052B0BD1039904310846019142
:1072A000FFF71CFF019918B10F48102219F01CFAC2
:1072B00000240EE048F209639842F9D00B480C4BC9
:1072C0000C49C01AC0080004224640F001000DF02D
:1072D000E1F8204604B010BD0E24FAE7D03C0020AF
:1072E00000F00020BD34D330D0320020B468040058
:1072F0005C680400CB1F0400F7B503786E4D082BC3
:1073000009D8DFE803F0051E270836599A5D9E006C
:107310004FF6FF73AB804FF6FE74287904F054FCEF
:1073200030F0080332D0062830D0644A644B6549F7
:107330009B1ADB081B04024643F002000DF0AAF87A
:1073400024E0FFF7ABFE2B79834208BFFF202871B2
:107350006871E0E7FFF7B2FE2B79834206BF6B79D5
:107360002B712871584B28791B689847002003B06F
:10737000F0BD83798488082B28BFFF232B716B71A4
:107380004FF6FF739C42C8D14FF6FE742B79ADF8CF
:10739000044001A88DF8063003F03EFF0028E1D03C
:1073A000464A474B49499B1ADB081B04024643F0F7
:1073B00002000DF06FF8D5E72879FFF7C1FEC6E7A8
:1073C0002B79434FFF2B33D117F813601C4616F06F
:1073D000010603F10103DBB2F6D12346013417F8AD
:1073E00013305A07E4B2F8D5082C28BF00242046F1
:1073F000FFF736FE0028F0D02644F6B2B44203D0A0
:1074000017F814305B0715D517F81430DE0703D5CD
:107410002046FFF795FE04462C716C717BE7013C1A
:10742000E4B217F814201E1B9107F6B2F7D5D4E783
:107430001C46F6E70134E4B2E0E72879FFF7B0FE36
:1074400085E72B79224FFF2B31D1072317F81360E3
:107450001C4616F0010603F1FF33DBB2F6D12346DA
:10746000013C17F813309907E4B2F8D5072C28BF70
:1074700007242046FFF7F4FD0028F0D0A61BF6B243
:10748000B44203D017F814309A0712D517F8143005
:10749000DB07C1D52046FFF783FEBCE70136F6B215
:1074A0009C19E4B217F814205007F7D5D7E7002647
:1074B000F6E7013CE4B2E3E700F000205C6804007A
:1074C000B4680400E51F0400D03C0020F81F04004D
:1074D000D0320020014B1879704700BF00F0002027
:1074E000064B002013F81020920601D5C0B2704759
:1074F00001300828F6D1FF20704700BFD0320020AD
:1075000018B1034B0360002070470E20704700BF86
:10751000D032002008B540B1102908D1FFF7DEFDB8
:10752000002814BF0020072008BD0E20FCE709201A
:10753000FAE7000070B50C461646054698B11029CA
:1075400013D1FFF7CBFD90B122462946094819F027
:10755000CBF822460749084819F0C6F83046BDE87E
:107560007040FFF74DBE0E2070BD0920FCE70720DC
:10757000FAE700BFD0320020E43200201FB50446F5
:10758000B8B110220021684619F0BCF80A4B0B4A2A
:107590000B48CDE900330B4B6946CDE9022310229D
:1075A00019F0A2F8214643F2DE00FEF7DDFF04B039
:1075B00010BD0E20FBE700BF020004000300010025
:1075C000D03200200100050070B505460C460029A8
:1075D0005AD00378013B062B01D9072070BD102239
:1075E0002A492B4819F080F82A480022064600EB69
:1075F000420101320B79082A23F006030B71F6D100
:107600006B682D78CBB1002108468D4237D8082809
:10761000E3D1002206EB4200017941F00201017141
:1076200013F8011B0A44511E06EB4101072A087991
:1076300040F004000871EDD912E0B2FBF5F2D2B2CD
:1076400006EB43001344017941F002010171591E18
:1076500006EB4101072B087940F004000871EFD9CF
:107660000B48FFF73BFD0028B7D009490748102217
:1076700019F03AF82046BDE87040FFF7C1BD5A5CEA
:107680001044C0B20131C0E70E20A7E7D03200207D
:10769000E4320020E032002070B504460D46002997
:1076A00038D00278072A01D9072070BD43781344E7
:1076B000082BF9DC18491948194E102219F014F852
:1076C00000206378C1B28B420ED81448FFF706FD44
:1076D0000028E9D011491048102219F005F8284671
:1076E000BDE87040FFF78CBD04EB410301309A7890
:1076F000920748BFDA7823780B4406EB430348BF70
:10770000B2FA82F219794CBF5209012262F30001E8
:107710001971D6E70E20C8E7D0320020E4320020ED
:10772000E0320020FFF7BABC70B506460D4631B313
:10773000154C16491022201D18F0D6FFFFF7AEFC9D
:10774000072803469FBF04EB40031A796FF3C30277
:107750001A71072E9FBF04EB4600037943F008031C
:1077600003710B48FFF7BAFC58B1094907481022CA
:1077700018F0BAFF2846BDE87040FFF741BD0E2063
:1077800070BD0720FCE700BFE0320020D0320020AF
:10779000E4320020FFF792BC70B506460D4631B3C7
:1077A000154C16491022201D18F09EFFFFF786FC8D
:1077B000072803469FBF04EB40031A796FF30412B6
:1077C0001A71072E9FBF04EB4600037943F01003A4
:1077D00003710B48FFF782FC58B109490748102292
:1077E00018F082FF2846BDE87040FFF709BD0E2063
:1077F00070BD0720FCE700BFE0320020D03200203F
:10780000E432002070B5264D2B78834204460BD11C
:107810002448254B2549C01AC0080004BDE8704023
:1078200040F002000CF032BE0128214E1CD130681D
:10783000431C01D00EF000FCF068411C01D00EF09A
:10784000FBFB1C480022A4210DF0F6FA50B1164AA9
:10785000144B19499B1ADB081B04024643F0010034
:107860000CF018FE2C7070BD12480DF010FB50B1DA
:107870000D4A0C4B11499B1ADB081B04024643F0CE
:1078800001000CF007FE3068421C02D001210EF00E
:107890008FFBF068431CE5D001210EF089FBE1E786
:1078A0001D3D0020FC6804005C6804000B200400FF
:1078B000D43C0020F8320020262004003E200400A2
:1078C00010B50EF0F9FAB0B1164B17484FF0FF3172
:1078D000042219605A72D9605A750121134A0DF0B9
:1078E00099FA0446C8B11248124B1349C01AC0088D
:1078F000000422460BE00EF0A1FA04460028E3D073
:107900000B480C4B0D49C01AC0080004224640F039
:1079100001000CF0BFFD204610BD094B01221A707A
:10792000F9E700BFD43C0020E8200400297B0200D6
:10793000FC6804005C680400782004005620040001
:107940001C3D002030B4194A1368984213D0D36804
:10795000984212D101210C2000FB01F44FF0A0430A
:107960001519D3F810351459E3402C7A03F00103AC
:1079700074B1DBB20EE00021EDE70D480D4B0E496E
:10798000C01AC008000430BC40F002000CF07EBDFC
:1079900083F0010300FB0122D27A9A4203D030BC6B
:1079A0000120FFF72FBF30BC704700BFD43C002040
:1079B000FC6804005C6804009820040037B50446A5
:1079C000002843D0234B1B780BB9FFF779FF224BDC
:1079D0001A68013233D0DA68013239D101210C2220
:1079E0004A43206898509918237A0B7263684B6059
:1079F000637A4B7203238DF804309DF80630174AE2
:107A0000206823F007038DF80630237A002B0CBF83
:107A10000323012301A98DF805300EF057FA05461E
:107A200078B10F480F4B1049C01AC00800042A460D
:107A300040F001000CF02EFD284603B030BD0021BF
:107A4000CDE7206801210EF0B3FAF5E70E25F3E744
:107A50000425F1E71C3D0020D43C002045790200BC
:107A6000FC6804005C680400BC20040038B50446CF
:107A7000D8B10368CBB10E4B1B780BB9FFF720FFD1
:107A80000C4A00230C2000FB03F18D5855B92568E2
:107A90005550D8B25318A2889A80E288DA80228999
:107AA0001A8138BD0133042BEDD10420F9E700BF62
:107AB0001C3D0020EC3C00200328F7B504460D4691
:107AC0002BD80C23164F4343FE18FB582BB3728957
:107AD00082B9012902D0002003B0F0BD1146019205
:107AE0009847104B75811B78012BF4D02846FFF77F
:107AF00089FEF0E70029EED1F188914207D20421F6
:107B000098470C2000FB047400226281E3E7B188EF
:107B1000914234BF02210121F2E70720DCE700BFD8
:107B2000EC3C00201D3D00202DE9F8430025DFF846
:107B3000D8902E464FF0A047A846D9F80000431C25
:107B400025D0D7F8104599F80830C44004F0010456
:107B5000002B44D184F0010499F80B30A34216D0D5
:107B600099F80A305A1C032B89F80A2039D9D9F818
:107B7000043089F80B4089F80A800BB121469847F8
:107B800099F80900042802D82146FFF795FF09F16A
:107B90000C0916B300271B4C3E46D4F80080B8F100
:107BA000000F0ED0628962B123899A421BD1052150
:107BB000F0B2C04700236381638913B1013363814D
:107BC00001270136042E04F10C04E6D1BDB9B7B982
:107BD0003846BDE8F843FFF715BE0126ADE7E4B22D
:107BE000BAE70125D3E7E188B2FBF1F301FB1323E8
:107BF0009BB2002BE0D10321F0B2C047DCE7BDE827
:107C0000F88300BFEC3C0020D43C002070B5154D3B
:107C1000154A2B78154E01332B70137823B1013B95
:107C2000DBB2137003B9F3700024E0B20CB9F3783F
:107C300003B9335D032B06D0022B0BD12B7803F055
:107C40000303032B0BD1012101340FF029FF032C77
:107C5000EBD170BD012B02D12B78DB07F3D40021CF
:107C6000F2E700BF283D00201F3D0020203D0020FE
:107C7000FFF7CCBF10B5B0B10368A3B10B4A0C48F5
:107C8000136001210B4A0DF0C5F8044648B10A48BB
:107C90000A4B0B491B1ADB081B0443F001000CF0D4
:107CA000F5FB204610BD0E24FBE700BF243D00205D
:107CB00008210400717C02005C680400FC68040078
:107CC000EC200400704700001C4B70B51E460024D9
:107CD0001D4616F8012B02BB0134042CF9D10328F0
:107CE0002BD82C5C8C4228D02954002113F8010B8E
:107CF000A8B901310429F9D15AB1114A1378013BCD
:107D0000DBB213702BB90F480DF0C1F808B10DF0BC
:107D100011FBBDE87040FFF779BF0122DFE7002AC1
:107D2000F7D107490B78581C0870002BF1D14FF49C
:107D3000005104480DF080F8E8E770BD203D0020B8
:107D40001E3D00201833002008B538B90321032058
:107D5000FFF7BAFF024B06221A7008BD0121F6E7B1
:107D60001F3D002007B50B4B1B688BB18DF8000041
:107D700009B10A6801920A38012804D809B10A68D1
:107D80000AB9054A01926846984703B05DF804FBBA
:107D90000E20FAE7243D0020497D020074DF704781
:107DA00075DF704776DF704777DF70478CDF70478D
:107DB0008FDF70471FB5064B1B6833B100228DF86B
:107DC00008008DF8042001A8984705B05DF804FB71
:107DD00068410020054B0649024606481B1ADB088D
:107DE0001B0443F001000CF055BB00BFE468040025
:107DF0000C2104005C6804000DF09CBA2DE9F041F0
:107E0000124B134CDFF84C80E41AE408240494B0BD
:107E10000E4644F0010405464FF6FF77284608F069
:107E20009DFFB84205460DD0694608F0C9FF0246DD
:107E300020B1414620460CF02DFBEFE79DF80030C5
:107E4000B342EBD1284614B0BDE8F0815C68040071
:107E5000E468040021210400F7B5014606464FF608
:107E6000FF70FFF7CBFF002504464FF6FF77BC42BB
:107E700002D1284603B0F0BD0DF10601204608F0FE
:107E800049FF08B10DF056FABDF8060005F0A6FF4F
:107E9000022818BF01352046314618BFEDB2FFF762
:107EA000ADFF0446E3E70000032838B504460BD0D5
:107EB000042811D038B9144D2B78A34203D02046A2
:107EC000FFF778FF2C7038BD0F4B9A78C2B1DB7882
:107ED000002B08BF0224EEE70B4DEB7893B1AB7893
:107EE00083B10120FFF7B8FF044638B9074B93F878
:107EF0005400FFF753FF0023EB70DCE70124FAE79F
:107F00000224D8E70124D6E7604100202C3D002060
:107F100007B5019006F067FE0D4B0E49019800224F
:107F20001A700D4A0123FFF741FF68B10B4A0C4B51
:107F30000C499B1ADB081B04024643F0020003B005
:107F40005DF804EB0CF0A6BA03B05DF804FB00BFCB
:107F5000DC4100201E240400EA2304005C680400C5
:107F6000E468040040210400F0B5044685B0022016
:107F7000FFF772FF064605F07FFF074604BB06F0D9
:107F800032FE25461B4E3278A2420AD01A4B1B689D
:107F900033B101228DF804208DF8084001A89847DC
:107FA000347055B11548164B1649C01AC008000464
:107FB0002A4640F001000CF06DFA284605B0F0BDED
:107FC000114A1248631E0E2101FB032106F09EFE9A
:107FD000054608B10DF0AEF9022F07D8032C00D0EA
:107FE00036B10A4806F05CFE0546CBE70024C9E737
:107FF0003446C7E7DC41002068410020E468040003
:108000005C6804006921040002240400844100200B
:1080100070B58CB004462C22002101A818F072FB28
:1080200040F20113ADF80830502240F6B833CDE9E4
:108030000523012C4FF4C863079324D0A31E012B02
:1080400094BF03260026234B234D93F85400FFF7DB
:10805000A5FE032C19D10123EB701E4801A904F0E1
:108060008CFB1C48314604F047FA0446E8B11B4B30
:108070001B481C49C01AC0080004224640F00100F9
:108080000CF008FA11E00426DDE7AB78002B0CBFFA
:1080900001230023EB700FD00120FFF7DDFE38B97C
:1080A0000020FFF787FE00242C7020460CB070BD26
:1080B00005F0F2FE0128F3D0002CCED101230548B3
:1080C0008DF8043001A904F058FB2046FFF772FE3A
:1080D000EAE700BF2C3D0020604100205C680400FE
:1080E000E46804008421040013B513210190FFF714
:1080F00059FE019A034660B10748084C0849241A02
:10810000E408240444F0020002B0BDE810400CF082
:10811000CAB902B010BD00BF5C680400E468040086
:10812000A621040013B5044609F08CFA204609F094
:10813000C5F82378043B0C2B15D8DFE803F02C1886
:10814000141414141414141607142900A068294BCD
:108150001B6803B19847284B5878FFF705FF274B5A
:108160005878FFF755FF02B010BD0020EFE7234B12
:1081700060889B7853B1224B1B881A1A5342534193
:1081800001A98DF8043008F09BFDECE70123F7E727
:1081900008F09AFDE7E7638941F20602934226D18F
:1081A000608805F009FE0228608813D1154B9B7B7F
:1081B00083B1012108F076FD0028D4D0124A134B78
:1081C00013499B1ADB081B04024643F002000CF023
:1081D00061F9C8E705F0F0FD012804D1084B628879
:1081E0001B889A42BFD0204609F050FABBE7B3F58E
:1081F000885FF7E764410020DC41002060410020F7
:108200006C410020704100205C680400E4680400B8
:10821000E72104007FB503881F2B044600F013817B
:1082200008D8112B1AD01B2B00F0FA80102B57D036
:1082300004B070BD3B2B00F00C81562B00F009817F
:10824000212BF5D100238088ADF8043001A9FFF778
:10825000AFFD0028ECD00DF06DF8E9E785882846E1
:1082600005F0AAFD0128044621D17C4B1A88AA42B8
:1082700004BF4FF6FF721A80794B1B6843B103228B
:108280008DF80420ADF808508DF80A4001A89847F1
:10829000744E33687BB105F0E9FD0028C8D108F0C1
:1082A000A5FD08B13368984700233360C0E7022872
:1082B000E2D16D4BDAE7022CBAD16C4CA389AB4208
:1082C00006D12046FFF724FE4FF6FF73A381AFE7E8
:1082D000674B58781B788342AAD0FFF745FEA7E783
:1082E0008588284605F068FD0023CDE90133064660
:1082F00003938DF80A0002230422294603208DF8F7
:108300000430ADF80850FFF74FFD50B1594A5A4BB1
:108310005A499B1ADB081B04024643F001000CF08B
:10832000B9F8022E4AD15149072204F1080018F089
:10833000CDF908B350484F4B5149C01AC00800044A
:1083400040F001000CF0A2F8494C484807220021F7
:1083500018F0D8F92278022A03D14A4B5878FFF74F
:1083600057FE6078FFF700FE3D4B1B68002B3FF483
:108370005FAF01A898475BE78DF800006946284683
:1083800008F0BEFC9DF8001011F008010ED128463F
:1083900008F088FC50B1374A374B3B499B1ADB0841
:1083A0001B04024643F002000CF074F82F4B9B684C
:1083B000002BC9D003932C4B1D80C5E7012ED3D1D0
:1083C000304CE678BEB1A378002B0CBF012300230C
:1083D000E370224B1D8004D00220FFF7EBFC022348
:1083E000237005F059FD012814D10020FFF7E2FCAD
:1083F00000232370B8E76946284608F09DFCBDF8C5
:1084000000204FF6FF739A42EBD131462846FFF722
:108410006BFEE6E70120FFF71FFD0028E5D0A3E78C
:10842000037A022B7FF404AF114C1048072200217D
:1084300018F068F92278032A03D1124B5878FFF715
:10844000E7FD607849E700F108018088FFF7A8FCA4
:10845000FFE6A0881321FFF7A5FCFAE66C41002097
:1084600068410020644100208041002070410020CC
:10847000DC4100205C680400E46804001A22040067
:108480003C22040060410020582204002DE9F04FF6
:10849000037887B00646042B3ED8DFE803F04D038F
:1084A0004D3D400002214FF6FF70FFF7A7FC00256D
:1084B00004464FF6FF76B4422CD0072D12D9294638
:1084C00002A808F009FC08B10CF034FF294602A804
:1084D00008F00CFC43F2042290421DD0E0B10CF0F5
:1084E00029FF19E001A92046ADF8046008F012FC4C
:1084F000BDF8040005F072FC02281CBF06AB03EBBC
:10850000450320461CBF23F8104C013508F026FC1B
:108510000446D0E7002DD2D107B0BDE8F08F534B11
:108520005878FFF721FD524B9A78022A14BF5878E9
:108530000320FFF76DFDEFE744684E480023072254
:1085400002A90293CDF80B3018F0C0F848B14A48A0
:108550004A4B4B491B1ADB081B0443F001000BF08C
:1085600095FF484F484DD4F81890B4F81CA0ED1B67
:108570002D094FF0000B5FFA8BF39D4241D8434D1C
:10858000A069A18B40F20113ADF8043001AA2B7849
:108590008DF8063005F0B8F990B12346354A53F806
:1085A000020F1060997998889171002190809160F4
:1085B0003178B1FA81F1490918469173FFF7A8FCA7
:1085C00040F20133A069A18BADF8043001AA2B78E9
:1085D0008DF8063005F098F900289DD054F8020F68
:1085E000244BA2791860A1889A71002299809A6020
:1085F0003278B2FA82F2520920469A73FFF788FC69
:108600008AE71A0107EB03185146BB5848469847BA
:108610000BF1010B0028AED0144B9B78002BAED190
:108620002346144D53F8020F28609A799988A9803F
:10863000AA71C5F808803278154FB2FA82F2520951
:108640003888AA734FF6FF72904203D11846FFF79D
:108650005FFC94E73178002991D1AB8983428ED0B9
:10866000FFF742FD3B88AB8189E700BFDC4100207A
:1086700060410020704100205C680400E468040050
:1086800075220400FC6904001C6A0400E04100201B
:108690008041002070B50546AEB0002800F0E980AA
:1086A000934B02681A600021782203A818F02AF878
:1086B0002C22002121A818F025F8502140F6B833CB
:1086C000CDE925134FF4C863279340F20133ADF889
:1086D00000306B798DF8023040F201128DF80630CF
:1086E000844BADF88820ADF804202A799A700223D3
:1086F0008DF80C3006238DF80F300123ADF81430BF
:108700008DF84A30ADF850307B4B2C9301AE7B4B4B
:108710007B48CDF818D003A915962D9303F06DFE74
:1087200050B1784A784B79499B1ADB081B04024602
:1087300043F001000BF0AEFE714C0121204603F026
:1087400059FE94F8541004220120FFF72DFB044633
:1087500050B16D486B4B6E49C01AC00800042246E8
:1087600040F001000BF096FE6A4A4FF6FF7313804B
:10877000002C32D168496A790A708DF806208DF88C
:108780000A20664A6648938141F61201654AADF8AF
:10879000001040F201311380ADF80410624B0393D6
:1087A00040F20111614BADF808100125604A0694B2
:1087B00003A904948DF8025005938DF8185006F023
:1087C00014FA044660B150484E4B5A49C01AC008CA
:1087D0000004224628430BF05DFE20462EB070BDFB
:1087E0004F486A46032106F0CBF9044668B94C4865
:1087F0003246032106F0C4F9044630B9484802AABB
:10880000032106F0BDF9044648B13F483D4B4A49B3
:10881000C01AC0080004224640F00100DBE702460F
:108820001F213F4806F0CBF90446002848D03648BF
:10883000344B4249C01AC00800042246ECE703A8A2
:1088400008F026FA044638B12F482E4B3C49C01A8E
:10885000C00800042246DFE73A4808F001FA04465F
:1088600048B12948274B3849C01AC008000422469D
:10887000D2E70E24B1E701461C2203A817F042FFFD
:10888000324B03934FF4A0324FF4F023CDE904238D
:1088900003238DF8183003A82D4BADF81A40089427
:1088A0008DF81C50099305F07BF90446002894D0FC
:1088B0001548144B2749C01AC00800042246ABE7EC
:1088C000254A264B024000F0FC0040F0030413430D
:1088D0008DF81040039308F03BF904460028AED011
:1088E0000948084B1E49C01AC0080004224693E7F5
:1088F0006841002060410020A97E0200D57D020071
:108900002C3D00205C680400E4680400A7220400F9
:10891000CB2204006C410020E04100207041002087
:10892000844100208041002002240400EA23040046
:108930008D840200EE2204000F2304002B23040088
:108940006D2304002581020091230400FA23040012
:10895000F97D0200BC2304008E0000FC31071003E7
:10896000482304000328F8B5214F224B044613D1B5
:108970001A787E78032A10D01F4B93F85400FFF723
:108980000DFA0020FFF716FA00233B707E70204698
:10899000BDE8F840FFF7E8BA06465A78A24219D077
:1089A000032C17D020465C70FFF7DEFA0546BA7834
:1089B000012A11D1114B197871B91A707E7015B155
:1089C0000320FFF725FB1CB90D48214605F0BCFA32
:1089D0002846F8BD0025EAE77B78B342F3D07E70E5
:1089E0003046002DEDD1FFF713FB0546EBE700BF46
:1089F00060410020DC4100202C3D0020DF410020B0
:108A0000E9800200014B1878704700BFDC4100206C
:108A100008B505F041FAC0B208BD08B505F02CFA5A
:108A2000C0B208BD00487047FA2304000148002185
:108A300005F08ABAE9800200094A937850B10133FF
:108A40009370084B18884FF6FF73984206D00021A8
:108A5000FFF74ABB13B1013B93707047704700BFEB
:108A6000DC4100208041002070B504460B4E06F02A
:108A7000BAF80020FFF7CCFA09483460002105F06D
:108A800063FA054640B908F0B1F9044610B13368FD
:108A900098473560204670BD0024FBE76441002004
:108AA000E9800200A8DF7047ADDF7047AEDF704796
:108AB000B0DF704762DF704770B5094B1B780A253D
:108AC000013B4E195A1C01D1002407E005FB03F2BB
:108AD0008C180A3A013BB25A8242F3D1204670BD4B
:108AE000E141002070B50C4686B0064615460021CF
:108AF0001822684617F006FE636A8DF80060CDE91B
:108B000001450BB16846984706B070BD70B5054683
:108B100086B04B79ADF806300C461022002102A831
:108B200017F0F0FDAB89ADF808300023ADF80C303C
:108B30000DF106030226049320888DF80A60A31D18
:108B400002A90593FFF7B2FF40B96279BDF806307C
:108B50009A420ED10323237106B070BD132806D0AC
:108B600000232371AB6A002BF6D09847F4E72671F7
:108B7000F2E70C20F4E700002DE9F047AA4B90B093
:108B800000AF154603F1100E07F1100206468846A5
:108B90009446F24618685968144603C4083373456E
:108BA0002246F7D1002E00F03D81002D00F03A81E1
:108BB000697819B16B68002B00F034812B78002B99
:108BC00000F011810023DAB28A42C0F0FB80B8F1D4
:108BD000000F00F00881954B83F80080EB69736209
:108BE0002B6AB3624FF6FF7108F1FF385FFA88F81D
:108BF000B8F1FF0F40F0F98031466046FFF75AFFA9
:108C00000446002840F0D9803246391D12F8023B54
:108C1000BB71012040F20133BB80FFF743FF0446E4
:108C2000002840F0CA802022BAF800303B8101467B
:108C3000B81887F80A8017F065FD324640F2023313
:108C40003B8412F8043B87F82230794B708807F197
:108C50000809C7E90939BB8D23F4875323F01F03A3
:108C600043F4805343F00103BB8507F12001012346
:108C700087F8333005F0B4F90446002840F09D80B1
:108C800020220146B81817F03DFD6B785B000B33CE
:108C900003F47E73E846ADEB030D2B7833776B78E6
:108CA00073772B89F3832B788DF800306B788DF8F0
:108CB000013069460DF1020CE2B293420CF1020C54
:108CC00000F299805A1C288901F81200023301EB46
:108CD00042025B00000A5070FB8440F20332BB8406
:108CE00097F82D303A84327887F82220B96243F021
:108CF0000203708887F82D304FF0010A4A4607F1C9
:108D0000200187F831A005F06BF90446C54600281C
:108D100053D120220146B81817F0F4FC32464FF424
:108D200041733B8412F8143B87F82230AB8AFB84F2
:108D3000BB84EB68BB6297F82D30708887F834A04D
:108D400023F00A0343F00A0387F82D3040F20113A1
:108D50003B8607F120012B7E87F8323005F040F981
:108D6000044650BBAB8A3384142B06D9686A20B101
:108D7000B18A05F01EFA0446F8B920220021B8187D
:108D80006C7E17F0BFFC324640F205333B8412F88C
:108D90000C3B87F822301423BB8442F60103BB85C9
:108DA000708887F83240012307F1200187F83340AB
:108DB00087F8303005F014F9044620464037BD46A8
:108DC000BDE8F0876C6803EB4302A018A45C54B1C3
:108DD00042780F2A07D8944205D982780F2A03F1E6
:108DE00001037FF6F0AE0724E7E7F26A08EB880399
:108DF00022F81310F8E6D5F804A004EB440E0AEBB1
:108E00000E02013450789278120342EA00201AF8D8
:108E10000E20024312B20CF8022CC2F307220CF807
:108E2000012C49E70E24C8E72C240400E14100206E
:108E300008000300F0B505468BB00C4649B140B1BF
:108E40000388572B05D84F2B05D8102B1AD0112B80
:108E500055D00BB0F0BD503B072BFAD801A252F809
:108E600023F000BF3D8F0200AF8F0200538E02003F
:108E7000C1900200538E0200538E0200538E0200F6
:108E8000E7900200C96A4FF6FF70FFF715FE06462D
:108E900020B9A36A002BDCD00520BAE0AB880380A0
:108EA0000822002104A817F02DFC02232189A8889C
:108EB000CDF814D004AA0493FFF7F6FD074650B985
:108EC000059805F07CF830B10123B3703246214695
:108ED0003846FFF707FE218AA88804AAFFF7E4FDB9
:108EE0000028B6D1059805F06EF80028B1D001230E
:108EF000F370324621460220FFF7F4FDA9E7C96A64
:108F00008088FFF7D9FD05460028C2D0837833B1A9
:108F100000238370024621460120FFF7E3FDEB7832
:108F200033B10023EB702A4621460320FFF7DAFD18
:108F30004FF6FF732B8000232B718AE7C3880A89C1
:108F40009A421AD1C96A8088FFF7B6FD0646002802
:108F50009FD02B8A022B7FF47CAF05F1120005F025
:108F60002EF828B10123B370324621460020C3E712
:108F7000B070324621460120BEE70A8A9A427FF449
:108F800068AFC96A8088FFF797FD0646002880D041
:108F90002F8A022F7FF45DAF05F1120005F013F860
:108FA0000028A4D1F070324621460320A4E783793B
:108FB000022B7FF44EAF837B013B022B3FF649AF80
:108FC00002898B899A427FF444AF8788C96A384600
:108FD000FFF772FD064618B9A36A0BB10520984742
:108FE00002238DF800300023CDE902339DF80630CE
:108FF00043F001038DF806306EB901236946384607
:10900000ADF80430FFF754FD80B1A36A002B3FF4A4
:1090100020AF98471DE7F3782BB13379002BEDD0C3
:109020004FF4FF73EAE740F2FD13E7E7BDF80430C1
:10903000002B7FF40EAF002E3FF40BAF02233371F1
:10904000297D8DF81C1020216A8A7371B1719DF8F9
:109050001C10F171032301397371072907D8DFE868
:1090600001F02B042B062B060623022A09D03372AB
:109070003379022B7FF4EDAE31462046FFF746FDF3
:10908000E7E6012333726B7D8DF82030636A002B95
:10909000EED00522CDE905468DF8102004A89847AA
:1090A0000028E5D10423E2E701231535013A3372A4
:1090B0000895ADF82420E9E7012AD8D13272E5E716
:1090C000C96A8088FFF7F8FC00283FF4E2AEEA881E
:1090D000A3899A427FF4BDAE0379032B7FF4B9AE26
:1090E00000230371B5E6094B1D78013DEDB2FF2D5C
:1090F0003FF4AFAEE36A05EB850103EB41010B7969
:10910000022BF2D12046FFF701FDEEE7E1410020FE
:10911000B0B588B00D46018CCB1D0446DB0868460F
:10912000A0EBC30300AF9D46636AF9800BB9002032
:1091300021E05388A18A9942F9D1BB1D6A4628468D
:1091400005F052F8D0B90423E16A68883B72FC60EC
:10915000FFF7B2FC237F38610DEB4303BB61FB8853
:10916000BB83C7F814D0636A07F10800984700284A
:10917000DDD14FF4C0702037BD46B0BDA36A002BCF
:10918000D5D09847D3E7F0B50E4689B005460028FC
:109190004AD0002A48D000238DF80830137851783F
:1091A0008DF80A10D80741BF50888DF80B00000ACF
:1091B0008DF80C004CBF0524032499078DF8093065
:1091C00006D508A8611C0444107904F8180C8CB268
:1091D00013F0040F02AF06D0D3883B553A191B0A8F
:1091E00002345370A4B2102200210DEB0200ADF83E
:1091F000064017F087FAAB88ADF8103001238DF8E0
:1092000012300023ADF8143004A90DF106033046E6
:10921000CDE90637FFF74AFC20B9BDF80630A34276
:1092200018BF0C2009B0F0BD0E20FBE7A4DF70478B
:1092300062DF704770B5094B1B780625013B4E195C
:109240005A1C01D1002407E005FB03F28C18063AF2
:10925000013BB25A8242F3D1204670BDE241002068
:1092600070B5094B044609481B1ADB081B040D4660
:1092700043F0010006490BF00DF9EB681BB12046E5
:10928000BDE87040184770BDA46804005C68040025
:109290003F240400F0B50B7885B0044683BB888872
:1092A00040F2013290422BD188792278904227D126
:1092B00048880D7AADF8080001F10E06122740F239
:1092C000053C9D420CD907FB03F236F802E0E64567
:1092D00018D11144CB8AADF80C300B8BADF80E30A1
:1092E0006168FFF7A7FF034610B10398C3F80200B7
:1092F000A3682BB100228DF8042001A920469847CD
:1093000005B0F0BD0133DCE773B50C4616460546E3
:10931000002833D0002A31D0002931D019480DF16E
:109320000601FFF785FF38BB40F20133ADF804308A
:109330009DF806302B703368AB607368EB60B368E0
:109340002B61114B06221C706FF0050312FB0432D7
:109350004FF6FF76034669688E5269681144013CF6
:109360004B806968114414F0FF048B80A2F106025F
:10937000F1D101A803F0C2FB02B070BD0E20FBE7E3
:109380000720F9E775240400E24100207FB5044678
:109390000D4691B188B10388382B3AD0392B0ED0C5
:1093A000112B0AD149688088FFF744FF28B14FF696
:1093B000FF73038000234380838004B070BD0023CB
:1093C000496880880393CDE90133FFF733FF0646F0
:1093D0000028F2D0438861899942EED10088FFF7D6
:1093E00025FF02228DF80420AA68E3890296002A4C
:1093F000E3D0217C2029E0D1033B022BDDD9637C23
:109400008DF80C30A37C8DF80D3001A928469047CB
:10941000D3E749688088FFF70DFF0028CDD0E088AA
:109420000028CAD0EB68002BC7D09847C5E70000DA
:10943000F0B50D468BB016460446002835D041687D
:109440002846FFF7F7FE0746002830D020220021EB
:1094500002A817F057F9184ACDE9042401237A88A5
:109460008DF808308DF818303378ADF81A2001AA3D
:1094700008928DF804304FF48032013B0792042BA0
:1094800004D8DFE803F016061603160007200BB019
:10949000F0BD33798DF80530206902232A4602A9F0
:1094A000ADF81E3005F040FAF1E70E20EFE7052099
:1094B000EDE70620EBE700BF6192020070B50D46B4
:1094C0008AB01646044650B341682846FFF7B2FEFC
:1094D00038B3002E4FF0000108BF0B4686888DF888
:1094E000051018BF0223202202A88DF8043017F0BF
:1094F00009F90D4A2069ADF81A60CDE9042401AAE2
:1095000008924FF400320123079202A92A468DF8EF
:1095100008308DF8183005F007FA0AB070BD0E203B
:10952000FBE70520F9E700BF6192020070B50D4628
:1095300016460446A0B141682846FFF77BFE28B9CD
:109540004FF6FF70FFF776FE60B1058016B1336805
:10955000C0F8023020692946BDE8704005F084BAA1
:109560000E2070BD0520FCE7A8DF7047ADDF704717
:10957000AEDF704762DF704730B5084B1B780C1DBB
:10958000013B5A1C01D1002206E001EB8302013BA2
:1095900034F823508542F4D1104630BDE341002019
:1095A0002DE9F041614B8EB0144602AA0746884669
:1095B00003F11006944618685968154603C5083328
:1095C000B3422A46F7D1002F00F0AC80002C00F007
:1095D000A980B8F1000F00F0A78063687B61236960
:1095E000534EBB6108F18043013B86F800809B002D
:1095F0004FF6FF71BA6B08F1FF3818F0FF08D1522F
:10960000A3F10403F6D139466046FFF7B3FF002803
:1096100040F085803A46694612F8023B8DF80230E8
:10962000012040F20113ADF80030FFF79DFF002844
:1096300075D12022414606A88DF8068017F062F801
:109640003A464FF48173ADF8183012F8043B8DF8A8
:109650001A30384B0793BDF82430788823F48753A9
:1096600023F01F0343F4805343F0010301ADADF831
:10967000243006A9637808958DF82B3004F0B0FCEF
:1096800000284CD1237CA27C218AADF80410012B48
:1096900098BF94F813808DF806200021202206A898
:1096A0008DF8078017F02EF83A4640F20313ADF814
:1096B000183012F80C3B8DF81A304FF00413CDE936
:1096C00007359DF82530788843F002038DF8253062
:1096D00006A963788DF8293004F082FCF8B9A368F4
:1096E000EBB10146142206A817F00CF83B788DF870
:1096F0001830A3788DF81930E3788DF81A307B880C
:109700002069ADF82030A368CDF81B0009933178AB
:10971000E3680A9306AA07F11C0000F047FA0EB0AE
:10972000BDE8F0810E20FAE70720F8E78524040061
:10973000E3410020130003002DE9F041054688B005
:109740000C46002900F09B80002800F0988001461C
:1097500004F11C0000F030FBB5F80080B8F1110FE7
:109760005AD0B8F1500F00F08D80B8F1100F40F0D2
:109770008680A16B4FF6FF70FFF7FEFE06460028BD
:109780007DD0AB8803806169002978D108220DEB78
:10979000020016F0B7FF01AB03932189A8880223CA
:1097A00002AA0293FFF7E2FE0746A0B9039804F06D
:1097B00006FC80B10123B3704246394604A816F076
:1097C000A1FFAB88ADF818308DF81070636905946F
:1097D000079604A89847218DA88802AAFFF7C6FE1D
:1097E000074600284BD1039804F0EDFB002846D033
:1097F00001231022F37039460DEB020016F082FFB0
:1098000002238DF81030AB88ADF8183063690594E9
:10981000079604A8984732E0A16BA888FFF7ACFE32
:10982000064660B363693BB383788BB10021102295
:1098300081700DEB020016F065FF01238DF81030EA
:10984000AB88ADF8183005946369079604A898476B
:10985000F3788BB100211022F1700DEB020016F0AD
:1098600051FF03238DF81030AB88ADF81830059404
:109870006369079604A898474FF6FF73338008B0D2
:10988000BDE8F081EB8822899A4221D1AF88A16B93
:109890003846FFF771FE06460028F0D02B8A022BCF
:1098A000EDD1102200210DEB020016F02BFF05F187
:1098B00012000594ADF81870079604F080FB0123A0
:1098C00020B1B37000238DF8103023E0B070FAE7B8
:1098D000228D9A42D3D1B5F80480A16B4046FFF7A0
:1098E0004BFE06460028CAD02F8A022FC7D110226D
:1098F00000210DEB020016F005FF05F112000594A2
:10990000ADF81880079604F05EFB40B10123F370B8
:109910008DF810706369002B7FF47BAFAFE7F070B8
:109920000323D0E72DE9F0410F468AB0816B8046D2
:1099300038461446FFF720FE002800F0D7808378D1
:10994000002B00F0D38023788DF8143005AD33B3AD
:10995000012B00F0918001239CB20021102201A86C
:10996000ADF8024016F0CEFEB8F80430ADF8043081
:1099700001238DF806300023ADF8083001A90DF160
:1099800002033846CDE90335FFF7F2FD20B9BDF8F3
:109990000230A34218BF0C200AB0BDE8F0816288F3
:1099A000C2F309038DF815301B0A8DF816302379A0
:1099B0008DF81730D30744BF63798DF81830D6B2CD
:1099C0004CBF05230423B00708D50AA9581C0B4433
:1099D000A17901F00F0103F8141CC3B2710708D577
:1099E0000AA9581C0B44E17901F00F0103F8141C7B
:1099F000C3B2300706D52189E954E818090A0233B1
:109A00004170DBB2F10606D56189E954E818090A0C
:109A100002334170DBB2B00606D50AA8591C0344D4
:109A2000A07B03F8140CCBB2710606D5218AE95449
:109A3000E818090A02334170DBB2160606D50AA8F7
:109A4000591C0344A07C03F8140CCBB2D0054FEA98
:109A5000122106D50AA85A1C0344E07C03F8140C12
:109A6000D3B28A077FF578AFA28AEA54E918120ABE
:109A700002334A70DBB26FE76288C2F309038DF8E4
:109A800015301B0A8DF8163023798DF81730D3075F
:109A900044BF63798DF81830D6B245BFA3798DF8ED
:109AA000193004230623B00708D50AA9581C0B4413
:109AB000E17901F00F0103F8141CC3B2710708D556
:109AC0000AA9581C0B44217A01F00F0103F8141C59
:109AD000C3B2300706D56189E954E818090A023390
:109AE0004170DBB2F10696D5A1898EE7082053E7D5
:109AF000ADDF7047AEDF7047B0DF704770B5094B20
:109B00001B781825013B4E195A1C01D1002407E08F
:109B100005FB03F28C18183A013BB25A8242F3D18A
:109B2000204670BDE4410020F0B50E4687B0816943
:109B300005463046FFF7E2FF044620B96B6913B1D2
:109B40000520984723E0A778022F20D12379ADF88C
:109B500006300021102202A816F0D4FD2B89ADF8A2
:109B600008300023ADF80C300DF10603049302A970
:109B7000631D30468DF80A700593FFF7BBFF40B9AF
:109B80002279BDF806309A420DD10323A37007B0A5
:109B9000F0BD132805D00023A3706B69002BD0D132
:109BA000F5E7A770F3E70C20F5E7000070B5154660
:109BB00088B00446002850D0002A4ED000294ED04C
:109BC000284B197013464FF6FF7613F8032B0270DB
:109BD0001B68C0F801302B89C380EB6803612B69D7
:109BE00043616FF01702182313FB01230020A269C1
:109BF000D652A26901391A4411F0FF019070A3F105
:109C00001803F4D12022684616F07CFD22464FF45A
:109C10008273ADF8003012F8083B8DF80230132340
:109C2000ADF80430BDF80C30E08823F4235323F062
:109C30003F0343F4205343F00103ADF80C300123FC
:109C40008DF81030AB788DF8123069466B788DF84E
:109C5000133004F0C5F908B070BD0E20FBE70720F3
:109C6000F9E700BFE44100202DE9F0410F46064628
:109C7000816938461446FFF741FF002800F09580BF
:109C8000002C00F094808378012B40F09280022316
:109C9000837020234371237883716378C371012B10
:109CA00040F081802378013B451D0E2B7BD8DFE8F7
:109CB00003F0777A087A597A71715D5D717A777AF3
:109CC000770023790372A36893B9042308E0A1689D
:109CD000895CE95401322179131D8A42DBB2F6D343
:109CE000037139463046FFF71FFF0020BDE8F081C1
:109CF0000022F0E7717849B101291AD00CF1010C6A
:109D0000217A5FFA8CF29142F4D8E9E7112BF5D869
:109D1000616811F81210E954616801EB420203F125
:109D2000010E527802335FFA8EFEDBB205F80E2088
:109D3000E4E7102BE2D8616802EB420203F1020E65
:109D4000895CE954616811445FFA8EFE91F80180E4
:109D5000591CC9B2033305F8018061680A44DBB2BB
:109D60009278E3E74FF0000C0323C9E7B4F904301D
:109D70000372C3F307234372B4F906308372C3F34B
:109D80000723C372B4F908300373C3F30723437383
:109D90000923A5E7237903726379437205239FE7BB
:109DA0002379037291E703239AE705209EE70E20AB
:109DB0009CE708209AE700002DE9F0430B88512B1F
:109DC00091B004460D463DD006D8102B1CD0112B67
:109DD0002BD011B0BDE8F083532B00F08481572BBA
:109DE000F7D1964B1D781826002DF2D0A26906FBFC
:109DF00005F3183BD1188978022903D1D15A20469E
:109E0000FFF792FE013DEFE781694FF6FF70FFF724
:109E100075FE28B96369002BDBD004209847D8E78A
:109E2000AB88038000238370D3E78169A888FFF79C
:109E300065FE20B96369002BCBD00520EEE74FF615
:109E4000FF73EEE78E79022EC3D18B7B043B022B8E
:109E5000BFD90A8903899A42BBD1B1F804808169CC
:109E60004046FFF74BFE074618B963690BB1052062
:109E700098479DF816304FF00209002143F0010386
:109E8000082208A8CDE906118DF810908DF816303B
:109E900016F038FCCDF82090A1890DF1040908AA2C
:109EA0004046CDF82490FFF723FE10B1636903B15B
:109EB0009847484604F087F858B33FB3BB782BBBAC
:109EC00004A94046ADF81430FFF716FE10B16369DF
:109ED00003B19847BDF81430002B7FF47AAF002F00
:109EE0003FF477AF0123BB70AB7CBBB12A7D8DF80B
:109EF0002020013A0F2A11D8DFE802F00E950E7EDD
:109F000095240E0E0E0E0E8C0E950E954FF4FF73CB
:109F1000D6E740F2FD13D3E7012B28D003238DF8B9
:109F200005309DF820308DF804304A4641462046E1
:109F3000FFF79AFE00283FF44CAF6369002B7FF4D3
:109F40006DAF46E794F801C0BCF1000F21D1122B90
:109F5000E4D8DA07E2D46A7D8DF8242000228DF857
:109F6000252008AA05F114001546B3421FD825691B
:109F70009DF82010002D7DD04A1E0F2A7AD8DFE8E8
:109F800002F0635F59596375637F8181838385859F
:109F90008989BCF1010FDED11A2BBFD8991E03228B
:109FA00091FBF2F202EB42029142D4D0B6E7711C6F
:109FB00010F806E0C9B2BCF1000F0BD0BCF1010FE4
:109FC0000FD09DF8256001368DF8256003320235EB
:109FD0000E46CAE7415CE971023685F806E0F1B247
:109FE000EFE7415CD171F11C0236F6B282F806E06F
:109FF000865D1672C9B2E4E76A7D8DF82420991E49
:10A00000914202D116350A95B1E7022B86D1002381
:10A010000A93ACE7032B81D16B7D8DF82430AB7DA7
:10A020008DF82530A3E7022B7FF478AF6B7D8DF898
:10A0300024309CE7A37813F0040F1AE0E4410020D9
:10A04000A37803F00103ABB109ABADF8068002972A
:10A0500003930F2A3FF6BDAEDFE802F0202B272F37
:10A06000292D31333537393B3D3F4143A37813F038
:10A07000020FE9D102238DF805308DF8041054E762
:10A08000E378DEE7E378F2E7E378D4E7A37813F048
:10A09000080FEEE7A37813F0100FEAE700238DF81E
:10A0A000043049462046A84793E60223F7E70423F5
:10A0B000F5E70123F3E70523F1E70323EFE70623A1
:10A0C000EDE70723EBE70823E9E70923E7E70A239E
:10A0D000E5E70B23E3E70C23E1E70D23DFE70E239E
:10A0E000DDE70F23DBE78169A888FFF707FD00287C
:10A0F0003FF4A0AEEA8823899A427FF46AAE83785F
:10A10000032B7FF466AE8DE6A4DF704762DF7047F5
:10A1100070B5094B1B780C25013B4E195A1C01D117
:10A12000002407E005FB03F28C180C3A013BB25AFD
:10A130008242F3D1204670BDE541002030B505468E
:10A1400085B00C464FF6FF704968FFF7E1FF48B154
:10A15000E3683BB10022CDE902058DF8042001A996
:10A160002046984705B030BD70B58AB004460D460C
:10A1700016460021202202A88DF804308DF8051023
:10A1800016F0C0FA0A4A2069ADF81A60CDE9042435
:10A1900001AA08924FF400320123079202A92A462D
:10A1A0008DF808308DF8183004F0BEFB0AB070BD91
:10A1B0003DA10200F0B50B7889B00446002B5AD1BE
:10A1C000888840F20112904255D1887922789042D5
:10A1D00051D148880D7AADF8040001F10E0612271E
:10A1E0009D420DD907FB03F236F802C0BCF5817F12
:10A1F00043D18B18DA8A1B8BADF80820ADF80A30F2
:10A20000002301F10E06122740F2031C9D4209D9DA
:10A2100007FB03F236F802E0E64530D10A44D38A60
:10A22000ADF80C30002201F10E06122795420DD92F
:10A2300007FB02F336F803C0BCF5827F21D1194435
:10A24000CB8AADF80E300B8BADF810306168FFF79C
:10A250005FFF034638B102AA03CAC3F80200C3F87D
:10A26000061012885A81A3682BB100228DF80020B5
:10A2700069462046984709B0F0BD0133B0E7013385
:10A28000C4E70132D2E7000073B50D461646044616
:10A2900000283DD0002A3BD000293BD01E480DF1BC
:10A2A0000601FFF733FF002830D140F20113ADF86B
:10A2B00004309DF8063023703368A3607368E36050
:10A2C000B3682361154B0C221D706FF00B0312FB5A
:10A2D00005324FF6FF76034661688E52616811447D
:10A2E000013D4B806168114415F0FF058B8061686A
:10A2F0001144CB80616811440B8161681144A2F163
:10A300000C024B81E8D101A802F0F8FB02B070BD4D
:10A310000E20FBE70720F9E795240400E541002023
:10A32000F0B5044689B00D4651B148B10388382BC9
:10A3300000F0248106D8112B63D0362B00F0468123
:10A3400009B0F0BD392BFBD149688088FFF7E0FEEA
:10A3500006460028F4D020220021684616F0D2F9E3
:10A360000196628973889A421AD10223A17C8DF8E2
:10A370000030637C227CE77C8DF8082043EA0123CF
:10A3800018B21946ADF80A3004F11403002A48D077
:10A39000012A00F09380AB6813B1694628469847BC
:10A3A000338961899942CBD13088FFF7ADFEAE6821
:10A3B000E38904228DF80020002EC1D0227C202ABF
:10A3C000BED1A17C627C8DF8082001298DF809108E
:10A3D00040F0AD80033B013A9BB20E2A00F2A78009
:10A3E000DFE812F0C800A5009A00A500A900A500AA
:10A3F000C100C100AE00AE00C100A500C800A500AC
:10A40000C80049688088FFF783FE002898D04FF67F
:10A41000FF730380002343808380C38003814381D3
:10A420008EE78DF80C70C70742BF277D8DF80D7041
:10A4300004F11503C2B2970744BF13F8017B8DF8EE
:10A440000E70570744BF13F8017B8DF80F70170784
:10A4500041BF93F801C013F8027B47EA0C27ADF81F
:10A460001070D70607D593F801C013F8027B47EAAE
:10A470000C27ADF81270970644BF13F8017B8DF8D6
:10A480001670570641BF5F7813F8022B42EA072285
:10A49000ADF81820000644BF1A788DF81A200A0A71
:10A4A000C90544BF19788DF81B10920741BF5A782F
:10A4B0001B7843EA0223ADF81C306CE78DF80C7072
:10A4C000C707C2B207D5237D677D8DF80D308DF8A3
:10A4D0000E7004F11603970744BF13F8017B8DF843
:10A4E0000F70570744BF13F8017B8DF810701707E2
:10A4F00041BF93F801C013F8027B47EA0C27ADF87F
:10A500001470D70641BF93F801C013F8027B47EAE5
:10A510000C27ADF81470AEE7E27C8DF80C20023BFE
:10A52000934202D11434049401E000230493694659
:10A530002846B04704E7033B8DF80C301334F2E7AC
:10A54000227DE37C43EA0223ADF80C30A27D637DDB
:10A5500043EA0223ADF80E30227EE37D43EA022374
:10A56000ADF81030E3E7E37C8DF80C30237D8DF8F7
:10A570000D30DCE7E37C8DF80C30D8E74968808843
:10A58000FFF7C6FD00283FF4DBAEE388002B3FF465
:10A59000D7AEEA68002A3FF4D3AEADF80830019098
:10A5A00063898188994206D101238DF8003069467C
:10A5B00028469047C4E60189994201D10323F4E774
:10A5C000418999427FF4BCAE0223EEE74968808856
:10A5D000FFF79EFD064600283FF4B2AE6289C388AD
:10A5E0009A427FF4ADAE20220021684616F08AF828
:10A5F0000323627C8DF80030237C019643EA02231A
:10A60000ADF80830AB68002B3FF49AAE6946284697
:10A61000984795E6F0B50E468FB0144605460028DB
:10A6200071D041683046FFF773FD074600286CD0B3
:10A630002022002106A816F065F8374ACDE9082542
:10A6400001233A898DF818308DF828302378ADF839
:10A650002A2001AA0C928DF804304FF48032023B7C
:10A660000B920E2B53D8DFE803F0495208492652CB
:10A67000525252523F5249524900A06821798DF8F6
:10A6800005100223ADF82E3020B10DF10604002391
:10A690008B4206D32869324606A904F045F90FB06B
:10A6A000F0BDC25C04F8012BBDF82E200132ADF8DC
:10A6B0002E200133ECE7617912292AD823798DF80D
:10A6C00005300223ADF82E300DF1060000238B4239
:10A6D000E0D2A268D25C00F8012BBDF82E20013236
:10A6E000ADF82E200133F2E723798DF80530637938
:10A6F0008DF806300323ADF82E30CBE723798DF8A3
:10A7000005300223F7E70E20C9E70520C7E7072039
:10A71000C5E70420C3E700BF3DA1020070B50D46A8
:10A720001646044680B141682846FFF7F1FC68B13F
:10A73000002E42892946204618BF0223BDE87040FA
:10A7400008BF0023FFF710BD0E2070BD0520FCE7F9
:10A7500070B50E4614460546C8B141683046FFF74D
:10A76000D7FC28B94FF6FF70FFF7D2FC88B10680FE
:10A770003CB12368C0F802306368C0F80630238912
:10A78000438128693146BDE8704004F06DB90E2060
:10A7900070BD0520FCE78B6903B11847704707B50A
:10A7A000E8B1E1B101238DF8063041F61203ADF8AE
:10A7B00004304FF6FF730360002383800A688261D0
:10A7C0004A68C2618A680262C0E90233C0E90433A0
:10A7D000C38001A802F092F903B05DF804FB0E20DB
:10A7E000FAE72DE9F043064689B00C4641B138B18D
:10A7F0000388382B3DD006D8112B28D0362B4AD0D1
:10A8000009B0BDE8F083392BFAD182880B889A42CF
:10A81000F6D14389CA889A4227D08A899A4226D09B
:10A820004A8A9A42ECD102238DF80E3006F11003C9
:10A830000293F389ADF80C30E36904228DF804200B
:10A84000002BDDD00DEB020120469847D8E7828827
:10A850000B889A42D4D100234FF6FF70C1E9000360
:10A86000C1E90233C1E90433CAE70023DCE701236D
:10A87000DAE70A8883889A42C2D101F11205F0888A
:10A8800028B1328923899A4201D10AF053FD063456
:10A89000AC42F4D1B4E70A8883889A42B0D14289A5
:10A8A0004B889A4226D10422002102A815F02AFFE3
:10A8B0000223727C8DF80430337C43EA0223F27C5D
:10A8C000ADF80830D107B37C8DF80A3042BF9DF84F
:10A8D0000B3043F001038DF80B30930742BF9DF816
:10A8E0000B3043F002038DF80B30E36913B101A97B
:10A8F000204698477289A3889A420DD103238DF888
:10A90000043006F110030293F389ADF80C30E369CB
:10A9100013B101A920469847012506274FF00508E5
:10A9200006F1100907FB05F37289E35A9A420ED12A
:10A930006B1E8DF80E30F389ADF80C30E3698DF89D
:10A940000480CDF8089013B101A92046984701353D
:10A95000042DE7D1002504F10A08062707FB05F3BB
:10A96000728938F803309A420ED1337C8DF8093061
:10A97000737C8DF80A30E3698DF804708DF8085007
:10A9800013B101A9204698470135032DE6D137E7D9
:10A9900030B504468BB020B3022924D8062303FB2C
:10A9A00001018DF804200D892022002102A88DF8D4
:10A9B000051015F0A7FE0D4A206AADF81A50CDE932
:10A9C000042401AA08924FF400320123079202A93D
:10A9D00022888DF808308DF8183003F0A5FF0BB0F1
:10A9E00030BD0E20FBE70720F9E700BF97A7020064
:10A9F00030B480B1018052B1831C02F1140452F8CA
:10AA0000045B43F8045BA242F9D112881A8030BC7F
:10AA1000006A04F029B80E2030BC704778DF704718
:10AA20007ADF70477CDF704770470000054B0649AE
:10AA3000024606481B1ADB081B0443F0010009F01C
:10AA400029BD00BFE4680400B02404005C68040071
:10AA5000054B0649024606481B1ADB081B0443F057
:10AA6000010009F017BD00BFE4680400BD24040024
:10AA70005C680400054B0649024606481B1ADB08C1
:10AA80001B0443F0010009F005BD00BFE4680400A9
:10AA9000CA2404005C68040038B50378022B04461D
:10AAA0006DD18379012B0FD18188354803F0E5FB07
:10AAB00050B1344A344B35499B1ADB081B0402461B
:10AAC00043F0020009F0E6FCA26852B3304DD368AF
:10AAD000EB61A3685B689847A18802462846FFF7A8
:10AAE00087FF50B1274A284B2A499B1ADB081B04D1
:10AAF000024643F0020009F0CDFCA36824489B689D
:10AB00000121984700283AD01E4A1F4B22499B1A20
:10AB1000DB081B04024643F00200BDE8384009F0A0
:10AB2000B9BCA1881D48FFF713FE50B1154A164B5A
:10AB30001B499B1ADB081B04024643F0020009F084
:10AB4000A9FCA18817480022FEF7F0FC50B10D4A7D
:10AB50000D4B15499B1ADB081B04024643F002000B
:10AB600009F098FCA188114801F0EAFF38B1054AC4
:10AB7000054B0F499B1ADB081B040246CBE738BD87
:10AB80008C4700205C680400E4680400DE240400B4
:10AB90007C460020F92404001425040068390020B4
:10ABA00035250400243900205025040038330020C6
:10ABB0006B25040070B583680446188803F0FCF820
:10ABC0000128054604D12378022B08D0032B0ED090
:10ABD0000D4B1B68ABB12046BDE8704018470B4ECB
:10ABE0003378002BF4D1FDF727FF3570F0E7074DE0
:10ABF0002B78002BECD00020FDF71EFF00232B70DC
:10AC0000E6E7184670BD00BF88470020E1460020F7
:10AC10000A4601460148FEF77BBA00BF38390020DA
:10AC20000AF088BB07B5014601900548FFF7C2FA54
:10AC30000199044803B05DF804EBFEF72BBB00BF9D
:10AC40006839002024390020F0B583B000AF08B384
:10AC5000124D2B68F3B10388502B1BD10389B3F538
:10AC6000285F17D1048A04F108036E46DB08A6EBBF
:10AC7000C3039D4600F112012246684615F034FDDB
:10AC800000230DF804303B70C7F804D02B68384619
:10AC90009847B5460C37BD46F0BD00BF844700203D
:10ACA00008B503281DD8DFE800F0022309150020AD
:10ACB000FDF758FEBDE80840FDF7B8BE0D480E4B45
:10ACC0000E49C01AC0080004BDE8084040F0010069
:10ACD00009F0DCBB0748084B0949C01AC00800044A
:10ACE000F2E70448044B0749C01AC0080004EBE728
:10ACF00008BD00BFE46804005C6804008D25040002
:10AD0000C6250400F325040038B50546008903F084
:10AD100053F80128044604D12B78022B02D0032BD0
:10AD200008D038BD084D2B78002BFAD1FDF784FEF2
:10AD30002C70F6E7044C2378002BF2D00020FDF7AE
:10AD40007BFE00232370ECE7E046002008B50B787B
:10AD500043B989880122FEF7B1FB18B1BDE808406C
:10AD60000AF0E8BA08BD08B50B7843B98988012212
:10AD7000FFF7D4FC18B1BDE808400AF0DBBA08BD03
:10AD800010B50B88834286B0044623D002228B780C
:10AD90008DF80C208DF80420014601AA10488DF88A
:10ADA00010308DF80830FEF743FB052814D10D480C
:10ADB00003AA2146FFF72EFC60B105280AD00A4AF3
:10ADC0000A4B0B499B1ADB081B04024643F00100A7
:10ADD00009F060FB06B010BD0028FBD0EFE700BF14
:10ADE00024390020683900205C680400E46804000D
:10ADF0001A2604002DE9F04105469CB0002800F019
:10AE0000EB818368002B00F0E781A14A136002F018
:10AE10005BFA044658B19F489F4BA049C01AC0082E
:10AE20000004224640F0010009F034FB44E00AF03F
:10AE300091FC50B1984A974B99499B1ADB081B0427
:10AE4000024643F0010009F025FB00230CA9012074
:10AE50000C930AF01DFB50B18F4A8E4B91499B1AFF
:10AE6000DB081B04024643F0010009F013FB0CA8A9
:10AE70000AF0C2FB50B1884A864B8B499B1ADB080B
:10AE80001B04024643F0010009F004FB6C886E6865
:10AE9000FDF7C8FD0246006851680CAB1F2C03C3C8
:10AEA0000ED97D4B7B488149C01AC008000440F090
:10AEB000010009F0EBFA092420461CB0BDE8F0813E
:10AEC000B4B111238DF8203031680191084615F096
:10AED00029FC019982B208A8FFF7A4FD044650B1ED
:10AEE0006C486D4B7249C01AC0080004224699E7AD
:10AEF0008DF82040E8E7308AFFF790FD044638B12E
:10AF00006448654B6B49C01AC0080004224689E7B3
:10AF10000CA8FFF785FD044688B901466648D5F8B8
:10AF20000480D5E9037603F0DFFA044678B1594886
:10AF3000594B6249C01AC0080004224672E75548BE
:10AF4000554B5F49C01AC008000422466AE7014613
:10AF5000059040220CA815F0D5FBD5E9050109ABF9
:10AF600083E80300574B08935748584B0B9308A9A5
:10AF700003F0F7F8044638B14648474B5449C01A25
:10AF8000C008000422464DE7D8F8041011B10CA8FF
:10AF900003F01DF8D8F8081011B10EA803F017F847
:10AFA000D8F80C1011B112A803F011F8494914A8EF
:10AFB00003F00DF801230CA88DF86C3001F06EFF42
:10AFC000044638B13348344B4349C01AC008000422
:10AFD000224627E797B1414B3B60414B41487B609C
:10AFE0003A460421FEF7DCFA044638B129482A4BD8
:10AFF0003D49C01AC0080004224613E7F6B140F2EA
:10B0000002233383394BF2691A60394BF361394BB0
:10B0100033622D4B38481A78002A08BF0023736228
:10B0200032460421FDF7A8FD044638B119481A4BF1
:10B030003249C01AC00800042246F3E6304B05939B
:10B0400005A802F0C5F80446D0B92E4F2E4EF61BC7
:10B05000F60880465FFA88F39E425FD82B4B2C4E51
:10B06000039303A8049601F02DFD0446002861D047
:10B070000848094B2749C01AC00800042246D1E6F7
:10B080000448054B2449C01AC00800042246C9E6FA
:10B0900084470020E46804005C6804003126040052
:10B0A000482604007326040098260400B3260400F2
:10B0B0008F1E0400D0260400E84100202B27040046
:10B0C000F326040051AA02008C47002011AC0200B4
:10B0D0003E27040050270400562704000101020205
:10B0E00009AD02007C3900207F270400884700203A
:10B0F000B5AB02002DAA020038390020A3270400B6
:10B10000A1AC0200306A0400386A040025AC0200D9
:10B1100008390020E1270400C727040007EBC30219
:10B1200057F833305068984708F101080446002862
:10B1300090D0C1E6294B2A48069405A905930796A5
:10B14000FFF72DFB044638B12648274B2749C01A84
:10B15000C0080004224665E6254B09932548264B86
:10B16000089308AA04210A96FFF78EF8044638B11E
:10B170001C481D4B2149C01AC0080004224651E654
:10B180000E961F4E1F4B0D930CAA1F4B0C930421C0
:10B190003046FEF7B9F80446B0B92B788DF8343054
:10B1A00033788DF835300CA8184B0C93FDF772FAF4
:10B1B000044600283FF480AE0A480B4B1449C01ADD
:10B1C000C008000422462DE60648074B1149C01A64
:10B1D000C0080004224625E60E246DE621AC0200DC
:10B1E0007C460020E46804005C6804000228040037
:10B1F00029AA02006839002067AD02001C2804005B
:10B200002439002075AA02004DAD020099AA02005F
:10B210007228040047280400014608B5034802F0DC
:10B2200093FE00280CBF0520002008BD81AD020060
:10B230002DE9F041044686B000287DD01622002179
:10B24000684615F05FFA00238DF800302388ADF8CA
:10B25000043023789B070DD5A3788DF807309DF82F
:10B26000023023F0150343F015038DF80230A38854
:10B27000ADF80A3094F9062002F12803DBB27D2BE9
:10B280009CBF9DF802308DF80E2022899CBF43F0B0
:10B2900020038DF802303AB19DF80230ADF810204D
:10B2A00043F040038DF8023094F90A2002F15A036A
:10B2B000DBB2B42B9CBF9DF802308DF81220E27AED
:10B2C0009CBF43F080038DF80230642A9FBF9DF835
:10B2D00003308DF8132043F001038DF80330A28969
:10B2E0003AB19DF80330ADF8142043F002038DF815
:10B2F00003300025114E124F2C4608234FF6FF78DD
:10B300003188414508D0B27832B16A4638467CB9B6
:10B31000FEF708FB234604460135042D06F104061A
:10B32000EED1002B18BF1C46204606B0BDE8F081C8
:10B33000FEF7F8FA0023EFE70E24F5E712470020A6
:10B340007C3900202DE9F341002846D000234288B3
:10B35000CDE9003303788DF801303AB19DF8003023
:10B36000ADF8022043F001038DF8003090F904207D
:10B3700002F12803DBB27D2B9CBF9DF800308DF8D5
:10B380000420C2889CBF43F002038DF800303AB11C
:10B390009DF80030ADF8062043F004038DF800302E
:10B3A00000250F4E0F4F2C464FF6FF783188414550
:10B3B00007D0B3782BB16A4638465CB9FDF7E3FE97
:10B3C00004460135042D06F10A06EFD1204602B0ED
:10B3D000BDE8F081FDF7D7FEF3E70E24F6E700BFE6
:10B3E000B84600203839002042DF704710B5421EB1
:10B3F000FF2012F8013F5840082300F001044008E4
:10B4000014B180F08C00C0B2013B13F0FF03F4D103
:10B41000013989B20029ECD110BD30B58478C378E8
:10B42000A3422AD945780279032D22D8611C04F061
:10B430000704C9B2072C0378817008BF00EBD10163
:10B440004FEA430314BFD9B24979017003F4807302
:10B45000191E02F0010418BF01219C420DBF0135E5
:10B46000002361F3000245701CBF4370027108465F
:10B4700030BDD34303F00103EAE70023C370012189
:10B48000F5E70000014B00221A807047D4470020E6
:10B4900038B50279002363F30002837043700271B0
:10B4A0008B780333DB00C3700B78037043714A78E9
:10B4B0008B7803EB021383710D468A7804460331BF
:10B4C000073015F011F9AD78601DA91CFFF78EFF4C
:10B4D0002C44E07138BD000010B5094C20460AF03C
:10B4E0007DFF38B12268D2F84C355F33DBB2C2F849
:10B4F000443510BD2046BDE810400AF055BF00BFDE
:10B50000C03900201FB51C4C6368013314D01B48A0
:10B510000AF064FF90B119480AF06CFFE368013348
:10B5200010D1164800210AF084FF6268012393407D
:10B530004FF0A042C2F80C3504B010BD0F480AF01D
:10B5400033FFEBE70E4B0F489A1C00921B880193C8
:10B5500000226946CDE9022211F0CEF80028EBD096
:10B56000094A0A4B0A499B1ADB081B04024643F0AE
:10B57000010008F08FFFDFE7AC470020C039002052
:10B58000D4470020B83900205C680400EC6804004F
:10B59000D02804002DE9F043B0F5A07F89B020D178
:10B5A0006F4B5C68611C16D0DB68013313D16D48AA
:10B5B000FFF733FF0123A3404FF0A04270B1C2F860
:10B5C0000835684AD17831B94FF0A0426648C2F8D0
:10B5D00008350AF042FF09B0BDE8F083C2F80C3527
:10B5E000EFE7B0F5A27FF6D14FF0A0435F4CD3F860
:10B5F00010555B4B67789A68032F25FA02F505F022
:10B60000010598462AD823785B0005B10133A2785A
:10B6100002F00701072908BF04EBD201DBB208BF23
:10B620000B718F2A237015D90926E37803F00102E4
:10B63000AA4230D1FF2F04D00137FFB2082F677024
:10B640002ED94B4A002D51D01378072B50D80133F7
:10B650001370C0E70132A2701126E6E7002DFBD07F
:10B66000E378DA07F8D5052FF6D16179A37801F0F0
:10B670000F01CA1CB2EBD30F4FEAD309D4D1023168
:10B68000201DA144FFF7B2FE99F80360864214BF63
:10B690000B260026C9E7002265F300036270E37001
:10B6A000C6B9627923798DF80C30324913090DF14E
:10B6B0000F0002F00F028DF80D308DF80E2015F0FE
:10B6C00013F803AB0293D8F800308DF8046001A89A
:10B6D0009847B6E70B2EB4D10023CDE903330123FD
:10B6E0008DF80C3003A8D8F80030F1E7157072E738
:10B6F000D8F80C3001331B4B0CBFDB781B8813B11F
:10B70000FFF700FF67E7D8F804201748531C1FBF56
:10B71000012393404FF0A042C2F808350AF052FED0
:10B7200011480AF067FE10480AF064FE002319462B
:10B730000D48FF220AF062FE012319460A485F22E3
:10B740000AF05CFE04236370E3780B48002143F0A9
:10B75000010312222170A170E37014F0D3FF3AE7C5
:10B76000AC470020D4470020C0390020BD4700204E
:10B77000BC470020C3470020C14700207FB50546D5
:10B78000002800F0CE800368002B00F0CA80866895
:10B79000741C03D14368013340F0C58095E80F0065
:10B7A000634C013684E80F0002D1013100F0BD8006
:10B7B000FFF71AFE5F4A604960480AF085FD0446BB
:10B7C00068B15F485F4B6049C01AC0080004224658
:10B7D00040F0010008F05EFE204604B070BD5748FE
:10B7E0000AF008FE55482346FF2221460AF006FECD
:10B7F0000123524819465F220AF000FEEB68581CEC
:10B8000022D0FF224FF6FF7101948DF80120ADF890
:10B8100002108DF8062007214FF000728DF80510F8
:10B8200002928DF80030494A4948039423466946FC
:10B8300010F092FE044638B14148424B4549C01AC7
:10B84000C00800042246C3E70AF036FB58B90AF0E4
:10B85000F5FA044638B13A483A4B3F49C01AC00895
:10B8600000042246B4E70323ADF800309DF802300F
:10B870003A4A23F0070343F004038DF80230D5E978
:10B880000130984208BF9DF80230694604BF43F07A
:10B8900001038DF802300AF019FB044638B128483C
:10B8A000284B2F49C01AC0080004224690E7D5E96A
:10B8B000013199424FF0A0421DD101F5E07140F2F3
:10B8C000017342F82130A96801238B40C2F8083582
:10B8D000EA68531C0AD01E4B69681B68C3F8082528
:10B8E0004FF0FF32C3F80C15C3F81025A8680121EA
:10B8F0000AF05EFB70E7591C0AD003F5E07340F2D2
:10B90000037142F82310696801238B40C2F808359F
:10B91000AB684FF0A04203F5E073002142F823101A
:10B92000D6E70E2458E7072456E7002454E700BF63
:10B93000AC47002095B5020068290400C0390020FA
:10B94000EC6804005C680400EB28040085B4020085
:10B95000B83900200829040023290400D9B40200C2
:10B960004129040030B52D4B1A6887B00146002AE2
:10B970004CD05A68013205D19B68013348D1002070
:10B9800007B030BD002845D0DB68254C013310D10D
:10B99000E378002B40D12046FFF77AFD21480AF0DA
:10B9A0001DFD0028EBD11F480AF0FEFCFFF7AAFDA1
:10B9B000E5E7258885BB6846FFF76AFD2388E2181E
:10B9C00095709A1C013314FA83F322809D70FF2531
:10B9D0009DF80330002BE1D02388B3F5AE7FDDD294
:10B9E0006846FFF71AFD2388E21838B195709A1C53
:10B9F000013314FA83F322809D70E9E790709A1C5A
:10BA0000013314FA83F322809870E1E70820B7E746
:10BA10000620B5E70E20B3E70420B1E7AC470020CD
:10BA2000D4470020C039002037B5414B196849B1CF
:10BA300004783CB943685A78042A47D004D892B1B4
:10BA4000012A39D003B030BD0F2AFBD11B78642BFB
:10BA5000F8D1384B1B78002BF4D002238DF8054029
:10BA60008DF804302FE01A786A2A01D06C2A15D19B
:10BA70009978052912D11A795B792F4C1209013274
:10BA8000520053435B0340F6C412B3FBF2F323802E
:10BA90000023A37009F024FA6060D3E702F0FD02EE
:10BAA000242ACFD19A78072ACCD15B7A234C5A0228
:10BAB00064235343FF22E8E71B78642BC2D18DF83F
:10BAC00005408DF8042001A88847BBE71A7812F0DA
:10BAD000FD04B7D198780328B4D1194805781DB171
